{
	"contracts/WineTrace.sol": {
		"WineTracer": {
			"abi": [
				{
					"inputs": [
						{
							"internalType": "string",
							"name": "_grapeType",
							"type": "string"
						},
						{
							"internalType": "string",
							"name": "_harvestYear",
							"type": "string"
						},
						{
							"internalType": "uint256",
							"name": "_quantityKg",
							"type": "uint256"
						},
						{
							"internalType": "address",
							"name": "_creator",
							"type": "address"
						}
					],
					"stateMutability": "nonpayable",
					"type": "constructor"
				},
				{
					"anonymous": false,
					"inputs": [
						{
							"indexed": false,
							"internalType": "string",
							"name": "description",
							"type": "string"
						},
						{
							"indexed": false,
							"internalType": "string",
							"name": "date",
							"type": "string"
						}
					],
					"name": "NewStage",
					"type": "event"
				},
				{
					"inputs": [
						{
							"internalType": "string",
							"name": "_description",
							"type": "string"
						},
						{
							"internalType": "string",
							"name": "_date",
							"type": "string"
						}
					],
					"name": "addStage",
					"outputs": [],
					"stateMutability": "nonpayable",
					"type": "function"
				},
				{
					"inputs": [],
					"name": "grapeType",
					"outputs": [
						{
							"internalType": "string",
							"name": "",
							"type": "string"
						}
					],
					"stateMutability": "view",
					"type": "function"
				},
				{
					"inputs": [],
					"name": "harvestYear",
					"outputs": [
						{
							"internalType": "string",
							"name": "",
							"type": "string"
						}
					],
					"stateMutability": "view",
					"type": "function"
				},
				{
					"inputs": [],
					"name": "owner",
					"outputs": [
						{
							"internalType": "address",
							"name": "",
							"type": "address"
						}
					],
					"stateMutability": "view",
					"type": "function"
				},
				{
					"inputs": [],
					"name": "quantityKg",
					"outputs": [
						{
							"internalType": "uint256",
							"name": "",
							"type": "uint256"
						}
					],
					"stateMutability": "view",
					"type": "function"
				},
				{
					"inputs": [
						{
							"internalType": "uint256",
							"name": "",
							"type": "uint256"
						}
					],
					"name": "stages",
					"outputs": [
						{
							"internalType": "string",
							"name": "description",
							"type": "string"
						},
						{
							"internalType": "string",
							"name": "date",
							"type": "string"
						}
					],
					"stateMutability": "view",
					"type": "function"
				}
			],
			"devdoc": {
				"kind": "dev",
				"methods": {},
				"version": 1
			},
			"evm": {
				"assembly": "    /* \"contracts/WineTrace.sol\":61:992  contract WineTracer {... */\n  mstore(0x40, 0x80)\n    /* \"contracts/WineTrace.sol\":507:792  constructor(... */\n  callvalue\n  dup1\n  iszero\n  tag_1\n  jumpi\n  revert(0x00, 0x00)\ntag_1:\n  pop\n  mload(0x40)\n  sub(codesize, bytecodeSize)\n  dup1\n  bytecodeSize\n  dup4\n  codecopy\n  dup2\n  dup2\n  add\n  0x40\n  mstore\n  dup2\n  add\n  swap1\n  tag_2\n  swap2\n  swap1\n  tag_3\n  jump\t// in\ntag_2:\n    /* \"contracts/WineTrace.sol\":675:685  _grapeType */\n  dup4\n    /* \"contracts/WineTrace.sol\":663:672  grapeType */\n  0x00\n    /* \"contracts/WineTrace.sol\":663:685  grapeType = _grapeType */\n  swap1\n  dup2\n  tag_6\n  swap2\n  swap1\n  tag_7\n  jump\t// in\ntag_6:\n  pop\n    /* \"contracts/WineTrace.sol\":710:722  _harvestYear */\n  dup3\n    /* \"contracts/WineTrace.sol\":696:707  harvestYear */\n  0x01\n    /* \"contracts/WineTrace.sol\":696:722  harvestYear = _harvestYear */\n  swap1\n  dup2\n  tag_8\n  swap2\n  swap1\n  tag_7\n  jump\t// in\ntag_8:\n  pop\n    /* \"contracts/WineTrace.sol\":746:757  _quantityKg */\n  dup2\n    /* \"contracts/WineTrace.sol\":733:743  quantityKg */\n  0x02\n    /* \"contracts/WineTrace.sol\":733:757  quantityKg = _quantityKg */\n  dup2\n  swap1\n  sstore\n  pop\n    /* \"contracts/WineTrace.sol\":776:784  _creator */\n  dup1\n    /* \"contracts/WineTrace.sol\":768:773  owner */\n  0x03\n  0x00\n    /* \"contracts/WineTrace.sol\":768:784  owner = _creator */\n  0x0100\n  exp\n  dup2\n  sload\n  dup2\n  0xffffffffffffffffffffffffffffffffffffffff\n  mul\n  not\n  and\n  swap1\n  dup4\n  0xffffffffffffffffffffffffffffffffffffffff\n  and\n  mul\n  or\n  swap1\n  sstore\n  pop\n    /* \"contracts/WineTrace.sol\":507:792  constructor(... */\n  pop\n  pop\n  pop\n  pop\n    /* \"contracts/WineTrace.sol\":61:992  contract WineTracer {... */\n  jump(tag_9)\n    /* \"#utility.yul\":7:82   */\ntag_10:\n    /* \"#utility.yul\":40:46   */\n  0x00\n    /* \"#utility.yul\":73:75   */\n  0x40\n    /* \"#utility.yul\":67:76   */\n  mload\n    /* \"#utility.yul\":57:76   */\n  swap1\n  pop\n    /* \"#utility.yul\":7:82   */\n  swap1\n  jump\t// out\n    /* \"#utility.yul\":88:205   */\ntag_11:\n    /* \"#utility.yul\":197:198   */\n  0x00\n    /* \"#utility.yul\":194:195   */\n  0x00\n    /* \"#utility.yul\":187:199   */\n  revert\n    /* \"#utility.yul\":211:328   */\ntag_12:\n    /* \"#utility.yul\":320:321   */\n  0x00\n    /* \"#utility.yul\":317:318   */\n  0x00\n    /* \"#utility.yul\":310:322   */\n  revert\n    /* \"#utility.yul\":334:451   */\ntag_13:\n    /* \"#utility.yul\":443:444   */\n  0x00\n    /* \"#utility.yul\":440:441   */\n  0x00\n    /* \"#utility.yul\":433:445   */\n  revert\n    /* \"#utility.yul\":457:574   */\ntag_14:\n    /* \"#utility.yul\":566:567   */\n  0x00\n    /* \"#utility.yul\":563:564   */\n  0x00\n    /* \"#utility.yul\":556:568   */\n  revert\n    /* \"#utility.yul\":580:682   */\ntag_15:\n    /* \"#utility.yul\":621:627   */\n  0x00\n    /* \"#utility.yul\":672:674   */\n  0x1f\n    /* \"#utility.yul\":668:675   */\n  not\n    /* \"#utility.yul\":663:665   */\n  0x1f\n    /* \"#utility.yul\":656:661   */\n  dup4\n    /* \"#utility.yul\":652:666   */\n  add\n    /* \"#utility.yul\":648:676   */\n  and\n    /* \"#utility.yul\":638:676   */\n  swap1\n  pop\n    /* \"#utility.yul\":580:682   */\n  swap2\n  swap1\n  pop\n  jump\t// out\n    /* \"#utility.yul\":688:868   */\ntag_16:\n    /* \"#utility.yul\":736:813   */\n  0x4e487b7100000000000000000000000000000000000000000000000000000000\n    /* \"#utility.yul\":733:734   */\n  0x00\n    /* \"#utility.yul\":726:814   */\n  mstore\n    /* \"#utility.yul\":833:837   */\n  0x41\n    /* \"#utility.yul\":830:831   */\n  0x04\n    /* \"#utility.yul\":823:838   */\n  mstore\n    /* \"#utility.yul\":857:861   */\n  0x24\n    /* \"#utility.yul\":854:855   */\n  0x00\n    /* \"#utility.yul\":847:862   */\n  revert\n    /* \"#utility.yul\":874:1155   */\ntag_17:\n    /* \"#utility.yul\":957:984   */\n  tag_57\n    /* \"#utility.yul\":979:983   */\n  dup3\n    /* \"#utility.yul\":957:984   */\n  tag_15\n  jump\t// in\ntag_57:\n    /* \"#utility.yul\":949:955   */\n  dup2\n    /* \"#utility.yul\":945:985   */\n  add\n    /* \"#utility.yul\":1087:1093   */\n  dup2\n    /* \"#utility.yul\":1075:1085   */\n  dup2\n    /* \"#utility.yul\":1072:1094   */\n  lt\n    /* \"#utility.yul\":1051:1069   */\n  0xffffffffffffffff\n    /* \"#utility.yul\":1039:1049   */\n  dup3\n    /* \"#utility.yul\":1036:1070   */\n  gt\n    /* \"#utility.yul\":1033:1095   */\n  or\n    /* \"#utility.yul\":1030:1118   */\n  iszero\n  tag_58\n  jumpi\n    /* \"#utility.yul\":1098:1116   */\n  tag_59\n  tag_16\n  jump\t// in\ntag_59:\n    /* \"#utility.yul\":1030:1118   */\ntag_58:\n    /* \"#utility.yul\":1138:1148   */\n  dup1\n    /* \"#utility.yul\":1134:1136   */\n  0x40\n    /* \"#utility.yul\":1127:1149   */\n  mstore\n    /* \"#utility.yul\":917:1155   */\n  pop\n    /* \"#utility.yul\":874:1155   */\n  pop\n  pop\n  jump\t// out\n    /* \"#utility.yul\":1161:1290   */\ntag_18:\n    /* \"#utility.yul\":1195:1201   */\n  0x00\n    /* \"#utility.yul\":1222:1242   */\n  tag_61\n  tag_10\n  jump\t// in\ntag_61:\n    /* \"#utility.yul\":1212:1242   */\n  swap1\n  pop\n    /* \"#utility.yul\":1251:1284   */\n  tag_62\n    /* \"#utility.yul\":1279:1283   */\n  dup3\n    /* \"#utility.yul\":1271:1277   */\n  dup3\n    /* \"#utility.yul\":1251:1284   */\n  tag_17\n  jump\t// in\ntag_62:\n    /* \"#utility.yul\":1161:1290   */\n  swap2\n  swap1\n  pop\n  jump\t// out\n    /* \"#utility.yul\":1296:1604   */\ntag_19:\n    /* \"#utility.yul\":1358:1362   */\n  0x00\n    /* \"#utility.yul\":1448:1466   */\n  0xffffffffffffffff\n    /* \"#utility.yul\":1440:1446   */\n  dup3\n    /* \"#utility.yul\":1437:1467   */\n  gt\n    /* \"#utility.yul\":1434:1490   */\n  iszero\n  tag_64\n  jumpi\n    /* \"#utility.yul\":1470:1488   */\n  tag_65\n  tag_16\n  jump\t// in\ntag_65:\n    /* \"#utility.yul\":1434:1490   */\ntag_64:\n    /* \"#utility.yul\":1508:1537   */\n  tag_66\n    /* \"#utility.yul\":1530:1536   */\n  dup3\n    /* \"#utility.yul\":1508:1537   */\n  tag_15\n  jump\t// in\ntag_66:\n    /* \"#utility.yul\":1500:1537   */\n  swap1\n  pop\n    /* \"#utility.yul\":1592:1596   */\n  0x20\n    /* \"#utility.yul\":1586:1590   */\n  dup2\n    /* \"#utility.yul\":1582:1597   */\n  add\n    /* \"#utility.yul\":1574:1597   */\n  swap1\n  pop\n    /* \"#utility.yul\":1296:1604   */\n  swap2\n  swap1\n  pop\n  jump\t// out\n    /* \"#utility.yul\":1610:1749   */\ntag_20:\n    /* \"#utility.yul\":1699:1705   */\n  dup3\n    /* \"#utility.yul\":1694:1697   */\n  dup2\n    /* \"#utility.yul\":1689:1692   */\n  dup4\n    /* \"#utility.yul\":1683:1706   */\n  mcopy\n    /* \"#utility.yul\":1740:1741   */\n  0x00\n    /* \"#utility.yul\":1731:1737   */\n  dup4\n    /* \"#utility.yul\":1726:1729   */\n  dup4\n    /* \"#utility.yul\":1722:1738   */\n  add\n    /* \"#utility.yul\":1715:1742   */\n  mstore\n    /* \"#utility.yul\":1610:1749   */\n  pop\n  pop\n  pop\n  jump\t// out\n    /* \"#utility.yul\":1755:2189   */\ntag_21:\n    /* \"#utility.yul\":1844:1849   */\n  0x00\n    /* \"#utility.yul\":1869:1935   */\n  tag_69\n    /* \"#utility.yul\":1885:1934   */\n  tag_70\n    /* \"#utility.yul\":1927:1933   */\n  dup5\n    /* \"#utility.yul\":1885:1934   */\n  tag_19\n  jump\t// in\ntag_70:\n    /* \"#utility.yul\":1869:1935   */\n  tag_18\n  jump\t// in\ntag_69:\n    /* \"#utility.yul\":1860:1935   */\n  swap1\n  pop\n    /* \"#utility.yul\":1958:1964   */\n  dup3\n    /* \"#utility.yul\":1951:1956   */\n  dup2\n    /* \"#utility.yul\":1944:1965   */\n  mstore\n    /* \"#utility.yul\":1996:2000   */\n  0x20\n    /* \"#utility.yul\":1989:1994   */\n  dup2\n    /* \"#utility.yul\":1985:2001   */\n  add\n    /* \"#utility.yul\":2034:2037   */\n  dup5\n    /* \"#utility.yul\":2025:2031   */\n  dup5\n    /* \"#utility.yul\":2020:2023   */\n  dup5\n    /* \"#utility.yul\":2016:2032   */\n  add\n    /* \"#utility.yul\":2013:2038   */\n  gt\n    /* \"#utility.yul\":2010:2122   */\n  iszero\n  tag_71\n  jumpi\n    /* \"#utility.yul\":2041:2120   */\n  tag_72\n  tag_14\n  jump\t// in\ntag_72:\n    /* \"#utility.yul\":2010:2122   */\ntag_71:\n    /* \"#utility.yul\":2131:2183   */\n  tag_73\n    /* \"#utility.yul\":2176:2182   */\n  dup5\n    /* \"#utility.yul\":2171:2174   */\n  dup3\n    /* \"#utility.yul\":2166:2169   */\n  dup6\n    /* \"#utility.yul\":2131:2183   */\n  tag_20\n  jump\t// in\ntag_73:\n    /* \"#utility.yul\":1850:2189   */\n  pop\n    /* \"#utility.yul\":1755:2189   */\n  swap4\n  swap3\n  pop\n  pop\n  pop\n  jump\t// out\n    /* \"#utility.yul\":2209:2564   */\ntag_22:\n    /* \"#utility.yul\":2276:2281   */\n  0x00\n    /* \"#utility.yul\":2325:2328   */\n  dup3\n    /* \"#utility.yul\":2318:2322   */\n  0x1f\n    /* \"#utility.yul\":2310:2316   */\n  dup4\n    /* \"#utility.yul\":2306:2323   */\n  add\n    /* \"#utility.yul\":2302:2329   */\n  slt\n    /* \"#utility.yul\":2292:2414   */\n  tag_75\n  jumpi\n    /* \"#utility.yul\":2333:2412   */\n  tag_76\n  tag_13\n  jump\t// in\ntag_76:\n    /* \"#utility.yul\":2292:2414   */\ntag_75:\n    /* \"#utility.yul\":2443:2449   */\n  dup2\n    /* \"#utility.yul\":2437:2450   */\n  mload\n    /* \"#utility.yul\":2468:2558   */\n  tag_77\n    /* \"#utility.yul\":2554:2557   */\n  dup5\n    /* \"#utility.yul\":2546:2552   */\n  dup3\n    /* \"#utility.yul\":2539:2543   */\n  0x20\n    /* \"#utility.yul\":2531:2537   */\n  dup7\n    /* \"#utility.yul\":2527:2544   */\n  add\n    /* \"#utility.yul\":2468:2558   */\n  tag_21\n  jump\t// in\ntag_77:\n    /* \"#utility.yul\":2459:2558   */\n  swap2\n  pop\n    /* \"#utility.yul\":2282:2564   */\n  pop\n    /* \"#utility.yul\":2209:2564   */\n  swap3\n  swap2\n  pop\n  pop\n  jump\t// out\n    /* \"#utility.yul\":2570:2647   */\ntag_23:\n    /* \"#utility.yul\":2607:2614   */\n  0x00\n    /* \"#utility.yul\":2636:2641   */\n  dup2\n    /* \"#utility.yul\":2625:2641   */\n  swap1\n  pop\n    /* \"#utility.yul\":2570:2647   */\n  swap2\n  swap1\n  pop\n  jump\t// out\n    /* \"#utility.yul\":2653:2775   */\ntag_24:\n    /* \"#utility.yul\":2726:2750   */\n  tag_80\n    /* \"#utility.yul\":2744:2749   */\n  dup2\n    /* \"#utility.yul\":2726:2750   */\n  tag_23\n  jump\t// in\ntag_80:\n    /* \"#utility.yul\":2719:2724   */\n  dup2\n    /* \"#utility.yul\":2716:2751   */\n  eq\n    /* \"#utility.yul\":2706:2769   */\n  tag_81\n  jumpi\n    /* \"#utility.yul\":2765:2766   */\n  0x00\n    /* \"#utility.yul\":2762:2763   */\n  0x00\n    /* \"#utility.yul\":2755:2767   */\n  revert\n    /* \"#utility.yul\":2706:2769   */\ntag_81:\n    /* \"#utility.yul\":2653:2775   */\n  pop\n  jump\t// out\n    /* \"#utility.yul\":2781:2924   */\ntag_25:\n    /* \"#utility.yul\":2838:2843   */\n  0x00\n    /* \"#utility.yul\":2869:2875   */\n  dup2\n    /* \"#utility.yul\":2863:2876   */\n  mload\n    /* \"#utility.yul\":2854:2876   */\n  swap1\n  pop\n    /* \"#utility.yul\":2885:2918   */\n  tag_83\n    /* \"#utility.yul\":2912:2917   */\n  dup2\n    /* \"#utility.yul\":2885:2918   */\n  tag_24\n  jump\t// in\ntag_83:\n    /* \"#utility.yul\":2781:2924   */\n  swap3\n  swap2\n  pop\n  pop\n  jump\t// out\n    /* \"#utility.yul\":2930:3056   */\ntag_26:\n    /* \"#utility.yul\":2967:2974   */\n  0x00\n    /* \"#utility.yul\":3007:3049   */\n  0xffffffffffffffffffffffffffffffffffffffff\n    /* \"#utility.yul\":3000:3005   */\n  dup3\n    /* \"#utility.yul\":2996:3050   */\n  and\n    /* \"#utility.yul\":2985:3050   */\n  swap1\n  pop\n    /* \"#utility.yul\":2930:3056   */\n  swap2\n  swap1\n  pop\n  jump\t// out\n    /* \"#utility.yul\":3062:3158   */\ntag_27:\n    /* \"#utility.yul\":3099:3106   */\n  0x00\n    /* \"#utility.yul\":3128:3152   */\n  tag_86\n    /* \"#utility.yul\":3146:3151   */\n  dup3\n    /* \"#utility.yul\":3128:3152   */\n  tag_26\n  jump\t// in\ntag_86:\n    /* \"#utility.yul\":3117:3152   */\n  swap1\n  pop\n    /* \"#utility.yul\":3062:3158   */\n  swap2\n  swap1\n  pop\n  jump\t// out\n    /* \"#utility.yul\":3164:3286   */\ntag_28:\n    /* \"#utility.yul\":3237:3261   */\n  tag_88\n    /* \"#utility.yul\":3255:3260   */\n  dup2\n    /* \"#utility.yul\":3237:3261   */\n  tag_27\n  jump\t// in\ntag_88:\n    /* \"#utility.yul\":3230:3235   */\n  dup2\n    /* \"#utility.yul\":3227:3262   */\n  eq\n    /* \"#utility.yul\":3217:3280   */\n  tag_89\n  jumpi\n    /* \"#utility.yul\":3276:3277   */\n  0x00\n    /* \"#utility.yul\":3273:3274   */\n  0x00\n    /* \"#utility.yul\":3266:3278   */\n  revert\n    /* \"#utility.yul\":3217:3280   */\ntag_89:\n    /* \"#utility.yul\":3164:3286   */\n  pop\n  jump\t// out\n    /* \"#utility.yul\":3292:3435   */\ntag_29:\n    /* \"#utility.yul\":3349:3354   */\n  0x00\n    /* \"#utility.yul\":3380:3386   */\n  dup2\n    /* \"#utility.yul\":3374:3387   */\n  mload\n    /* \"#utility.yul\":3365:3387   */\n  swap1\n  pop\n    /* \"#utility.yul\":3396:3429   */\n  tag_91\n    /* \"#utility.yul\":3423:3428   */\n  dup2\n    /* \"#utility.yul\":3396:3429   */\n  tag_28\n  jump\t// in\ntag_91:\n    /* \"#utility.yul\":3292:3435   */\n  swap3\n  swap2\n  pop\n  pop\n  jump\t// out\n    /* \"#utility.yul\":3441:4607   */\ntag_3:\n    /* \"#utility.yul\":3558:3564   */\n  0x00\n    /* \"#utility.yul\":3566:3572   */\n  0x00\n    /* \"#utility.yul\":3574:3580   */\n  0x00\n    /* \"#utility.yul\":3582:3588   */\n  0x00\n    /* \"#utility.yul\":3631:3634   */\n  0x80\n    /* \"#utility.yul\":3619:3628   */\n  dup6\n    /* \"#utility.yul\":3610:3617   */\n  dup8\n    /* \"#utility.yul\":3606:3629   */\n  sub\n    /* \"#utility.yul\":3602:3635   */\n  slt\n    /* \"#utility.yul\":3599:3719   */\n  iszero\n  tag_93\n  jumpi\n    /* \"#utility.yul\":3638:3717   */\n  tag_94\n  tag_11\n  jump\t// in\ntag_94:\n    /* \"#utility.yul\":3599:3719   */\ntag_93:\n    /* \"#utility.yul\":3779:3780   */\n  0x00\n    /* \"#utility.yul\":3768:3777   */\n  dup6\n    /* \"#utility.yul\":3764:3781   */\n  add\n    /* \"#utility.yul\":3758:3782   */\n  mload\n    /* \"#utility.yul\":3809:3827   */\n  0xffffffffffffffff\n    /* \"#utility.yul\":3801:3807   */\n  dup2\n    /* \"#utility.yul\":3798:3828   */\n  gt\n    /* \"#utility.yul\":3795:3912   */\n  iszero\n  tag_95\n  jumpi\n    /* \"#utility.yul\":3831:3910   */\n  tag_96\n  tag_12\n  jump\t// in\ntag_96:\n    /* \"#utility.yul\":3795:3912   */\ntag_95:\n    /* \"#utility.yul\":3936:4010   */\n  tag_97\n    /* \"#utility.yul\":4002:4009   */\n  dup8\n    /* \"#utility.yul\":3993:3999   */\n  dup3\n    /* \"#utility.yul\":3982:3991   */\n  dup9\n    /* \"#utility.yul\":3978:4000   */\n  add\n    /* \"#utility.yul\":3936:4010   */\n  tag_22\n  jump\t// in\ntag_97:\n    /* \"#utility.yul\":3926:4010   */\n  swap5\n  pop\n    /* \"#utility.yul\":3729:4020   */\n  pop\n    /* \"#utility.yul\":4080:4082   */\n  0x20\n    /* \"#utility.yul\":4069:4078   */\n  dup6\n    /* \"#utility.yul\":4065:4083   */\n  add\n    /* \"#utility.yul\":4059:4084   */\n  mload\n    /* \"#utility.yul\":4111:4129   */\n  0xffffffffffffffff\n    /* \"#utility.yul\":4103:4109   */\n  dup2\n    /* \"#utility.yul\":4100:4130   */\n  gt\n    /* \"#utility.yul\":4097:4214   */\n  iszero\n  tag_98\n  jumpi\n    /* \"#utility.yul\":4133:4212   */\n  tag_99\n  tag_12\n  jump\t// in\ntag_99:\n    /* \"#utility.yul\":4097:4214   */\ntag_98:\n    /* \"#utility.yul\":4238:4312   */\n  tag_100\n    /* \"#utility.yul\":4304:4311   */\n  dup8\n    /* \"#utility.yul\":4295:4301   */\n  dup3\n    /* \"#utility.yul\":4284:4293   */\n  dup9\n    /* \"#utility.yul\":4280:4302   */\n  add\n    /* \"#utility.yul\":4238:4312   */\n  tag_22\n  jump\t// in\ntag_100:\n    /* \"#utility.yul\":4228:4312   */\n  swap4\n  pop\n    /* \"#utility.yul\":4030:4322   */\n  pop\n    /* \"#utility.yul\":4361:4363   */\n  0x40\n    /* \"#utility.yul\":4387:4451   */\n  tag_101\n    /* \"#utility.yul\":4443:4450   */\n  dup8\n    /* \"#utility.yul\":4434:4440   */\n  dup3\n    /* \"#utility.yul\":4423:4432   */\n  dup9\n    /* \"#utility.yul\":4419:4441   */\n  add\n    /* \"#utility.yul\":4387:4451   */\n  tag_25\n  jump\t// in\ntag_101:\n    /* \"#utility.yul\":4377:4451   */\n  swap3\n  pop\n    /* \"#utility.yul\":4332:4461   */\n  pop\n    /* \"#utility.yul\":4500:4502   */\n  0x60\n    /* \"#utility.yul\":4526:4590   */\n  tag_102\n    /* \"#utility.yul\":4582:4589   */\n  dup8\n    /* \"#utility.yul\":4573:4579   */\n  dup3\n    /* \"#utility.yul\":4562:4571   */\n  dup9\n    /* \"#utility.yul\":4558:4580   */\n  add\n    /* \"#utility.yul\":4526:4590   */\n  tag_29\n  jump\t// in\ntag_102:\n    /* \"#utility.yul\":4516:4590   */\n  swap2\n  pop\n    /* \"#utility.yul\":4471:4600   */\n  pop\n    /* \"#utility.yul\":3441:4607   */\n  swap3\n  swap6\n  swap2\n  swap5\n  pop\n  swap3\n  pop\n  jump\t// out\n    /* \"#utility.yul\":4613:4712   */\ntag_30:\n    /* \"#utility.yul\":4665:4671   */\n  0x00\n    /* \"#utility.yul\":4699:4704   */\n  dup2\n    /* \"#utility.yul\":4693:4705   */\n  mload\n    /* \"#utility.yul\":4683:4705   */\n  swap1\n  pop\n    /* \"#utility.yul\":4613:4712   */\n  swap2\n  swap1\n  pop\n  jump\t// out\n    /* \"#utility.yul\":4718:4898   */\ntag_31:\n    /* \"#utility.yul\":4766:4843   */\n  0x4e487b7100000000000000000000000000000000000000000000000000000000\n    /* \"#utility.yul\":4763:4764   */\n  0x00\n    /* \"#utility.yul\":4756:4844   */\n  mstore\n    /* \"#utility.yul\":4863:4867   */\n  0x22\n    /* \"#utility.yul\":4860:4861   */\n  0x04\n    /* \"#utility.yul\":4853:4868   */\n  mstore\n    /* \"#utility.yul\":4887:4891   */\n  0x24\n    /* \"#utility.yul\":4884:4885   */\n  0x00\n    /* \"#utility.yul\":4877:4892   */\n  revert\n    /* \"#utility.yul\":4904:5224   */\ntag_32:\n    /* \"#utility.yul\":4948:4954   */\n  0x00\n    /* \"#utility.yul\":4985:4986   */\n  0x02\n    /* \"#utility.yul\":4979:4983   */\n  dup3\n    /* \"#utility.yul\":4975:4987   */\n  div\n    /* \"#utility.yul\":4965:4987   */\n  swap1\n  pop\n    /* \"#utility.yul\":5032:5033   */\n  0x01\n    /* \"#utility.yul\":5026:5030   */\n  dup3\n    /* \"#utility.yul\":5022:5034   */\n  and\n    /* \"#utility.yul\":5053:5071   */\n  dup1\n    /* \"#utility.yul\":5043:5124   */\n  tag_106\n  jumpi\n    /* \"#utility.yul\":5109:5113   */\n  0x7f\n    /* \"#utility.yul\":5101:5107   */\n  dup3\n    /* \"#utility.yul\":5097:5114   */\n  and\n    /* \"#utility.yul\":5087:5114   */\n  swap2\n  pop\n    /* \"#utility.yul\":5043:5124   */\ntag_106:\n    /* \"#utility.yul\":5171:5173   */\n  0x20\n    /* \"#utility.yul\":5163:5169   */\n  dup3\n    /* \"#utility.yul\":5160:5174   */\n  lt\n    /* \"#utility.yul\":5140:5158   */\n  dup2\n    /* \"#utility.yul\":5137:5175   */\n  sub\n    /* \"#utility.yul\":5134:5218   */\n  tag_107\n  jumpi\n    /* \"#utility.yul\":5190:5208   */\n  tag_108\n  tag_31\n  jump\t// in\ntag_108:\n    /* \"#utility.yul\":5134:5218   */\ntag_107:\n    /* \"#utility.yul\":4955:5224   */\n  pop\n    /* \"#utility.yul\":4904:5224   */\n  swap2\n  swap1\n  pop\n  jump\t// out\n    /* \"#utility.yul\":5230:5371   */\ntag_33:\n    /* \"#utility.yul\":5279:5283   */\n  0x00\n    /* \"#utility.yul\":5302:5305   */\n  dup2\n    /* \"#utility.yul\":5294:5305   */\n  swap1\n  pop\n    /* \"#utility.yul\":5325:5328   */\n  dup2\n    /* \"#utility.yul\":5322:5323   */\n  0x00\n    /* \"#utility.yul\":5315:5329   */\n  mstore\n    /* \"#utility.yul\":5359:5363   */\n  0x20\n    /* \"#utility.yul\":5356:5357   */\n  0x00\n    /* \"#utility.yul\":5346:5364   */\n  keccak256\n    /* \"#utility.yul\":5338:5364   */\n  swap1\n  pop\n    /* \"#utility.yul\":5230:5371   */\n  swap2\n  swap1\n  pop\n  jump\t// out\n    /* \"#utility.yul\":5377:5470   */\ntag_34:\n    /* \"#utility.yul\":5414:5420   */\n  0x00\n    /* \"#utility.yul\":5461:5463   */\n  0x20\n    /* \"#utility.yul\":5456:5458   */\n  0x1f\n    /* \"#utility.yul\":5449:5454   */\n  dup4\n    /* \"#utility.yul\":5445:5459   */\n  add\n    /* \"#utility.yul\":5441:5464   */\n  div\n    /* \"#utility.yul\":5431:5464   */\n  swap1\n  pop\n    /* \"#utility.yul\":5377:5470   */\n  swap2\n  swap1\n  pop\n  jump\t// out\n    /* \"#utility.yul\":5476:5583   */\ntag_35:\n    /* \"#utility.yul\":5520:5528   */\n  0x00\n    /* \"#utility.yul\":5570:5575   */\n  dup3\n    /* \"#utility.yul\":5564:5568   */\n  dup3\n    /* \"#utility.yul\":5560:5576   */\n  shl\n    /* \"#utility.yul\":5539:5576   */\n  swap1\n  pop\n    /* \"#utility.yul\":5476:5583   */\n  swap3\n  swap2\n  pop\n  pop\n  jump\t// out\n    /* \"#utility.yul\":5589:5982   */\ntag_36:\n    /* \"#utility.yul\":5658:5664   */\n  0x00\n    /* \"#utility.yul\":5708:5709   */\n  0x08\n    /* \"#utility.yul\":5696:5706   */\n  dup4\n    /* \"#utility.yul\":5692:5710   */\n  mul\n    /* \"#utility.yul\":5731:5828   */\n  tag_113\n    /* \"#utility.yul\":5761:5827   */\n  0xffffffffffffffffffffffffffffffffffffffffffffffffffffffffffffffff\n    /* \"#utility.yul\":5750:5759   */\n  dup3\n    /* \"#utility.yul\":5731:5828   */\n  tag_35\n  jump\t// in\ntag_113:\n    /* \"#utility.yul\":5849:5888   */\n  tag_114\n    /* \"#utility.yul\":5879:5887   */\n  dup7\n    /* \"#utility.yul\":5868:5877   */\n  dup4\n    /* \"#utility.yul\":5849:5888   */\n  tag_35\n  jump\t// in\ntag_114:\n    /* \"#utility.yul\":5837:5888   */\n  swap6\n  pop\n    /* \"#utility.yul\":5921:5925   */\n  dup1\n    /* \"#utility.yul\":5917:5926   */\n  not\n    /* \"#utility.yul\":5910:5915   */\n  dup5\n    /* \"#utility.yul\":5906:5927   */\n  and\n    /* \"#utility.yul\":5897:5927   */\n  swap4\n  pop\n    /* \"#utility.yul\":5970:5974   */\n  dup1\n    /* \"#utility.yul\":5960:5968   */\n  dup7\n    /* \"#utility.yul\":5956:5975   */\n  and\n    /* \"#utility.yul\":5949:5954   */\n  dup5\n    /* \"#utility.yul\":5946:5976   */\n  or\n    /* \"#utility.yul\":5936:5976   */\n  swap3\n  pop\n    /* \"#utility.yul\":5665:5982   */\n  pop\n  pop\n    /* \"#utility.yul\":5589:5982   */\n  swap4\n  swap3\n  pop\n  pop\n  pop\n  jump\t// out\n    /* \"#utility.yul\":5988:6048   */\ntag_37:\n    /* \"#utility.yul\":6016:6019   */\n  0x00\n    /* \"#utility.yul\":6037:6042   */\n  dup2\n    /* \"#utility.yul\":6030:6042   */\n  swap1\n  pop\n    /* \"#utility.yul\":5988:6048   */\n  swap2\n  swap1\n  pop\n  jump\t// out\n    /* \"#utility.yul\":6054:6196   */\ntag_38:\n    /* \"#utility.yul\":6104:6113   */\n  0x00\n    /* \"#utility.yul\":6137:6190   */\n  tag_117\n    /* \"#utility.yul\":6155:6189   */\n  tag_118\n    /* \"#utility.yul\":6164:6188   */\n  tag_119\n    /* \"#utility.yul\":6182:6187   */\n  dup5\n    /* \"#utility.yul\":6164:6188   */\n  tag_23\n  jump\t// in\ntag_119:\n    /* \"#utility.yul\":6155:6189   */\n  tag_37\n  jump\t// in\ntag_118:\n    /* \"#utility.yul\":6137:6190   */\n  tag_23\n  jump\t// in\ntag_117:\n    /* \"#utility.yul\":6124:6190   */\n  swap1\n  pop\n    /* \"#utility.yul\":6054:6196   */\n  swap2\n  swap1\n  pop\n  jump\t// out\n    /* \"#utility.yul\":6202:6277   */\ntag_39:\n    /* \"#utility.yul\":6245:6248   */\n  0x00\n    /* \"#utility.yul\":6266:6271   */\n  dup2\n    /* \"#utility.yul\":6259:6271   */\n  swap1\n  pop\n    /* \"#utility.yul\":6202:6277   */\n  swap2\n  swap1\n  pop\n  jump\t// out\n    /* \"#utility.yul\":6283:6552   */\ntag_40:\n    /* \"#utility.yul\":6393:6432   */\n  tag_122\n    /* \"#utility.yul\":6424:6431   */\n  dup4\n    /* \"#utility.yul\":6393:6432   */\n  tag_38\n  jump\t// in\ntag_122:\n    /* \"#utility.yul\":6454:6545   */\n  tag_123\n    /* \"#utility.yul\":6503:6544   */\n  tag_124\n    /* \"#utility.yul\":6527:6543   */\n  dup3\n    /* \"#utility.yul\":6503:6544   */\n  tag_39\n  jump\t// in\ntag_124:\n    /* \"#utility.yul\":6495:6501   */\n  dup5\n    /* \"#utility.yul\":6488:6492   */\n  dup5\n    /* \"#utility.yul\":6482:6493   */\n  sload\n    /* \"#utility.yul\":6454:6545   */\n  tag_36\n  jump\t// in\ntag_123:\n    /* \"#utility.yul\":6448:6452   */\n  dup3\n    /* \"#utility.yul\":6441:6546   */\n  sstore\n    /* \"#utility.yul\":6359:6552   */\n  pop\n    /* \"#utility.yul\":6283:6552   */\n  pop\n  pop\n  pop\n  jump\t// out\n    /* \"#utility.yul\":6558:6631   */\ntag_41:\n    /* \"#utility.yul\":6603:6606   */\n  0x00\n    /* \"#utility.yul\":6624:6625   */\n  0x00\n    /* \"#utility.yul\":6617:6625   */\n  swap1\n  pop\n    /* \"#utility.yul\":6558:6631   */\n  swap1\n  jump\t// out\n    /* \"#utility.yul\":6637:6826   */\ntag_42:\n    /* \"#utility.yul\":6714:6746   */\n  tag_127\n  tag_41\n  jump\t// in\ntag_127:\n    /* \"#utility.yul\":6755:6820   */\n  tag_128\n    /* \"#utility.yul\":6813:6819   */\n  dup2\n    /* \"#utility.yul\":6805:6811   */\n  dup5\n    /* \"#utility.yul\":6799:6803   */\n  dup5\n    /* \"#utility.yul\":6755:6820   */\n  tag_40\n  jump\t// in\ntag_128:\n    /* \"#utility.yul\":6690:6826   */\n  pop\n    /* \"#utility.yul\":6637:6826   */\n  pop\n  pop\n  jump\t// out\n    /* \"#utility.yul\":6832:7018   */\ntag_43:\n    /* \"#utility.yul\":6892:7012   */\ntag_130:\n    /* \"#utility.yul\":6909:6912   */\n  dup2\n    /* \"#utility.yul\":6902:6907   */\n  dup2\n    /* \"#utility.yul\":6899:6913   */\n  lt\n    /* \"#utility.yul\":6892:7012   */\n  iszero\n  tag_132\n  jumpi\n    /* \"#utility.yul\":6963:7002   */\n  tag_133\n    /* \"#utility.yul\":7000:7001   */\n  0x00\n    /* \"#utility.yul\":6993:6998   */\n  dup3\n    /* \"#utility.yul\":6963:7002   */\n  tag_42\n  jump\t// in\ntag_133:\n    /* \"#utility.yul\":6936:6937   */\n  0x01\n    /* \"#utility.yul\":6929:6934   */\n  dup2\n    /* \"#utility.yul\":6925:6938   */\n  add\n    /* \"#utility.yul\":6916:6938   */\n  swap1\n  pop\n    /* \"#utility.yul\":6892:7012   */\n  jump(tag_130)\ntag_132:\n    /* \"#utility.yul\":6832:7018   */\n  pop\n  pop\n  jump\t// out\n    /* \"#utility.yul\":7024:7567   */\ntag_44:\n    /* \"#utility.yul\":7125:7127   */\n  0x1f\n    /* \"#utility.yul\":7120:7123   */\n  dup3\n    /* \"#utility.yul\":7117:7128   */\n  gt\n    /* \"#utility.yul\":7114:7560   */\n  iszero\n  tag_135\n  jumpi\n    /* \"#utility.yul\":7159:7197   */\n  tag_136\n    /* \"#utility.yul\":7191:7196   */\n  dup2\n    /* \"#utility.yul\":7159:7197   */\n  tag_33\n  jump\t// in\ntag_136:\n    /* \"#utility.yul\":7243:7272   */\n  tag_137\n    /* \"#utility.yul\":7261:7271   */\n  dup5\n    /* \"#utility.yul\":7243:7272   */\n  tag_34\n  jump\t// in\ntag_137:\n    /* \"#utility.yul\":7233:7241   */\n  dup2\n    /* \"#utility.yul\":7229:7273   */\n  add\n    /* \"#utility.yul\":7426:7428   */\n  0x20\n    /* \"#utility.yul\":7414:7424   */\n  dup6\n    /* \"#utility.yul\":7411:7429   */\n  lt\n    /* \"#utility.yul\":7408:7457   */\n  iszero\n  tag_138\n  jumpi\n    /* \"#utility.yul\":7447:7455   */\n  dup2\n    /* \"#utility.yul\":7432:7455   */\n  swap1\n  pop\n    /* \"#utility.yul\":7408:7457   */\ntag_138:\n    /* \"#utility.yul\":7470:7550   */\n  tag_139\n    /* \"#utility.yul\":7526:7548   */\n  tag_140\n    /* \"#utility.yul\":7544:7547   */\n  dup6\n    /* \"#utility.yul\":7526:7548   */\n  tag_34\n  jump\t// in\ntag_140:\n    /* \"#utility.yul\":7516:7524   */\n  dup4\n    /* \"#utility.yul\":7512:7549   */\n  add\n    /* \"#utility.yul\":7499:7510   */\n  dup3\n    /* \"#utility.yul\":7470:7550   */\n  tag_43\n  jump\t// in\ntag_139:\n    /* \"#utility.yul\":7129:7560   */\n  pop\n  pop\n    /* \"#utility.yul\":7114:7560   */\ntag_135:\n    /* \"#utility.yul\":7024:7567   */\n  pop\n  pop\n  pop\n  jump\t// out\n    /* \"#utility.yul\":7573:7690   */\ntag_45:\n    /* \"#utility.yul\":7627:7635   */\n  0x00\n    /* \"#utility.yul\":7677:7682   */\n  dup3\n    /* \"#utility.yul\":7671:7675   */\n  dup3\n    /* \"#utility.yul\":7667:7683   */\n  shr\n    /* \"#utility.yul\":7646:7683   */\n  swap1\n  pop\n    /* \"#utility.yul\":7573:7690   */\n  swap3\n  swap2\n  pop\n  pop\n  jump\t// out\n    /* \"#utility.yul\":7696:7865   */\ntag_46:\n    /* \"#utility.yul\":7740:7746   */\n  0x00\n    /* \"#utility.yul\":7773:7824   */\n  tag_143\n    /* \"#utility.yul\":7821:7822   */\n  0x00\n    /* \"#utility.yul\":7817:7823   */\n  not\n    /* \"#utility.yul\":7809:7814   */\n  dup5\n    /* \"#utility.yul\":7806:7807   */\n  0x08\n    /* \"#utility.yul\":7802:7815   */\n  mul\n    /* \"#utility.yul\":7773:7824   */\n  tag_45\n  jump\t// in\ntag_143:\n    /* \"#utility.yul\":7769:7825   */\n  not\n    /* \"#utility.yul\":7854:7858   */\n  dup1\n    /* \"#utility.yul\":7848:7852   */\n  dup4\n    /* \"#utility.yul\":7844:7859   */\n  and\n    /* \"#utility.yul\":7834:7859   */\n  swap2\n  pop\n    /* \"#utility.yul\":7747:7865   */\n  pop\n    /* \"#utility.yul\":7696:7865   */\n  swap3\n  swap2\n  pop\n  pop\n  jump\t// out\n    /* \"#utility.yul\":7870:8165   */\ntag_47:\n    /* \"#utility.yul\":7946:7950   */\n  0x00\n    /* \"#utility.yul\":8092:8121   */\n  tag_145\n    /* \"#utility.yul\":8117:8120   */\n  dup4\n    /* \"#utility.yul\":8111:8115   */\n  dup4\n    /* \"#utility.yul\":8092:8121   */\n  tag_46\n  jump\t// in\ntag_145:\n    /* \"#utility.yul\":8084:8121   */\n  swap2\n  pop\n    /* \"#utility.yul\":8154:8157   */\n  dup3\n    /* \"#utility.yul\":8151:8152   */\n  0x02\n    /* \"#utility.yul\":8147:8158   */\n  mul\n    /* \"#utility.yul\":8141:8145   */\n  dup3\n    /* \"#utility.yul\":8138:8159   */\n  or\n    /* \"#utility.yul\":8130:8159   */\n  swap1\n  pop\n    /* \"#utility.yul\":7870:8165   */\n  swap3\n  swap2\n  pop\n  pop\n  jump\t// out\n    /* \"#utility.yul\":8170:9565   */\ntag_7:\n    /* \"#utility.yul\":8287:8324   */\n  tag_147\n    /* \"#utility.yul\":8320:8323   */\n  dup3\n    /* \"#utility.yul\":8287:8324   */\n  tag_30\n  jump\t// in\ntag_147:\n    /* \"#utility.yul\":8389:8407   */\n  0xffffffffffffffff\n    /* \"#utility.yul\":8381:8387   */\n  dup2\n    /* \"#utility.yul\":8378:8408   */\n  gt\n    /* \"#utility.yul\":8375:8431   */\n  iszero\n  tag_148\n  jumpi\n    /* \"#utility.yul\":8411:8429   */\n  tag_149\n  tag_16\n  jump\t// in\ntag_149:\n    /* \"#utility.yul\":8375:8431   */\ntag_148:\n    /* \"#utility.yul\":8455:8493   */\n  tag_150\n    /* \"#utility.yul\":8487:8491   */\n  dup3\n    /* \"#utility.yul\":8481:8492   */\n  sload\n    /* \"#utility.yul\":8455:8493   */\n  tag_32\n  jump\t// in\ntag_150:\n    /* \"#utility.yul\":8540:8607   */\n  tag_151\n    /* \"#utility.yul\":8600:8606   */\n  dup3\n    /* \"#utility.yul\":8592:8598   */\n  dup3\n    /* \"#utility.yul\":8586:8590   */\n  dup6\n    /* \"#utility.yul\":8540:8607   */\n  tag_44\n  jump\t// in\ntag_151:\n    /* \"#utility.yul\":8634:8635   */\n  0x00\n    /* \"#utility.yul\":8658:8662   */\n  0x20\n    /* \"#utility.yul\":8645:8662   */\n  swap1\n  pop\n    /* \"#utility.yul\":8690:8692   */\n  0x1f\n    /* \"#utility.yul\":8682:8688   */\n  dup4\n    /* \"#utility.yul\":8679:8693   */\n  gt\n    /* \"#utility.yul\":8707:8708   */\n  0x01\n    /* \"#utility.yul\":8702:9320   */\n  dup2\n  eq\n  tag_153\n  jumpi\n    /* \"#utility.yul\":9364:9365   */\n  0x00\n    /* \"#utility.yul\":9381:9387   */\n  dup5\n    /* \"#utility.yul\":9378:9455   */\n  iszero\n  tag_154\n  jumpi\n    /* \"#utility.yul\":9430:9439   */\n  dup3\n    /* \"#utility.yul\":9425:9428   */\n  dup8\n    /* \"#utility.yul\":9421:9440   */\n  add\n    /* \"#utility.yul\":9415:9441   */\n  mload\n    /* \"#utility.yul\":9406:9441   */\n  swap1\n  pop\n    /* \"#utility.yul\":9378:9455   */\ntag_154:\n    /* \"#utility.yul\":9481:9548   */\n  tag_155\n    /* \"#utility.yul\":9541:9547   */\n  dup6\n    /* \"#utility.yul\":9534:9539   */\n  dup3\n    /* \"#utility.yul\":9481:9548   */\n  tag_47\n  jump\t// in\ntag_155:\n    /* \"#utility.yul\":9475:9479   */\n  dup7\n    /* \"#utility.yul\":9468:9549   */\n  sstore\n    /* \"#utility.yul\":9337:9559   */\n  pop\n    /* \"#utility.yul\":8672:9559   */\n  jump(tag_152)\n    /* \"#utility.yul\":8702:9320   */\ntag_153:\n    /* \"#utility.yul\":8754:8758   */\n  0x1f\n    /* \"#utility.yul\":8750:8759   */\n  not\n    /* \"#utility.yul\":8742:8748   */\n  dup5\n    /* \"#utility.yul\":8738:8760   */\n  and\n    /* \"#utility.yul\":8788:8825   */\n  tag_156\n    /* \"#utility.yul\":8820:8824   */\n  dup7\n    /* \"#utility.yul\":8788:8825   */\n  tag_33\n  jump\t// in\ntag_156:\n    /* \"#utility.yul\":8847:8848   */\n  0x00\n    /* \"#utility.yul\":8861:9069   */\ntag_157:\n    /* \"#utility.yul\":8875:8882   */\n  dup3\n    /* \"#utility.yul\":8872:8873   */\n  dup2\n    /* \"#utility.yul\":8869:8883   */\n  lt\n    /* \"#utility.yul\":8861:9069   */\n  iszero\n  tag_159\n  jumpi\n    /* \"#utility.yul\":8954:8963   */\n  dup5\n    /* \"#utility.yul\":8949:8952   */\n  dup10\n    /* \"#utility.yul\":8945:8964   */\n  add\n    /* \"#utility.yul\":8939:8965   */\n  mload\n    /* \"#utility.yul\":8931:8937   */\n  dup3\n    /* \"#utility.yul\":8924:8966   */\n  sstore\n    /* \"#utility.yul\":9005:9006   */\n  0x01\n    /* \"#utility.yul\":8997:9003   */\n  dup3\n    /* \"#utility.yul\":8993:9007   */\n  add\n    /* \"#utility.yul\":8983:9007   */\n  swap2\n  pop\n    /* \"#utility.yul\":9052:9054   */\n  0x20\n    /* \"#utility.yul\":9041:9050   */\n  dup6\n    /* \"#utility.yul\":9037:9055   */\n  add\n    /* \"#utility.yul\":9024:9055   */\n  swap5\n  pop\n    /* \"#utility.yul\":8898:8902   */\n  0x20\n    /* \"#utility.yul\":8895:8896   */\n  dup2\n    /* \"#utility.yul\":8891:8903   */\n  add\n    /* \"#utility.yul\":8886:8903   */\n  swap1\n  pop\n    /* \"#utility.yul\":8861:9069   */\n  jump(tag_157)\ntag_159:\n    /* \"#utility.yul\":9097:9103   */\n  dup7\n    /* \"#utility.yul\":9088:9095   */\n  dup4\n    /* \"#utility.yul\":9085:9104   */\n  lt\n    /* \"#utility.yul\":9082:9261   */\n  iszero\n  tag_160\n  jumpi\n    /* \"#utility.yul\":9155:9164   */\n  dup5\n    /* \"#utility.yul\":9150:9153   */\n  dup10\n    /* \"#utility.yul\":9146:9165   */\n  add\n    /* \"#utility.yul\":9140:9166   */\n  mload\n    /* \"#utility.yul\":9198:9246   */\n  tag_161\n    /* \"#utility.yul\":9240:9244   */\n  0x1f\n    /* \"#utility.yul\":9232:9238   */\n  dup10\n    /* \"#utility.yul\":9228:9245   */\n  and\n    /* \"#utility.yul\":9217:9226   */\n  dup3\n    /* \"#utility.yul\":9198:9246   */\n  tag_46\n  jump\t// in\ntag_161:\n    /* \"#utility.yul\":9190:9196   */\n  dup4\n    /* \"#utility.yul\":9183:9247   */\n  sstore\n    /* \"#utility.yul\":9105:9261   */\n  pop\n    /* \"#utility.yul\":9082:9261   */\ntag_160:\n    /* \"#utility.yul\":9307:9308   */\n  0x01\n    /* \"#utility.yul\":9303:9304   */\n  0x02\n    /* \"#utility.yul\":9295:9301   */\n  dup9\n    /* \"#utility.yul\":9291:9305   */\n  mul\n    /* \"#utility.yul\":9287:9309   */\n  add\n    /* \"#utility.yul\":9281:9285   */\n  dup9\n    /* \"#utility.yul\":9274:9310   */\n  sstore\n    /* \"#utility.yul\":8709:9320   */\n  pop\n  pop\n  pop\n    /* \"#utility.yul\":8672:9559   */\ntag_152:\n  pop\n    /* \"#utility.yul\":8262:9565   */\n  pop\n  pop\n  pop\n    /* \"#utility.yul\":8170:9565   */\n  pop\n  pop\n  jump\t// out\n    /* \"contracts/WineTrace.sol\":61:992  contract WineTracer {... */\ntag_9:\n  dataSize(sub_0)\n  dup1\n  dataOffset(sub_0)\n  0x00\n  codecopy\n  0x00\n  return\nstop\n\nsub_0: assembly {\n        /* \"contracts/WineTrace.sol\":61:992  contract WineTracer {... */\n      mstore(0x40, 0x80)\n      callvalue\n      dup1\n      iszero\n      tag_1\n      jumpi\n      revert(0x00, 0x00)\n    tag_1:\n      pop\n      jumpi(tag_2, lt(calldatasize, 0x04))\n      shr(0xe0, calldataload(0x00))\n      dup1\n      0x667b6e61\n      eq\n      tag_3\n      jumpi\n      dup1\n      0x845ddcb2\n      eq\n      tag_4\n      jumpi\n      dup1\n      0x8da5cb5b\n      eq\n      tag_5\n      jumpi\n      dup1\n      0x94a76b21\n      eq\n      tag_6\n      jumpi\n      dup1\n      0xdb3cb581\n      eq\n      tag_7\n      jumpi\n      dup1\n      0xe2b3f6d8\n      eq\n      tag_8\n      jumpi\n    tag_2:\n      revert(0x00, 0x00)\n        /* \"contracts/WineTrace.sol\":230:252  uint public quantityKg */\n    tag_3:\n      tag_9\n      tag_10\n      jump\t// in\n    tag_9:\n      mload(0x40)\n      tag_11\n      swap2\n      swap1\n      tag_12\n      jump\t// in\n    tag_11:\n      mload(0x40)\n      dup1\n      swap2\n      sub\n      swap1\n      return\n        /* \"contracts/WineTrace.sol\":288:309  Stage[] public stages */\n    tag_4:\n      tag_13\n      0x04\n      dup1\n      calldatasize\n      sub\n      dup2\n      add\n      swap1\n      tag_14\n      swap2\n      swap1\n      tag_15\n      jump\t// in\n    tag_14:\n      tag_16\n      jump\t// in\n    tag_13:\n      mload(0x40)\n      tag_17\n      swap3\n      swap2\n      swap1\n      tag_18\n      jump\t// in\n    tag_17:\n      mload(0x40)\n      dup1\n      swap2\n      sub\n      swap1\n      return\n        /* \"contracts/WineTrace.sol\":259:279  address public owner */\n    tag_5:\n      tag_19\n      tag_20\n      jump\t// in\n    tag_19:\n      mload(0x40)\n      tag_21\n      swap2\n      swap1\n      tag_22\n      jump\t// in\n    tag_21:\n      mload(0x40)\n      dup1\n      swap2\n      sub\n      swap1\n      return\n        /* \"contracts/WineTrace.sol\":800:989  function addStage(string memory _description, string memory _date) external onlyOwner {... */\n    tag_6:\n      tag_23\n      0x04\n      dup1\n      calldatasize\n      sub\n      dup2\n      add\n      swap1\n      tag_24\n      swap2\n      swap1\n      tag_25\n      jump\t// in\n    tag_24:\n      tag_26\n      jump\t// in\n    tag_23:\n      stop\n        /* \"contracts/WineTrace.sol\":168:191  string public grapeType */\n    tag_7:\n      tag_27\n      tag_28\n      jump\t// in\n    tag_27:\n      mload(0x40)\n      tag_29\n      swap2\n      swap1\n      tag_30\n      jump\t// in\n    tag_29:\n      mload(0x40)\n      dup1\n      swap2\n      sub\n      swap1\n      return\n        /* \"contracts/WineTrace.sol\":198:223  string public harvestYear */\n    tag_8:\n      tag_31\n      tag_32\n      jump\t// in\n    tag_31:\n      mload(0x40)\n      tag_33\n      swap2\n      swap1\n      tag_30\n      jump\t// in\n    tag_33:\n      mload(0x40)\n      dup1\n      swap2\n      sub\n      swap1\n      return\n        /* \"contracts/WineTrace.sol\":230:252  uint public quantityKg */\n    tag_10:\n      sload(0x02)\n      dup2\n      jump\t// out\n        /* \"contracts/WineTrace.sol\":288:309  Stage[] public stages */\n    tag_16:\n      0x04\n      dup2\n      dup2\n      sload\n      dup2\n      lt\n      tag_34\n      jumpi\n      0x00\n      dup1\n      revert\n    tag_34:\n      swap1\n      0x00\n      mstore\n      keccak256(0x00, 0x20)\n      swap1\n      0x02\n      mul\n      add\n      0x00\n      swap2\n      pop\n      swap1\n      pop\n      dup1\n      0x00\n      add\n      dup1\n      sload\n      tag_36\n      swap1\n      tag_37\n      jump\t// in\n    tag_36:\n      dup1\n      0x1f\n      add\n      0x20\n      dup1\n      swap2\n      div\n      mul\n      0x20\n      add\n      mload(0x40)\n      swap1\n      dup2\n      add\n      0x40\n      mstore\n      dup1\n      swap3\n      swap2\n      swap1\n      dup2\n      dup2\n      mstore\n      0x20\n      add\n      dup3\n      dup1\n      sload\n      tag_38\n      swap1\n      tag_37\n      jump\t// in\n    tag_38:\n      dup1\n      iszero\n      tag_39\n      jumpi\n      dup1\n      0x1f\n      lt\n      tag_40\n      jumpi\n      0x0100\n      dup1\n      dup4\n      sload\n      div\n      mul\n      dup4\n      mstore\n      swap2\n      0x20\n      add\n      swap2\n      jump(tag_39)\n    tag_40:\n      dup3\n      add\n      swap2\n      swap1\n      0x00\n      mstore\n      keccak256(0x00, 0x20)\n      swap1\n    tag_41:\n      dup2\n      sload\n      dup2\n      mstore\n      swap1\n      0x01\n      add\n      swap1\n      0x20\n      add\n      dup1\n      dup4\n      gt\n      tag_41\n      jumpi\n      dup3\n      swap1\n      sub\n      0x1f\n      and\n      dup3\n      add\n      swap2\n    tag_39:\n      pop\n      pop\n      pop\n      pop\n      pop\n      swap1\n      dup1\n      0x01\n      add\n      dup1\n      sload\n      tag_42\n      swap1\n      tag_37\n      jump\t// in\n    tag_42:\n      dup1\n      0x1f\n      add\n      0x20\n      dup1\n      swap2\n      div\n      mul\n      0x20\n      add\n      mload(0x40)\n      swap1\n      dup2\n      add\n      0x40\n      mstore\n      dup1\n      swap3\n      swap2\n      swap1\n      dup2\n      dup2\n      mstore\n      0x20\n      add\n      dup3\n      dup1\n      sload\n      tag_43\n      swap1\n      tag_37\n      jump\t// in\n    tag_43:\n      dup1\n      iszero\n      tag_44\n      jumpi\n      dup1\n      0x1f\n      lt\n      tag_45\n      jumpi\n      0x0100\n      dup1\n      dup4\n      sload\n      div\n      mul\n      dup4\n      mstore\n      swap2\n      0x20\n      add\n      swap2\n      jump(tag_44)\n    tag_45:\n      dup3\n      add\n      swap2\n      swap1\n      0x00\n      mstore\n      keccak256(0x00, 0x20)\n      swap1\n    tag_46:\n      dup2\n      sload\n      dup2\n      mstore\n      swap1\n      0x01\n      add\n      swap1\n      0x20\n      add\n      dup1\n      dup4\n      gt\n      tag_46\n      jumpi\n      dup3\n      swap1\n      sub\n      0x1f\n      and\n      dup3\n      add\n      swap2\n    tag_44:\n      pop\n      pop\n      pop\n      pop\n      pop\n      swap1\n      pop\n      dup3\n      jump\t// out\n        /* \"contracts/WineTrace.sol\":259:279  address public owner */\n    tag_20:\n      0x03\n      0x00\n      swap1\n      sload\n      swap1\n      0x0100\n      exp\n      swap1\n      div\n      0xffffffffffffffffffffffffffffffffffffffff\n      and\n      dup2\n      jump\t// out\n        /* \"contracts/WineTrace.sol\":800:989  function addStage(string memory _description, string memory _date) external onlyOwner {... */\n    tag_26:\n        /* \"contracts/WineTrace.sol\":428:433  owner */\n      0x03\n      0x00\n      swap1\n      sload\n      swap1\n      0x0100\n      exp\n      swap1\n      div\n      0xffffffffffffffffffffffffffffffffffffffff\n      and\n        /* \"contracts/WineTrace.sol\":414:433  msg.sender == owner */\n      0xffffffffffffffffffffffffffffffffffffffff\n      and\n        /* \"contracts/WineTrace.sol\":414:424  msg.sender */\n      caller\n        /* \"contracts/WineTrace.sol\":414:433  msg.sender == owner */\n      0xffffffffffffffffffffffffffffffffffffffff\n      and\n      eq\n        /* \"contracts/WineTrace.sol\":406:479  require(msg.sender == owner, \"Permission denied. You are not the owner.\") */\n      tag_48\n      jumpi\n      mload(0x40)\n      0x08c379a000000000000000000000000000000000000000000000000000000000\n      dup2\n      mstore\n      0x04\n      add\n      tag_49\n      swap1\n      tag_50\n      jump\t// in\n    tag_49:\n      mload(0x40)\n      dup1\n      swap2\n      sub\n      swap1\n      revert\n    tag_48:\n        /* \"contracts/WineTrace.sol\":897:903  stages */\n      0x04\n        /* \"contracts/WineTrace.sol\":909:935  Stage(_description, _date) */\n      mload(0x40)\n      dup1\n      0x40\n      add\n      0x40\n      mstore\n      dup1\n        /* \"contracts/WineTrace.sol\":915:927  _description */\n      dup5\n        /* \"contracts/WineTrace.sol\":909:935  Stage(_description, _date) */\n      dup2\n      mstore\n      0x20\n      add\n        /* \"contracts/WineTrace.sol\":929:934  _date */\n      dup4\n        /* \"contracts/WineTrace.sol\":909:935  Stage(_description, _date) */\n      dup2\n      mstore\n      pop\n        /* \"contracts/WineTrace.sol\":897:936  stages.push(Stage(_description, _date)) */\n      swap1\n      dup1\n      0x01\n      dup2\n      sload\n      add\n      dup1\n      dup3\n      sstore\n      dup1\n      swap2\n      pop\n      pop\n      0x01\n      swap1\n      sub\n      swap1\n      0x00\n      mstore\n      keccak256(0x00, 0x20)\n      swap1\n      0x02\n      mul\n      add\n      0x00\n      swap1\n      swap2\n      swap1\n      swap2\n      swap1\n      swap2\n      pop\n      0x00\n      dup3\n      add\n      mload\n      dup2\n      0x00\n      add\n      swap1\n      dup2\n      tag_53\n      swap2\n      swap1\n      tag_54\n      jump\t// in\n    tag_53:\n      pop\n      0x20\n      dup3\n      add\n      mload\n      dup2\n      0x01\n      add\n      swap1\n      dup2\n      tag_55\n      swap2\n      swap1\n      tag_54\n      jump\t// in\n    tag_55:\n      pop\n      pop\n      pop\n        /* \"contracts/WineTrace.sol\":952:981  NewStage(_description, _date) */\n      0xca0694529e21db15d3e82c504bff67f4f258f1a03cb3525ecffc834d515e8f7c\n        /* \"contracts/WineTrace.sol\":961:973  _description */\n      dup3\n        /* \"contracts/WineTrace.sol\":975:980  _date */\n      dup3\n        /* \"contracts/WineTrace.sol\":952:981  NewStage(_description, _date) */\n      mload(0x40)\n      tag_56\n      swap3\n      swap2\n      swap1\n      tag_18\n      jump\t// in\n    tag_56:\n      mload(0x40)\n      dup1\n      swap2\n      sub\n      swap1\n      log1\n        /* \"contracts/WineTrace.sol\":800:989  function addStage(string memory _description, string memory _date) external onlyOwner {... */\n      pop\n      pop\n      jump\t// out\n        /* \"contracts/WineTrace.sol\":168:191  string public grapeType */\n    tag_28:\n      0x00\n      dup1\n      sload\n      tag_57\n      swap1\n      tag_37\n      jump\t// in\n    tag_57:\n      dup1\n      0x1f\n      add\n      0x20\n      dup1\n      swap2\n      div\n      mul\n      0x20\n      add\n      mload(0x40)\n      swap1\n      dup2\n      add\n      0x40\n      mstore\n      dup1\n      swap3\n      swap2\n      swap1\n      dup2\n      dup2\n      mstore\n      0x20\n      add\n      dup3\n      dup1\n      sload\n      tag_58\n      swap1\n      tag_37\n      jump\t// in\n    tag_58:\n      dup1\n      iszero\n      tag_59\n      jumpi\n      dup1\n      0x1f\n      lt\n      tag_60\n      jumpi\n      0x0100\n      dup1\n      dup4\n      sload\n      div\n      mul\n      dup4\n      mstore\n      swap2\n      0x20\n      add\n      swap2\n      jump(tag_59)\n    tag_60:\n      dup3\n      add\n      swap2\n      swap1\n      0x00\n      mstore\n      keccak256(0x00, 0x20)\n      swap1\n    tag_61:\n      dup2\n      sload\n      dup2\n      mstore\n      swap1\n      0x01\n      add\n      swap1\n      0x20\n      add\n      dup1\n      dup4\n      gt\n      tag_61\n      jumpi\n      dup3\n      swap1\n      sub\n      0x1f\n      and\n      dup3\n      add\n      swap2\n    tag_59:\n      pop\n      pop\n      pop\n      pop\n      pop\n      dup2\n      jump\t// out\n        /* \"contracts/WineTrace.sol\":198:223  string public harvestYear */\n    tag_32:\n      0x01\n      dup1\n      sload\n      tag_62\n      swap1\n      tag_37\n      jump\t// in\n    tag_62:\n      dup1\n      0x1f\n      add\n      0x20\n      dup1\n      swap2\n      div\n      mul\n      0x20\n      add\n      mload(0x40)\n      swap1\n      dup2\n      add\n      0x40\n      mstore\n      dup1\n      swap3\n      swap2\n      swap1\n      dup2\n      dup2\n      mstore\n      0x20\n      add\n      dup3\n      dup1\n      sload\n      tag_63\n      swap1\n      tag_37\n      jump\t// in\n    tag_63:\n      dup1\n      iszero\n      tag_64\n      jumpi\n      dup1\n      0x1f\n      lt\n      tag_65\n      jumpi\n      0x0100\n      dup1\n      dup4\n      sload\n      div\n      mul\n      dup4\n      mstore\n      swap2\n      0x20\n      add\n      swap2\n      jump(tag_64)\n    tag_65:\n      dup3\n      add\n      swap2\n      swap1\n      0x00\n      mstore\n      keccak256(0x00, 0x20)\n      swap1\n    tag_66:\n      dup2\n      sload\n      dup2\n      mstore\n      swap1\n      0x01\n      add\n      swap1\n      0x20\n      add\n      dup1\n      dup4\n      gt\n      tag_66\n      jumpi\n      dup3\n      swap1\n      sub\n      0x1f\n      and\n      dup3\n      add\n      swap2\n    tag_64:\n      pop\n      pop\n      pop\n      pop\n      pop\n      dup2\n      jump\t// out\n        /* \"#utility.yul\":7:84   */\n    tag_67:\n        /* \"#utility.yul\":44:51   */\n      0x00\n        /* \"#utility.yul\":73:78   */\n      dup2\n        /* \"#utility.yul\":62:78   */\n      swap1\n      pop\n        /* \"#utility.yul\":7:84   */\n      swap2\n      swap1\n      pop\n      jump\t// out\n        /* \"#utility.yul\":90:208   */\n    tag_68:\n        /* \"#utility.yul\":177:201   */\n      tag_112\n        /* \"#utility.yul\":195:200   */\n      dup2\n        /* \"#utility.yul\":177:201   */\n      tag_67\n      jump\t// in\n    tag_112:\n        /* \"#utility.yul\":172:175   */\n      dup3\n        /* \"#utility.yul\":165:202   */\n      mstore\n        /* \"#utility.yul\":90:208   */\n      pop\n      pop\n      jump\t// out\n        /* \"#utility.yul\":214:436   */\n    tag_12:\n        /* \"#utility.yul\":307:311   */\n      0x00\n        /* \"#utility.yul\":345:347   */\n      0x20\n        /* \"#utility.yul\":334:343   */\n      dup3\n        /* \"#utility.yul\":330:348   */\n      add\n        /* \"#utility.yul\":322:348   */\n      swap1\n      pop\n        /* \"#utility.yul\":358:429   */\n      tag_114\n        /* \"#utility.yul\":426:427   */\n      0x00\n        /* \"#utility.yul\":415:424   */\n      dup4\n        /* \"#utility.yul\":411:428   */\n      add\n        /* \"#utility.yul\":402:408   */\n      dup5\n        /* \"#utility.yul\":358:429   */\n      tag_68\n      jump\t// in\n    tag_114:\n        /* \"#utility.yul\":214:436   */\n      swap3\n      swap2\n      pop\n      pop\n      jump\t// out\n        /* \"#utility.yul\":442:517   */\n    tag_69:\n        /* \"#utility.yul\":475:481   */\n      0x00\n        /* \"#utility.yul\":508:510   */\n      0x40\n        /* \"#utility.yul\":502:511   */\n      mload\n        /* \"#utility.yul\":492:511   */\n      swap1\n      pop\n        /* \"#utility.yul\":442:517   */\n      swap1\n      jump\t// out\n        /* \"#utility.yul\":523:640   */\n    tag_70:\n        /* \"#utility.yul\":632:633   */\n      0x00\n        /* \"#utility.yul\":629:630   */\n      0x00\n        /* \"#utility.yul\":622:634   */\n      revert\n        /* \"#utility.yul\":646:763   */\n    tag_71:\n        /* \"#utility.yul\":755:756   */\n      0x00\n        /* \"#utility.yul\":752:753   */\n      0x00\n        /* \"#utility.yul\":745:757   */\n      revert\n        /* \"#utility.yul\":769:891   */\n    tag_72:\n        /* \"#utility.yul\":842:866   */\n      tag_119\n        /* \"#utility.yul\":860:865   */\n      dup2\n        /* \"#utility.yul\":842:866   */\n      tag_67\n      jump\t// in\n    tag_119:\n        /* \"#utility.yul\":835:840   */\n      dup2\n        /* \"#utility.yul\":832:867   */\n      eq\n        /* \"#utility.yul\":822:885   */\n      tag_120\n      jumpi\n        /* \"#utility.yul\":881:882   */\n      0x00\n        /* \"#utility.yul\":878:879   */\n      0x00\n        /* \"#utility.yul\":871:883   */\n      revert\n        /* \"#utility.yul\":822:885   */\n    tag_120:\n        /* \"#utility.yul\":769:891   */\n      pop\n      jump\t// out\n        /* \"#utility.yul\":897:1036   */\n    tag_73:\n        /* \"#utility.yul\":943:948   */\n      0x00\n        /* \"#utility.yul\":981:987   */\n      dup2\n        /* \"#utility.yul\":968:988   */\n      calldataload\n        /* \"#utility.yul\":959:988   */\n      swap1\n      pop\n        /* \"#utility.yul\":997:1030   */\n      tag_122\n        /* \"#utility.yul\":1024:1029   */\n      dup2\n        /* \"#utility.yul\":997:1030   */\n      tag_72\n      jump\t// in\n    tag_122:\n        /* \"#utility.yul\":897:1036   */\n      swap3\n      swap2\n      pop\n      pop\n      jump\t// out\n        /* \"#utility.yul\":1042:1371   */\n    tag_15:\n        /* \"#utility.yul\":1101:1107   */\n      0x00\n        /* \"#utility.yul\":1150:1152   */\n      0x20\n        /* \"#utility.yul\":1138:1147   */\n      dup3\n        /* \"#utility.yul\":1129:1136   */\n      dup5\n        /* \"#utility.yul\":1125:1148   */\n      sub\n        /* \"#utility.yul\":1121:1153   */\n      slt\n        /* \"#utility.yul\":1118:1237   */\n      iszero\n      tag_124\n      jumpi\n        /* \"#utility.yul\":1156:1235   */\n      tag_125\n      tag_70\n      jump\t// in\n    tag_125:\n        /* \"#utility.yul\":1118:1237   */\n    tag_124:\n        /* \"#utility.yul\":1276:1277   */\n      0x00\n        /* \"#utility.yul\":1301:1354   */\n      tag_126\n        /* \"#utility.yul\":1346:1353   */\n      dup5\n        /* \"#utility.yul\":1337:1343   */\n      dup3\n        /* \"#utility.yul\":1326:1335   */\n      dup6\n        /* \"#utility.yul\":1322:1344   */\n      add\n        /* \"#utility.yul\":1301:1354   */\n      tag_73\n      jump\t// in\n    tag_126:\n        /* \"#utility.yul\":1291:1354   */\n      swap2\n      pop\n        /* \"#utility.yul\":1247:1364   */\n      pop\n        /* \"#utility.yul\":1042:1371   */\n      swap3\n      swap2\n      pop\n      pop\n      jump\t// out\n        /* \"#utility.yul\":1377:1476   */\n    tag_74:\n        /* \"#utility.yul\":1429:1435   */\n      0x00\n        /* \"#utility.yul\":1463:1468   */\n      dup2\n        /* \"#utility.yul\":1457:1469   */\n      mload\n        /* \"#utility.yul\":1447:1469   */\n      swap1\n      pop\n        /* \"#utility.yul\":1377:1476   */\n      swap2\n      swap1\n      pop\n      jump\t// out\n        /* \"#utility.yul\":1482:1651   */\n    tag_75:\n        /* \"#utility.yul\":1566:1577   */\n      0x00\n        /* \"#utility.yul\":1600:1606   */\n      dup3\n        /* \"#utility.yul\":1595:1598   */\n      dup3\n        /* \"#utility.yul\":1588:1607   */\n      mstore\n        /* \"#utility.yul\":1640:1644   */\n      0x20\n        /* \"#utility.yul\":1635:1638   */\n      dup3\n        /* \"#utility.yul\":1631:1645   */\n      add\n        /* \"#utility.yul\":1616:1645   */\n      swap1\n      pop\n        /* \"#utility.yul\":1482:1651   */\n      swap3\n      swap2\n      pop\n      pop\n      jump\t// out\n        /* \"#utility.yul\":1657:1796   */\n    tag_76:\n        /* \"#utility.yul\":1746:1752   */\n      dup3\n        /* \"#utility.yul\":1741:1744   */\n      dup2\n        /* \"#utility.yul\":1736:1739   */\n      dup4\n        /* \"#utility.yul\":1730:1753   */\n      mcopy\n        /* \"#utility.yul\":1787:1788   */\n      0x00\n        /* \"#utility.yul\":1778:1784   */\n      dup4\n        /* \"#utility.yul\":1773:1776   */\n      dup4\n        /* \"#utility.yul\":1769:1785   */\n      add\n        /* \"#utility.yul\":1762:1789   */\n      mstore\n        /* \"#utility.yul\":1657:1796   */\n      pop\n      pop\n      pop\n      jump\t// out\n        /* \"#utility.yul\":1802:1904   */\n    tag_77:\n        /* \"#utility.yul\":1843:1849   */\n      0x00\n        /* \"#utility.yul\":1894:1896   */\n      0x1f\n        /* \"#utility.yul\":1890:1897   */\n      not\n        /* \"#utility.yul\":1885:1887   */\n      0x1f\n        /* \"#utility.yul\":1878:1883   */\n      dup4\n        /* \"#utility.yul\":1874:1888   */\n      add\n        /* \"#utility.yul\":1870:1898   */\n      and\n        /* \"#utility.yul\":1860:1898   */\n      swap1\n      pop\n        /* \"#utility.yul\":1802:1904   */\n      swap2\n      swap1\n      pop\n      jump\t// out\n        /* \"#utility.yul\":1910:2287   */\n    tag_78:\n        /* \"#utility.yul\":1998:2001   */\n      0x00\n        /* \"#utility.yul\":2026:2065   */\n      tag_132\n        /* \"#utility.yul\":2059:2064   */\n      dup3\n        /* \"#utility.yul\":2026:2065   */\n      tag_74\n      jump\t// in\n    tag_132:\n        /* \"#utility.yul\":2081:2152   */\n      tag_133\n        /* \"#utility.yul\":2145:2151   */\n      dup2\n        /* \"#utility.yul\":2140:2143   */\n      dup6\n        /* \"#utility.yul\":2081:2152   */\n      tag_75\n      jump\t// in\n    tag_133:\n        /* \"#utility.yul\":2074:2152   */\n      swap4\n      pop\n        /* \"#utility.yul\":2161:2226   */\n      tag_134\n        /* \"#utility.yul\":2219:2225   */\n      dup2\n        /* \"#utility.yul\":2214:2217   */\n      dup6\n        /* \"#utility.yul\":2207:2211   */\n      0x20\n        /* \"#utility.yul\":2200:2205   */\n      dup7\n        /* \"#utility.yul\":2196:2212   */\n      add\n        /* \"#utility.yul\":2161:2226   */\n      tag_76\n      jump\t// in\n    tag_134:\n        /* \"#utility.yul\":2251:2280   */\n      tag_135\n        /* \"#utility.yul\":2273:2279   */\n      dup2\n        /* \"#utility.yul\":2251:2280   */\n      tag_77\n      jump\t// in\n    tag_135:\n        /* \"#utility.yul\":2246:2249   */\n      dup5\n        /* \"#utility.yul\":2242:2281   */\n      add\n        /* \"#utility.yul\":2235:2281   */\n      swap2\n      pop\n        /* \"#utility.yul\":2002:2287   */\n      pop\n        /* \"#utility.yul\":1910:2287   */\n      swap3\n      swap2\n      pop\n      pop\n      jump\t// out\n        /* \"#utility.yul\":2293:2807   */\n    tag_18:\n        /* \"#utility.yul\":2454:2458   */\n      0x00\n        /* \"#utility.yul\":2492:2494   */\n      0x40\n        /* \"#utility.yul\":2481:2490   */\n      dup3\n        /* \"#utility.yul\":2477:2495   */\n      add\n        /* \"#utility.yul\":2469:2495   */\n      swap1\n      pop\n        /* \"#utility.yul\":2541:2550   */\n      dup2\n        /* \"#utility.yul\":2535:2539   */\n      dup2\n        /* \"#utility.yul\":2531:2551   */\n      sub\n        /* \"#utility.yul\":2527:2528   */\n      0x00\n        /* \"#utility.yul\":2516:2525   */\n      dup4\n        /* \"#utility.yul\":2512:2529   */\n      add\n        /* \"#utility.yul\":2505:2552   */\n      mstore\n        /* \"#utility.yul\":2569:2647   */\n      tag_137\n        /* \"#utility.yul\":2642:2646   */\n      dup2\n        /* \"#utility.yul\":2633:2639   */\n      dup6\n        /* \"#utility.yul\":2569:2647   */\n      tag_78\n      jump\t// in\n    tag_137:\n        /* \"#utility.yul\":2561:2647   */\n      swap1\n      pop\n        /* \"#utility.yul\":2694:2703   */\n      dup2\n        /* \"#utility.yul\":2688:2692   */\n      dup2\n        /* \"#utility.yul\":2684:2704   */\n      sub\n        /* \"#utility.yul\":2679:2681   */\n      0x20\n        /* \"#utility.yul\":2668:2677   */\n      dup4\n        /* \"#utility.yul\":2664:2682   */\n      add\n        /* \"#utility.yul\":2657:2705   */\n      mstore\n        /* \"#utility.yul\":2722:2800   */\n      tag_138\n        /* \"#utility.yul\":2795:2799   */\n      dup2\n        /* \"#utility.yul\":2786:2792   */\n      dup5\n        /* \"#utility.yul\":2722:2800   */\n      tag_78\n      jump\t// in\n    tag_138:\n        /* \"#utility.yul\":2714:2800   */\n      swap1\n      pop\n        /* \"#utility.yul\":2293:2807   */\n      swap4\n      swap3\n      pop\n      pop\n      pop\n      jump\t// out\n        /* \"#utility.yul\":2813:2939   */\n    tag_79:\n        /* \"#utility.yul\":2850:2857   */\n      0x00\n        /* \"#utility.yul\":2890:2932   */\n      0xffffffffffffffffffffffffffffffffffffffff\n        /* \"#utility.yul\":2883:2888   */\n      dup3\n        /* \"#utility.yul\":2879:2933   */\n      and\n        /* \"#utility.yul\":2868:2933   */\n      swap1\n      pop\n        /* \"#utility.yul\":2813:2939   */\n      swap2\n      swap1\n      pop\n      jump\t// out\n        /* \"#utility.yul\":2945:3041   */\n    tag_80:\n        /* \"#utility.yul\":2982:2989   */\n      0x00\n        /* \"#utility.yul\":3011:3035   */\n      tag_141\n        /* \"#utility.yul\":3029:3034   */\n      dup3\n        /* \"#utility.yul\":3011:3035   */\n      tag_79\n      jump\t// in\n    tag_141:\n        /* \"#utility.yul\":3000:3035   */\n      swap1\n      pop\n        /* \"#utility.yul\":2945:3041   */\n      swap2\n      swap1\n      pop\n      jump\t// out\n        /* \"#utility.yul\":3047:3165   */\n    tag_81:\n        /* \"#utility.yul\":3134:3158   */\n      tag_143\n        /* \"#utility.yul\":3152:3157   */\n      dup2\n        /* \"#utility.yul\":3134:3158   */\n      tag_80\n      jump\t// in\n    tag_143:\n        /* \"#utility.yul\":3129:3132   */\n      dup3\n        /* \"#utility.yul\":3122:3159   */\n      mstore\n        /* \"#utility.yul\":3047:3165   */\n      pop\n      pop\n      jump\t// out\n        /* \"#utility.yul\":3171:3393   */\n    tag_22:\n        /* \"#utility.yul\":3264:3268   */\n      0x00\n        /* \"#utility.yul\":3302:3304   */\n      0x20\n        /* \"#utility.yul\":3291:3300   */\n      dup3\n        /* \"#utility.yul\":3287:3305   */\n      add\n        /* \"#utility.yul\":3279:3305   */\n      swap1\n      pop\n        /* \"#utility.yul\":3315:3386   */\n      tag_145\n        /* \"#utility.yul\":3383:3384   */\n      0x00\n        /* \"#utility.yul\":3372:3381   */\n      dup4\n        /* \"#utility.yul\":3368:3385   */\n      add\n        /* \"#utility.yul\":3359:3365   */\n      dup5\n        /* \"#utility.yul\":3315:3386   */\n      tag_81\n      jump\t// in\n    tag_145:\n        /* \"#utility.yul\":3171:3393   */\n      swap3\n      swap2\n      pop\n      pop\n      jump\t// out\n        /* \"#utility.yul\":3399:3516   */\n    tag_82:\n        /* \"#utility.yul\":3508:3509   */\n      0x00\n        /* \"#utility.yul\":3505:3506   */\n      0x00\n        /* \"#utility.yul\":3498:3510   */\n      revert\n        /* \"#utility.yul\":3522:3639   */\n    tag_83:\n        /* \"#utility.yul\":3631:3632   */\n      0x00\n        /* \"#utility.yul\":3628:3629   */\n      0x00\n        /* \"#utility.yul\":3621:3633   */\n      revert\n        /* \"#utility.yul\":3645:3825   */\n    tag_84:\n        /* \"#utility.yul\":3693:3770   */\n      0x4e487b7100000000000000000000000000000000000000000000000000000000\n        /* \"#utility.yul\":3690:3691   */\n      0x00\n        /* \"#utility.yul\":3683:3771   */\n      mstore\n        /* \"#utility.yul\":3790:3794   */\n      0x41\n        /* \"#utility.yul\":3787:3788   */\n      0x04\n        /* \"#utility.yul\":3780:3795   */\n      mstore\n        /* \"#utility.yul\":3814:3818   */\n      0x24\n        /* \"#utility.yul\":3811:3812   */\n      0x00\n        /* \"#utility.yul\":3804:3819   */\n      revert\n        /* \"#utility.yul\":3831:4112   */\n    tag_85:\n        /* \"#utility.yul\":3914:3941   */\n      tag_150\n        /* \"#utility.yul\":3936:3940   */\n      dup3\n        /* \"#utility.yul\":3914:3941   */\n      tag_77\n      jump\t// in\n    tag_150:\n        /* \"#utility.yul\":3906:3912   */\n      dup2\n        /* \"#utility.yul\":3902:3942   */\n      add\n        /* \"#utility.yul\":4044:4050   */\n      dup2\n        /* \"#utility.yul\":4032:4042   */\n      dup2\n        /* \"#utility.yul\":4029:4051   */\n      lt\n        /* \"#utility.yul\":4008:4026   */\n      0xffffffffffffffff\n        /* \"#utility.yul\":3996:4006   */\n      dup3\n        /* \"#utility.yul\":3993:4027   */\n      gt\n        /* \"#utility.yul\":3990:4052   */\n      or\n        /* \"#utility.yul\":3987:4075   */\n      iszero\n      tag_151\n      jumpi\n        /* \"#utility.yul\":4055:4073   */\n      tag_152\n      tag_84\n      jump\t// in\n    tag_152:\n        /* \"#utility.yul\":3987:4075   */\n    tag_151:\n        /* \"#utility.yul\":4095:4105   */\n      dup1\n        /* \"#utility.yul\":4091:4093   */\n      0x40\n        /* \"#utility.yul\":4084:4106   */\n      mstore\n        /* \"#utility.yul\":3874:4112   */\n      pop\n        /* \"#utility.yul\":3831:4112   */\n      pop\n      pop\n      jump\t// out\n        /* \"#utility.yul\":4118:4247   */\n    tag_86:\n        /* \"#utility.yul\":4152:4158   */\n      0x00\n        /* \"#utility.yul\":4179:4199   */\n      tag_154\n      tag_69\n      jump\t// in\n    tag_154:\n        /* \"#utility.yul\":4169:4199   */\n      swap1\n      pop\n        /* \"#utility.yul\":4208:4241   */\n      tag_155\n        /* \"#utility.yul\":4236:4240   */\n      dup3\n        /* \"#utility.yul\":4228:4234   */\n      dup3\n        /* \"#utility.yul\":4208:4241   */\n      tag_85\n      jump\t// in\n    tag_155:\n        /* \"#utility.yul\":4118:4247   */\n      swap2\n      swap1\n      pop\n      jump\t// out\n        /* \"#utility.yul\":4253:4561   */\n    tag_87:\n        /* \"#utility.yul\":4315:4319   */\n      0x00\n        /* \"#utility.yul\":4405:4423   */\n      0xffffffffffffffff\n        /* \"#utility.yul\":4397:4403   */\n      dup3\n        /* \"#utility.yul\":4394:4424   */\n      gt\n        /* \"#utility.yul\":4391:4447   */\n      iszero\n      tag_157\n      jumpi\n        /* \"#utility.yul\":4427:4445   */\n      tag_158\n      tag_84\n      jump\t// in\n    tag_158:\n        /* \"#utility.yul\":4391:4447   */\n    tag_157:\n        /* \"#utility.yul\":4465:4494   */\n      tag_159\n        /* \"#utility.yul\":4487:4493   */\n      dup3\n        /* \"#utility.yul\":4465:4494   */\n      tag_77\n      jump\t// in\n    tag_159:\n        /* \"#utility.yul\":4457:4494   */\n      swap1\n      pop\n        /* \"#utility.yul\":4549:4553   */\n      0x20\n        /* \"#utility.yul\":4543:4547   */\n      dup2\n        /* \"#utility.yul\":4539:4554   */\n      add\n        /* \"#utility.yul\":4531:4554   */\n      swap1\n      pop\n        /* \"#utility.yul\":4253:4561   */\n      swap2\n      swap1\n      pop\n      jump\t// out\n        /* \"#utility.yul\":4567:4715   */\n    tag_88:\n        /* \"#utility.yul\":4665:4671   */\n      dup3\n        /* \"#utility.yul\":4660:4663   */\n      dup2\n        /* \"#utility.yul\":4655:4658   */\n      dup4\n        /* \"#utility.yul\":4642:4672   */\n      calldatacopy\n        /* \"#utility.yul\":4706:4707   */\n      0x00\n        /* \"#utility.yul\":4697:4703   */\n      dup4\n        /* \"#utility.yul\":4692:4695   */\n      dup4\n        /* \"#utility.yul\":4688:4704   */\n      add\n        /* \"#utility.yul\":4681:4708   */\n      mstore\n        /* \"#utility.yul\":4567:4715   */\n      pop\n      pop\n      pop\n      jump\t// out\n        /* \"#utility.yul\":4721:5146   */\n    tag_89:\n        /* \"#utility.yul\":4799:4804   */\n      0x00\n        /* \"#utility.yul\":4824:4890   */\n      tag_162\n        /* \"#utility.yul\":4840:4889   */\n      tag_163\n        /* \"#utility.yul\":4882:4888   */\n      dup5\n        /* \"#utility.yul\":4840:4889   */\n      tag_87\n      jump\t// in\n    tag_163:\n        /* \"#utility.yul\":4824:4890   */\n      tag_86\n      jump\t// in\n    tag_162:\n        /* \"#utility.yul\":4815:4890   */\n      swap1\n      pop\n        /* \"#utility.yul\":4913:4919   */\n      dup3\n        /* \"#utility.yul\":4906:4911   */\n      dup2\n        /* \"#utility.yul\":4899:4920   */\n      mstore\n        /* \"#utility.yul\":4951:4955   */\n      0x20\n        /* \"#utility.yul\":4944:4949   */\n      dup2\n        /* \"#utility.yul\":4940:4956   */\n      add\n        /* \"#utility.yul\":4989:4992   */\n      dup5\n        /* \"#utility.yul\":4980:4986   */\n      dup5\n        /* \"#utility.yul\":4975:4978   */\n      dup5\n        /* \"#utility.yul\":4971:4987   */\n      add\n        /* \"#utility.yul\":4968:4993   */\n      gt\n        /* \"#utility.yul\":4965:5077   */\n      iszero\n      tag_164\n      jumpi\n        /* \"#utility.yul\":4996:5075   */\n      tag_165\n      tag_83\n      jump\t// in\n    tag_165:\n        /* \"#utility.yul\":4965:5077   */\n    tag_164:\n        /* \"#utility.yul\":5086:5140   */\n      tag_166\n        /* \"#utility.yul\":5133:5139   */\n      dup5\n        /* \"#utility.yul\":5128:5131   */\n      dup3\n        /* \"#utility.yul\":5123:5126   */\n      dup6\n        /* \"#utility.yul\":5086:5140   */\n      tag_88\n      jump\t// in\n    tag_166:\n        /* \"#utility.yul\":4805:5146   */\n      pop\n        /* \"#utility.yul\":4721:5146   */\n      swap4\n      swap3\n      pop\n      pop\n      pop\n      jump\t// out\n        /* \"#utility.yul\":5166:5506   */\n    tag_90:\n        /* \"#utility.yul\":5222:5227   */\n      0x00\n        /* \"#utility.yul\":5271:5274   */\n      dup3\n        /* \"#utility.yul\":5264:5268   */\n      0x1f\n        /* \"#utility.yul\":5256:5262   */\n      dup4\n        /* \"#utility.yul\":5252:5269   */\n      add\n        /* \"#utility.yul\":5248:5275   */\n      slt\n        /* \"#utility.yul\":5238:5360   */\n      tag_168\n      jumpi\n        /* \"#utility.yul\":5279:5358   */\n      tag_169\n      tag_82\n      jump\t// in\n    tag_169:\n        /* \"#utility.yul\":5238:5360   */\n    tag_168:\n        /* \"#utility.yul\":5396:5402   */\n      dup2\n        /* \"#utility.yul\":5383:5403   */\n      calldataload\n        /* \"#utility.yul\":5421:5500   */\n      tag_170\n        /* \"#utility.yul\":5496:5499   */\n      dup5\n        /* \"#utility.yul\":5488:5494   */\n      dup3\n        /* \"#utility.yul\":5481:5485   */\n      0x20\n        /* \"#utility.yul\":5473:5479   */\n      dup7\n        /* \"#utility.yul\":5469:5486   */\n      add\n        /* \"#utility.yul\":5421:5500   */\n      tag_89\n      jump\t// in\n    tag_170:\n        /* \"#utility.yul\":5412:5500   */\n      swap2\n      pop\n        /* \"#utility.yul\":5228:5506   */\n      pop\n        /* \"#utility.yul\":5166:5506   */\n      swap3\n      swap2\n      pop\n      pop\n      jump\t// out\n        /* \"#utility.yul\":5512:6346   */\n    tag_25:\n        /* \"#utility.yul\":5600:5606   */\n      0x00\n        /* \"#utility.yul\":5608:5614   */\n      0x00\n        /* \"#utility.yul\":5657:5659   */\n      0x40\n        /* \"#utility.yul\":5645:5654   */\n      dup4\n        /* \"#utility.yul\":5636:5643   */\n      dup6\n        /* \"#utility.yul\":5632:5655   */\n      sub\n        /* \"#utility.yul\":5628:5660   */\n      slt\n        /* \"#utility.yul\":5625:5744   */\n      iszero\n      tag_172\n      jumpi\n        /* \"#utility.yul\":5663:5742   */\n      tag_173\n      tag_70\n      jump\t// in\n    tag_173:\n        /* \"#utility.yul\":5625:5744   */\n    tag_172:\n        /* \"#utility.yul\":5811:5812   */\n      0x00\n        /* \"#utility.yul\":5800:5809   */\n      dup4\n        /* \"#utility.yul\":5796:5813   */\n      add\n        /* \"#utility.yul\":5783:5814   */\n      calldataload\n        /* \"#utility.yul\":5841:5859   */\n      0xffffffffffffffff\n        /* \"#utility.yul\":5833:5839   */\n      dup2\n        /* \"#utility.yul\":5830:5860   */\n      gt\n        /* \"#utility.yul\":5827:5944   */\n      iszero\n      tag_174\n      jumpi\n        /* \"#utility.yul\":5863:5942   */\n      tag_175\n      tag_71\n      jump\t// in\n    tag_175:\n        /* \"#utility.yul\":5827:5944   */\n    tag_174:\n        /* \"#utility.yul\":5968:6031   */\n      tag_176\n        /* \"#utility.yul\":6023:6030   */\n      dup6\n        /* \"#utility.yul\":6014:6020   */\n      dup3\n        /* \"#utility.yul\":6003:6012   */\n      dup7\n        /* \"#utility.yul\":5999:6021   */\n      add\n        /* \"#utility.yul\":5968:6031   */\n      tag_90\n      jump\t// in\n    tag_176:\n        /* \"#utility.yul\":5958:6031   */\n      swap3\n      pop\n        /* \"#utility.yul\":5754:6041   */\n      pop\n        /* \"#utility.yul\":6108:6110   */\n      0x20\n        /* \"#utility.yul\":6097:6106   */\n      dup4\n        /* \"#utility.yul\":6093:6111   */\n      add\n        /* \"#utility.yul\":6080:6112   */\n      calldataload\n        /* \"#utility.yul\":6139:6157   */\n      0xffffffffffffffff\n        /* \"#utility.yul\":6131:6137   */\n      dup2\n        /* \"#utility.yul\":6128:6158   */\n      gt\n        /* \"#utility.yul\":6125:6242   */\n      iszero\n      tag_177\n      jumpi\n        /* \"#utility.yul\":6161:6240   */\n      tag_178\n      tag_71\n      jump\t// in\n    tag_178:\n        /* \"#utility.yul\":6125:6242   */\n    tag_177:\n        /* \"#utility.yul\":6266:6329   */\n      tag_179\n        /* \"#utility.yul\":6321:6328   */\n      dup6\n        /* \"#utility.yul\":6312:6318   */\n      dup3\n        /* \"#utility.yul\":6301:6310   */\n      dup7\n        /* \"#utility.yul\":6297:6319   */\n      add\n        /* \"#utility.yul\":6266:6329   */\n      tag_90\n      jump\t// in\n    tag_179:\n        /* \"#utility.yul\":6256:6329   */\n      swap2\n      pop\n        /* \"#utility.yul\":6051:6339   */\n      pop\n        /* \"#utility.yul\":5512:6346   */\n      swap3\n      pop\n      swap3\n      swap1\n      pop\n      jump\t// out\n        /* \"#utility.yul\":6352:6665   */\n    tag_30:\n        /* \"#utility.yul\":6465:6469   */\n      0x00\n        /* \"#utility.yul\":6503:6505   */\n      0x20\n        /* \"#utility.yul\":6492:6501   */\n      dup3\n        /* \"#utility.yul\":6488:6506   */\n      add\n        /* \"#utility.yul\":6480:6506   */\n      swap1\n      pop\n        /* \"#utility.yul\":6552:6561   */\n      dup2\n        /* \"#utility.yul\":6546:6550   */\n      dup2\n        /* \"#utility.yul\":6542:6562   */\n      sub\n        /* \"#utility.yul\":6538:6539   */\n      0x00\n        /* \"#utility.yul\":6527:6536   */\n      dup4\n        /* \"#utility.yul\":6523:6540   */\n      add\n        /* \"#utility.yul\":6516:6563   */\n      mstore\n        /* \"#utility.yul\":6580:6658   */\n      tag_181\n        /* \"#utility.yul\":6653:6657   */\n      dup2\n        /* \"#utility.yul\":6644:6650   */\n      dup5\n        /* \"#utility.yul\":6580:6658   */\n      tag_78\n      jump\t// in\n    tag_181:\n        /* \"#utility.yul\":6572:6658   */\n      swap1\n      pop\n        /* \"#utility.yul\":6352:6665   */\n      swap3\n      swap2\n      pop\n      pop\n      jump\t// out\n        /* \"#utility.yul\":6671:6851   */\n    tag_91:\n        /* \"#utility.yul\":6719:6796   */\n      0x4e487b7100000000000000000000000000000000000000000000000000000000\n        /* \"#utility.yul\":6716:6717   */\n      0x00\n        /* \"#utility.yul\":6709:6797   */\n      mstore\n        /* \"#utility.yul\":6816:6820   */\n      0x22\n        /* \"#utility.yul\":6813:6814   */\n      0x04\n        /* \"#utility.yul\":6806:6821   */\n      mstore\n        /* \"#utility.yul\":6840:6844   */\n      0x24\n        /* \"#utility.yul\":6837:6838   */\n      0x00\n        /* \"#utility.yul\":6830:6845   */\n      revert\n        /* \"#utility.yul\":6857:7177   */\n    tag_37:\n        /* \"#utility.yul\":6901:6907   */\n      0x00\n        /* \"#utility.yul\":6938:6939   */\n      0x02\n        /* \"#utility.yul\":6932:6936   */\n      dup3\n        /* \"#utility.yul\":6928:6940   */\n      div\n        /* \"#utility.yul\":6918:6940   */\n      swap1\n      pop\n        /* \"#utility.yul\":6985:6986   */\n      0x01\n        /* \"#utility.yul\":6979:6983   */\n      dup3\n        /* \"#utility.yul\":6975:6987   */\n      and\n        /* \"#utility.yul\":7006:7024   */\n      dup1\n        /* \"#utility.yul\":6996:7077   */\n      tag_184\n      jumpi\n        /* \"#utility.yul\":7062:7066   */\n      0x7f\n        /* \"#utility.yul\":7054:7060   */\n      dup3\n        /* \"#utility.yul\":7050:7067   */\n      and\n        /* \"#utility.yul\":7040:7067   */\n      swap2\n      pop\n        /* \"#utility.yul\":6996:7077   */\n    tag_184:\n        /* \"#utility.yul\":7124:7126   */\n      0x20\n        /* \"#utility.yul\":7116:7122   */\n      dup3\n        /* \"#utility.yul\":7113:7127   */\n      lt\n        /* \"#utility.yul\":7093:7111   */\n      dup2\n        /* \"#utility.yul\":7090:7128   */\n      sub\n        /* \"#utility.yul\":7087:7171   */\n      tag_185\n      jumpi\n        /* \"#utility.yul\":7143:7161   */\n      tag_186\n      tag_91\n      jump\t// in\n    tag_186:\n        /* \"#utility.yul\":7087:7171   */\n    tag_185:\n        /* \"#utility.yul\":6908:7177   */\n      pop\n        /* \"#utility.yul\":6857:7177   */\n      swap2\n      swap1\n      pop\n      jump\t// out\n        /* \"#utility.yul\":7183:7411   */\n    tag_92:\n        /* \"#utility.yul\":7323:7357   */\n      0x5065726d697373696f6e2064656e6965642e20596f7520617265206e6f742074\n        /* \"#utility.yul\":7319:7320   */\n      0x00\n        /* \"#utility.yul\":7311:7317   */\n      dup3\n        /* \"#utility.yul\":7307:7321   */\n      add\n        /* \"#utility.yul\":7300:7358   */\n      mstore\n        /* \"#utility.yul\":7392:7403   */\n      0x6865206f776e65722e0000000000000000000000000000000000000000000000\n        /* \"#utility.yul\":7387:7389   */\n      0x20\n        /* \"#utility.yul\":7379:7385   */\n      dup3\n        /* \"#utility.yul\":7375:7390   */\n      add\n        /* \"#utility.yul\":7368:7404   */\n      mstore\n        /* \"#utility.yul\":7183:7411   */\n      pop\n      jump\t// out\n        /* \"#utility.yul\":7417:7783   */\n    tag_93:\n        /* \"#utility.yul\":7559:7562   */\n      0x00\n        /* \"#utility.yul\":7580:7647   */\n      tag_189\n        /* \"#utility.yul\":7644:7646   */\n      0x29\n        /* \"#utility.yul\":7639:7642   */\n      dup4\n        /* \"#utility.yul\":7580:7647   */\n      tag_75\n      jump\t// in\n    tag_189:\n        /* \"#utility.yul\":7573:7647   */\n      swap2\n      pop\n        /* \"#utility.yul\":7656:7749   */\n      tag_190\n        /* \"#utility.yul\":7745:7748   */\n      dup3\n        /* \"#utility.yul\":7656:7749   */\n      tag_92\n      jump\t// in\n    tag_190:\n        /* \"#utility.yul\":7774:7776   */\n      0x40\n        /* \"#utility.yul\":7769:7772   */\n      dup3\n        /* \"#utility.yul\":7765:7777   */\n      add\n        /* \"#utility.yul\":7758:7777   */\n      swap1\n      pop\n        /* \"#utility.yul\":7417:7783   */\n      swap2\n      swap1\n      pop\n      jump\t// out\n        /* \"#utility.yul\":7789:8208   */\n    tag_50:\n        /* \"#utility.yul\":7955:7959   */\n      0x00\n        /* \"#utility.yul\":7993:7995   */\n      0x20\n        /* \"#utility.yul\":7982:7991   */\n      dup3\n        /* \"#utility.yul\":7978:7996   */\n      add\n        /* \"#utility.yul\":7970:7996   */\n      swap1\n      pop\n        /* \"#utility.yul\":8042:8051   */\n      dup2\n        /* \"#utility.yul\":8036:8040   */\n      dup2\n        /* \"#utility.yul\":8032:8052   */\n      sub\n        /* \"#utility.yul\":8028:8029   */\n      0x00\n        /* \"#utility.yul\":8017:8026   */\n      dup4\n        /* \"#utility.yul\":8013:8030   */\n      add\n        /* \"#utility.yul\":8006:8053   */\n      mstore\n        /* \"#utility.yul\":8070:8201   */\n      tag_192\n        /* \"#utility.yul\":8196:8200   */\n      dup2\n        /* \"#utility.yul\":8070:8201   */\n      tag_93\n      jump\t// in\n    tag_192:\n        /* \"#utility.yul\":8062:8201   */\n      swap1\n      pop\n        /* \"#utility.yul\":7789:8208   */\n      swap2\n      swap1\n      pop\n      jump\t// out\n        /* \"#utility.yul\":8214:8355   */\n    tag_94:\n        /* \"#utility.yul\":8263:8267   */\n      0x00\n        /* \"#utility.yul\":8286:8289   */\n      dup2\n        /* \"#utility.yul\":8278:8289   */\n      swap1\n      pop\n        /* \"#utility.yul\":8309:8312   */\n      dup2\n        /* \"#utility.yul\":8306:8307   */\n      0x00\n        /* \"#utility.yul\":8299:8313   */\n      mstore\n        /* \"#utility.yul\":8343:8347   */\n      0x20\n        /* \"#utility.yul\":8340:8341   */\n      0x00\n        /* \"#utility.yul\":8330:8348   */\n      keccak256\n        /* \"#utility.yul\":8322:8348   */\n      swap1\n      pop\n        /* \"#utility.yul\":8214:8355   */\n      swap2\n      swap1\n      pop\n      jump\t// out\n        /* \"#utility.yul\":8361:8454   */\n    tag_95:\n        /* \"#utility.yul\":8398:8404   */\n      0x00\n        /* \"#utility.yul\":8445:8447   */\n      0x20\n        /* \"#utility.yul\":8440:8442   */\n      0x1f\n        /* \"#utility.yul\":8433:8438   */\n      dup4\n        /* \"#utility.yul\":8429:8443   */\n      add\n        /* \"#utility.yul\":8425:8448   */\n      div\n        /* \"#utility.yul\":8415:8448   */\n      swap1\n      pop\n        /* \"#utility.yul\":8361:8454   */\n      swap2\n      swap1\n      pop\n      jump\t// out\n        /* \"#utility.yul\":8460:8567   */\n    tag_96:\n        /* \"#utility.yul\":8504:8512   */\n      0x00\n        /* \"#utility.yul\":8554:8559   */\n      dup3\n        /* \"#utility.yul\":8548:8552   */\n      dup3\n        /* \"#utility.yul\":8544:8560   */\n      shl\n        /* \"#utility.yul\":8523:8560   */\n      swap1\n      pop\n        /* \"#utility.yul\":8460:8567   */\n      swap3\n      swap2\n      pop\n      pop\n      jump\t// out\n        /* \"#utility.yul\":8573:8966   */\n    tag_97:\n        /* \"#utility.yul\":8642:8648   */\n      0x00\n        /* \"#utility.yul\":8692:8693   */\n      0x08\n        /* \"#utility.yul\":8680:8690   */\n      dup4\n        /* \"#utility.yul\":8676:8694   */\n      mul\n        /* \"#utility.yul\":8715:8812   */\n      tag_197\n        /* \"#utility.yul\":8745:8811   */\n      0xffffffffffffffffffffffffffffffffffffffffffffffffffffffffffffffff\n        /* \"#utility.yul\":8734:8743   */\n      dup3\n        /* \"#utility.yul\":8715:8812   */\n      tag_96\n      jump\t// in\n    tag_197:\n        /* \"#utility.yul\":8833:8872   */\n      tag_198\n        /* \"#utility.yul\":8863:8871   */\n      dup7\n        /* \"#utility.yul\":8852:8861   */\n      dup4\n        /* \"#utility.yul\":8833:8872   */\n      tag_96\n      jump\t// in\n    tag_198:\n        /* \"#utility.yul\":8821:8872   */\n      swap6\n      pop\n        /* \"#utility.yul\":8905:8909   */\n      dup1\n        /* \"#utility.yul\":8901:8910   */\n      not\n        /* \"#utility.yul\":8894:8899   */\n      dup5\n        /* \"#utility.yul\":8890:8911   */\n      and\n        /* \"#utility.yul\":8881:8911   */\n      swap4\n      pop\n        /* \"#utility.yul\":8954:8958   */\n      dup1\n        /* \"#utility.yul\":8944:8952   */\n      dup7\n        /* \"#utility.yul\":8940:8959   */\n      and\n        /* \"#utility.yul\":8933:8938   */\n      dup5\n        /* \"#utility.yul\":8930:8960   */\n      or\n        /* \"#utility.yul\":8920:8960   */\n      swap3\n      pop\n        /* \"#utility.yul\":8649:8966   */\n      pop\n      pop\n        /* \"#utility.yul\":8573:8966   */\n      swap4\n      swap3\n      pop\n      pop\n      pop\n      jump\t// out\n        /* \"#utility.yul\":8972:9032   */\n    tag_98:\n        /* \"#utility.yul\":9000:9003   */\n      0x00\n        /* \"#utility.yul\":9021:9026   */\n      dup2\n        /* \"#utility.yul\":9014:9026   */\n      swap1\n      pop\n        /* \"#utility.yul\":8972:9032   */\n      swap2\n      swap1\n      pop\n      jump\t// out\n        /* \"#utility.yul\":9038:9180   */\n    tag_99:\n        /* \"#utility.yul\":9088:9097   */\n      0x00\n        /* \"#utility.yul\":9121:9174   */\n      tag_201\n        /* \"#utility.yul\":9139:9173   */\n      tag_202\n        /* \"#utility.yul\":9148:9172   */\n      tag_203\n        /* \"#utility.yul\":9166:9171   */\n      dup5\n        /* \"#utility.yul\":9148:9172   */\n      tag_67\n      jump\t// in\n    tag_203:\n        /* \"#utility.yul\":9139:9173   */\n      tag_98\n      jump\t// in\n    tag_202:\n        /* \"#utility.yul\":9121:9174   */\n      tag_67\n      jump\t// in\n    tag_201:\n        /* \"#utility.yul\":9108:9174   */\n      swap1\n      pop\n        /* \"#utility.yul\":9038:9180   */\n      swap2\n      swap1\n      pop\n      jump\t// out\n        /* \"#utility.yul\":9186:9261   */\n    tag_100:\n        /* \"#utility.yul\":9229:9232   */\n      0x00\n        /* \"#utility.yul\":9250:9255   */\n      dup2\n        /* \"#utility.yul\":9243:9255   */\n      swap1\n      pop\n        /* \"#utility.yul\":9186:9261   */\n      swap2\n      swap1\n      pop\n      jump\t// out\n        /* \"#utility.yul\":9267:9536   */\n    tag_101:\n        /* \"#utility.yul\":9377:9416   */\n      tag_206\n        /* \"#utility.yul\":9408:9415   */\n      dup4\n        /* \"#utility.yul\":9377:9416   */\n      tag_99\n      jump\t// in\n    tag_206:\n        /* \"#utility.yul\":9438:9529   */\n      tag_207\n        /* \"#utility.yul\":9487:9528   */\n      tag_208\n        /* \"#utility.yul\":9511:9527   */\n      dup3\n        /* \"#utility.yul\":9487:9528   */\n      tag_100\n      jump\t// in\n    tag_208:\n        /* \"#utility.yul\":9479:9485   */\n      dup5\n        /* \"#utility.yul\":9472:9476   */\n      dup5\n        /* \"#utility.yul\":9466:9477   */\n      sload\n        /* \"#utility.yul\":9438:9529   */\n      tag_97\n      jump\t// in\n    tag_207:\n        /* \"#utility.yul\":9432:9436   */\n      dup3\n        /* \"#utility.yul\":9425:9530   */\n      sstore\n        /* \"#utility.yul\":9343:9536   */\n      pop\n        /* \"#utility.yul\":9267:9536   */\n      pop\n      pop\n      pop\n      jump\t// out\n        /* \"#utility.yul\":9542:9615   */\n    tag_102:\n        /* \"#utility.yul\":9587:9590   */\n      0x00\n        /* \"#utility.yul\":9608:9609   */\n      0x00\n        /* \"#utility.yul\":9601:9609   */\n      swap1\n      pop\n        /* \"#utility.yul\":9542:9615   */\n      swap1\n      jump\t// out\n        /* \"#utility.yul\":9621:9810   */\n    tag_103:\n        /* \"#utility.yul\":9698:9730   */\n      tag_211\n      tag_102\n      jump\t// in\n    tag_211:\n        /* \"#utility.yul\":9739:9804   */\n      tag_212\n        /* \"#utility.yul\":9797:9803   */\n      dup2\n        /* \"#utility.yul\":9789:9795   */\n      dup5\n        /* \"#utility.yul\":9783:9787   */\n      dup5\n        /* \"#utility.yul\":9739:9804   */\n      tag_101\n      jump\t// in\n    tag_212:\n        /* \"#utility.yul\":9674:9810   */\n      pop\n        /* \"#utility.yul\":9621:9810   */\n      pop\n      pop\n      jump\t// out\n        /* \"#utility.yul\":9816:10002   */\n    tag_104:\n        /* \"#utility.yul\":9876:9996   */\n    tag_214:\n        /* \"#utility.yul\":9893:9896   */\n      dup2\n        /* \"#utility.yul\":9886:9891   */\n      dup2\n        /* \"#utility.yul\":9883:9897   */\n      lt\n        /* \"#utility.yul\":9876:9996   */\n      iszero\n      tag_216\n      jumpi\n        /* \"#utility.yul\":9947:9986   */\n      tag_217\n        /* \"#utility.yul\":9984:9985   */\n      0x00\n        /* \"#utility.yul\":9977:9982   */\n      dup3\n        /* \"#utility.yul\":9947:9986   */\n      tag_103\n      jump\t// in\n    tag_217:\n        /* \"#utility.yul\":9920:9921   */\n      0x01\n        /* \"#utility.yul\":9913:9918   */\n      dup2\n        /* \"#utility.yul\":9909:9922   */\n      add\n        /* \"#utility.yul\":9900:9922   */\n      swap1\n      pop\n        /* \"#utility.yul\":9876:9996   */\n      jump(tag_214)\n    tag_216:\n        /* \"#utility.yul\":9816:10002   */\n      pop\n      pop\n      jump\t// out\n        /* \"#utility.yul\":10008:10551   */\n    tag_105:\n        /* \"#utility.yul\":10109:10111   */\n      0x1f\n        /* \"#utility.yul\":10104:10107   */\n      dup3\n        /* \"#utility.yul\":10101:10112   */\n      gt\n        /* \"#utility.yul\":10098:10544   */\n      iszero\n      tag_219\n      jumpi\n        /* \"#utility.yul\":10143:10181   */\n      tag_220\n        /* \"#utility.yul\":10175:10180   */\n      dup2\n        /* \"#utility.yul\":10143:10181   */\n      tag_94\n      jump\t// in\n    tag_220:\n        /* \"#utility.yul\":10227:10256   */\n      tag_221\n        /* \"#utility.yul\":10245:10255   */\n      dup5\n        /* \"#utility.yul\":10227:10256   */\n      tag_95\n      jump\t// in\n    tag_221:\n        /* \"#utility.yul\":10217:10225   */\n      dup2\n        /* \"#utility.yul\":10213:10257   */\n      add\n        /* \"#utility.yul\":10410:10412   */\n      0x20\n        /* \"#utility.yul\":10398:10408   */\n      dup6\n        /* \"#utility.yul\":10395:10413   */\n      lt\n        /* \"#utility.yul\":10392:10441   */\n      iszero\n      tag_222\n      jumpi\n        /* \"#utility.yul\":10431:10439   */\n      dup2\n        /* \"#utility.yul\":10416:10439   */\n      swap1\n      pop\n        /* \"#utility.yul\":10392:10441   */\n    tag_222:\n        /* \"#utility.yul\":10454:10534   */\n      tag_223\n        /* \"#utility.yul\":10510:10532   */\n      tag_224\n        /* \"#utility.yul\":10528:10531   */\n      dup6\n        /* \"#utility.yul\":10510:10532   */\n      tag_95\n      jump\t// in\n    tag_224:\n        /* \"#utility.yul\":10500:10508   */\n      dup4\n        /* \"#utility.yul\":10496:10533   */\n      add\n        /* \"#utility.yul\":10483:10494   */\n      dup3\n        /* \"#utility.yul\":10454:10534   */\n      tag_104\n      jump\t// in\n    tag_223:\n        /* \"#utility.yul\":10113:10544   */\n      pop\n      pop\n        /* \"#utility.yul\":10098:10544   */\n    tag_219:\n        /* \"#utility.yul\":10008:10551   */\n      pop\n      pop\n      pop\n      jump\t// out\n        /* \"#utility.yul\":10557:10674   */\n    tag_106:\n        /* \"#utility.yul\":10611:10619   */\n      0x00\n        /* \"#utility.yul\":10661:10666   */\n      dup3\n        /* \"#utility.yul\":10655:10659   */\n      dup3\n        /* \"#utility.yul\":10651:10667   */\n      shr\n        /* \"#utility.yul\":10630:10667   */\n      swap1\n      pop\n        /* \"#utility.yul\":10557:10674   */\n      swap3\n      swap2\n      pop\n      pop\n      jump\t// out\n        /* \"#utility.yul\":10680:10849   */\n    tag_107:\n        /* \"#utility.yul\":10724:10730   */\n      0x00\n        /* \"#utility.yul\":10757:10808   */\n      tag_227\n        /* \"#utility.yul\":10805:10806   */\n      0x00\n        /* \"#utility.yul\":10801:10807   */\n      not\n        /* \"#utility.yul\":10793:10798   */\n      dup5\n        /* \"#utility.yul\":10790:10791   */\n      0x08\n        /* \"#utility.yul\":10786:10799   */\n      mul\n        /* \"#utility.yul\":10757:10808   */\n      tag_106\n      jump\t// in\n    tag_227:\n        /* \"#utility.yul\":10753:10809   */\n      not\n        /* \"#utility.yul\":10838:10842   */\n      dup1\n        /* \"#utility.yul\":10832:10836   */\n      dup4\n        /* \"#utility.yul\":10828:10843   */\n      and\n        /* \"#utility.yul\":10818:10843   */\n      swap2\n      pop\n        /* \"#utility.yul\":10731:10849   */\n      pop\n        /* \"#utility.yul\":10680:10849   */\n      swap3\n      swap2\n      pop\n      pop\n      jump\t// out\n        /* \"#utility.yul\":10854:11149   */\n    tag_108:\n        /* \"#utility.yul\":10930:10934   */\n      0x00\n        /* \"#utility.yul\":11076:11105   */\n      tag_229\n        /* \"#utility.yul\":11101:11104   */\n      dup4\n        /* \"#utility.yul\":11095:11099   */\n      dup4\n        /* \"#utility.yul\":11076:11105   */\n      tag_107\n      jump\t// in\n    tag_229:\n        /* \"#utility.yul\":11068:11105   */\n      swap2\n      pop\n        /* \"#utility.yul\":11138:11141   */\n      dup3\n        /* \"#utility.yul\":11135:11136   */\n      0x02\n        /* \"#utility.yul\":11131:11142   */\n      mul\n        /* \"#utility.yul\":11125:11129   */\n      dup3\n        /* \"#utility.yul\":11122:11143   */\n      or\n        /* \"#utility.yul\":11114:11143   */\n      swap1\n      pop\n        /* \"#utility.yul\":10854:11149   */\n      swap3\n      swap2\n      pop\n      pop\n      jump\t// out\n        /* \"#utility.yul\":11154:12549   */\n    tag_54:\n        /* \"#utility.yul\":11271:11308   */\n      tag_231\n        /* \"#utility.yul\":11304:11307   */\n      dup3\n        /* \"#utility.yul\":11271:11308   */\n      tag_74\n      jump\t// in\n    tag_231:\n        /* \"#utility.yul\":11373:11391   */\n      0xffffffffffffffff\n        /* \"#utility.yul\":11365:11371   */\n      dup2\n        /* \"#utility.yul\":11362:11392   */\n      gt\n        /* \"#utility.yul\":11359:11415   */\n      iszero\n      tag_232\n      jumpi\n        /* \"#utility.yul\":11395:11413   */\n      tag_233\n      tag_84\n      jump\t// in\n    tag_233:\n        /* \"#utility.yul\":11359:11415   */\n    tag_232:\n        /* \"#utility.yul\":11439:11477   */\n      tag_234\n        /* \"#utility.yul\":11471:11475   */\n      dup3\n        /* \"#utility.yul\":11465:11476   */\n      sload\n        /* \"#utility.yul\":11439:11477   */\n      tag_37\n      jump\t// in\n    tag_234:\n        /* \"#utility.yul\":11524:11591   */\n      tag_235\n        /* \"#utility.yul\":11584:11590   */\n      dup3\n        /* \"#utility.yul\":11576:11582   */\n      dup3\n        /* \"#utility.yul\":11570:11574   */\n      dup6\n        /* \"#utility.yul\":11524:11591   */\n      tag_105\n      jump\t// in\n    tag_235:\n        /* \"#utility.yul\":11618:11619   */\n      0x00\n        /* \"#utility.yul\":11642:11646   */\n      0x20\n        /* \"#utility.yul\":11629:11646   */\n      swap1\n      pop\n        /* \"#utility.yul\":11674:11676   */\n      0x1f\n        /* \"#utility.yul\":11666:11672   */\n      dup4\n        /* \"#utility.yul\":11663:11677   */\n      gt\n        /* \"#utility.yul\":11691:11692   */\n      0x01\n        /* \"#utility.yul\":11686:12304   */\n      dup2\n      eq\n      tag_237\n      jumpi\n        /* \"#utility.yul\":12348:12349   */\n      0x00\n        /* \"#utility.yul\":12365:12371   */\n      dup5\n        /* \"#utility.yul\":12362:12439   */\n      iszero\n      tag_238\n      jumpi\n        /* \"#utility.yul\":12414:12423   */\n      dup3\n        /* \"#utility.yul\":12409:12412   */\n      dup8\n        /* \"#utility.yul\":12405:12424   */\n      add\n        /* \"#utility.yul\":12399:12425   */\n      mload\n        /* \"#utility.yul\":12390:12425   */\n      swap1\n      pop\n        /* \"#utility.yul\":12362:12439   */\n    tag_238:\n        /* \"#utility.yul\":12465:12532   */\n      tag_239\n        /* \"#utility.yul\":12525:12531   */\n      dup6\n        /* \"#utility.yul\":12518:12523   */\n      dup3\n        /* \"#utility.yul\":12465:12532   */\n      tag_108\n      jump\t// in\n    tag_239:\n        /* \"#utility.yul\":12459:12463   */\n      dup7\n        /* \"#utility.yul\":12452:12533   */\n      sstore\n        /* \"#utility.yul\":12321:12543   */\n      pop\n        /* \"#utility.yul\":11656:12543   */\n      jump(tag_236)\n        /* \"#utility.yul\":11686:12304   */\n    tag_237:\n        /* \"#utility.yul\":11738:11742   */\n      0x1f\n        /* \"#utility.yul\":11734:11743   */\n      not\n        /* \"#utility.yul\":11726:11732   */\n      dup5\n        /* \"#utility.yul\":11722:11744   */\n      and\n        /* \"#utility.yul\":11772:11809   */\n      tag_240\n        /* \"#utility.yul\":11804:11808   */\n      dup7\n        /* \"#utility.yul\":11772:11809   */\n      tag_94\n      jump\t// in\n    tag_240:\n        /* \"#utility.yul\":11831:11832   */\n      0x00\n        /* \"#utility.yul\":11845:12053   */\n    tag_241:\n        /* \"#utility.yul\":11859:11866   */\n      dup3\n        /* \"#utility.yul\":11856:11857   */\n      dup2\n        /* \"#utility.yul\":11853:11867   */\n      lt\n        /* \"#utility.yul\":11845:12053   */\n      iszero\n      tag_243\n      jumpi\n        /* \"#utility.yul\":11938:11947   */\n      dup5\n        /* \"#utility.yul\":11933:11936   */\n      dup10\n        /* \"#utility.yul\":11929:11948   */\n      add\n        /* \"#utility.yul\":11923:11949   */\n      mload\n        /* \"#utility.yul\":11915:11921   */\n      dup3\n        /* \"#utility.yul\":11908:11950   */\n      sstore\n        /* \"#utility.yul\":11989:11990   */\n      0x01\n        /* \"#utility.yul\":11981:11987   */\n      dup3\n        /* \"#utility.yul\":11977:11991   */\n      add\n        /* \"#utility.yul\":11967:11991   */\n      swap2\n      pop\n        /* \"#utility.yul\":12036:12038   */\n      0x20\n        /* \"#utility.yul\":12025:12034   */\n      dup6\n        /* \"#utility.yul\":12021:12039   */\n      add\n        /* \"#utility.yul\":12008:12039   */\n      swap5\n      pop\n        /* \"#utility.yul\":11882:11886   */\n      0x20\n        /* \"#utility.yul\":11879:11880   */\n      dup2\n        /* \"#utility.yul\":11875:11887   */\n      add\n        /* \"#utility.yul\":11870:11887   */\n      swap1\n      pop\n        /* \"#utility.yul\":11845:12053   */\n      jump(tag_241)\n    tag_243:\n        /* \"#utility.yul\":12081:12087   */\n      dup7\n        /* \"#utility.yul\":12072:12079   */\n      dup4\n        /* \"#utility.yul\":12069:12088   */\n      lt\n        /* \"#utility.yul\":12066:12245   */\n      iszero\n      tag_244\n      jumpi\n        /* \"#utility.yul\":12139:12148   */\n      dup5\n        /* \"#utility.yul\":12134:12137   */\n      dup10\n        /* \"#utility.yul\":12130:12149   */\n      add\n        /* \"#utility.yul\":12124:12150   */\n      mload\n        /* \"#utility.yul\":12182:12230   */\n      tag_245\n        /* \"#utility.yul\":12224:12228   */\n      0x1f\n        /* \"#utility.yul\":12216:12222   */\n      dup10\n        /* \"#utility.yul\":12212:12229   */\n      and\n        /* \"#utility.yul\":12201:12210   */\n      dup3\n        /* \"#utility.yul\":12182:12230   */\n      tag_107\n      jump\t// in\n    tag_245:\n        /* \"#utility.yul\":12174:12180   */\n      dup4\n        /* \"#utility.yul\":12167:12231   */\n      sstore\n        /* \"#utility.yul\":12089:12245   */\n      pop\n        /* \"#utility.yul\":12066:12245   */\n    tag_244:\n        /* \"#utility.yul\":12291:12292   */\n      0x01\n        /* \"#utility.yul\":12287:12288   */\n      0x02\n        /* \"#utility.yul\":12279:12285   */\n      dup9\n        /* \"#utility.yul\":12275:12289   */\n      mul\n        /* \"#utility.yul\":12271:12293   */\n      add\n        /* \"#utility.yul\":12265:12269   */\n      dup9\n        /* \"#utility.yul\":12258:12294   */\n      sstore\n        /* \"#utility.yul\":11693:12304   */\n      pop\n      pop\n      pop\n        /* \"#utility.yul\":11656:12543   */\n    tag_236:\n      pop\n        /* \"#utility.yul\":11246:12549   */\n      pop\n      pop\n      pop\n        /* \"#utility.yul\":11154:12549   */\n      pop\n      pop\n      jump\t// out\n\n    auxdata: 0xa2646970667358221220adc3a61cf21f00f7c021e3e7c0c273123d80391cdb3dcf2d5c2c6679195048b764736f6c634300081e0033\n}\n",
				"bytecode": {
					"linkReferences": {},
					"object": "608060405234801561000f575f5ffd5b506040516111ba3803806111ba8339818101604052810190610031919061027a565b835f908161003f919061051d565b50826001908161004f919061051d565b50816002819055508060035f6101000a81548173ffffffffffffffffffffffffffffffffffffffff021916908373ffffffffffffffffffffffffffffffffffffffff160217905550505050506105ec565b5f604051905090565b5f5ffd5b5f5ffd5b5f5ffd5b5f5ffd5b5f601f19601f8301169050919050565b7f4e487b71000000000000000000000000000000000000000000000000000000005f52604160045260245ffd5b6100ff826100b9565b810181811067ffffffffffffffff8211171561011e5761011d6100c9565b5b80604052505050565b5f6101306100a0565b905061013c82826100f6565b919050565b5f67ffffffffffffffff82111561015b5761015a6100c9565b5b610164826100b9565b9050602081019050919050565b8281835e5f83830152505050565b5f61019161018c84610141565b610127565b9050828152602081018484840111156101ad576101ac6100b5565b5b6101b8848285610171565b509392505050565b5f82601f8301126101d4576101d36100b1565b5b81516101e484826020860161017f565b91505092915050565b5f819050919050565b6101ff816101ed565b8114610209575f5ffd5b50565b5f8151905061021a816101f6565b92915050565b5f73ffffffffffffffffffffffffffffffffffffffff82169050919050565b5f61024982610220565b9050919050565b6102598161023f565b8114610263575f5ffd5b50565b5f8151905061027481610250565b92915050565b5f5f5f5f60808587031215610292576102916100a9565b5b5f85015167ffffffffffffffff8111156102af576102ae6100ad565b5b6102bb878288016101c0565b945050602085015167ffffffffffffffff8111156102dc576102db6100ad565b5b6102e8878288016101c0565b93505060406102f98782880161020c565b925050606061030a87828801610266565b91505092959194509250565b5f81519050919050565b7f4e487b71000000000000000000000000000000000000000000000000000000005f52602260045260245ffd5b5f600282049050600182168061036457607f821691505b60208210810361037757610376610320565b5b50919050565b5f819050815f5260205f209050919050565b5f6020601f8301049050919050565b5f82821b905092915050565b5f600883026103d97fffffffffffffffffffffffffffffffffffffffffffffffffffffffffffffffff8261039e565b6103e3868361039e565b95508019841693508086168417925050509392505050565b5f819050919050565b5f61041e610419610414846101ed565b6103fb565b6101ed565b9050919050565b5f819050919050565b61043783610404565b61044b61044382610425565b8484546103aa565b825550505050565b5f5f905090565b610462610453565b61046d81848461042e565b505050565b5b81811015610490576104855f8261045a565b600181019050610473565b5050565b601f8211156104d5576104a68161037d565b6104af8461038f565b810160208510156104be578190505b6104d26104ca8561038f565b830182610472565b50505b505050565b5f82821c905092915050565b5f6104f55f19846008026104da565b1980831691505092915050565b5f61050d83836104e6565b9150826002028217905092915050565b61052682610316565b67ffffffffffffffff81111561053f5761053e6100c9565b5b610549825461034d565b610554828285610494565b5f60209050601f831160018114610585575f8415610573578287015190505b61057d8582610502565b8655506105e4565b601f1984166105938661037d565b5f5b828110156105ba57848901518255600182019150602085019450602081019050610595565b868310156105d757848901516105d3601f8916826104e6565b8355505b6001600288020188555050505b505050505050565b610bc1806105f95f395ff3fe608060405234801561000f575f5ffd5b5060043610610060575f3560e01c8063667b6e6114610064578063845ddcb2146100825780638da5cb5b146100b357806394a76b21146100d1578063db3cb581146100ed578063e2b3f6d81461010b575b5f5ffd5b61006c610129565b60405161007991906104f3565b60405180910390f35b61009c60048036038101906100979190610547565b61012f565b6040516100aa9291906105e2565b60405180910390f35b6100bb61026a565b6040516100c89190610656565b60405180910390f35b6100eb60048036038101906100e6919061079b565b61028f565b005b6100f56103c4565b6040516101029190610811565b60405180910390f35b61011361044f565b6040516101209190610811565b60405180910390f35b60025481565b6004818154811061013e575f80fd5b905f5260205f2090600202015f91509050805f01805461015d9061085e565b80601f01602080910402602001604051908101604052809291908181526020018280546101899061085e565b80156101d45780601f106101ab576101008083540402835291602001916101d4565b820191905f5260205f20905b8154815290600101906020018083116101b757829003601f168201915b5050505050908060010180546101e99061085e565b80601f01602080910402602001604051908101604052809291908181526020018280546102159061085e565b80156102605780601f1061023757610100808354040283529160200191610260565b820191905f5260205f20905b81548152906001019060200180831161024357829003601f168201915b5050505050905082565b60035f9054906101000a900473ffffffffffffffffffffffffffffffffffffffff1681565b60035f9054906101000a900473ffffffffffffffffffffffffffffffffffffffff1673ffffffffffffffffffffffffffffffffffffffff163373ffffffffffffffffffffffffffffffffffffffff161461031e576040517f08c379a0000000000000000000000000000000000000000000000000000000008152600401610315906108fe565b60405180910390fd5b6004604051806040016040528084815260200183815250908060018154018082558091505060019003905f5260205f2090600202015f909190919091505f820151815f01908161036e9190610abc565b5060208201518160010190816103849190610abc565b5050507fca0694529e21db15d3e82c504bff67f4f258f1a03cb3525ecffc834d515e8f7c82826040516103b89291906105e2565b60405180910390a15050565b5f80546103d09061085e565b80601f01602080910402602001604051908101604052809291908181526020018280546103fc9061085e565b80156104475780601f1061041e57610100808354040283529160200191610447565b820191905f5260205f20905b81548152906001019060200180831161042a57829003601f168201915b505050505081565b6001805461045c9061085e565b80601f01602080910402602001604051908101604052809291908181526020018280546104889061085e565b80156104d35780601f106104aa576101008083540402835291602001916104d3565b820191905f5260205f20905b8154815290600101906020018083116104b657829003601f168201915b505050505081565b5f819050919050565b6104ed816104db565b82525050565b5f6020820190506105065f8301846104e4565b92915050565b5f604051905090565b5f5ffd5b5f5ffd5b610526816104db565b8114610530575f5ffd5b50565b5f813590506105418161051d565b92915050565b5f6020828403121561055c5761055b610515565b5b5f61056984828501610533565b91505092915050565b5f81519050919050565b5f82825260208201905092915050565b8281835e5f83830152505050565b5f601f19601f8301169050919050565b5f6105b482610572565b6105be818561057c565b93506105ce81856020860161058c565b6105d78161059a565b840191505092915050565b5f6040820190508181035f8301526105fa81856105aa565b9050818103602083015261060e81846105aa565b90509392505050565b5f73ffffffffffffffffffffffffffffffffffffffff82169050919050565b5f61064082610617565b9050919050565b61065081610636565b82525050565b5f6020820190506106695f830184610647565b92915050565b5f5ffd5b5f5ffd5b7f4e487b71000000000000000000000000000000000000000000000000000000005f52604160045260245ffd5b6106ad8261059a565b810181811067ffffffffffffffff821117156106cc576106cb610677565b5b80604052505050565b5f6106de61050c565b90506106ea82826106a4565b919050565b5f67ffffffffffffffff82111561070957610708610677565b5b6107128261059a565b9050602081019050919050565b828183375f83830152505050565b5f61073f61073a846106ef565b6106d5565b90508281526020810184848401111561075b5761075a610673565b5b61076684828561071f565b509392505050565b5f82601f8301126107825761078161066f565b5b813561079284826020860161072d565b91505092915050565b5f5f604083850312156107b1576107b0610515565b5b5f83013567ffffffffffffffff8111156107ce576107cd610519565b5b6107da8582860161076e565b925050602083013567ffffffffffffffff8111156107fb576107fa610519565b5b6108078582860161076e565b9150509250929050565b5f6020820190508181035f83015261082981846105aa565b905092915050565b7f4e487b71000000000000000000000000000000000000000000000000000000005f52602260045260245ffd5b5f600282049050600182168061087557607f821691505b60208210810361088857610887610831565b5b50919050565b7f5065726d697373696f6e2064656e6965642e20596f7520617265206e6f7420745f8201527f6865206f776e65722e0000000000000000000000000000000000000000000000602082015250565b5f6108e860298361057c565b91506108f38261088e565b604082019050919050565b5f6020820190508181035f830152610915816108dc565b9050919050565b5f819050815f5260205f209050919050565b5f6020601f8301049050919050565b5f82821b905092915050565b5f600883026109787fffffffffffffffffffffffffffffffffffffffffffffffffffffffffffffffff8261093d565b610982868361093d565b95508019841693508086168417925050509392505050565b5f819050919050565b5f6109bd6109b86109b3846104db565b61099a565b6104db565b9050919050565b5f819050919050565b6109d6836109a3565b6109ea6109e2826109c4565b848454610949565b825550505050565b5f5f905090565b610a016109f2565b610a0c8184846109cd565b505050565b5b81811015610a2f57610a245f826109f9565b600181019050610a12565b5050565b601f821115610a7457610a458161091c565b610a4e8461092e565b81016020851015610a5d578190505b610a71610a698561092e565b830182610a11565b50505b505050565b5f82821c905092915050565b5f610a945f1984600802610a79565b1980831691505092915050565b5f610aac8383610a85565b9150826002028217905092915050565b610ac582610572565b67ffffffffffffffff811115610ade57610add610677565b5b610ae8825461085e565b610af3828285610a33565b5f60209050601f831160018114610b24575f8415610b12578287015190505b610b1c8582610aa1565b865550610b83565b601f198416610b328661091c565b5f5b82811015610b5957848901518255600182019150602085019450602081019050610b34565b86831015610b765784890151610b72601f891682610a85565b8355505b6001600288020188555050505b50505050505056fea2646970667358221220adc3a61cf21f00f7c021e3e7c0c273123d80391cdb3dcf2d5c2c6679195048b764736f6c634300081e0033",
					"opcodes": "PUSH1 0x80 PUSH1 0x40 MSTORE CALLVALUE DUP1 ISZERO PUSH2 0xF JUMPI PUSH0 PUSH0 REVERT JUMPDEST POP PUSH1 0x40 MLOAD PUSH2 0x11BA CODESIZE SUB DUP1 PUSH2 0x11BA DUP4 CODECOPY DUP2 DUP2 ADD PUSH1 0x40 MSTORE DUP2 ADD SWAP1 PUSH2 0x31 SWAP2 SWAP1 PUSH2 0x27A JUMP JUMPDEST DUP4 PUSH0 SWAP1 DUP2 PUSH2 0x3F SWAP2 SWAP1 PUSH2 0x51D JUMP JUMPDEST POP DUP3 PUSH1 0x1 SWAP1 DUP2 PUSH2 0x4F SWAP2 SWAP1 PUSH2 0x51D JUMP JUMPDEST POP DUP2 PUSH1 0x2 DUP2 SWAP1 SSTORE POP DUP1 PUSH1 0x3 PUSH0 PUSH2 0x100 EXP DUP2 SLOAD DUP2 PUSH20 0xFFFFFFFFFFFFFFFFFFFFFFFFFFFFFFFFFFFFFFFF MUL NOT AND SWAP1 DUP4 PUSH20 0xFFFFFFFFFFFFFFFFFFFFFFFFFFFFFFFFFFFFFFFF AND MUL OR SWAP1 SSTORE POP POP POP POP POP PUSH2 0x5EC JUMP JUMPDEST PUSH0 PUSH1 0x40 MLOAD SWAP1 POP SWAP1 JUMP JUMPDEST PUSH0 PUSH0 REVERT JUMPDEST PUSH0 PUSH0 REVERT JUMPDEST PUSH0 PUSH0 REVERT JUMPDEST PUSH0 PUSH0 REVERT JUMPDEST PUSH0 PUSH1 0x1F NOT PUSH1 0x1F DUP4 ADD AND SWAP1 POP SWAP2 SWAP1 POP JUMP JUMPDEST PUSH32 0x4E487B7100000000000000000000000000000000000000000000000000000000 PUSH0 MSTORE PUSH1 0x41 PUSH1 0x4 MSTORE PUSH1 0x24 PUSH0 REVERT JUMPDEST PUSH2 0xFF DUP3 PUSH2 0xB9 JUMP JUMPDEST DUP2 ADD DUP2 DUP2 LT PUSH8 0xFFFFFFFFFFFFFFFF DUP3 GT OR ISZERO PUSH2 0x11E JUMPI PUSH2 0x11D PUSH2 0xC9 JUMP JUMPDEST JUMPDEST DUP1 PUSH1 0x40 MSTORE POP POP POP JUMP JUMPDEST PUSH0 PUSH2 0x130 PUSH2 0xA0 JUMP JUMPDEST SWAP1 POP PUSH2 0x13C DUP3 DUP3 PUSH2 0xF6 JUMP JUMPDEST SWAP2 SWAP1 POP JUMP JUMPDEST PUSH0 PUSH8 0xFFFFFFFFFFFFFFFF DUP3 GT ISZERO PUSH2 0x15B JUMPI PUSH2 0x15A PUSH2 0xC9 JUMP JUMPDEST JUMPDEST PUSH2 0x164 DUP3 PUSH2 0xB9 JUMP JUMPDEST SWAP1 POP PUSH1 0x20 DUP2 ADD SWAP1 POP SWAP2 SWAP1 POP JUMP JUMPDEST DUP3 DUP2 DUP4 MCOPY PUSH0 DUP4 DUP4 ADD MSTORE POP POP POP JUMP JUMPDEST PUSH0 PUSH2 0x191 PUSH2 0x18C DUP5 PUSH2 0x141 JUMP JUMPDEST PUSH2 0x127 JUMP JUMPDEST SWAP1 POP DUP3 DUP2 MSTORE PUSH1 0x20 DUP2 ADD DUP5 DUP5 DUP5 ADD GT ISZERO PUSH2 0x1AD JUMPI PUSH2 0x1AC PUSH2 0xB5 JUMP JUMPDEST JUMPDEST PUSH2 0x1B8 DUP5 DUP3 DUP6 PUSH2 0x171 JUMP JUMPDEST POP SWAP4 SWAP3 POP POP POP JUMP JUMPDEST PUSH0 DUP3 PUSH1 0x1F DUP4 ADD SLT PUSH2 0x1D4 JUMPI PUSH2 0x1D3 PUSH2 0xB1 JUMP JUMPDEST JUMPDEST DUP2 MLOAD PUSH2 0x1E4 DUP5 DUP3 PUSH1 0x20 DUP7 ADD PUSH2 0x17F JUMP JUMPDEST SWAP2 POP POP SWAP3 SWAP2 POP POP JUMP JUMPDEST PUSH0 DUP2 SWAP1 POP SWAP2 SWAP1 POP JUMP JUMPDEST PUSH2 0x1FF DUP2 PUSH2 0x1ED JUMP JUMPDEST DUP2 EQ PUSH2 0x209 JUMPI PUSH0 PUSH0 REVERT JUMPDEST POP JUMP JUMPDEST PUSH0 DUP2 MLOAD SWAP1 POP PUSH2 0x21A DUP2 PUSH2 0x1F6 JUMP JUMPDEST SWAP3 SWAP2 POP POP JUMP JUMPDEST PUSH0 PUSH20 0xFFFFFFFFFFFFFFFFFFFFFFFFFFFFFFFFFFFFFFFF DUP3 AND SWAP1 POP SWAP2 SWAP1 POP JUMP JUMPDEST PUSH0 PUSH2 0x249 DUP3 PUSH2 0x220 JUMP JUMPDEST SWAP1 POP SWAP2 SWAP1 POP JUMP JUMPDEST PUSH2 0x259 DUP2 PUSH2 0x23F JUMP JUMPDEST DUP2 EQ PUSH2 0x263 JUMPI PUSH0 PUSH0 REVERT JUMPDEST POP JUMP JUMPDEST PUSH0 DUP2 MLOAD SWAP1 POP PUSH2 0x274 DUP2 PUSH2 0x250 JUMP JUMPDEST SWAP3 SWAP2 POP POP JUMP JUMPDEST PUSH0 PUSH0 PUSH0 PUSH0 PUSH1 0x80 DUP6 DUP8 SUB SLT ISZERO PUSH2 0x292 JUMPI PUSH2 0x291 PUSH2 0xA9 JUMP JUMPDEST JUMPDEST PUSH0 DUP6 ADD MLOAD PUSH8 0xFFFFFFFFFFFFFFFF DUP2 GT ISZERO PUSH2 0x2AF JUMPI PUSH2 0x2AE PUSH2 0xAD JUMP JUMPDEST JUMPDEST PUSH2 0x2BB DUP8 DUP3 DUP9 ADD PUSH2 0x1C0 JUMP JUMPDEST SWAP5 POP POP PUSH1 0x20 DUP6 ADD MLOAD PUSH8 0xFFFFFFFFFFFFFFFF DUP2 GT ISZERO PUSH2 0x2DC JUMPI PUSH2 0x2DB PUSH2 0xAD JUMP JUMPDEST JUMPDEST PUSH2 0x2E8 DUP8 DUP3 DUP9 ADD PUSH2 0x1C0 JUMP JUMPDEST SWAP4 POP POP PUSH1 0x40 PUSH2 0x2F9 DUP8 DUP3 DUP9 ADD PUSH2 0x20C JUMP JUMPDEST SWAP3 POP POP PUSH1 0x60 PUSH2 0x30A DUP8 DUP3 DUP9 ADD PUSH2 0x266 JUMP JUMPDEST SWAP2 POP POP SWAP3 SWAP6 SWAP2 SWAP5 POP SWAP3 POP JUMP JUMPDEST PUSH0 DUP2 MLOAD SWAP1 POP SWAP2 SWAP1 POP JUMP JUMPDEST PUSH32 0x4E487B7100000000000000000000000000000000000000000000000000000000 PUSH0 MSTORE PUSH1 0x22 PUSH1 0x4 MSTORE PUSH1 0x24 PUSH0 REVERT JUMPDEST PUSH0 PUSH1 0x2 DUP3 DIV SWAP1 POP PUSH1 0x1 DUP3 AND DUP1 PUSH2 0x364 JUMPI PUSH1 0x7F DUP3 AND SWAP2 POP JUMPDEST PUSH1 0x20 DUP3 LT DUP2 SUB PUSH2 0x377 JUMPI PUSH2 0x376 PUSH2 0x320 JUMP JUMPDEST JUMPDEST POP SWAP2 SWAP1 POP JUMP JUMPDEST PUSH0 DUP2 SWAP1 POP DUP2 PUSH0 MSTORE PUSH1 0x20 PUSH0 KECCAK256 SWAP1 POP SWAP2 SWAP1 POP JUMP JUMPDEST PUSH0 PUSH1 0x20 PUSH1 0x1F DUP4 ADD DIV SWAP1 POP SWAP2 SWAP1 POP JUMP JUMPDEST PUSH0 DUP3 DUP3 SHL SWAP1 POP SWAP3 SWAP2 POP POP JUMP JUMPDEST PUSH0 PUSH1 0x8 DUP4 MUL PUSH2 0x3D9 PUSH32 0xFFFFFFFFFFFFFFFFFFFFFFFFFFFFFFFFFFFFFFFFFFFFFFFFFFFFFFFFFFFFFFFF DUP3 PUSH2 0x39E JUMP JUMPDEST PUSH2 0x3E3 DUP7 DUP4 PUSH2 0x39E JUMP JUMPDEST SWAP6 POP DUP1 NOT DUP5 AND SWAP4 POP DUP1 DUP7 AND DUP5 OR SWAP3 POP POP POP SWAP4 SWAP3 POP POP POP JUMP JUMPDEST PUSH0 DUP2 SWAP1 POP SWAP2 SWAP1 POP JUMP JUMPDEST PUSH0 PUSH2 0x41E PUSH2 0x419 PUSH2 0x414 DUP5 PUSH2 0x1ED JUMP JUMPDEST PUSH2 0x3FB JUMP JUMPDEST PUSH2 0x1ED JUMP JUMPDEST SWAP1 POP SWAP2 SWAP1 POP JUMP JUMPDEST PUSH0 DUP2 SWAP1 POP SWAP2 SWAP1 POP JUMP JUMPDEST PUSH2 0x437 DUP4 PUSH2 0x404 JUMP JUMPDEST PUSH2 0x44B PUSH2 0x443 DUP3 PUSH2 0x425 JUMP JUMPDEST DUP5 DUP5 SLOAD PUSH2 0x3AA JUMP JUMPDEST DUP3 SSTORE POP POP POP POP JUMP JUMPDEST PUSH0 PUSH0 SWAP1 POP SWAP1 JUMP JUMPDEST PUSH2 0x462 PUSH2 0x453 JUMP JUMPDEST PUSH2 0x46D DUP2 DUP5 DUP5 PUSH2 0x42E JUMP JUMPDEST POP POP POP JUMP JUMPDEST JUMPDEST DUP2 DUP2 LT ISZERO PUSH2 0x490 JUMPI PUSH2 0x485 PUSH0 DUP3 PUSH2 0x45A JUMP JUMPDEST PUSH1 0x1 DUP2 ADD SWAP1 POP PUSH2 0x473 JUMP JUMPDEST POP POP JUMP JUMPDEST PUSH1 0x1F DUP3 GT ISZERO PUSH2 0x4D5 JUMPI PUSH2 0x4A6 DUP2 PUSH2 0x37D JUMP JUMPDEST PUSH2 0x4AF DUP5 PUSH2 0x38F JUMP JUMPDEST DUP2 ADD PUSH1 0x20 DUP6 LT ISZERO PUSH2 0x4BE JUMPI DUP2 SWAP1 POP JUMPDEST PUSH2 0x4D2 PUSH2 0x4CA DUP6 PUSH2 0x38F JUMP JUMPDEST DUP4 ADD DUP3 PUSH2 0x472 JUMP JUMPDEST POP POP JUMPDEST POP POP POP JUMP JUMPDEST PUSH0 DUP3 DUP3 SHR SWAP1 POP SWAP3 SWAP2 POP POP JUMP JUMPDEST PUSH0 PUSH2 0x4F5 PUSH0 NOT DUP5 PUSH1 0x8 MUL PUSH2 0x4DA JUMP JUMPDEST NOT DUP1 DUP4 AND SWAP2 POP POP SWAP3 SWAP2 POP POP JUMP JUMPDEST PUSH0 PUSH2 0x50D DUP4 DUP4 PUSH2 0x4E6 JUMP JUMPDEST SWAP2 POP DUP3 PUSH1 0x2 MUL DUP3 OR SWAP1 POP SWAP3 SWAP2 POP POP JUMP JUMPDEST PUSH2 0x526 DUP3 PUSH2 0x316 JUMP JUMPDEST PUSH8 0xFFFFFFFFFFFFFFFF DUP2 GT ISZERO PUSH2 0x53F JUMPI PUSH2 0x53E PUSH2 0xC9 JUMP JUMPDEST JUMPDEST PUSH2 0x549 DUP3 SLOAD PUSH2 0x34D JUMP JUMPDEST PUSH2 0x554 DUP3 DUP3 DUP6 PUSH2 0x494 JUMP JUMPDEST PUSH0 PUSH1 0x20 SWAP1 POP PUSH1 0x1F DUP4 GT PUSH1 0x1 DUP2 EQ PUSH2 0x585 JUMPI PUSH0 DUP5 ISZERO PUSH2 0x573 JUMPI DUP3 DUP8 ADD MLOAD SWAP1 POP JUMPDEST PUSH2 0x57D DUP6 DUP3 PUSH2 0x502 JUMP JUMPDEST DUP7 SSTORE POP PUSH2 0x5E4 JUMP JUMPDEST PUSH1 0x1F NOT DUP5 AND PUSH2 0x593 DUP7 PUSH2 0x37D JUMP JUMPDEST PUSH0 JUMPDEST DUP3 DUP2 LT ISZERO PUSH2 0x5BA JUMPI DUP5 DUP10 ADD MLOAD DUP3 SSTORE PUSH1 0x1 DUP3 ADD SWAP2 POP PUSH1 0x20 DUP6 ADD SWAP5 POP PUSH1 0x20 DUP2 ADD SWAP1 POP PUSH2 0x595 JUMP JUMPDEST DUP7 DUP4 LT ISZERO PUSH2 0x5D7 JUMPI DUP5 DUP10 ADD MLOAD PUSH2 0x5D3 PUSH1 0x1F DUP10 AND DUP3 PUSH2 0x4E6 JUMP JUMPDEST DUP4 SSTORE POP JUMPDEST PUSH1 0x1 PUSH1 0x2 DUP9 MUL ADD DUP9 SSTORE POP POP POP JUMPDEST POP POP POP POP POP POP JUMP JUMPDEST PUSH2 0xBC1 DUP1 PUSH2 0x5F9 PUSH0 CODECOPY PUSH0 RETURN INVALID PUSH1 0x80 PUSH1 0x40 MSTORE CALLVALUE DUP1 ISZERO PUSH2 0xF JUMPI PUSH0 PUSH0 REVERT JUMPDEST POP PUSH1 0x4 CALLDATASIZE LT PUSH2 0x60 JUMPI PUSH0 CALLDATALOAD PUSH1 0xE0 SHR DUP1 PUSH4 0x667B6E61 EQ PUSH2 0x64 JUMPI DUP1 PUSH4 0x845DDCB2 EQ PUSH2 0x82 JUMPI DUP1 PUSH4 0x8DA5CB5B EQ PUSH2 0xB3 JUMPI DUP1 PUSH4 0x94A76B21 EQ PUSH2 0xD1 JUMPI DUP1 PUSH4 0xDB3CB581 EQ PUSH2 0xED JUMPI DUP1 PUSH4 0xE2B3F6D8 EQ PUSH2 0x10B JUMPI JUMPDEST PUSH0 PUSH0 REVERT JUMPDEST PUSH2 0x6C PUSH2 0x129 JUMP JUMPDEST PUSH1 0x40 MLOAD PUSH2 0x79 SWAP2 SWAP1 PUSH2 0x4F3 JUMP JUMPDEST PUSH1 0x40 MLOAD DUP1 SWAP2 SUB SWAP1 RETURN JUMPDEST PUSH2 0x9C PUSH1 0x4 DUP1 CALLDATASIZE SUB DUP2 ADD SWAP1 PUSH2 0x97 SWAP2 SWAP1 PUSH2 0x547 JUMP JUMPDEST PUSH2 0x12F JUMP JUMPDEST PUSH1 0x40 MLOAD PUSH2 0xAA SWAP3 SWAP2 SWAP1 PUSH2 0x5E2 JUMP JUMPDEST PUSH1 0x40 MLOAD DUP1 SWAP2 SUB SWAP1 RETURN JUMPDEST PUSH2 0xBB PUSH2 0x26A JUMP JUMPDEST PUSH1 0x40 MLOAD PUSH2 0xC8 SWAP2 SWAP1 PUSH2 0x656 JUMP JUMPDEST PUSH1 0x40 MLOAD DUP1 SWAP2 SUB SWAP1 RETURN JUMPDEST PUSH2 0xEB PUSH1 0x4 DUP1 CALLDATASIZE SUB DUP2 ADD SWAP1 PUSH2 0xE6 SWAP2 SWAP1 PUSH2 0x79B JUMP JUMPDEST PUSH2 0x28F JUMP JUMPDEST STOP JUMPDEST PUSH2 0xF5 PUSH2 0x3C4 JUMP JUMPDEST PUSH1 0x40 MLOAD PUSH2 0x102 SWAP2 SWAP1 PUSH2 0x811 JUMP JUMPDEST PUSH1 0x40 MLOAD DUP1 SWAP2 SUB SWAP1 RETURN JUMPDEST PUSH2 0x113 PUSH2 0x44F JUMP JUMPDEST PUSH1 0x40 MLOAD PUSH2 0x120 SWAP2 SWAP1 PUSH2 0x811 JUMP JUMPDEST PUSH1 0x40 MLOAD DUP1 SWAP2 SUB SWAP1 RETURN JUMPDEST PUSH1 0x2 SLOAD DUP2 JUMP JUMPDEST PUSH1 0x4 DUP2 DUP2 SLOAD DUP2 LT PUSH2 0x13E JUMPI PUSH0 DUP1 REVERT JUMPDEST SWAP1 PUSH0 MSTORE PUSH1 0x20 PUSH0 KECCAK256 SWAP1 PUSH1 0x2 MUL ADD PUSH0 SWAP2 POP SWAP1 POP DUP1 PUSH0 ADD DUP1 SLOAD PUSH2 0x15D SWAP1 PUSH2 0x85E JUMP JUMPDEST DUP1 PUSH1 0x1F ADD PUSH1 0x20 DUP1 SWAP2 DIV MUL PUSH1 0x20 ADD PUSH1 0x40 MLOAD SWAP1 DUP2 ADD PUSH1 0x40 MSTORE DUP1 SWAP3 SWAP2 SWAP1 DUP2 DUP2 MSTORE PUSH1 0x20 ADD DUP3 DUP1 SLOAD PUSH2 0x189 SWAP1 PUSH2 0x85E JUMP JUMPDEST DUP1 ISZERO PUSH2 0x1D4 JUMPI DUP1 PUSH1 0x1F LT PUSH2 0x1AB JUMPI PUSH2 0x100 DUP1 DUP4 SLOAD DIV MUL DUP4 MSTORE SWAP2 PUSH1 0x20 ADD SWAP2 PUSH2 0x1D4 JUMP JUMPDEST DUP3 ADD SWAP2 SWAP1 PUSH0 MSTORE PUSH1 0x20 PUSH0 KECCAK256 SWAP1 JUMPDEST DUP2 SLOAD DUP2 MSTORE SWAP1 PUSH1 0x1 ADD SWAP1 PUSH1 0x20 ADD DUP1 DUP4 GT PUSH2 0x1B7 JUMPI DUP3 SWAP1 SUB PUSH1 0x1F AND DUP3 ADD SWAP2 JUMPDEST POP POP POP POP POP SWAP1 DUP1 PUSH1 0x1 ADD DUP1 SLOAD PUSH2 0x1E9 SWAP1 PUSH2 0x85E JUMP JUMPDEST DUP1 PUSH1 0x1F ADD PUSH1 0x20 DUP1 SWAP2 DIV MUL PUSH1 0x20 ADD PUSH1 0x40 MLOAD SWAP1 DUP2 ADD PUSH1 0x40 MSTORE DUP1 SWAP3 SWAP2 SWAP1 DUP2 DUP2 MSTORE PUSH1 0x20 ADD DUP3 DUP1 SLOAD PUSH2 0x215 SWAP1 PUSH2 0x85E JUMP JUMPDEST DUP1 ISZERO PUSH2 0x260 JUMPI DUP1 PUSH1 0x1F LT PUSH2 0x237 JUMPI PUSH2 0x100 DUP1 DUP4 SLOAD DIV MUL DUP4 MSTORE SWAP2 PUSH1 0x20 ADD SWAP2 PUSH2 0x260 JUMP JUMPDEST DUP3 ADD SWAP2 SWAP1 PUSH0 MSTORE PUSH1 0x20 PUSH0 KECCAK256 SWAP1 JUMPDEST DUP2 SLOAD DUP2 MSTORE SWAP1 PUSH1 0x1 ADD SWAP1 PUSH1 0x20 ADD DUP1 DUP4 GT PUSH2 0x243 JUMPI DUP3 SWAP1 SUB PUSH1 0x1F AND DUP3 ADD SWAP2 JUMPDEST POP POP POP POP POP SWAP1 POP DUP3 JUMP JUMPDEST PUSH1 0x3 PUSH0 SWAP1 SLOAD SWAP1 PUSH2 0x100 EXP SWAP1 DIV PUSH20 0xFFFFFFFFFFFFFFFFFFFFFFFFFFFFFFFFFFFFFFFF AND DUP2 JUMP JUMPDEST PUSH1 0x3 PUSH0 SWAP1 SLOAD SWAP1 PUSH2 0x100 EXP SWAP1 DIV PUSH20 0xFFFFFFFFFFFFFFFFFFFFFFFFFFFFFFFFFFFFFFFF AND PUSH20 0xFFFFFFFFFFFFFFFFFFFFFFFFFFFFFFFFFFFFFFFF AND CALLER PUSH20 0xFFFFFFFFFFFFFFFFFFFFFFFFFFFFFFFFFFFFFFFF AND EQ PUSH2 0x31E JUMPI PUSH1 0x40 MLOAD PUSH32 0x8C379A000000000000000000000000000000000000000000000000000000000 DUP2 MSTORE PUSH1 0x4 ADD PUSH2 0x315 SWAP1 PUSH2 0x8FE JUMP JUMPDEST PUSH1 0x40 MLOAD DUP1 SWAP2 SUB SWAP1 REVERT JUMPDEST PUSH1 0x4 PUSH1 0x40 MLOAD DUP1 PUSH1 0x40 ADD PUSH1 0x40 MSTORE DUP1 DUP5 DUP2 MSTORE PUSH1 0x20 ADD DUP4 DUP2 MSTORE POP SWAP1 DUP1 PUSH1 0x1 DUP2 SLOAD ADD DUP1 DUP3 SSTORE DUP1 SWAP2 POP POP PUSH1 0x1 SWAP1 SUB SWAP1 PUSH0 MSTORE PUSH1 0x20 PUSH0 KECCAK256 SWAP1 PUSH1 0x2 MUL ADD PUSH0 SWAP1 SWAP2 SWAP1 SWAP2 SWAP1 SWAP2 POP PUSH0 DUP3 ADD MLOAD DUP2 PUSH0 ADD SWAP1 DUP2 PUSH2 0x36E SWAP2 SWAP1 PUSH2 0xABC JUMP JUMPDEST POP PUSH1 0x20 DUP3 ADD MLOAD DUP2 PUSH1 0x1 ADD SWAP1 DUP2 PUSH2 0x384 SWAP2 SWAP1 PUSH2 0xABC JUMP JUMPDEST POP POP POP PUSH32 0xCA0694529E21DB15D3E82C504BFF67F4F258F1A03CB3525ECFFC834D515E8F7C DUP3 DUP3 PUSH1 0x40 MLOAD PUSH2 0x3B8 SWAP3 SWAP2 SWAP1 PUSH2 0x5E2 JUMP JUMPDEST PUSH1 0x40 MLOAD DUP1 SWAP2 SUB SWAP1 LOG1 POP POP JUMP JUMPDEST PUSH0 DUP1 SLOAD PUSH2 0x3D0 SWAP1 PUSH2 0x85E JUMP JUMPDEST DUP1 PUSH1 0x1F ADD PUSH1 0x20 DUP1 SWAP2 DIV MUL PUSH1 0x20 ADD PUSH1 0x40 MLOAD SWAP1 DUP2 ADD PUSH1 0x40 MSTORE DUP1 SWAP3 SWAP2 SWAP1 DUP2 DUP2 MSTORE PUSH1 0x20 ADD DUP3 DUP1 SLOAD PUSH2 0x3FC SWAP1 PUSH2 0x85E JUMP JUMPDEST DUP1 ISZERO PUSH2 0x447 JUMPI DUP1 PUSH1 0x1F LT PUSH2 0x41E JUMPI PUSH2 0x100 DUP1 DUP4 SLOAD DIV MUL DUP4 MSTORE SWAP2 PUSH1 0x20 ADD SWAP2 PUSH2 0x447 JUMP JUMPDEST DUP3 ADD SWAP2 SWAP1 PUSH0 MSTORE PUSH1 0x20 PUSH0 KECCAK256 SWAP1 JUMPDEST DUP2 SLOAD DUP2 MSTORE SWAP1 PUSH1 0x1 ADD SWAP1 PUSH1 0x20 ADD DUP1 DUP4 GT PUSH2 0x42A JUMPI DUP3 SWAP1 SUB PUSH1 0x1F AND DUP3 ADD SWAP2 JUMPDEST POP POP POP POP POP DUP2 JUMP JUMPDEST PUSH1 0x1 DUP1 SLOAD PUSH2 0x45C SWAP1 PUSH2 0x85E JUMP JUMPDEST DUP1 PUSH1 0x1F ADD PUSH1 0x20 DUP1 SWAP2 DIV MUL PUSH1 0x20 ADD PUSH1 0x40 MLOAD SWAP1 DUP2 ADD PUSH1 0x40 MSTORE DUP1 SWAP3 SWAP2 SWAP1 DUP2 DUP2 MSTORE PUSH1 0x20 ADD DUP3 DUP1 SLOAD PUSH2 0x488 SWAP1 PUSH2 0x85E JUMP JUMPDEST DUP1 ISZERO PUSH2 0x4D3 JUMPI DUP1 PUSH1 0x1F LT PUSH2 0x4AA JUMPI PUSH2 0x100 DUP1 DUP4 SLOAD DIV MUL DUP4 MSTORE SWAP2 PUSH1 0x20 ADD SWAP2 PUSH2 0x4D3 JUMP JUMPDEST DUP3 ADD SWAP2 SWAP1 PUSH0 MSTORE PUSH1 0x20 PUSH0 KECCAK256 SWAP1 JUMPDEST DUP2 SLOAD DUP2 MSTORE SWAP1 PUSH1 0x1 ADD SWAP1 PUSH1 0x20 ADD DUP1 DUP4 GT PUSH2 0x4B6 JUMPI DUP3 SWAP1 SUB PUSH1 0x1F AND DUP3 ADD SWAP2 JUMPDEST POP POP POP POP POP DUP2 JUMP JUMPDEST PUSH0 DUP2 SWAP1 POP SWAP2 SWAP1 POP JUMP JUMPDEST PUSH2 0x4ED DUP2 PUSH2 0x4DB JUMP JUMPDEST DUP3 MSTORE POP POP JUMP JUMPDEST PUSH0 PUSH1 0x20 DUP3 ADD SWAP1 POP PUSH2 0x506 PUSH0 DUP4 ADD DUP5 PUSH2 0x4E4 JUMP JUMPDEST SWAP3 SWAP2 POP POP JUMP JUMPDEST PUSH0 PUSH1 0x40 MLOAD SWAP1 POP SWAP1 JUMP JUMPDEST PUSH0 PUSH0 REVERT JUMPDEST PUSH0 PUSH0 REVERT JUMPDEST PUSH2 0x526 DUP2 PUSH2 0x4DB JUMP JUMPDEST DUP2 EQ PUSH2 0x530 JUMPI PUSH0 PUSH0 REVERT JUMPDEST POP JUMP JUMPDEST PUSH0 DUP2 CALLDATALOAD SWAP1 POP PUSH2 0x541 DUP2 PUSH2 0x51D JUMP JUMPDEST SWAP3 SWAP2 POP POP JUMP JUMPDEST PUSH0 PUSH1 0x20 DUP3 DUP5 SUB SLT ISZERO PUSH2 0x55C JUMPI PUSH2 0x55B PUSH2 0x515 JUMP JUMPDEST JUMPDEST PUSH0 PUSH2 0x569 DUP5 DUP3 DUP6 ADD PUSH2 0x533 JUMP JUMPDEST SWAP2 POP POP SWAP3 SWAP2 POP POP JUMP JUMPDEST PUSH0 DUP2 MLOAD SWAP1 POP SWAP2 SWAP1 POP JUMP JUMPDEST PUSH0 DUP3 DUP3 MSTORE PUSH1 0x20 DUP3 ADD SWAP1 POP SWAP3 SWAP2 POP POP JUMP JUMPDEST DUP3 DUP2 DUP4 MCOPY PUSH0 DUP4 DUP4 ADD MSTORE POP POP POP JUMP JUMPDEST PUSH0 PUSH1 0x1F NOT PUSH1 0x1F DUP4 ADD AND SWAP1 POP SWAP2 SWAP1 POP JUMP JUMPDEST PUSH0 PUSH2 0x5B4 DUP3 PUSH2 0x572 JUMP JUMPDEST PUSH2 0x5BE DUP2 DUP6 PUSH2 0x57C JUMP JUMPDEST SWAP4 POP PUSH2 0x5CE DUP2 DUP6 PUSH1 0x20 DUP7 ADD PUSH2 0x58C JUMP JUMPDEST PUSH2 0x5D7 DUP2 PUSH2 0x59A JUMP JUMPDEST DUP5 ADD SWAP2 POP POP SWAP3 SWAP2 POP POP JUMP JUMPDEST PUSH0 PUSH1 0x40 DUP3 ADD SWAP1 POP DUP2 DUP2 SUB PUSH0 DUP4 ADD MSTORE PUSH2 0x5FA DUP2 DUP6 PUSH2 0x5AA JUMP JUMPDEST SWAP1 POP DUP2 DUP2 SUB PUSH1 0x20 DUP4 ADD MSTORE PUSH2 0x60E DUP2 DUP5 PUSH2 0x5AA JUMP JUMPDEST SWAP1 POP SWAP4 SWAP3 POP POP POP JUMP JUMPDEST PUSH0 PUSH20 0xFFFFFFFFFFFFFFFFFFFFFFFFFFFFFFFFFFFFFFFF DUP3 AND SWAP1 POP SWAP2 SWAP1 POP JUMP JUMPDEST PUSH0 PUSH2 0x640 DUP3 PUSH2 0x617 JUMP JUMPDEST SWAP1 POP SWAP2 SWAP1 POP JUMP JUMPDEST PUSH2 0x650 DUP2 PUSH2 0x636 JUMP JUMPDEST DUP3 MSTORE POP POP JUMP JUMPDEST PUSH0 PUSH1 0x20 DUP3 ADD SWAP1 POP PUSH2 0x669 PUSH0 DUP4 ADD DUP5 PUSH2 0x647 JUMP JUMPDEST SWAP3 SWAP2 POP POP JUMP JUMPDEST PUSH0 PUSH0 REVERT JUMPDEST PUSH0 PUSH0 REVERT JUMPDEST PUSH32 0x4E487B7100000000000000000000000000000000000000000000000000000000 PUSH0 MSTORE PUSH1 0x41 PUSH1 0x4 MSTORE PUSH1 0x24 PUSH0 REVERT JUMPDEST PUSH2 0x6AD DUP3 PUSH2 0x59A JUMP JUMPDEST DUP2 ADD DUP2 DUP2 LT PUSH8 0xFFFFFFFFFFFFFFFF DUP3 GT OR ISZERO PUSH2 0x6CC JUMPI PUSH2 0x6CB PUSH2 0x677 JUMP JUMPDEST JUMPDEST DUP1 PUSH1 0x40 MSTORE POP POP POP JUMP JUMPDEST PUSH0 PUSH2 0x6DE PUSH2 0x50C JUMP JUMPDEST SWAP1 POP PUSH2 0x6EA DUP3 DUP3 PUSH2 0x6A4 JUMP JUMPDEST SWAP2 SWAP1 POP JUMP JUMPDEST PUSH0 PUSH8 0xFFFFFFFFFFFFFFFF DUP3 GT ISZERO PUSH2 0x709 JUMPI PUSH2 0x708 PUSH2 0x677 JUMP JUMPDEST JUMPDEST PUSH2 0x712 DUP3 PUSH2 0x59A JUMP JUMPDEST SWAP1 POP PUSH1 0x20 DUP2 ADD SWAP1 POP SWAP2 SWAP1 POP JUMP JUMPDEST DUP3 DUP2 DUP4 CALLDATACOPY PUSH0 DUP4 DUP4 ADD MSTORE POP POP POP JUMP JUMPDEST PUSH0 PUSH2 0x73F PUSH2 0x73A DUP5 PUSH2 0x6EF JUMP JUMPDEST PUSH2 0x6D5 JUMP JUMPDEST SWAP1 POP DUP3 DUP2 MSTORE PUSH1 0x20 DUP2 ADD DUP5 DUP5 DUP5 ADD GT ISZERO PUSH2 0x75B JUMPI PUSH2 0x75A PUSH2 0x673 JUMP JUMPDEST JUMPDEST PUSH2 0x766 DUP5 DUP3 DUP6 PUSH2 0x71F JUMP JUMPDEST POP SWAP4 SWAP3 POP POP POP JUMP JUMPDEST PUSH0 DUP3 PUSH1 0x1F DUP4 ADD SLT PUSH2 0x782 JUMPI PUSH2 0x781 PUSH2 0x66F JUMP JUMPDEST JUMPDEST DUP2 CALLDATALOAD PUSH2 0x792 DUP5 DUP3 PUSH1 0x20 DUP7 ADD PUSH2 0x72D JUMP JUMPDEST SWAP2 POP POP SWAP3 SWAP2 POP POP JUMP JUMPDEST PUSH0 PUSH0 PUSH1 0x40 DUP4 DUP6 SUB SLT ISZERO PUSH2 0x7B1 JUMPI PUSH2 0x7B0 PUSH2 0x515 JUMP JUMPDEST JUMPDEST PUSH0 DUP4 ADD CALLDATALOAD PUSH8 0xFFFFFFFFFFFFFFFF DUP2 GT ISZERO PUSH2 0x7CE JUMPI PUSH2 0x7CD PUSH2 0x519 JUMP JUMPDEST JUMPDEST PUSH2 0x7DA DUP6 DUP3 DUP7 ADD PUSH2 0x76E JUMP JUMPDEST SWAP3 POP POP PUSH1 0x20 DUP4 ADD CALLDATALOAD PUSH8 0xFFFFFFFFFFFFFFFF DUP2 GT ISZERO PUSH2 0x7FB JUMPI PUSH2 0x7FA PUSH2 0x519 JUMP JUMPDEST JUMPDEST PUSH2 0x807 DUP6 DUP3 DUP7 ADD PUSH2 0x76E JUMP JUMPDEST SWAP2 POP POP SWAP3 POP SWAP3 SWAP1 POP JUMP JUMPDEST PUSH0 PUSH1 0x20 DUP3 ADD SWAP1 POP DUP2 DUP2 SUB PUSH0 DUP4 ADD MSTORE PUSH2 0x829 DUP2 DUP5 PUSH2 0x5AA JUMP JUMPDEST SWAP1 POP SWAP3 SWAP2 POP POP JUMP JUMPDEST PUSH32 0x4E487B7100000000000000000000000000000000000000000000000000000000 PUSH0 MSTORE PUSH1 0x22 PUSH1 0x4 MSTORE PUSH1 0x24 PUSH0 REVERT JUMPDEST PUSH0 PUSH1 0x2 DUP3 DIV SWAP1 POP PUSH1 0x1 DUP3 AND DUP1 PUSH2 0x875 JUMPI PUSH1 0x7F DUP3 AND SWAP2 POP JUMPDEST PUSH1 0x20 DUP3 LT DUP2 SUB PUSH2 0x888 JUMPI PUSH2 0x887 PUSH2 0x831 JUMP JUMPDEST JUMPDEST POP SWAP2 SWAP1 POP JUMP JUMPDEST PUSH32 0x5065726D697373696F6E2064656E6965642E20596F7520617265206E6F742074 PUSH0 DUP3 ADD MSTORE PUSH32 0x6865206F776E65722E0000000000000000000000000000000000000000000000 PUSH1 0x20 DUP3 ADD MSTORE POP JUMP JUMPDEST PUSH0 PUSH2 0x8E8 PUSH1 0x29 DUP4 PUSH2 0x57C JUMP JUMPDEST SWAP2 POP PUSH2 0x8F3 DUP3 PUSH2 0x88E JUMP JUMPDEST PUSH1 0x40 DUP3 ADD SWAP1 POP SWAP2 SWAP1 POP JUMP JUMPDEST PUSH0 PUSH1 0x20 DUP3 ADD SWAP1 POP DUP2 DUP2 SUB PUSH0 DUP4 ADD MSTORE PUSH2 0x915 DUP2 PUSH2 0x8DC JUMP JUMPDEST SWAP1 POP SWAP2 SWAP1 POP JUMP JUMPDEST PUSH0 DUP2 SWAP1 POP DUP2 PUSH0 MSTORE PUSH1 0x20 PUSH0 KECCAK256 SWAP1 POP SWAP2 SWAP1 POP JUMP JUMPDEST PUSH0 PUSH1 0x20 PUSH1 0x1F DUP4 ADD DIV SWAP1 POP SWAP2 SWAP1 POP JUMP JUMPDEST PUSH0 DUP3 DUP3 SHL SWAP1 POP SWAP3 SWAP2 POP POP JUMP JUMPDEST PUSH0 PUSH1 0x8 DUP4 MUL PUSH2 0x978 PUSH32 0xFFFFFFFFFFFFFFFFFFFFFFFFFFFFFFFFFFFFFFFFFFFFFFFFFFFFFFFFFFFFFFFF DUP3 PUSH2 0x93D JUMP JUMPDEST PUSH2 0x982 DUP7 DUP4 PUSH2 0x93D JUMP JUMPDEST SWAP6 POP DUP1 NOT DUP5 AND SWAP4 POP DUP1 DUP7 AND DUP5 OR SWAP3 POP POP POP SWAP4 SWAP3 POP POP POP JUMP JUMPDEST PUSH0 DUP2 SWAP1 POP SWAP2 SWAP1 POP JUMP JUMPDEST PUSH0 PUSH2 0x9BD PUSH2 0x9B8 PUSH2 0x9B3 DUP5 PUSH2 0x4DB JUMP JUMPDEST PUSH2 0x99A JUMP JUMPDEST PUSH2 0x4DB JUMP JUMPDEST SWAP1 POP SWAP2 SWAP1 POP JUMP JUMPDEST PUSH0 DUP2 SWAP1 POP SWAP2 SWAP1 POP JUMP JUMPDEST PUSH2 0x9D6 DUP4 PUSH2 0x9A3 JUMP JUMPDEST PUSH2 0x9EA PUSH2 0x9E2 DUP3 PUSH2 0x9C4 JUMP JUMPDEST DUP5 DUP5 SLOAD PUSH2 0x949 JUMP JUMPDEST DUP3 SSTORE POP POP POP POP JUMP JUMPDEST PUSH0 PUSH0 SWAP1 POP SWAP1 JUMP JUMPDEST PUSH2 0xA01 PUSH2 0x9F2 JUMP JUMPDEST PUSH2 0xA0C DUP2 DUP5 DUP5 PUSH2 0x9CD JUMP JUMPDEST POP POP POP JUMP JUMPDEST JUMPDEST DUP2 DUP2 LT ISZERO PUSH2 0xA2F JUMPI PUSH2 0xA24 PUSH0 DUP3 PUSH2 0x9F9 JUMP JUMPDEST PUSH1 0x1 DUP2 ADD SWAP1 POP PUSH2 0xA12 JUMP JUMPDEST POP POP JUMP JUMPDEST PUSH1 0x1F DUP3 GT ISZERO PUSH2 0xA74 JUMPI PUSH2 0xA45 DUP2 PUSH2 0x91C JUMP JUMPDEST PUSH2 0xA4E DUP5 PUSH2 0x92E JUMP JUMPDEST DUP2 ADD PUSH1 0x20 DUP6 LT ISZERO PUSH2 0xA5D JUMPI DUP2 SWAP1 POP JUMPDEST PUSH2 0xA71 PUSH2 0xA69 DUP6 PUSH2 0x92E JUMP JUMPDEST DUP4 ADD DUP3 PUSH2 0xA11 JUMP JUMPDEST POP POP JUMPDEST POP POP POP JUMP JUMPDEST PUSH0 DUP3 DUP3 SHR SWAP1 POP SWAP3 SWAP2 POP POP JUMP JUMPDEST PUSH0 PUSH2 0xA94 PUSH0 NOT DUP5 PUSH1 0x8 MUL PUSH2 0xA79 JUMP JUMPDEST NOT DUP1 DUP4 AND SWAP2 POP POP SWAP3 SWAP2 POP POP JUMP JUMPDEST PUSH0 PUSH2 0xAAC DUP4 DUP4 PUSH2 0xA85 JUMP JUMPDEST SWAP2 POP DUP3 PUSH1 0x2 MUL DUP3 OR SWAP1 POP SWAP3 SWAP2 POP POP JUMP JUMPDEST PUSH2 0xAC5 DUP3 PUSH2 0x572 JUMP JUMPDEST PUSH8 0xFFFFFFFFFFFFFFFF DUP2 GT ISZERO PUSH2 0xADE JUMPI PUSH2 0xADD PUSH2 0x677 JUMP JUMPDEST JUMPDEST PUSH2 0xAE8 DUP3 SLOAD PUSH2 0x85E JUMP JUMPDEST PUSH2 0xAF3 DUP3 DUP3 DUP6 PUSH2 0xA33 JUMP JUMPDEST PUSH0 PUSH1 0x20 SWAP1 POP PUSH1 0x1F DUP4 GT PUSH1 0x1 DUP2 EQ PUSH2 0xB24 JUMPI PUSH0 DUP5 ISZERO PUSH2 0xB12 JUMPI DUP3 DUP8 ADD MLOAD SWAP1 POP JUMPDEST PUSH2 0xB1C DUP6 DUP3 PUSH2 0xAA1 JUMP JUMPDEST DUP7 SSTORE POP PUSH2 0xB83 JUMP JUMPDEST PUSH1 0x1F NOT DUP5 AND PUSH2 0xB32 DUP7 PUSH2 0x91C JUMP JUMPDEST PUSH0 JUMPDEST DUP3 DUP2 LT ISZERO PUSH2 0xB59 JUMPI DUP5 DUP10 ADD MLOAD DUP3 SSTORE PUSH1 0x1 DUP3 ADD SWAP2 POP PUSH1 0x20 DUP6 ADD SWAP5 POP PUSH1 0x20 DUP2 ADD SWAP1 POP PUSH2 0xB34 JUMP JUMPDEST DUP7 DUP4 LT ISZERO PUSH2 0xB76 JUMPI DUP5 DUP10 ADD MLOAD PUSH2 0xB72 PUSH1 0x1F DUP10 AND DUP3 PUSH2 0xA85 JUMP JUMPDEST DUP4 SSTORE POP JUMPDEST PUSH1 0x1 PUSH1 0x2 DUP9 MUL ADD DUP9 SSTORE POP POP POP JUMPDEST POP POP POP POP POP POP JUMP INVALID LOG2 PUSH5 0x6970667358 0x22 SLT KECCAK256 0xAD 0xC3 0xA6 SHR CALLCODE 0x1F STOP 0xF7 0xC0 0x21 CALLF 0xE7C0 0xC2 PUSH20 0x123D80391CDB3DCF2D5C2C6679195048B764736F PUSH13 0x634300081E0033000000000000 "
				},
				"gasEstimates": {
					"creation": {
						"codeDepositCost": "601800",
						"executionCost": "infinite",
						"totalCost": "infinite"
					},
					"external": {
						"addStage(string,string)": "infinite",
						"grapeType()": "infinite",
						"harvestYear()": "infinite",
						"owner()": "2530",
						"quantityKg()": "2403",
						"stages(uint256)": "infinite"
					}
				},
				"methodIdentifiers": {
					"addStage(string,string)": "94a76b21",
					"grapeType()": "db3cb581",
					"harvestYear()": "e2b3f6d8",
					"owner()": "8da5cb5b",
					"quantityKg()": "667b6e61",
					"stages(uint256)": "845ddcb2"
				}
			},
			"storageLayout": {
				"storage": [
					{
						"astId": 8,
						"contract": "contracts/WineTrace.sol:WineTracer",
						"label": "grapeType",
						"offset": 0,
						"slot": "0",
						"type": "t_string_storage"
					},
					{
						"astId": 10,
						"contract": "contracts/WineTrace.sol:WineTracer",
						"label": "harvestYear",
						"offset": 0,
						"slot": "1",
						"type": "t_string_storage"
					},
					{
						"astId": 12,
						"contract": "contracts/WineTrace.sol:WineTracer",
						"label": "quantityKg",
						"offset": 0,
						"slot": "2",
						"type": "t_uint256"
					},
					{
						"astId": 14,
						"contract": "contracts/WineTrace.sol:WineTracer",
						"label": "owner",
						"offset": 0,
						"slot": "3",
						"type": "t_address"
					},
					{
						"astId": 18,
						"contract": "contracts/WineTrace.sol:WineTracer",
						"label": "stages",
						"offset": 0,
						"slot": "4",
						"type": "t_array(t_struct(Stage)6_storage)dyn_storage"
					}
				],
				"types": {
					"t_address": {
						"encoding": "inplace",
						"label": "address",
						"numberOfBytes": "20"
					},
					"t_array(t_struct(Stage)6_storage)dyn_storage": {
						"base": "t_struct(Stage)6_storage",
						"encoding": "dynamic_array",
						"label": "struct WineTracer.Stage[]",
						"numberOfBytes": "32"
					},
					"t_string_storage": {
						"encoding": "bytes",
						"label": "string",
						"numberOfBytes": "32"
					},
					"t_struct(Stage)6_storage": {
						"encoding": "inplace",
						"label": "struct WineTracer.Stage",
						"members": [
							{
								"astId": 3,
								"contract": "contracts/WineTrace.sol:WineTracer",
								"label": "description",
								"offset": 0,
								"slot": "0",
								"type": "t_string_storage"
							},
							{
								"astId": 5,
								"contract": "contracts/WineTrace.sol:WineTracer",
								"label": "date",
								"offset": 0,
								"slot": "1",
								"type": "t_string_storage"
							}
						],
						"numberOfBytes": "64"
					},
					"t_uint256": {
						"encoding": "inplace",
						"label": "uint256",
						"numberOfBytes": "32"
					}
				}
			},
			"userdoc": {
				"kind": "user",
				"methods": {},
				"version": 1
			}
		}
	}
}