{
	"contracts/WineTrace.sol": {
		"WineTrace": {
			"abi": [
				{
					"inputs": [
						{
							"internalType": "string",
							"name": "_grapeType",
							"type": "string"
						},
						{
							"internalType": "string",
							"name": "_harvestYear",
							"type": "string"
						},
						{
							"internalType": "uint256",
							"name": "_quantityKg",
							"type": "uint256"
						},
						{
							"internalType": "address",
							"name": "_creator",
							"type": "address"
						}
					],
					"stateMutability": "nonpayable",
					"type": "constructor"
				},
				{
					"anonymous": false,
					"inputs": [
						{
							"indexed": false,
							"internalType": "string",
							"name": "description",
							"type": "string"
						},
						{
							"indexed": false,
							"internalType": "string",
							"name": "date",
							"type": "string"
						}
					],
					"name": "NewStage",
					"type": "event"
				},
				{
					"anonymous": false,
					"inputs": [
						{
							"indexed": true,
							"internalType": "address",
							"name": "sponsor",
							"type": "address"
						},
						{
							"indexed": false,
							"internalType": "uint256",
							"name": "amount",
							"type": "uint256"
						}
					],
					"name": "WineSponsored",
					"type": "event"
				},
				{
					"inputs": [
						{
							"internalType": "string",
							"name": "_description",
							"type": "string"
						},
						{
							"internalType": "string",
							"name": "_date",
							"type": "string"
						}
					],
					"name": "addStage",
					"outputs": [],
					"stateMutability": "nonpayable",
					"type": "function"
				},
				{
					"inputs": [
						{
							"internalType": "uint256",
							"name": "index",
							"type": "uint256"
						}
					],
					"name": "getStage",
					"outputs": [
						{
							"internalType": "string",
							"name": "",
							"type": "string"
						},
						{
							"internalType": "string",
							"name": "",
							"type": "string"
						}
					],
					"stateMutability": "view",
					"type": "function"
				},
				{
					"inputs": [],
					"name": "getStageCount",
					"outputs": [
						{
							"internalType": "uint256",
							"name": "",
							"type": "uint256"
						}
					],
					"stateMutability": "view",
					"type": "function"
				},
				{
					"inputs": [],
					"name": "grapeType",
					"outputs": [
						{
							"internalType": "string",
							"name": "",
							"type": "string"
						}
					],
					"stateMutability": "view",
					"type": "function"
				},
				{
					"inputs": [],
					"name": "harvestYear",
					"outputs": [
						{
							"internalType": "string",
							"name": "",
							"type": "string"
						}
					],
					"stateMutability": "view",
					"type": "function"
				},
				{
					"inputs": [],
					"name": "owner",
					"outputs": [
						{
							"internalType": "address",
							"name": "",
							"type": "address"
						}
					],
					"stateMutability": "view",
					"type": "function"
				},
				{
					"inputs": [],
					"name": "quantityKg",
					"outputs": [
						{
							"internalType": "uint256",
							"name": "",
							"type": "uint256"
						}
					],
					"stateMutability": "view",
					"type": "function"
				},
				{
					"inputs": [],
					"name": "sponsorWine",
					"outputs": [],
					"stateMutability": "payable",
					"type": "function"
				},
				{
					"inputs": [],
					"name": "totalSponsorship",
					"outputs": [
						{
							"internalType": "uint256",
							"name": "",
							"type": "uint256"
						}
					],
					"stateMutability": "view",
					"type": "function"
				},
				{
					"inputs": [],
					"name": "withdrawSponsorship",
					"outputs": [],
					"stateMutability": "nonpayable",
					"type": "function"
				}
			],
			"devdoc": {
				"kind": "dev",
				"methods": {},
				"version": 1
			},
			"evm": {
				"assembly": "    /* \"contracts/WineTrace.sol\":61:2023  contract WineTrace {... */\n  mstore(0x40, 0x80)\n    /* \"contracts/WineTrace.sol\":606:962  constructor(... */\n  callvalue\n  dup1\n  iszero\n  tag_1\n  jumpi\n  revert(0x00, 0x00)\ntag_1:\n  pop\n  mload(0x40)\n  sub(codesize, bytecodeSize)\n  dup1\n  bytecodeSize\n  dup4\n  codecopy\n  dup2\n  dup2\n  add\n  0x40\n  mstore\n  dup2\n  add\n  swap1\n  tag_2\n  swap2\n  swap1\n  tag_3\n  jump\t// in\ntag_2:\n    /* \"contracts/WineTrace.sol\":784:785  0 */\n  0x00\n    /* \"contracts/WineTrace.sol\":770:781  _quantityKg */\n  dup3\n    /* \"contracts/WineTrace.sol\":770:785  _quantityKg > 0 */\n  gt\n    /* \"contracts/WineTrace.sol\":762:822  require(_quantityKg > 0, \"Quantity must be greater than 0.\") */\n  tag_6\n  jumpi\n  mload(0x40)\n  0x08c379a000000000000000000000000000000000000000000000000000000000\n  dup2\n  mstore\n  0x04\n  add\n  tag_7\n  swap1\n  tag_8\n  jump\t// in\ntag_7:\n  mload(0x40)\n  dup1\n  swap2\n  sub\n  swap1\n  revert\ntag_6:\n    /* \"contracts/WineTrace.sol\":845:855  _grapeType */\n  dup4\n    /* \"contracts/WineTrace.sol\":833:842  grapeType */\n  0x00\n    /* \"contracts/WineTrace.sol\":833:855  grapeType = _grapeType */\n  swap1\n  dup2\n  tag_9\n  swap2\n  swap1\n  tag_10\n  jump\t// in\ntag_9:\n  pop\n    /* \"contracts/WineTrace.sol\":880:892  _harvestYear */\n  dup3\n    /* \"contracts/WineTrace.sol\":866:877  harvestYear */\n  0x01\n    /* \"contracts/WineTrace.sol\":866:892  harvestYear = _harvestYear */\n  swap1\n  dup2\n  tag_11\n  swap2\n  swap1\n  tag_10\n  jump\t// in\ntag_11:\n  pop\n    /* \"contracts/WineTrace.sol\":916:927  _quantityKg */\n  dup2\n    /* \"contracts/WineTrace.sol\":903:913  quantityKg */\n  0x02\n    /* \"contracts/WineTrace.sol\":903:927  quantityKg = _quantityKg */\n  dup2\n  swap1\n  sstore\n  pop\n    /* \"contracts/WineTrace.sol\":946:954  _creator */\n  dup1\n    /* \"contracts/WineTrace.sol\":938:943  owner */\n  0x03\n  0x00\n    /* \"contracts/WineTrace.sol\":938:954  owner = _creator */\n  0x0100\n  exp\n  dup2\n  sload\n  dup2\n  0xffffffffffffffffffffffffffffffffffffffff\n  mul\n  not\n  and\n  swap1\n  dup4\n  0xffffffffffffffffffffffffffffffffffffffff\n  and\n  mul\n  or\n  swap1\n  sstore\n  pop\n    /* \"contracts/WineTrace.sol\":606:962  constructor(... */\n  pop\n  pop\n  pop\n  pop\n    /* \"contracts/WineTrace.sol\":61:2023  contract WineTrace {... */\n  jump(tag_12)\n    /* \"#utility.yul\":7:82   */\ntag_13:\n    /* \"#utility.yul\":40:46   */\n  0x00\n    /* \"#utility.yul\":73:75   */\n  0x40\n    /* \"#utility.yul\":67:76   */\n  mload\n    /* \"#utility.yul\":57:76   */\n  swap1\n  pop\n    /* \"#utility.yul\":7:82   */\n  swap1\n  jump\t// out\n    /* \"#utility.yul\":88:205   */\ntag_14:\n    /* \"#utility.yul\":197:198   */\n  0x00\n    /* \"#utility.yul\":194:195   */\n  0x00\n    /* \"#utility.yul\":187:199   */\n  revert\n    /* \"#utility.yul\":211:328   */\ntag_15:\n    /* \"#utility.yul\":320:321   */\n  0x00\n    /* \"#utility.yul\":317:318   */\n  0x00\n    /* \"#utility.yul\":310:322   */\n  revert\n    /* \"#utility.yul\":334:451   */\ntag_16:\n    /* \"#utility.yul\":443:444   */\n  0x00\n    /* \"#utility.yul\":440:441   */\n  0x00\n    /* \"#utility.yul\":433:445   */\n  revert\n    /* \"#utility.yul\":457:574   */\ntag_17:\n    /* \"#utility.yul\":566:567   */\n  0x00\n    /* \"#utility.yul\":563:564   */\n  0x00\n    /* \"#utility.yul\":556:568   */\n  revert\n    /* \"#utility.yul\":580:682   */\ntag_18:\n    /* \"#utility.yul\":621:627   */\n  0x00\n    /* \"#utility.yul\":672:674   */\n  0x1f\n    /* \"#utility.yul\":668:675   */\n  not\n    /* \"#utility.yul\":663:665   */\n  0x1f\n    /* \"#utility.yul\":656:661   */\n  dup4\n    /* \"#utility.yul\":652:666   */\n  add\n    /* \"#utility.yul\":648:676   */\n  and\n    /* \"#utility.yul\":638:676   */\n  swap1\n  pop\n    /* \"#utility.yul\":580:682   */\n  swap2\n  swap1\n  pop\n  jump\t// out\n    /* \"#utility.yul\":688:868   */\ntag_19:\n    /* \"#utility.yul\":736:813   */\n  0x4e487b7100000000000000000000000000000000000000000000000000000000\n    /* \"#utility.yul\":733:734   */\n  0x00\n    /* \"#utility.yul\":726:814   */\n  mstore\n    /* \"#utility.yul\":833:837   */\n  0x41\n    /* \"#utility.yul\":830:831   */\n  0x04\n    /* \"#utility.yul\":823:838   */\n  mstore\n    /* \"#utility.yul\":857:861   */\n  0x24\n    /* \"#utility.yul\":854:855   */\n  0x00\n    /* \"#utility.yul\":847:862   */\n  revert\n    /* \"#utility.yul\":874:1155   */\ntag_20:\n    /* \"#utility.yul\":957:984   */\n  tag_63\n    /* \"#utility.yul\":979:983   */\n  dup3\n    /* \"#utility.yul\":957:984   */\n  tag_18\n  jump\t// in\ntag_63:\n    /* \"#utility.yul\":949:955   */\n  dup2\n    /* \"#utility.yul\":945:985   */\n  add\n    /* \"#utility.yul\":1087:1093   */\n  dup2\n    /* \"#utility.yul\":1075:1085   */\n  dup2\n    /* \"#utility.yul\":1072:1094   */\n  lt\n    /* \"#utility.yul\":1051:1069   */\n  0xffffffffffffffff\n    /* \"#utility.yul\":1039:1049   */\n  dup3\n    /* \"#utility.yul\":1036:1070   */\n  gt\n    /* \"#utility.yul\":1033:1095   */\n  or\n    /* \"#utility.yul\":1030:1118   */\n  iszero\n  tag_64\n  jumpi\n    /* \"#utility.yul\":1098:1116   */\n  tag_65\n  tag_19\n  jump\t// in\ntag_65:\n    /* \"#utility.yul\":1030:1118   */\ntag_64:\n    /* \"#utility.yul\":1138:1148   */\n  dup1\n    /* \"#utility.yul\":1134:1136   */\n  0x40\n    /* \"#utility.yul\":1127:1149   */\n  mstore\n    /* \"#utility.yul\":917:1155   */\n  pop\n    /* \"#utility.yul\":874:1155   */\n  pop\n  pop\n  jump\t// out\n    /* \"#utility.yul\":1161:1290   */\ntag_21:\n    /* \"#utility.yul\":1195:1201   */\n  0x00\n    /* \"#utility.yul\":1222:1242   */\n  tag_67\n  tag_13\n  jump\t// in\ntag_67:\n    /* \"#utility.yul\":1212:1242   */\n  swap1\n  pop\n    /* \"#utility.yul\":1251:1284   */\n  tag_68\n    /* \"#utility.yul\":1279:1283   */\n  dup3\n    /* \"#utility.yul\":1271:1277   */\n  dup3\n    /* \"#utility.yul\":1251:1284   */\n  tag_20\n  jump\t// in\ntag_68:\n    /* \"#utility.yul\":1161:1290   */\n  swap2\n  swap1\n  pop\n  jump\t// out\n    /* \"#utility.yul\":1296:1604   */\ntag_22:\n    /* \"#utility.yul\":1358:1362   */\n  0x00\n    /* \"#utility.yul\":1448:1466   */\n  0xffffffffffffffff\n    /* \"#utility.yul\":1440:1446   */\n  dup3\n    /* \"#utility.yul\":1437:1467   */\n  gt\n    /* \"#utility.yul\":1434:1490   */\n  iszero\n  tag_70\n  jumpi\n    /* \"#utility.yul\":1470:1488   */\n  tag_71\n  tag_19\n  jump\t// in\ntag_71:\n    /* \"#utility.yul\":1434:1490   */\ntag_70:\n    /* \"#utility.yul\":1508:1537   */\n  tag_72\n    /* \"#utility.yul\":1530:1536   */\n  dup3\n    /* \"#utility.yul\":1508:1537   */\n  tag_18\n  jump\t// in\ntag_72:\n    /* \"#utility.yul\":1500:1537   */\n  swap1\n  pop\n    /* \"#utility.yul\":1592:1596   */\n  0x20\n    /* \"#utility.yul\":1586:1590   */\n  dup2\n    /* \"#utility.yul\":1582:1597   */\n  add\n    /* \"#utility.yul\":1574:1597   */\n  swap1\n  pop\n    /* \"#utility.yul\":1296:1604   */\n  swap2\n  swap1\n  pop\n  jump\t// out\n    /* \"#utility.yul\":1610:1749   */\ntag_23:\n    /* \"#utility.yul\":1699:1705   */\n  dup3\n    /* \"#utility.yul\":1694:1697   */\n  dup2\n    /* \"#utility.yul\":1689:1692   */\n  dup4\n    /* \"#utility.yul\":1683:1706   */\n  mcopy\n    /* \"#utility.yul\":1740:1741   */\n  0x00\n    /* \"#utility.yul\":1731:1737   */\n  dup4\n    /* \"#utility.yul\":1726:1729   */\n  dup4\n    /* \"#utility.yul\":1722:1738   */\n  add\n    /* \"#utility.yul\":1715:1742   */\n  mstore\n    /* \"#utility.yul\":1610:1749   */\n  pop\n  pop\n  pop\n  jump\t// out\n    /* \"#utility.yul\":1755:2189   */\ntag_24:\n    /* \"#utility.yul\":1844:1849   */\n  0x00\n    /* \"#utility.yul\":1869:1935   */\n  tag_75\n    /* \"#utility.yul\":1885:1934   */\n  tag_76\n    /* \"#utility.yul\":1927:1933   */\n  dup5\n    /* \"#utility.yul\":1885:1934   */\n  tag_22\n  jump\t// in\ntag_76:\n    /* \"#utility.yul\":1869:1935   */\n  tag_21\n  jump\t// in\ntag_75:\n    /* \"#utility.yul\":1860:1935   */\n  swap1\n  pop\n    /* \"#utility.yul\":1958:1964   */\n  dup3\n    /* \"#utility.yul\":1951:1956   */\n  dup2\n    /* \"#utility.yul\":1944:1965   */\n  mstore\n    /* \"#utility.yul\":1996:2000   */\n  0x20\n    /* \"#utility.yul\":1989:1994   */\n  dup2\n    /* \"#utility.yul\":1985:2001   */\n  add\n    /* \"#utility.yul\":2034:2037   */\n  dup5\n    /* \"#utility.yul\":2025:2031   */\n  dup5\n    /* \"#utility.yul\":2020:2023   */\n  dup5\n    /* \"#utility.yul\":2016:2032   */\n  add\n    /* \"#utility.yul\":2013:2038   */\n  gt\n    /* \"#utility.yul\":2010:2122   */\n  iszero\n  tag_77\n  jumpi\n    /* \"#utility.yul\":2041:2120   */\n  tag_78\n  tag_17\n  jump\t// in\ntag_78:\n    /* \"#utility.yul\":2010:2122   */\ntag_77:\n    /* \"#utility.yul\":2131:2183   */\n  tag_79\n    /* \"#utility.yul\":2176:2182   */\n  dup5\n    /* \"#utility.yul\":2171:2174   */\n  dup3\n    /* \"#utility.yul\":2166:2169   */\n  dup6\n    /* \"#utility.yul\":2131:2183   */\n  tag_23\n  jump\t// in\ntag_79:\n    /* \"#utility.yul\":1850:2189   */\n  pop\n    /* \"#utility.yul\":1755:2189   */\n  swap4\n  swap3\n  pop\n  pop\n  pop\n  jump\t// out\n    /* \"#utility.yul\":2209:2564   */\ntag_25:\n    /* \"#utility.yul\":2276:2281   */\n  0x00\n    /* \"#utility.yul\":2325:2328   */\n  dup3\n    /* \"#utility.yul\":2318:2322   */\n  0x1f\n    /* \"#utility.yul\":2310:2316   */\n  dup4\n    /* \"#utility.yul\":2306:2323   */\n  add\n    /* \"#utility.yul\":2302:2329   */\n  slt\n    /* \"#utility.yul\":2292:2414   */\n  tag_81\n  jumpi\n    /* \"#utility.yul\":2333:2412   */\n  tag_82\n  tag_16\n  jump\t// in\ntag_82:\n    /* \"#utility.yul\":2292:2414   */\ntag_81:\n    /* \"#utility.yul\":2443:2449   */\n  dup2\n    /* \"#utility.yul\":2437:2450   */\n  mload\n    /* \"#utility.yul\":2468:2558   */\n  tag_83\n    /* \"#utility.yul\":2554:2557   */\n  dup5\n    /* \"#utility.yul\":2546:2552   */\n  dup3\n    /* \"#utility.yul\":2539:2543   */\n  0x20\n    /* \"#utility.yul\":2531:2537   */\n  dup7\n    /* \"#utility.yul\":2527:2544   */\n  add\n    /* \"#utility.yul\":2468:2558   */\n  tag_24\n  jump\t// in\ntag_83:\n    /* \"#utility.yul\":2459:2558   */\n  swap2\n  pop\n    /* \"#utility.yul\":2282:2564   */\n  pop\n    /* \"#utility.yul\":2209:2564   */\n  swap3\n  swap2\n  pop\n  pop\n  jump\t// out\n    /* \"#utility.yul\":2570:2647   */\ntag_26:\n    /* \"#utility.yul\":2607:2614   */\n  0x00\n    /* \"#utility.yul\":2636:2641   */\n  dup2\n    /* \"#utility.yul\":2625:2641   */\n  swap1\n  pop\n    /* \"#utility.yul\":2570:2647   */\n  swap2\n  swap1\n  pop\n  jump\t// out\n    /* \"#utility.yul\":2653:2775   */\ntag_27:\n    /* \"#utility.yul\":2726:2750   */\n  tag_86\n    /* \"#utility.yul\":2744:2749   */\n  dup2\n    /* \"#utility.yul\":2726:2750   */\n  tag_26\n  jump\t// in\ntag_86:\n    /* \"#utility.yul\":2719:2724   */\n  dup2\n    /* \"#utility.yul\":2716:2751   */\n  eq\n    /* \"#utility.yul\":2706:2769   */\n  tag_87\n  jumpi\n    /* \"#utility.yul\":2765:2766   */\n  0x00\n    /* \"#utility.yul\":2762:2763   */\n  0x00\n    /* \"#utility.yul\":2755:2767   */\n  revert\n    /* \"#utility.yul\":2706:2769   */\ntag_87:\n    /* \"#utility.yul\":2653:2775   */\n  pop\n  jump\t// out\n    /* \"#utility.yul\":2781:2924   */\ntag_28:\n    /* \"#utility.yul\":2838:2843   */\n  0x00\n    /* \"#utility.yul\":2869:2875   */\n  dup2\n    /* \"#utility.yul\":2863:2876   */\n  mload\n    /* \"#utility.yul\":2854:2876   */\n  swap1\n  pop\n    /* \"#utility.yul\":2885:2918   */\n  tag_89\n    /* \"#utility.yul\":2912:2917   */\n  dup2\n    /* \"#utility.yul\":2885:2918   */\n  tag_27\n  jump\t// in\ntag_89:\n    /* \"#utility.yul\":2781:2924   */\n  swap3\n  swap2\n  pop\n  pop\n  jump\t// out\n    /* \"#utility.yul\":2930:3056   */\ntag_29:\n    /* \"#utility.yul\":2967:2974   */\n  0x00\n    /* \"#utility.yul\":3007:3049   */\n  0xffffffffffffffffffffffffffffffffffffffff\n    /* \"#utility.yul\":3000:3005   */\n  dup3\n    /* \"#utility.yul\":2996:3050   */\n  and\n    /* \"#utility.yul\":2985:3050   */\n  swap1\n  pop\n    /* \"#utility.yul\":2930:3056   */\n  swap2\n  swap1\n  pop\n  jump\t// out\n    /* \"#utility.yul\":3062:3158   */\ntag_30:\n    /* \"#utility.yul\":3099:3106   */\n  0x00\n    /* \"#utility.yul\":3128:3152   */\n  tag_92\n    /* \"#utility.yul\":3146:3151   */\n  dup3\n    /* \"#utility.yul\":3128:3152   */\n  tag_29\n  jump\t// in\ntag_92:\n    /* \"#utility.yul\":3117:3152   */\n  swap1\n  pop\n    /* \"#utility.yul\":3062:3158   */\n  swap2\n  swap1\n  pop\n  jump\t// out\n    /* \"#utility.yul\":3164:3286   */\ntag_31:\n    /* \"#utility.yul\":3237:3261   */\n  tag_94\n    /* \"#utility.yul\":3255:3260   */\n  dup2\n    /* \"#utility.yul\":3237:3261   */\n  tag_30\n  jump\t// in\ntag_94:\n    /* \"#utility.yul\":3230:3235   */\n  dup2\n    /* \"#utility.yul\":3227:3262   */\n  eq\n    /* \"#utility.yul\":3217:3280   */\n  tag_95\n  jumpi\n    /* \"#utility.yul\":3276:3277   */\n  0x00\n    /* \"#utility.yul\":3273:3274   */\n  0x00\n    /* \"#utility.yul\":3266:3278   */\n  revert\n    /* \"#utility.yul\":3217:3280   */\ntag_95:\n    /* \"#utility.yul\":3164:3286   */\n  pop\n  jump\t// out\n    /* \"#utility.yul\":3292:3435   */\ntag_32:\n    /* \"#utility.yul\":3349:3354   */\n  0x00\n    /* \"#utility.yul\":3380:3386   */\n  dup2\n    /* \"#utility.yul\":3374:3387   */\n  mload\n    /* \"#utility.yul\":3365:3387   */\n  swap1\n  pop\n    /* \"#utility.yul\":3396:3429   */\n  tag_97\n    /* \"#utility.yul\":3423:3428   */\n  dup2\n    /* \"#utility.yul\":3396:3429   */\n  tag_31\n  jump\t// in\ntag_97:\n    /* \"#utility.yul\":3292:3435   */\n  swap3\n  swap2\n  pop\n  pop\n  jump\t// out\n    /* \"#utility.yul\":3441:4607   */\ntag_3:\n    /* \"#utility.yul\":3558:3564   */\n  0x00\n    /* \"#utility.yul\":3566:3572   */\n  0x00\n    /* \"#utility.yul\":3574:3580   */\n  0x00\n    /* \"#utility.yul\":3582:3588   */\n  0x00\n    /* \"#utility.yul\":3631:3634   */\n  0x80\n    /* \"#utility.yul\":3619:3628   */\n  dup6\n    /* \"#utility.yul\":3610:3617   */\n  dup8\n    /* \"#utility.yul\":3606:3629   */\n  sub\n    /* \"#utility.yul\":3602:3635   */\n  slt\n    /* \"#utility.yul\":3599:3719   */\n  iszero\n  tag_99\n  jumpi\n    /* \"#utility.yul\":3638:3717   */\n  tag_100\n  tag_14\n  jump\t// in\ntag_100:\n    /* \"#utility.yul\":3599:3719   */\ntag_99:\n    /* \"#utility.yul\":3779:3780   */\n  0x00\n    /* \"#utility.yul\":3768:3777   */\n  dup6\n    /* \"#utility.yul\":3764:3781   */\n  add\n    /* \"#utility.yul\":3758:3782   */\n  mload\n    /* \"#utility.yul\":3809:3827   */\n  0xffffffffffffffff\n    /* \"#utility.yul\":3801:3807   */\n  dup2\n    /* \"#utility.yul\":3798:3828   */\n  gt\n    /* \"#utility.yul\":3795:3912   */\n  iszero\n  tag_101\n  jumpi\n    /* \"#utility.yul\":3831:3910   */\n  tag_102\n  tag_15\n  jump\t// in\ntag_102:\n    /* \"#utility.yul\":3795:3912   */\ntag_101:\n    /* \"#utility.yul\":3936:4010   */\n  tag_103\n    /* \"#utility.yul\":4002:4009   */\n  dup8\n    /* \"#utility.yul\":3993:3999   */\n  dup3\n    /* \"#utility.yul\":3982:3991   */\n  dup9\n    /* \"#utility.yul\":3978:4000   */\n  add\n    /* \"#utility.yul\":3936:4010   */\n  tag_25\n  jump\t// in\ntag_103:\n    /* \"#utility.yul\":3926:4010   */\n  swap5\n  pop\n    /* \"#utility.yul\":3729:4020   */\n  pop\n    /* \"#utility.yul\":4080:4082   */\n  0x20\n    /* \"#utility.yul\":4069:4078   */\n  dup6\n    /* \"#utility.yul\":4065:4083   */\n  add\n    /* \"#utility.yul\":4059:4084   */\n  mload\n    /* \"#utility.yul\":4111:4129   */\n  0xffffffffffffffff\n    /* \"#utility.yul\":4103:4109   */\n  dup2\n    /* \"#utility.yul\":4100:4130   */\n  gt\n    /* \"#utility.yul\":4097:4214   */\n  iszero\n  tag_104\n  jumpi\n    /* \"#utility.yul\":4133:4212   */\n  tag_105\n  tag_15\n  jump\t// in\ntag_105:\n    /* \"#utility.yul\":4097:4214   */\ntag_104:\n    /* \"#utility.yul\":4238:4312   */\n  tag_106\n    /* \"#utility.yul\":4304:4311   */\n  dup8\n    /* \"#utility.yul\":4295:4301   */\n  dup3\n    /* \"#utility.yul\":4284:4293   */\n  dup9\n    /* \"#utility.yul\":4280:4302   */\n  add\n    /* \"#utility.yul\":4238:4312   */\n  tag_25\n  jump\t// in\ntag_106:\n    /* \"#utility.yul\":4228:4312   */\n  swap4\n  pop\n    /* \"#utility.yul\":4030:4322   */\n  pop\n    /* \"#utility.yul\":4361:4363   */\n  0x40\n    /* \"#utility.yul\":4387:4451   */\n  tag_107\n    /* \"#utility.yul\":4443:4450   */\n  dup8\n    /* \"#utility.yul\":4434:4440   */\n  dup3\n    /* \"#utility.yul\":4423:4432   */\n  dup9\n    /* \"#utility.yul\":4419:4441   */\n  add\n    /* \"#utility.yul\":4387:4451   */\n  tag_28\n  jump\t// in\ntag_107:\n    /* \"#utility.yul\":4377:4451   */\n  swap3\n  pop\n    /* \"#utility.yul\":4332:4461   */\n  pop\n    /* \"#utility.yul\":4500:4502   */\n  0x60\n    /* \"#utility.yul\":4526:4590   */\n  tag_108\n    /* \"#utility.yul\":4582:4589   */\n  dup8\n    /* \"#utility.yul\":4573:4579   */\n  dup3\n    /* \"#utility.yul\":4562:4571   */\n  dup9\n    /* \"#utility.yul\":4558:4580   */\n  add\n    /* \"#utility.yul\":4526:4590   */\n  tag_32\n  jump\t// in\ntag_108:\n    /* \"#utility.yul\":4516:4590   */\n  swap2\n  pop\n    /* \"#utility.yul\":4471:4600   */\n  pop\n    /* \"#utility.yul\":3441:4607   */\n  swap3\n  swap6\n  swap2\n  swap5\n  pop\n  swap3\n  pop\n  jump\t// out\n    /* \"#utility.yul\":4613:4782   */\ntag_33:\n    /* \"#utility.yul\":4697:4708   */\n  0x00\n    /* \"#utility.yul\":4731:4737   */\n  dup3\n    /* \"#utility.yul\":4726:4729   */\n  dup3\n    /* \"#utility.yul\":4719:4738   */\n  mstore\n    /* \"#utility.yul\":4771:4775   */\n  0x20\n    /* \"#utility.yul\":4766:4769   */\n  dup3\n    /* \"#utility.yul\":4762:4776   */\n  add\n    /* \"#utility.yul\":4747:4776   */\n  swap1\n  pop\n    /* \"#utility.yul\":4613:4782   */\n  swap3\n  swap2\n  pop\n  pop\n  jump\t// out\n    /* \"#utility.yul\":4788:4970   */\ntag_34:\n    /* \"#utility.yul\":4928:4962   */\n  0x5175616e74697479206d7573742062652067726561746572207468616e20302e\n    /* \"#utility.yul\":4924:4925   */\n  0x00\n    /* \"#utility.yul\":4916:4922   */\n  dup3\n    /* \"#utility.yul\":4912:4926   */\n  add\n    /* \"#utility.yul\":4905:4963   */\n  mstore\n    /* \"#utility.yul\":4788:4970   */\n  pop\n  jump\t// out\n    /* \"#utility.yul\":4976:5342   */\ntag_35:\n    /* \"#utility.yul\":5118:5121   */\n  0x00\n    /* \"#utility.yul\":5139:5206   */\n  tag_112\n    /* \"#utility.yul\":5203:5205   */\n  0x20\n    /* \"#utility.yul\":5198:5201   */\n  dup4\n    /* \"#utility.yul\":5139:5206   */\n  tag_33\n  jump\t// in\ntag_112:\n    /* \"#utility.yul\":5132:5206   */\n  swap2\n  pop\n    /* \"#utility.yul\":5215:5308   */\n  tag_113\n    /* \"#utility.yul\":5304:5307   */\n  dup3\n    /* \"#utility.yul\":5215:5308   */\n  tag_34\n  jump\t// in\ntag_113:\n    /* \"#utility.yul\":5333:5335   */\n  0x20\n    /* \"#utility.yul\":5328:5331   */\n  dup3\n    /* \"#utility.yul\":5324:5336   */\n  add\n    /* \"#utility.yul\":5317:5336   */\n  swap1\n  pop\n    /* \"#utility.yul\":4976:5342   */\n  swap2\n  swap1\n  pop\n  jump\t// out\n    /* \"#utility.yul\":5348:5767   */\ntag_8:\n    /* \"#utility.yul\":5514:5518   */\n  0x00\n    /* \"#utility.yul\":5552:5554   */\n  0x20\n    /* \"#utility.yul\":5541:5550   */\n  dup3\n    /* \"#utility.yul\":5537:5555   */\n  add\n    /* \"#utility.yul\":5529:5555   */\n  swap1\n  pop\n    /* \"#utility.yul\":5601:5610   */\n  dup2\n    /* \"#utility.yul\":5595:5599   */\n  dup2\n    /* \"#utility.yul\":5591:5611   */\n  sub\n    /* \"#utility.yul\":5587:5588   */\n  0x00\n    /* \"#utility.yul\":5576:5585   */\n  dup4\n    /* \"#utility.yul\":5572:5589   */\n  add\n    /* \"#utility.yul\":5565:5612   */\n  mstore\n    /* \"#utility.yul\":5629:5760   */\n  tag_115\n    /* \"#utility.yul\":5755:5759   */\n  dup2\n    /* \"#utility.yul\":5629:5760   */\n  tag_35\n  jump\t// in\ntag_115:\n    /* \"#utility.yul\":5621:5760   */\n  swap1\n  pop\n    /* \"#utility.yul\":5348:5767   */\n  swap2\n  swap1\n  pop\n  jump\t// out\n    /* \"#utility.yul\":5773:5872   */\ntag_36:\n    /* \"#utility.yul\":5825:5831   */\n  0x00\n    /* \"#utility.yul\":5859:5864   */\n  dup2\n    /* \"#utility.yul\":5853:5865   */\n  mload\n    /* \"#utility.yul\":5843:5865   */\n  swap1\n  pop\n    /* \"#utility.yul\":5773:5872   */\n  swap2\n  swap1\n  pop\n  jump\t// out\n    /* \"#utility.yul\":5878:6058   */\ntag_37:\n    /* \"#utility.yul\":5926:6003   */\n  0x4e487b7100000000000000000000000000000000000000000000000000000000\n    /* \"#utility.yul\":5923:5924   */\n  0x00\n    /* \"#utility.yul\":5916:6004   */\n  mstore\n    /* \"#utility.yul\":6023:6027   */\n  0x22\n    /* \"#utility.yul\":6020:6021   */\n  0x04\n    /* \"#utility.yul\":6013:6028   */\n  mstore\n    /* \"#utility.yul\":6047:6051   */\n  0x24\n    /* \"#utility.yul\":6044:6045   */\n  0x00\n    /* \"#utility.yul\":6037:6052   */\n  revert\n    /* \"#utility.yul\":6064:6384   */\ntag_38:\n    /* \"#utility.yul\":6108:6114   */\n  0x00\n    /* \"#utility.yul\":6145:6146   */\n  0x02\n    /* \"#utility.yul\":6139:6143   */\n  dup3\n    /* \"#utility.yul\":6135:6147   */\n  div\n    /* \"#utility.yul\":6125:6147   */\n  swap1\n  pop\n    /* \"#utility.yul\":6192:6193   */\n  0x01\n    /* \"#utility.yul\":6186:6190   */\n  dup3\n    /* \"#utility.yul\":6182:6194   */\n  and\n    /* \"#utility.yul\":6213:6231   */\n  dup1\n    /* \"#utility.yul\":6203:6284   */\n  tag_119\n  jumpi\n    /* \"#utility.yul\":6269:6273   */\n  0x7f\n    /* \"#utility.yul\":6261:6267   */\n  dup3\n    /* \"#utility.yul\":6257:6274   */\n  and\n    /* \"#utility.yul\":6247:6274   */\n  swap2\n  pop\n    /* \"#utility.yul\":6203:6284   */\ntag_119:\n    /* \"#utility.yul\":6331:6333   */\n  0x20\n    /* \"#utility.yul\":6323:6329   */\n  dup3\n    /* \"#utility.yul\":6320:6334   */\n  lt\n    /* \"#utility.yul\":6300:6318   */\n  dup2\n    /* \"#utility.yul\":6297:6335   */\n  sub\n    /* \"#utility.yul\":6294:6378   */\n  tag_120\n  jumpi\n    /* \"#utility.yul\":6350:6368   */\n  tag_121\n  tag_37\n  jump\t// in\ntag_121:\n    /* \"#utility.yul\":6294:6378   */\ntag_120:\n    /* \"#utility.yul\":6115:6384   */\n  pop\n    /* \"#utility.yul\":6064:6384   */\n  swap2\n  swap1\n  pop\n  jump\t// out\n    /* \"#utility.yul\":6390:6531   */\ntag_39:\n    /* \"#utility.yul\":6439:6443   */\n  0x00\n    /* \"#utility.yul\":6462:6465   */\n  dup2\n    /* \"#utility.yul\":6454:6465   */\n  swap1\n  pop\n    /* \"#utility.yul\":6485:6488   */\n  dup2\n    /* \"#utility.yul\":6482:6483   */\n  0x00\n    /* \"#utility.yul\":6475:6489   */\n  mstore\n    /* \"#utility.yul\":6519:6523   */\n  0x20\n    /* \"#utility.yul\":6516:6517   */\n  0x00\n    /* \"#utility.yul\":6506:6524   */\n  keccak256\n    /* \"#utility.yul\":6498:6524   */\n  swap1\n  pop\n    /* \"#utility.yul\":6390:6531   */\n  swap2\n  swap1\n  pop\n  jump\t// out\n    /* \"#utility.yul\":6537:6630   */\ntag_40:\n    /* \"#utility.yul\":6574:6580   */\n  0x00\n    /* \"#utility.yul\":6621:6623   */\n  0x20\n    /* \"#utility.yul\":6616:6618   */\n  0x1f\n    /* \"#utility.yul\":6609:6614   */\n  dup4\n    /* \"#utility.yul\":6605:6619   */\n  add\n    /* \"#utility.yul\":6601:6624   */\n  div\n    /* \"#utility.yul\":6591:6624   */\n  swap1\n  pop\n    /* \"#utility.yul\":6537:6630   */\n  swap2\n  swap1\n  pop\n  jump\t// out\n    /* \"#utility.yul\":6636:6743   */\ntag_41:\n    /* \"#utility.yul\":6680:6688   */\n  0x00\n    /* \"#utility.yul\":6730:6735   */\n  dup3\n    /* \"#utility.yul\":6724:6728   */\n  dup3\n    /* \"#utility.yul\":6720:6736   */\n  shl\n    /* \"#utility.yul\":6699:6736   */\n  swap1\n  pop\n    /* \"#utility.yul\":6636:6743   */\n  swap3\n  swap2\n  pop\n  pop\n  jump\t// out\n    /* \"#utility.yul\":6749:7142   */\ntag_42:\n    /* \"#utility.yul\":6818:6824   */\n  0x00\n    /* \"#utility.yul\":6868:6869   */\n  0x08\n    /* \"#utility.yul\":6856:6866   */\n  dup4\n    /* \"#utility.yul\":6852:6870   */\n  mul\n    /* \"#utility.yul\":6891:6988   */\n  tag_126\n    /* \"#utility.yul\":6921:6987   */\n  0xffffffffffffffffffffffffffffffffffffffffffffffffffffffffffffffff\n    /* \"#utility.yul\":6910:6919   */\n  dup3\n    /* \"#utility.yul\":6891:6988   */\n  tag_41\n  jump\t// in\ntag_126:\n    /* \"#utility.yul\":7009:7048   */\n  tag_127\n    /* \"#utility.yul\":7039:7047   */\n  dup7\n    /* \"#utility.yul\":7028:7037   */\n  dup4\n    /* \"#utility.yul\":7009:7048   */\n  tag_41\n  jump\t// in\ntag_127:\n    /* \"#utility.yul\":6997:7048   */\n  swap6\n  pop\n    /* \"#utility.yul\":7081:7085   */\n  dup1\n    /* \"#utility.yul\":7077:7086   */\n  not\n    /* \"#utility.yul\":7070:7075   */\n  dup5\n    /* \"#utility.yul\":7066:7087   */\n  and\n    /* \"#utility.yul\":7057:7087   */\n  swap4\n  pop\n    /* \"#utility.yul\":7130:7134   */\n  dup1\n    /* \"#utility.yul\":7120:7128   */\n  dup7\n    /* \"#utility.yul\":7116:7135   */\n  and\n    /* \"#utility.yul\":7109:7114   */\n  dup5\n    /* \"#utility.yul\":7106:7136   */\n  or\n    /* \"#utility.yul\":7096:7136   */\n  swap3\n  pop\n    /* \"#utility.yul\":6825:7142   */\n  pop\n  pop\n    /* \"#utility.yul\":6749:7142   */\n  swap4\n  swap3\n  pop\n  pop\n  pop\n  jump\t// out\n    /* \"#utility.yul\":7148:7208   */\ntag_43:\n    /* \"#utility.yul\":7176:7179   */\n  0x00\n    /* \"#utility.yul\":7197:7202   */\n  dup2\n    /* \"#utility.yul\":7190:7202   */\n  swap1\n  pop\n    /* \"#utility.yul\":7148:7208   */\n  swap2\n  swap1\n  pop\n  jump\t// out\n    /* \"#utility.yul\":7214:7356   */\ntag_44:\n    /* \"#utility.yul\":7264:7273   */\n  0x00\n    /* \"#utility.yul\":7297:7350   */\n  tag_130\n    /* \"#utility.yul\":7315:7349   */\n  tag_131\n    /* \"#utility.yul\":7324:7348   */\n  tag_132\n    /* \"#utility.yul\":7342:7347   */\n  dup5\n    /* \"#utility.yul\":7324:7348   */\n  tag_26\n  jump\t// in\ntag_132:\n    /* \"#utility.yul\":7315:7349   */\n  tag_43\n  jump\t// in\ntag_131:\n    /* \"#utility.yul\":7297:7350   */\n  tag_26\n  jump\t// in\ntag_130:\n    /* \"#utility.yul\":7284:7350   */\n  swap1\n  pop\n    /* \"#utility.yul\":7214:7356   */\n  swap2\n  swap1\n  pop\n  jump\t// out\n    /* \"#utility.yul\":7362:7437   */\ntag_45:\n    /* \"#utility.yul\":7405:7408   */\n  0x00\n    /* \"#utility.yul\":7426:7431   */\n  dup2\n    /* \"#utility.yul\":7419:7431   */\n  swap1\n  pop\n    /* \"#utility.yul\":7362:7437   */\n  swap2\n  swap1\n  pop\n  jump\t// out\n    /* \"#utility.yul\":7443:7712   */\ntag_46:\n    /* \"#utility.yul\":7553:7592   */\n  tag_135\n    /* \"#utility.yul\":7584:7591   */\n  dup4\n    /* \"#utility.yul\":7553:7592   */\n  tag_44\n  jump\t// in\ntag_135:\n    /* \"#utility.yul\":7614:7705   */\n  tag_136\n    /* \"#utility.yul\":7663:7704   */\n  tag_137\n    /* \"#utility.yul\":7687:7703   */\n  dup3\n    /* \"#utility.yul\":7663:7704   */\n  tag_45\n  jump\t// in\ntag_137:\n    /* \"#utility.yul\":7655:7661   */\n  dup5\n    /* \"#utility.yul\":7648:7652   */\n  dup5\n    /* \"#utility.yul\":7642:7653   */\n  sload\n    /* \"#utility.yul\":7614:7705   */\n  tag_42\n  jump\t// in\ntag_136:\n    /* \"#utility.yul\":7608:7612   */\n  dup3\n    /* \"#utility.yul\":7601:7706   */\n  sstore\n    /* \"#utility.yul\":7519:7712   */\n  pop\n    /* \"#utility.yul\":7443:7712   */\n  pop\n  pop\n  pop\n  jump\t// out\n    /* \"#utility.yul\":7718:7791   */\ntag_47:\n    /* \"#utility.yul\":7763:7766   */\n  0x00\n    /* \"#utility.yul\":7784:7785   */\n  0x00\n    /* \"#utility.yul\":7777:7785   */\n  swap1\n  pop\n    /* \"#utility.yul\":7718:7791   */\n  swap1\n  jump\t// out\n    /* \"#utility.yul\":7797:7986   */\ntag_48:\n    /* \"#utility.yul\":7874:7906   */\n  tag_140\n  tag_47\n  jump\t// in\ntag_140:\n    /* \"#utility.yul\":7915:7980   */\n  tag_141\n    /* \"#utility.yul\":7973:7979   */\n  dup2\n    /* \"#utility.yul\":7965:7971   */\n  dup5\n    /* \"#utility.yul\":7959:7963   */\n  dup5\n    /* \"#utility.yul\":7915:7980   */\n  tag_46\n  jump\t// in\ntag_141:\n    /* \"#utility.yul\":7850:7986   */\n  pop\n    /* \"#utility.yul\":7797:7986   */\n  pop\n  pop\n  jump\t// out\n    /* \"#utility.yul\":7992:8178   */\ntag_49:\n    /* \"#utility.yul\":8052:8172   */\ntag_143:\n    /* \"#utility.yul\":8069:8072   */\n  dup2\n    /* \"#utility.yul\":8062:8067   */\n  dup2\n    /* \"#utility.yul\":8059:8073   */\n  lt\n    /* \"#utility.yul\":8052:8172   */\n  iszero\n  tag_145\n  jumpi\n    /* \"#utility.yul\":8123:8162   */\n  tag_146\n    /* \"#utility.yul\":8160:8161   */\n  0x00\n    /* \"#utility.yul\":8153:8158   */\n  dup3\n    /* \"#utility.yul\":8123:8162   */\n  tag_48\n  jump\t// in\ntag_146:\n    /* \"#utility.yul\":8096:8097   */\n  0x01\n    /* \"#utility.yul\":8089:8094   */\n  dup2\n    /* \"#utility.yul\":8085:8098   */\n  add\n    /* \"#utility.yul\":8076:8098   */\n  swap1\n  pop\n    /* \"#utility.yul\":8052:8172   */\n  jump(tag_143)\ntag_145:\n    /* \"#utility.yul\":7992:8178   */\n  pop\n  pop\n  jump\t// out\n    /* \"#utility.yul\":8184:8727   */\ntag_50:\n    /* \"#utility.yul\":8285:8287   */\n  0x1f\n    /* \"#utility.yul\":8280:8283   */\n  dup3\n    /* \"#utility.yul\":8277:8288   */\n  gt\n    /* \"#utility.yul\":8274:8720   */\n  iszero\n  tag_148\n  jumpi\n    /* \"#utility.yul\":8319:8357   */\n  tag_149\n    /* \"#utility.yul\":8351:8356   */\n  dup2\n    /* \"#utility.yul\":8319:8357   */\n  tag_39\n  jump\t// in\ntag_149:\n    /* \"#utility.yul\":8403:8432   */\n  tag_150\n    /* \"#utility.yul\":8421:8431   */\n  dup5\n    /* \"#utility.yul\":8403:8432   */\n  tag_40\n  jump\t// in\ntag_150:\n    /* \"#utility.yul\":8393:8401   */\n  dup2\n    /* \"#utility.yul\":8389:8433   */\n  add\n    /* \"#utility.yul\":8586:8588   */\n  0x20\n    /* \"#utility.yul\":8574:8584   */\n  dup6\n    /* \"#utility.yul\":8571:8589   */\n  lt\n    /* \"#utility.yul\":8568:8617   */\n  iszero\n  tag_151\n  jumpi\n    /* \"#utility.yul\":8607:8615   */\n  dup2\n    /* \"#utility.yul\":8592:8615   */\n  swap1\n  pop\n    /* \"#utility.yul\":8568:8617   */\ntag_151:\n    /* \"#utility.yul\":8630:8710   */\n  tag_152\n    /* \"#utility.yul\":8686:8708   */\n  tag_153\n    /* \"#utility.yul\":8704:8707   */\n  dup6\n    /* \"#utility.yul\":8686:8708   */\n  tag_40\n  jump\t// in\ntag_153:\n    /* \"#utility.yul\":8676:8684   */\n  dup4\n    /* \"#utility.yul\":8672:8709   */\n  add\n    /* \"#utility.yul\":8659:8670   */\n  dup3\n    /* \"#utility.yul\":8630:8710   */\n  tag_49\n  jump\t// in\ntag_152:\n    /* \"#utility.yul\":8289:8720   */\n  pop\n  pop\n    /* \"#utility.yul\":8274:8720   */\ntag_148:\n    /* \"#utility.yul\":8184:8727   */\n  pop\n  pop\n  pop\n  jump\t// out\n    /* \"#utility.yul\":8733:8850   */\ntag_51:\n    /* \"#utility.yul\":8787:8795   */\n  0x00\n    /* \"#utility.yul\":8837:8842   */\n  dup3\n    /* \"#utility.yul\":8831:8835   */\n  dup3\n    /* \"#utility.yul\":8827:8843   */\n  shr\n    /* \"#utility.yul\":8806:8843   */\n  swap1\n  pop\n    /* \"#utility.yul\":8733:8850   */\n  swap3\n  swap2\n  pop\n  pop\n  jump\t// out\n    /* \"#utility.yul\":8856:9025   */\ntag_52:\n    /* \"#utility.yul\":8900:8906   */\n  0x00\n    /* \"#utility.yul\":8933:8984   */\n  tag_156\n    /* \"#utility.yul\":8981:8982   */\n  0x00\n    /* \"#utility.yul\":8977:8983   */\n  not\n    /* \"#utility.yul\":8969:8974   */\n  dup5\n    /* \"#utility.yul\":8966:8967   */\n  0x08\n    /* \"#utility.yul\":8962:8975   */\n  mul\n    /* \"#utility.yul\":8933:8984   */\n  tag_51\n  jump\t// in\ntag_156:\n    /* \"#utility.yul\":8929:8985   */\n  not\n    /* \"#utility.yul\":9014:9018   */\n  dup1\n    /* \"#utility.yul\":9008:9012   */\n  dup4\n    /* \"#utility.yul\":9004:9019   */\n  and\n    /* \"#utility.yul\":8994:9019   */\n  swap2\n  pop\n    /* \"#utility.yul\":8907:9025   */\n  pop\n    /* \"#utility.yul\":8856:9025   */\n  swap3\n  swap2\n  pop\n  pop\n  jump\t// out\n    /* \"#utility.yul\":9030:9325   */\ntag_53:\n    /* \"#utility.yul\":9106:9110   */\n  0x00\n    /* \"#utility.yul\":9252:9281   */\n  tag_158\n    /* \"#utility.yul\":9277:9280   */\n  dup4\n    /* \"#utility.yul\":9271:9275   */\n  dup4\n    /* \"#utility.yul\":9252:9281   */\n  tag_52\n  jump\t// in\ntag_158:\n    /* \"#utility.yul\":9244:9281   */\n  swap2\n  pop\n    /* \"#utility.yul\":9314:9317   */\n  dup3\n    /* \"#utility.yul\":9311:9312   */\n  0x02\n    /* \"#utility.yul\":9307:9318   */\n  mul\n    /* \"#utility.yul\":9301:9305   */\n  dup3\n    /* \"#utility.yul\":9298:9319   */\n  or\n    /* \"#utility.yul\":9290:9319   */\n  swap1\n  pop\n    /* \"#utility.yul\":9030:9325   */\n  swap3\n  swap2\n  pop\n  pop\n  jump\t// out\n    /* \"#utility.yul\":9330:10725   */\ntag_10:\n    /* \"#utility.yul\":9447:9484   */\n  tag_160\n    /* \"#utility.yul\":9480:9483   */\n  dup3\n    /* \"#utility.yul\":9447:9484   */\n  tag_36\n  jump\t// in\ntag_160:\n    /* \"#utility.yul\":9549:9567   */\n  0xffffffffffffffff\n    /* \"#utility.yul\":9541:9547   */\n  dup2\n    /* \"#utility.yul\":9538:9568   */\n  gt\n    /* \"#utility.yul\":9535:9591   */\n  iszero\n  tag_161\n  jumpi\n    /* \"#utility.yul\":9571:9589   */\n  tag_162\n  tag_19\n  jump\t// in\ntag_162:\n    /* \"#utility.yul\":9535:9591   */\ntag_161:\n    /* \"#utility.yul\":9615:9653   */\n  tag_163\n    /* \"#utility.yul\":9647:9651   */\n  dup3\n    /* \"#utility.yul\":9641:9652   */\n  sload\n    /* \"#utility.yul\":9615:9653   */\n  tag_38\n  jump\t// in\ntag_163:\n    /* \"#utility.yul\":9700:9767   */\n  tag_164\n    /* \"#utility.yul\":9760:9766   */\n  dup3\n    /* \"#utility.yul\":9752:9758   */\n  dup3\n    /* \"#utility.yul\":9746:9750   */\n  dup6\n    /* \"#utility.yul\":9700:9767   */\n  tag_50\n  jump\t// in\ntag_164:\n    /* \"#utility.yul\":9794:9795   */\n  0x00\n    /* \"#utility.yul\":9818:9822   */\n  0x20\n    /* \"#utility.yul\":9805:9822   */\n  swap1\n  pop\n    /* \"#utility.yul\":9850:9852   */\n  0x1f\n    /* \"#utility.yul\":9842:9848   */\n  dup4\n    /* \"#utility.yul\":9839:9853   */\n  gt\n    /* \"#utility.yul\":9867:9868   */\n  0x01\n    /* \"#utility.yul\":9862:10480   */\n  dup2\n  eq\n  tag_166\n  jumpi\n    /* \"#utility.yul\":10524:10525   */\n  0x00\n    /* \"#utility.yul\":10541:10547   */\n  dup5\n    /* \"#utility.yul\":10538:10615   */\n  iszero\n  tag_167\n  jumpi\n    /* \"#utility.yul\":10590:10599   */\n  dup3\n    /* \"#utility.yul\":10585:10588   */\n  dup8\n    /* \"#utility.yul\":10581:10600   */\n  add\n    /* \"#utility.yul\":10575:10601   */\n  mload\n    /* \"#utility.yul\":10566:10601   */\n  swap1\n  pop\n    /* \"#utility.yul\":10538:10615   */\ntag_167:\n    /* \"#utility.yul\":10641:10708   */\n  tag_168\n    /* \"#utility.yul\":10701:10707   */\n  dup6\n    /* \"#utility.yul\":10694:10699   */\n  dup3\n    /* \"#utility.yul\":10641:10708   */\n  tag_53\n  jump\t// in\ntag_168:\n    /* \"#utility.yul\":10635:10639   */\n  dup7\n    /* \"#utility.yul\":10628:10709   */\n  sstore\n    /* \"#utility.yul\":10497:10719   */\n  pop\n    /* \"#utility.yul\":9832:10719   */\n  jump(tag_165)\n    /* \"#utility.yul\":9862:10480   */\ntag_166:\n    /* \"#utility.yul\":9914:9918   */\n  0x1f\n    /* \"#utility.yul\":9910:9919   */\n  not\n    /* \"#utility.yul\":9902:9908   */\n  dup5\n    /* \"#utility.yul\":9898:9920   */\n  and\n    /* \"#utility.yul\":9948:9985   */\n  tag_169\n    /* \"#utility.yul\":9980:9984   */\n  dup7\n    /* \"#utility.yul\":9948:9985   */\n  tag_39\n  jump\t// in\ntag_169:\n    /* \"#utility.yul\":10007:10008   */\n  0x00\n    /* \"#utility.yul\":10021:10229   */\ntag_170:\n    /* \"#utility.yul\":10035:10042   */\n  dup3\n    /* \"#utility.yul\":10032:10033   */\n  dup2\n    /* \"#utility.yul\":10029:10043   */\n  lt\n    /* \"#utility.yul\":10021:10229   */\n  iszero\n  tag_172\n  jumpi\n    /* \"#utility.yul\":10114:10123   */\n  dup5\n    /* \"#utility.yul\":10109:10112   */\n  dup10\n    /* \"#utility.yul\":10105:10124   */\n  add\n    /* \"#utility.yul\":10099:10125   */\n  mload\n    /* \"#utility.yul\":10091:10097   */\n  dup3\n    /* \"#utility.yul\":10084:10126   */\n  sstore\n    /* \"#utility.yul\":10165:10166   */\n  0x01\n    /* \"#utility.yul\":10157:10163   */\n  dup3\n    /* \"#utility.yul\":10153:10167   */\n  add\n    /* \"#utility.yul\":10143:10167   */\n  swap2\n  pop\n    /* \"#utility.yul\":10212:10214   */\n  0x20\n    /* \"#utility.yul\":10201:10210   */\n  dup6\n    /* \"#utility.yul\":10197:10215   */\n  add\n    /* \"#utility.yul\":10184:10215   */\n  swap5\n  pop\n    /* \"#utility.yul\":10058:10062   */\n  0x20\n    /* \"#utility.yul\":10055:10056   */\n  dup2\n    /* \"#utility.yul\":10051:10063   */\n  add\n    /* \"#utility.yul\":10046:10063   */\n  swap1\n  pop\n    /* \"#utility.yul\":10021:10229   */\n  jump(tag_170)\ntag_172:\n    /* \"#utility.yul\":10257:10263   */\n  dup7\n    /* \"#utility.yul\":10248:10255   */\n  dup4\n    /* \"#utility.yul\":10245:10264   */\n  lt\n    /* \"#utility.yul\":10242:10421   */\n  iszero\n  tag_173\n  jumpi\n    /* \"#utility.yul\":10315:10324   */\n  dup5\n    /* \"#utility.yul\":10310:10313   */\n  dup10\n    /* \"#utility.yul\":10306:10325   */\n  add\n    /* \"#utility.yul\":10300:10326   */\n  mload\n    /* \"#utility.yul\":10358:10406   */\n  tag_174\n    /* \"#utility.yul\":10400:10404   */\n  0x1f\n    /* \"#utility.yul\":10392:10398   */\n  dup10\n    /* \"#utility.yul\":10388:10405   */\n  and\n    /* \"#utility.yul\":10377:10386   */\n  dup3\n    /* \"#utility.yul\":10358:10406   */\n  tag_52\n  jump\t// in\ntag_174:\n    /* \"#utility.yul\":10350:10356   */\n  dup4\n    /* \"#utility.yul\":10343:10407   */\n  sstore\n    /* \"#utility.yul\":10265:10421   */\n  pop\n    /* \"#utility.yul\":10242:10421   */\ntag_173:\n    /* \"#utility.yul\":10467:10468   */\n  0x01\n    /* \"#utility.yul\":10463:10464   */\n  0x02\n    /* \"#utility.yul\":10455:10461   */\n  dup9\n    /* \"#utility.yul\":10451:10465   */\n  mul\n    /* \"#utility.yul\":10447:10469   */\n  add\n    /* \"#utility.yul\":10441:10445   */\n  dup9\n    /* \"#utility.yul\":10434:10470   */\n  sstore\n    /* \"#utility.yul\":9869:10480   */\n  pop\n  pop\n  pop\n    /* \"#utility.yul\":9832:10719   */\ntag_165:\n  pop\n    /* \"#utility.yul\":9422:10725   */\n  pop\n  pop\n  pop\n    /* \"#utility.yul\":9330:10725   */\n  pop\n  pop\n  jump\t// out\n    /* \"contracts/WineTrace.sol\":61:2023  contract WineTrace {... */\ntag_12:\n  dataSize(sub_0)\n  dup1\n  dataOffset(sub_0)\n  0x00\n  codecopy\n  0x00\n  return\nstop\n\nsub_0: assembly {\n        /* \"contracts/WineTrace.sol\":61:2023  contract WineTrace {... */\n      mstore(0x40, 0x80)\n      jumpi(tag_1, lt(calldatasize, 0x04))\n      shr(0xe0, calldataload(0x00))\n      dup1\n      0x94a76b21\n      gt\n      tag_12\n      jumpi\n      dup1\n      0x94a76b21\n      eq\n      tag_7\n      jumpi\n      dup1\n      0xb071536d\n      eq\n      tag_8\n      jumpi\n      dup1\n      0xdb3cb581\n      eq\n      tag_9\n      jumpi\n      dup1\n      0xdbc1f587\n      eq\n      tag_10\n      jumpi\n      dup1\n      0xe2b3f6d8\n      eq\n      tag_11\n      jumpi\n      jump(tag_1)\n    tag_12:\n      dup1\n      0x16ceaa95\n      eq\n      tag_2\n      jumpi\n      dup1\n      0x2e325020\n      eq\n      tag_3\n      jumpi\n      dup1\n      0x667b6e61\n      eq\n      tag_4\n      jumpi\n      dup1\n      0x75c59ecd\n      eq\n      tag_5\n      jumpi\n      dup1\n      0x8da5cb5b\n      eq\n      tag_6\n      jumpi\n    tag_1:\n      revert(0x00, 0x00)\n        /* \"contracts/WineTrace.sol\":1404:1495  function getStageCount() public view returns (uint) {... */\n    tag_2:\n      callvalue\n      dup1\n      iszero\n      tag_13\n      jumpi\n      revert(0x00, 0x00)\n    tag_13:\n      pop\n      tag_14\n      tag_15\n      jump\t// in\n    tag_14:\n      mload(0x40)\n      tag_16\n      swap2\n      swap1\n      tag_17\n      jump\t// in\n    tag_16:\n      mload(0x40)\n      dup1\n      swap2\n      sub\n      swap1\n      return\n        /* \"contracts/WineTrace.sol\":1167:1396  function getStage(uint index) public view returns (string memory, string memory) {... */\n    tag_3:\n      callvalue\n      dup1\n      iszero\n      tag_18\n      jumpi\n      revert(0x00, 0x00)\n    tag_18:\n      pop\n      tag_19\n      0x04\n      dup1\n      calldatasize\n      sub\n      dup2\n      add\n      swap1\n      tag_20\n      swap2\n      swap1\n      tag_21\n      jump\t// in\n    tag_20:\n      tag_22\n      jump\t// in\n    tag_19:\n      mload(0x40)\n      tag_23\n      swap3\n      swap2\n      swap1\n      tag_24\n      jump\t// in\n    tag_23:\n      mload(0x40)\n      dup1\n      swap2\n      sub\n      swap1\n      return\n        /* \"contracts/WineTrace.sol\":229:251  uint public quantityKg */\n    tag_4:\n      callvalue\n      dup1\n      iszero\n      tag_25\n      jumpi\n      revert(0x00, 0x00)\n    tag_25:\n      pop\n      tag_26\n      tag_27\n      jump\t// in\n    tag_26:\n      mload(0x40)\n      tag_28\n      swap2\n      swap1\n      tag_17\n      jump\t// in\n    tag_28:\n      mload(0x40)\n      dup1\n      swap2\n      sub\n      swap1\n      return\n        /* \"contracts/WineTrace.sol\":1503:1715  function sponsorWine() external payable {... */\n    tag_5:\n      tag_29\n      tag_30\n      jump\t// in\n    tag_29:\n      stop\n        /* \"contracts/WineTrace.sol\":258:278  address public owner */\n    tag_6:\n      callvalue\n      dup1\n      iszero\n      tag_31\n      jumpi\n      revert(0x00, 0x00)\n    tag_31:\n      pop\n      tag_32\n      tag_33\n      jump\t// in\n    tag_32:\n      mload(0x40)\n      tag_34\n      swap2\n      swap1\n      tag_35\n      jump\t// in\n    tag_34:\n      mload(0x40)\n      dup1\n      swap2\n      sub\n      swap1\n      return\n        /* \"contracts/WineTrace.sol\":970:1159  function addStage(string memory _description, string memory _date) external onlyOwner {... */\n    tag_7:\n      callvalue\n      dup1\n      iszero\n      tag_36\n      jumpi\n      revert(0x00, 0x00)\n    tag_36:\n      pop\n      tag_37\n      0x04\n      dup1\n      calldatasize\n      sub\n      dup2\n      add\n      swap1\n      tag_38\n      swap2\n      swap1\n      tag_39\n      jump\t// in\n    tag_38:\n      tag_40\n      jump\t// in\n    tag_37:\n      stop\n        /* \"contracts/WineTrace.sol\":316:344  uint public totalSponsorship */\n    tag_8:\n      callvalue\n      dup1\n      iszero\n      tag_41\n      jumpi\n      revert(0x00, 0x00)\n    tag_41:\n      pop\n      tag_42\n      tag_43\n      jump\t// in\n    tag_42:\n      mload(0x40)\n      tag_44\n      swap2\n      swap1\n      tag_17\n      jump\t// in\n    tag_44:\n      mload(0x40)\n      dup1\n      swap2\n      sub\n      swap1\n      return\n        /* \"contracts/WineTrace.sol\":167:190  string public grapeType */\n    tag_9:\n      callvalue\n      dup1\n      iszero\n      tag_45\n      jumpi\n      revert(0x00, 0x00)\n    tag_45:\n      pop\n      tag_46\n      tag_47\n      jump\t// in\n    tag_46:\n      mload(0x40)\n      tag_48\n      swap2\n      swap1\n      tag_49\n      jump\t// in\n    tag_48:\n      mload(0x40)\n      dup1\n      swap2\n      sub\n      swap1\n      return\n        /* \"contracts/WineTrace.sol\":1723:2020  function withdrawSponsorship() external onlyOwner {... */\n    tag_10:\n      callvalue\n      dup1\n      iszero\n      tag_50\n      jumpi\n      revert(0x00, 0x00)\n    tag_50:\n      pop\n      tag_51\n      tag_52\n      jump\t// in\n    tag_51:\n      stop\n        /* \"contracts/WineTrace.sol\":197:222  string public harvestYear */\n    tag_11:\n      callvalue\n      dup1\n      iszero\n      tag_53\n      jumpi\n      revert(0x00, 0x00)\n    tag_53:\n      pop\n      tag_54\n      tag_55\n      jump\t// in\n    tag_54:\n      mload(0x40)\n      tag_56\n      swap2\n      swap1\n      tag_49\n      jump\t// in\n    tag_56:\n      mload(0x40)\n      dup1\n      swap2\n      sub\n      swap1\n      return\n        /* \"contracts/WineTrace.sol\":1404:1495  function getStageCount() public view returns (uint) {... */\n    tag_15:\n        /* \"contracts/WineTrace.sol\":1450:1454  uint */\n      0x00\n        /* \"contracts/WineTrace.sol\":1474:1480  stages */\n      0x04\n        /* \"contracts/WineTrace.sol\":1474:1487  stages.length */\n      dup1\n      sload\n      swap1\n      pop\n        /* \"contracts/WineTrace.sol\":1467:1487  return stages.length */\n      swap1\n      pop\n        /* \"contracts/WineTrace.sol\":1404:1495  function getStageCount() public view returns (uint) {... */\n      swap1\n      jump\t// out\n        /* \"contracts/WineTrace.sol\":1167:1396  function getStage(uint index) public view returns (string memory, string memory) {... */\n    tag_22:\n        /* \"contracts/WineTrace.sol\":1218:1231  string memory */\n      0x60\n        /* \"contracts/WineTrace.sol\":1233:1246  string memory */\n      dup1\n        /* \"contracts/WineTrace.sol\":1275:1281  stages */\n      0x04\n        /* \"contracts/WineTrace.sol\":1275:1288  stages.length */\n      dup1\n      sload\n      swap1\n      pop\n        /* \"contracts/WineTrace.sol\":1267:1272  index */\n      dup4\n        /* \"contracts/WineTrace.sol\":1267:1288  index < stages.length */\n      lt\n        /* \"contracts/WineTrace.sol\":1259:1306  require(index < stages.length, \"Invalid index\") */\n      tag_59\n      jumpi\n      mload(0x40)\n      0x08c379a000000000000000000000000000000000000000000000000000000000\n      dup2\n      mstore\n      0x04\n      add\n      tag_60\n      swap1\n      tag_61\n      jump\t// in\n    tag_60:\n      mload(0x40)\n      dup1\n      swap2\n      sub\n      swap1\n      revert\n    tag_59:\n        /* \"contracts/WineTrace.sol\":1317:1331  Stage memory s */\n      0x00\n        /* \"contracts/WineTrace.sol\":1334:1340  stages */\n      0x04\n        /* \"contracts/WineTrace.sol\":1341:1346  index */\n      dup5\n        /* \"contracts/WineTrace.sol\":1334:1347  stages[index] */\n      dup2\n      sload\n      dup2\n      lt\n      tag_62\n      jumpi\n      tag_63\n      tag_64\n      jump\t// in\n    tag_63:\n    tag_62:\n      swap1\n      0x00\n      mstore\n      keccak256(0x00, 0x20)\n      swap1\n      0x02\n      mul\n      add\n        /* \"contracts/WineTrace.sol\":1317:1347  Stage memory s = stages[index] */\n      mload(0x40)\n      dup1\n      0x40\n      add\n      0x40\n      mstore\n      swap1\n      dup2\n      0x00\n      dup3\n      add\n      dup1\n      sload\n      tag_66\n      swap1\n      tag_67\n      jump\t// in\n    tag_66:\n      dup1\n      0x1f\n      add\n      0x20\n      dup1\n      swap2\n      div\n      mul\n      0x20\n      add\n      mload(0x40)\n      swap1\n      dup2\n      add\n      0x40\n      mstore\n      dup1\n      swap3\n      swap2\n      swap1\n      dup2\n      dup2\n      mstore\n      0x20\n      add\n      dup3\n      dup1\n      sload\n      tag_68\n      swap1\n      tag_67\n      jump\t// in\n    tag_68:\n      dup1\n      iszero\n      tag_69\n      jumpi\n      dup1\n      0x1f\n      lt\n      tag_70\n      jumpi\n      0x0100\n      dup1\n      dup4\n      sload\n      div\n      mul\n      dup4\n      mstore\n      swap2\n      0x20\n      add\n      swap2\n      jump(tag_69)\n    tag_70:\n      dup3\n      add\n      swap2\n      swap1\n      0x00\n      mstore\n      keccak256(0x00, 0x20)\n      swap1\n    tag_71:\n      dup2\n      sload\n      dup2\n      mstore\n      swap1\n      0x01\n      add\n      swap1\n      0x20\n      add\n      dup1\n      dup4\n      gt\n      tag_71\n      jumpi\n      dup3\n      swap1\n      sub\n      0x1f\n      and\n      dup3\n      add\n      swap2\n    tag_69:\n      pop\n      pop\n      pop\n      pop\n      pop\n      dup2\n      mstore\n      0x20\n      add\n      0x01\n      dup3\n      add\n      dup1\n      sload\n      tag_72\n      swap1\n      tag_67\n      jump\t// in\n    tag_72:\n      dup1\n      0x1f\n      add\n      0x20\n      dup1\n      swap2\n      div\n      mul\n      0x20\n      add\n      mload(0x40)\n      swap1\n      dup2\n      add\n      0x40\n      mstore\n      dup1\n      swap3\n      swap2\n      swap1\n      dup2\n      dup2\n      mstore\n      0x20\n      add\n      dup3\n      dup1\n      sload\n      tag_73\n      swap1\n      tag_67\n      jump\t// in\n    tag_73:\n      dup1\n      iszero\n      tag_74\n      jumpi\n      dup1\n      0x1f\n      lt\n      tag_75\n      jumpi\n      0x0100\n      dup1\n      dup4\n      sload\n      div\n      mul\n      dup4\n      mstore\n      swap2\n      0x20\n      add\n      swap2\n      jump(tag_74)\n    tag_75:\n      dup3\n      add\n      swap2\n      swap1\n      0x00\n      mstore\n      keccak256(0x00, 0x20)\n      swap1\n    tag_76:\n      dup2\n      sload\n      dup2\n      mstore\n      swap1\n      0x01\n      add\n      swap1\n      0x20\n      add\n      dup1\n      dup4\n      gt\n      tag_76\n      jumpi\n      dup3\n      swap1\n      sub\n      0x1f\n      and\n      dup3\n      add\n      swap2\n    tag_74:\n      pop\n      pop\n      pop\n      pop\n      pop\n      dup2\n      mstore\n      pop\n      pop\n      swap1\n      pop\n        /* \"contracts/WineTrace.sol\":1366:1367  s */\n      dup1\n        /* \"contracts/WineTrace.sol\":1366:1379  s.description */\n      0x00\n      add\n      mload\n        /* \"contracts/WineTrace.sol\":1381:1382  s */\n      dup2\n        /* \"contracts/WineTrace.sol\":1381:1387  s.date */\n      0x20\n      add\n      mload\n        /* \"contracts/WineTrace.sol\":1358:1388  return (s.description, s.date) */\n      swap3\n      pop\n      swap3\n      pop\n      pop\n        /* \"contracts/WineTrace.sol\":1167:1396  function getStage(uint index) public view returns (string memory, string memory) {... */\n      swap2\n      pop\n      swap2\n      jump\t// out\n        /* \"contracts/WineTrace.sol\":229:251  uint public quantityKg */\n    tag_27:\n      sload(0x02)\n      dup2\n      jump\t// out\n        /* \"contracts/WineTrace.sol\":1503:1715  function sponsorWine() external payable {... */\n    tag_30:\n        /* \"contracts/WineTrace.sol\":1574:1575  0 */\n      0x00\n        /* \"contracts/WineTrace.sol\":1562:1571  msg.value */\n      callvalue\n        /* \"contracts/WineTrace.sol\":1562:1575  msg.value > 0 */\n      gt\n        /* \"contracts/WineTrace.sol\":1554:1615  require(msg.value > 0, \"Sponsorship must be greater than 0.\") */\n      tag_78\n      jumpi\n      mload(0x40)\n      0x08c379a000000000000000000000000000000000000000000000000000000000\n      dup2\n      mstore\n      0x04\n      add\n      tag_79\n      swap1\n      tag_80\n      jump\t// in\n    tag_79:\n      mload(0x40)\n      dup1\n      swap2\n      sub\n      swap1\n      revert\n    tag_78:\n        /* \"contracts/WineTrace.sol\":1646:1655  msg.value */\n      callvalue\n        /* \"contracts/WineTrace.sol\":1626:1642  totalSponsorship */\n      0x05\n      0x00\n        /* \"contracts/WineTrace.sol\":1626:1655  totalSponsorship += msg.value */\n      dup3\n      dup3\n      sload\n      tag_81\n      swap2\n      swap1\n      tag_82\n      jump\t// in\n    tag_81:\n      swap3\n      pop\n      pop\n      dup2\n      swap1\n      sstore\n      pop\n        /* \"contracts/WineTrace.sol\":1685:1695  msg.sender */\n      caller\n        /* \"contracts/WineTrace.sol\":1671:1707  WineSponsored(msg.sender, msg.value) */\n      0xffffffffffffffffffffffffffffffffffffffff\n      and\n      0x4569f0a20ef33c14c81397c9ebe12ea5f2bfbc03bed970dd09b61928833c06b1\n        /* \"contracts/WineTrace.sol\":1697:1706  msg.value */\n      callvalue\n        /* \"contracts/WineTrace.sol\":1671:1707  WineSponsored(msg.sender, msg.value) */\n      mload(0x40)\n      tag_83\n      swap2\n      swap1\n      tag_17\n      jump\t// in\n    tag_83:\n      mload(0x40)\n      dup1\n      swap2\n      sub\n      swap1\n      log2\n        /* \"contracts/WineTrace.sol\":1503:1715  function sponsorWine() external payable {... */\n      jump\t// out\n        /* \"contracts/WineTrace.sol\":258:278  address public owner */\n    tag_33:\n      0x03\n      0x00\n      swap1\n      sload\n      swap1\n      0x0100\n      exp\n      swap1\n      div\n      0xffffffffffffffffffffffffffffffffffffffff\n      and\n      dup2\n      jump\t// out\n        /* \"contracts/WineTrace.sol\":970:1159  function addStage(string memory _description, string memory _date) external onlyOwner {... */\n    tag_40:\n        /* \"contracts/WineTrace.sol\":527:532  owner */\n      0x03\n      0x00\n      swap1\n      sload\n      swap1\n      0x0100\n      exp\n      swap1\n      div\n      0xffffffffffffffffffffffffffffffffffffffff\n      and\n        /* \"contracts/WineTrace.sol\":513:532  msg.sender == owner */\n      0xffffffffffffffffffffffffffffffffffffffff\n      and\n        /* \"contracts/WineTrace.sol\":513:523  msg.sender */\n      caller\n        /* \"contracts/WineTrace.sol\":513:532  msg.sender == owner */\n      0xffffffffffffffffffffffffffffffffffffffff\n      and\n      eq\n        /* \"contracts/WineTrace.sol\":505:578  require(msg.sender == owner, \"Permission denied. You are not the owner.\") */\n      tag_85\n      jumpi\n      mload(0x40)\n      0x08c379a000000000000000000000000000000000000000000000000000000000\n      dup2\n      mstore\n      0x04\n      add\n      tag_86\n      swap1\n      tag_87\n      jump\t// in\n    tag_86:\n      mload(0x40)\n      dup1\n      swap2\n      sub\n      swap1\n      revert\n    tag_85:\n        /* \"contracts/WineTrace.sol\":1067:1073  stages */\n      0x04\n        /* \"contracts/WineTrace.sol\":1079:1105  Stage(_description, _date) */\n      mload(0x40)\n      dup1\n      0x40\n      add\n      0x40\n      mstore\n      dup1\n        /* \"contracts/WineTrace.sol\":1085:1097  _description */\n      dup5\n        /* \"contracts/WineTrace.sol\":1079:1105  Stage(_description, _date) */\n      dup2\n      mstore\n      0x20\n      add\n        /* \"contracts/WineTrace.sol\":1099:1104  _date */\n      dup4\n        /* \"contracts/WineTrace.sol\":1079:1105  Stage(_description, _date) */\n      dup2\n      mstore\n      pop\n        /* \"contracts/WineTrace.sol\":1067:1106  stages.push(Stage(_description, _date)) */\n      swap1\n      dup1\n      0x01\n      dup2\n      sload\n      add\n      dup1\n      dup3\n      sstore\n      dup1\n      swap2\n      pop\n      pop\n      0x01\n      swap1\n      sub\n      swap1\n      0x00\n      mstore\n      keccak256(0x00, 0x20)\n      swap1\n      0x02\n      mul\n      add\n      0x00\n      swap1\n      swap2\n      swap1\n      swap2\n      swap1\n      swap2\n      pop\n      0x00\n      dup3\n      add\n      mload\n      dup2\n      0x00\n      add\n      swap1\n      dup2\n      tag_90\n      swap2\n      swap1\n      tag_91\n      jump\t// in\n    tag_90:\n      pop\n      0x20\n      dup3\n      add\n      mload\n      dup2\n      0x01\n      add\n      swap1\n      dup2\n      tag_92\n      swap2\n      swap1\n      tag_91\n      jump\t// in\n    tag_92:\n      pop\n      pop\n      pop\n        /* \"contracts/WineTrace.sol\":1122:1151  NewStage(_description, _date) */\n      0xca0694529e21db15d3e82c504bff67f4f258f1a03cb3525ecffc834d515e8f7c\n        /* \"contracts/WineTrace.sol\":1131:1143  _description */\n      dup3\n        /* \"contracts/WineTrace.sol\":1145:1150  _date */\n      dup3\n        /* \"contracts/WineTrace.sol\":1122:1151  NewStage(_description, _date) */\n      mload(0x40)\n      tag_93\n      swap3\n      swap2\n      swap1\n      tag_24\n      jump\t// in\n    tag_93:\n      mload(0x40)\n      dup1\n      swap2\n      sub\n      swap1\n      log1\n        /* \"contracts/WineTrace.sol\":970:1159  function addStage(string memory _description, string memory _date) external onlyOwner {... */\n      pop\n      pop\n      jump\t// out\n        /* \"contracts/WineTrace.sol\":316:344  uint public totalSponsorship */\n    tag_43:\n      sload(0x05)\n      dup2\n      jump\t// out\n        /* \"contracts/WineTrace.sol\":167:190  string public grapeType */\n    tag_47:\n      0x00\n      dup1\n      sload\n      tag_94\n      swap1\n      tag_67\n      jump\t// in\n    tag_94:\n      dup1\n      0x1f\n      add\n      0x20\n      dup1\n      swap2\n      div\n      mul\n      0x20\n      add\n      mload(0x40)\n      swap1\n      dup2\n      add\n      0x40\n      mstore\n      dup1\n      swap3\n      swap2\n      swap1\n      dup2\n      dup2\n      mstore\n      0x20\n      add\n      dup3\n      dup1\n      sload\n      tag_95\n      swap1\n      tag_67\n      jump\t// in\n    tag_95:\n      dup1\n      iszero\n      tag_96\n      jumpi\n      dup1\n      0x1f\n      lt\n      tag_97\n      jumpi\n      0x0100\n      dup1\n      dup4\n      sload\n      div\n      mul\n      dup4\n      mstore\n      swap2\n      0x20\n      add\n      swap2\n      jump(tag_96)\n    tag_97:\n      dup3\n      add\n      swap2\n      swap1\n      0x00\n      mstore\n      keccak256(0x00, 0x20)\n      swap1\n    tag_98:\n      dup2\n      sload\n      dup2\n      mstore\n      swap1\n      0x01\n      add\n      swap1\n      0x20\n      add\n      dup1\n      dup4\n      gt\n      tag_98\n      jumpi\n      dup3\n      swap1\n      sub\n      0x1f\n      and\n      dup3\n      add\n      swap2\n    tag_96:\n      pop\n      pop\n      pop\n      pop\n      pop\n      dup2\n      jump\t// out\n        /* \"contracts/WineTrace.sol\":1723:2020  function withdrawSponsorship() external onlyOwner {... */\n    tag_52:\n        /* \"contracts/WineTrace.sol\":527:532  owner */\n      0x03\n      0x00\n      swap1\n      sload\n      swap1\n      0x0100\n      exp\n      swap1\n      div\n      0xffffffffffffffffffffffffffffffffffffffff\n      and\n        /* \"contracts/WineTrace.sol\":513:532  msg.sender == owner */\n      0xffffffffffffffffffffffffffffffffffffffff\n      and\n        /* \"contracts/WineTrace.sol\":513:523  msg.sender */\n      caller\n        /* \"contracts/WineTrace.sol\":513:532  msg.sender == owner */\n      0xffffffffffffffffffffffffffffffffffffffff\n      and\n      eq\n        /* \"contracts/WineTrace.sol\":505:578  require(msg.sender == owner, \"Permission denied. You are not the owner.\") */\n      tag_100\n      jumpi\n      mload(0x40)\n      0x08c379a000000000000000000000000000000000000000000000000000000000\n      dup2\n      mstore\n      0x04\n      add\n      tag_101\n      swap1\n      tag_87\n      jump\t// in\n    tag_101:\n      mload(0x40)\n      dup1\n      swap2\n      sub\n      swap1\n      revert\n    tag_100:\n        /* \"contracts/WineTrace.sol\":1811:1812  0 */\n      0x00\n        /* \"contracts/WineTrace.sol\":1792:1808  totalSponsorship */\n      sload(0x05)\n        /* \"contracts/WineTrace.sol\":1792:1812  totalSponsorship > 0 */\n      gt\n        /* \"contracts/WineTrace.sol\":1784:1838  require(totalSponsorship > 0, \"No funds to withdraw.\") */\n      tag_103\n      jumpi\n      mload(0x40)\n      0x08c379a000000000000000000000000000000000000000000000000000000000\n      dup2\n      mstore\n      0x04\n      add\n      tag_104\n      swap1\n      tag_105\n      jump\t// in\n    tag_104:\n      mload(0x40)\n      dup1\n      swap2\n      sub\n      swap1\n      revert\n    tag_103:\n        /* \"contracts/WineTrace.sol\":1849:1860  uint amount */\n      0x00\n        /* \"contracts/WineTrace.sol\":1863:1879  totalSponsorship */\n      sload(0x05)\n        /* \"contracts/WineTrace.sol\":1849:1879  uint amount = totalSponsorship */\n      swap1\n      pop\n        /* \"contracts/WineTrace.sol\":1909:1910  0 */\n      0x00\n        /* \"contracts/WineTrace.sol\":1890:1906  totalSponsorship */\n      0x05\n        /* \"contracts/WineTrace.sol\":1890:1910  totalSponsorship = 0 */\n      dup2\n      swap1\n      sstore\n      pop\n        /* \"contracts/WineTrace.sol\":1922:1931  bool sent */\n      0x00\n        /* \"contracts/WineTrace.sol\":1937:1942  owner */\n      0x03\n      0x00\n      swap1\n      sload\n      swap1\n      0x0100\n      exp\n      swap1\n      div\n      0xffffffffffffffffffffffffffffffffffffffff\n      and\n        /* \"contracts/WineTrace.sol\":1937:1947  owner.call */\n      0xffffffffffffffffffffffffffffffffffffffff\n      and\n        /* \"contracts/WineTrace.sol\":1955:1961  amount */\n      dup3\n        /* \"contracts/WineTrace.sol\":1937:1966  owner.call{value: amount}(\"\") */\n      mload(0x40)\n      tag_106\n      swap1\n      tag_107\n      jump\t// in\n    tag_106:\n      0x00\n      mload(0x40)\n      dup1\n      dup4\n      sub\n      dup2\n      dup6\n      dup8\n      gas\n      call\n      swap3\n      pop\n      pop\n      pop\n      returndatasize\n      dup1\n      0x00\n      dup2\n      eq\n      tag_110\n      jumpi\n      mload(0x40)\n      swap2\n      pop\n      and(add(returndatasize, 0x3f), not(0x1f))\n      dup3\n      add\n      0x40\n      mstore\n      returndatasize\n      dup3\n      mstore\n      returndatasize\n      0x00\n      0x20\n      dup5\n      add\n      returndatacopy\n      jump(tag_109)\n    tag_110:\n      0x60\n      swap2\n      pop\n    tag_109:\n      pop\n        /* \"contracts/WineTrace.sol\":1921:1966  (bool sent, ) = owner.call{value: amount}(\"\") */\n      pop\n      swap1\n      pop\n        /* \"contracts/WineTrace.sol\":1985:1989  sent */\n      dup1\n        /* \"contracts/WineTrace.sol\":1977:2012  require(sent, \"Withdrawal failed.\") */\n      tag_111\n      jumpi\n      mload(0x40)\n      0x08c379a000000000000000000000000000000000000000000000000000000000\n      dup2\n      mstore\n      0x04\n      add\n      tag_112\n      swap1\n      tag_113\n      jump\t// in\n    tag_112:\n      mload(0x40)\n      dup1\n      swap2\n      sub\n      swap1\n      revert\n    tag_111:\n        /* \"contracts/WineTrace.sol\":1773:2020  {... */\n      pop\n      pop\n        /* \"contracts/WineTrace.sol\":1723:2020  function withdrawSponsorship() external onlyOwner {... */\n      jump\t// out\n        /* \"contracts/WineTrace.sol\":197:222  string public harvestYear */\n    tag_55:\n      0x01\n      dup1\n      sload\n      tag_114\n      swap1\n      tag_67\n      jump\t// in\n    tag_114:\n      dup1\n      0x1f\n      add\n      0x20\n      dup1\n      swap2\n      div\n      mul\n      0x20\n      add\n      mload(0x40)\n      swap1\n      dup2\n      add\n      0x40\n      mstore\n      dup1\n      swap3\n      swap2\n      swap1\n      dup2\n      dup2\n      mstore\n      0x20\n      add\n      dup3\n      dup1\n      sload\n      tag_115\n      swap1\n      tag_67\n      jump\t// in\n    tag_115:\n      dup1\n      iszero\n      tag_116\n      jumpi\n      dup1\n      0x1f\n      lt\n      tag_117\n      jumpi\n      0x0100\n      dup1\n      dup4\n      sload\n      div\n      mul\n      dup4\n      mstore\n      swap2\n      0x20\n      add\n      swap2\n      jump(tag_116)\n    tag_117:\n      dup3\n      add\n      swap2\n      swap1\n      0x00\n      mstore\n      keccak256(0x00, 0x20)\n      swap1\n    tag_118:\n      dup2\n      sload\n      dup2\n      mstore\n      swap1\n      0x01\n      add\n      swap1\n      0x20\n      add\n      dup1\n      dup4\n      gt\n      tag_118\n      jumpi\n      dup3\n      swap1\n      sub\n      0x1f\n      and\n      dup3\n      add\n      swap2\n    tag_116:\n      pop\n      pop\n      pop\n      pop\n      pop\n      dup2\n      jump\t// out\n        /* \"#utility.yul\":7:84   */\n    tag_119:\n        /* \"#utility.yul\":44:51   */\n      0x00\n        /* \"#utility.yul\":73:78   */\n      dup2\n        /* \"#utility.yul\":62:78   */\n      swap1\n      pop\n        /* \"#utility.yul\":7:84   */\n      swap2\n      swap1\n      pop\n      jump\t// out\n        /* \"#utility.yul\":90:208   */\n    tag_120:\n        /* \"#utility.yul\":177:201   */\n      tag_176\n        /* \"#utility.yul\":195:200   */\n      dup2\n        /* \"#utility.yul\":177:201   */\n      tag_119\n      jump\t// in\n    tag_176:\n        /* \"#utility.yul\":172:175   */\n      dup3\n        /* \"#utility.yul\":165:202   */\n      mstore\n        /* \"#utility.yul\":90:208   */\n      pop\n      pop\n      jump\t// out\n        /* \"#utility.yul\":214:436   */\n    tag_17:\n        /* \"#utility.yul\":307:311   */\n      0x00\n        /* \"#utility.yul\":345:347   */\n      0x20\n        /* \"#utility.yul\":334:343   */\n      dup3\n        /* \"#utility.yul\":330:348   */\n      add\n        /* \"#utility.yul\":322:348   */\n      swap1\n      pop\n        /* \"#utility.yul\":358:429   */\n      tag_178\n        /* \"#utility.yul\":426:427   */\n      0x00\n        /* \"#utility.yul\":415:424   */\n      dup4\n        /* \"#utility.yul\":411:428   */\n      add\n        /* \"#utility.yul\":402:408   */\n      dup5\n        /* \"#utility.yul\":358:429   */\n      tag_120\n      jump\t// in\n    tag_178:\n        /* \"#utility.yul\":214:436   */\n      swap3\n      swap2\n      pop\n      pop\n      jump\t// out\n        /* \"#utility.yul\":442:517   */\n    tag_121:\n        /* \"#utility.yul\":475:481   */\n      0x00\n        /* \"#utility.yul\":508:510   */\n      0x40\n        /* \"#utility.yul\":502:511   */\n      mload\n        /* \"#utility.yul\":492:511   */\n      swap1\n      pop\n        /* \"#utility.yul\":442:517   */\n      swap1\n      jump\t// out\n        /* \"#utility.yul\":523:640   */\n    tag_122:\n        /* \"#utility.yul\":632:633   */\n      0x00\n        /* \"#utility.yul\":629:630   */\n      0x00\n        /* \"#utility.yul\":622:634   */\n      revert\n        /* \"#utility.yul\":646:763   */\n    tag_123:\n        /* \"#utility.yul\":755:756   */\n      0x00\n        /* \"#utility.yul\":752:753   */\n      0x00\n        /* \"#utility.yul\":745:757   */\n      revert\n        /* \"#utility.yul\":769:891   */\n    tag_124:\n        /* \"#utility.yul\":842:866   */\n      tag_183\n        /* \"#utility.yul\":860:865   */\n      dup2\n        /* \"#utility.yul\":842:866   */\n      tag_119\n      jump\t// in\n    tag_183:\n        /* \"#utility.yul\":835:840   */\n      dup2\n        /* \"#utility.yul\":832:867   */\n      eq\n        /* \"#utility.yul\":822:885   */\n      tag_184\n      jumpi\n        /* \"#utility.yul\":881:882   */\n      0x00\n        /* \"#utility.yul\":878:879   */\n      0x00\n        /* \"#utility.yul\":871:883   */\n      revert\n        /* \"#utility.yul\":822:885   */\n    tag_184:\n        /* \"#utility.yul\":769:891   */\n      pop\n      jump\t// out\n        /* \"#utility.yul\":897:1036   */\n    tag_125:\n        /* \"#utility.yul\":943:948   */\n      0x00\n        /* \"#utility.yul\":981:987   */\n      dup2\n        /* \"#utility.yul\":968:988   */\n      calldataload\n        /* \"#utility.yul\":959:988   */\n      swap1\n      pop\n        /* \"#utility.yul\":997:1030   */\n      tag_186\n        /* \"#utility.yul\":1024:1029   */\n      dup2\n        /* \"#utility.yul\":997:1030   */\n      tag_124\n      jump\t// in\n    tag_186:\n        /* \"#utility.yul\":897:1036   */\n      swap3\n      swap2\n      pop\n      pop\n      jump\t// out\n        /* \"#utility.yul\":1042:1371   */\n    tag_21:\n        /* \"#utility.yul\":1101:1107   */\n      0x00\n        /* \"#utility.yul\":1150:1152   */\n      0x20\n        /* \"#utility.yul\":1138:1147   */\n      dup3\n        /* \"#utility.yul\":1129:1136   */\n      dup5\n        /* \"#utility.yul\":1125:1148   */\n      sub\n        /* \"#utility.yul\":1121:1153   */\n      slt\n        /* \"#utility.yul\":1118:1237   */\n      iszero\n      tag_188\n      jumpi\n        /* \"#utility.yul\":1156:1235   */\n      tag_189\n      tag_122\n      jump\t// in\n    tag_189:\n        /* \"#utility.yul\":1118:1237   */\n    tag_188:\n        /* \"#utility.yul\":1276:1277   */\n      0x00\n        /* \"#utility.yul\":1301:1354   */\n      tag_190\n        /* \"#utility.yul\":1346:1353   */\n      dup5\n        /* \"#utility.yul\":1337:1343   */\n      dup3\n        /* \"#utility.yul\":1326:1335   */\n      dup6\n        /* \"#utility.yul\":1322:1344   */\n      add\n        /* \"#utility.yul\":1301:1354   */\n      tag_125\n      jump\t// in\n    tag_190:\n        /* \"#utility.yul\":1291:1354   */\n      swap2\n      pop\n        /* \"#utility.yul\":1247:1364   */\n      pop\n        /* \"#utility.yul\":1042:1371   */\n      swap3\n      swap2\n      pop\n      pop\n      jump\t// out\n        /* \"#utility.yul\":1377:1476   */\n    tag_126:\n        /* \"#utility.yul\":1429:1435   */\n      0x00\n        /* \"#utility.yul\":1463:1468   */\n      dup2\n        /* \"#utility.yul\":1457:1469   */\n      mload\n        /* \"#utility.yul\":1447:1469   */\n      swap1\n      pop\n        /* \"#utility.yul\":1377:1476   */\n      swap2\n      swap1\n      pop\n      jump\t// out\n        /* \"#utility.yul\":1482:1651   */\n    tag_127:\n        /* \"#utility.yul\":1566:1577   */\n      0x00\n        /* \"#utility.yul\":1600:1606   */\n      dup3\n        /* \"#utility.yul\":1595:1598   */\n      dup3\n        /* \"#utility.yul\":1588:1607   */\n      mstore\n        /* \"#utility.yul\":1640:1644   */\n      0x20\n        /* \"#utility.yul\":1635:1638   */\n      dup3\n        /* \"#utility.yul\":1631:1645   */\n      add\n        /* \"#utility.yul\":1616:1645   */\n      swap1\n      pop\n        /* \"#utility.yul\":1482:1651   */\n      swap3\n      swap2\n      pop\n      pop\n      jump\t// out\n        /* \"#utility.yul\":1657:1796   */\n    tag_128:\n        /* \"#utility.yul\":1746:1752   */\n      dup3\n        /* \"#utility.yul\":1741:1744   */\n      dup2\n        /* \"#utility.yul\":1736:1739   */\n      dup4\n        /* \"#utility.yul\":1730:1753   */\n      mcopy\n        /* \"#utility.yul\":1787:1788   */\n      0x00\n        /* \"#utility.yul\":1778:1784   */\n      dup4\n        /* \"#utility.yul\":1773:1776   */\n      dup4\n        /* \"#utility.yul\":1769:1785   */\n      add\n        /* \"#utility.yul\":1762:1789   */\n      mstore\n        /* \"#utility.yul\":1657:1796   */\n      pop\n      pop\n      pop\n      jump\t// out\n        /* \"#utility.yul\":1802:1904   */\n    tag_129:\n        /* \"#utility.yul\":1843:1849   */\n      0x00\n        /* \"#utility.yul\":1894:1896   */\n      0x1f\n        /* \"#utility.yul\":1890:1897   */\n      not\n        /* \"#utility.yul\":1885:1887   */\n      0x1f\n        /* \"#utility.yul\":1878:1883   */\n      dup4\n        /* \"#utility.yul\":1874:1888   */\n      add\n        /* \"#utility.yul\":1870:1898   */\n      and\n        /* \"#utility.yul\":1860:1898   */\n      swap1\n      pop\n        /* \"#utility.yul\":1802:1904   */\n      swap2\n      swap1\n      pop\n      jump\t// out\n        /* \"#utility.yul\":1910:2287   */\n    tag_130:\n        /* \"#utility.yul\":1998:2001   */\n      0x00\n        /* \"#utility.yul\":2026:2065   */\n      tag_196\n        /* \"#utility.yul\":2059:2064   */\n      dup3\n        /* \"#utility.yul\":2026:2065   */\n      tag_126\n      jump\t// in\n    tag_196:\n        /* \"#utility.yul\":2081:2152   */\n      tag_197\n        /* \"#utility.yul\":2145:2151   */\n      dup2\n        /* \"#utility.yul\":2140:2143   */\n      dup6\n        /* \"#utility.yul\":2081:2152   */\n      tag_127\n      jump\t// in\n    tag_197:\n        /* \"#utility.yul\":2074:2152   */\n      swap4\n      pop\n        /* \"#utility.yul\":2161:2226   */\n      tag_198\n        /* \"#utility.yul\":2219:2225   */\n      dup2\n        /* \"#utility.yul\":2214:2217   */\n      dup6\n        /* \"#utility.yul\":2207:2211   */\n      0x20\n        /* \"#utility.yul\":2200:2205   */\n      dup7\n        /* \"#utility.yul\":2196:2212   */\n      add\n        /* \"#utility.yul\":2161:2226   */\n      tag_128\n      jump\t// in\n    tag_198:\n        /* \"#utility.yul\":2251:2280   */\n      tag_199\n        /* \"#utility.yul\":2273:2279   */\n      dup2\n        /* \"#utility.yul\":2251:2280   */\n      tag_129\n      jump\t// in\n    tag_199:\n        /* \"#utility.yul\":2246:2249   */\n      dup5\n        /* \"#utility.yul\":2242:2281   */\n      add\n        /* \"#utility.yul\":2235:2281   */\n      swap2\n      pop\n        /* \"#utility.yul\":2002:2287   */\n      pop\n        /* \"#utility.yul\":1910:2287   */\n      swap3\n      swap2\n      pop\n      pop\n      jump\t// out\n        /* \"#utility.yul\":2293:2807   */\n    tag_24:\n        /* \"#utility.yul\":2454:2458   */\n      0x00\n        /* \"#utility.yul\":2492:2494   */\n      0x40\n        /* \"#utility.yul\":2481:2490   */\n      dup3\n        /* \"#utility.yul\":2477:2495   */\n      add\n        /* \"#utility.yul\":2469:2495   */\n      swap1\n      pop\n        /* \"#utility.yul\":2541:2550   */\n      dup2\n        /* \"#utility.yul\":2535:2539   */\n      dup2\n        /* \"#utility.yul\":2531:2551   */\n      sub\n        /* \"#utility.yul\":2527:2528   */\n      0x00\n        /* \"#utility.yul\":2516:2525   */\n      dup4\n        /* \"#utility.yul\":2512:2529   */\n      add\n        /* \"#utility.yul\":2505:2552   */\n      mstore\n        /* \"#utility.yul\":2569:2647   */\n      tag_201\n        /* \"#utility.yul\":2642:2646   */\n      dup2\n        /* \"#utility.yul\":2633:2639   */\n      dup6\n        /* \"#utility.yul\":2569:2647   */\n      tag_130\n      jump\t// in\n    tag_201:\n        /* \"#utility.yul\":2561:2647   */\n      swap1\n      pop\n        /* \"#utility.yul\":2694:2703   */\n      dup2\n        /* \"#utility.yul\":2688:2692   */\n      dup2\n        /* \"#utility.yul\":2684:2704   */\n      sub\n        /* \"#utility.yul\":2679:2681   */\n      0x20\n        /* \"#utility.yul\":2668:2677   */\n      dup4\n        /* \"#utility.yul\":2664:2682   */\n      add\n        /* \"#utility.yul\":2657:2705   */\n      mstore\n        /* \"#utility.yul\":2722:2800   */\n      tag_202\n        /* \"#utility.yul\":2795:2799   */\n      dup2\n        /* \"#utility.yul\":2786:2792   */\n      dup5\n        /* \"#utility.yul\":2722:2800   */\n      tag_130\n      jump\t// in\n    tag_202:\n        /* \"#utility.yul\":2714:2800   */\n      swap1\n      pop\n        /* \"#utility.yul\":2293:2807   */\n      swap4\n      swap3\n      pop\n      pop\n      pop\n      jump\t// out\n        /* \"#utility.yul\":2813:2939   */\n    tag_131:\n        /* \"#utility.yul\":2850:2857   */\n      0x00\n        /* \"#utility.yul\":2890:2932   */\n      0xffffffffffffffffffffffffffffffffffffffff\n        /* \"#utility.yul\":2883:2888   */\n      dup3\n        /* \"#utility.yul\":2879:2933   */\n      and\n        /* \"#utility.yul\":2868:2933   */\n      swap1\n      pop\n        /* \"#utility.yul\":2813:2939   */\n      swap2\n      swap1\n      pop\n      jump\t// out\n        /* \"#utility.yul\":2945:3041   */\n    tag_132:\n        /* \"#utility.yul\":2982:2989   */\n      0x00\n        /* \"#utility.yul\":3011:3035   */\n      tag_205\n        /* \"#utility.yul\":3029:3034   */\n      dup3\n        /* \"#utility.yul\":3011:3035   */\n      tag_131\n      jump\t// in\n    tag_205:\n        /* \"#utility.yul\":3000:3035   */\n      swap1\n      pop\n        /* \"#utility.yul\":2945:3041   */\n      swap2\n      swap1\n      pop\n      jump\t// out\n        /* \"#utility.yul\":3047:3165   */\n    tag_133:\n        /* \"#utility.yul\":3134:3158   */\n      tag_207\n        /* \"#utility.yul\":3152:3157   */\n      dup2\n        /* \"#utility.yul\":3134:3158   */\n      tag_132\n      jump\t// in\n    tag_207:\n        /* \"#utility.yul\":3129:3132   */\n      dup3\n        /* \"#utility.yul\":3122:3159   */\n      mstore\n        /* \"#utility.yul\":3047:3165   */\n      pop\n      pop\n      jump\t// out\n        /* \"#utility.yul\":3171:3393   */\n    tag_35:\n        /* \"#utility.yul\":3264:3268   */\n      0x00\n        /* \"#utility.yul\":3302:3304   */\n      0x20\n        /* \"#utility.yul\":3291:3300   */\n      dup3\n        /* \"#utility.yul\":3287:3305   */\n      add\n        /* \"#utility.yul\":3279:3305   */\n      swap1\n      pop\n        /* \"#utility.yul\":3315:3386   */\n      tag_209\n        /* \"#utility.yul\":3383:3384   */\n      0x00\n        /* \"#utility.yul\":3372:3381   */\n      dup4\n        /* \"#utility.yul\":3368:3385   */\n      add\n        /* \"#utility.yul\":3359:3365   */\n      dup5\n        /* \"#utility.yul\":3315:3386   */\n      tag_133\n      jump\t// in\n    tag_209:\n        /* \"#utility.yul\":3171:3393   */\n      swap3\n      swap2\n      pop\n      pop\n      jump\t// out\n        /* \"#utility.yul\":3399:3516   */\n    tag_134:\n        /* \"#utility.yul\":3508:3509   */\n      0x00\n        /* \"#utility.yul\":3505:3506   */\n      0x00\n        /* \"#utility.yul\":3498:3510   */\n      revert\n        /* \"#utility.yul\":3522:3639   */\n    tag_135:\n        /* \"#utility.yul\":3631:3632   */\n      0x00\n        /* \"#utility.yul\":3628:3629   */\n      0x00\n        /* \"#utility.yul\":3621:3633   */\n      revert\n        /* \"#utility.yul\":3645:3825   */\n    tag_136:\n        /* \"#utility.yul\":3693:3770   */\n      0x4e487b7100000000000000000000000000000000000000000000000000000000\n        /* \"#utility.yul\":3690:3691   */\n      0x00\n        /* \"#utility.yul\":3683:3771   */\n      mstore\n        /* \"#utility.yul\":3790:3794   */\n      0x41\n        /* \"#utility.yul\":3787:3788   */\n      0x04\n        /* \"#utility.yul\":3780:3795   */\n      mstore\n        /* \"#utility.yul\":3814:3818   */\n      0x24\n        /* \"#utility.yul\":3811:3812   */\n      0x00\n        /* \"#utility.yul\":3804:3819   */\n      revert\n        /* \"#utility.yul\":3831:4112   */\n    tag_137:\n        /* \"#utility.yul\":3914:3941   */\n      tag_214\n        /* \"#utility.yul\":3936:3940   */\n      dup3\n        /* \"#utility.yul\":3914:3941   */\n      tag_129\n      jump\t// in\n    tag_214:\n        /* \"#utility.yul\":3906:3912   */\n      dup2\n        /* \"#utility.yul\":3902:3942   */\n      add\n        /* \"#utility.yul\":4044:4050   */\n      dup2\n        /* \"#utility.yul\":4032:4042   */\n      dup2\n        /* \"#utility.yul\":4029:4051   */\n      lt\n        /* \"#utility.yul\":4008:4026   */\n      0xffffffffffffffff\n        /* \"#utility.yul\":3996:4006   */\n      dup3\n        /* \"#utility.yul\":3993:4027   */\n      gt\n        /* \"#utility.yul\":3990:4052   */\n      or\n        /* \"#utility.yul\":3987:4075   */\n      iszero\n      tag_215\n      jumpi\n        /* \"#utility.yul\":4055:4073   */\n      tag_216\n      tag_136\n      jump\t// in\n    tag_216:\n        /* \"#utility.yul\":3987:4075   */\n    tag_215:\n        /* \"#utility.yul\":4095:4105   */\n      dup1\n        /* \"#utility.yul\":4091:4093   */\n      0x40\n        /* \"#utility.yul\":4084:4106   */\n      mstore\n        /* \"#utility.yul\":3874:4112   */\n      pop\n        /* \"#utility.yul\":3831:4112   */\n      pop\n      pop\n      jump\t// out\n        /* \"#utility.yul\":4118:4247   */\n    tag_138:\n        /* \"#utility.yul\":4152:4158   */\n      0x00\n        /* \"#utility.yul\":4179:4199   */\n      tag_218\n      tag_121\n      jump\t// in\n    tag_218:\n        /* \"#utility.yul\":4169:4199   */\n      swap1\n      pop\n        /* \"#utility.yul\":4208:4241   */\n      tag_219\n        /* \"#utility.yul\":4236:4240   */\n      dup3\n        /* \"#utility.yul\":4228:4234   */\n      dup3\n        /* \"#utility.yul\":4208:4241   */\n      tag_137\n      jump\t// in\n    tag_219:\n        /* \"#utility.yul\":4118:4247   */\n      swap2\n      swap1\n      pop\n      jump\t// out\n        /* \"#utility.yul\":4253:4561   */\n    tag_139:\n        /* \"#utility.yul\":4315:4319   */\n      0x00\n        /* \"#utility.yul\":4405:4423   */\n      0xffffffffffffffff\n        /* \"#utility.yul\":4397:4403   */\n      dup3\n        /* \"#utility.yul\":4394:4424   */\n      gt\n        /* \"#utility.yul\":4391:4447   */\n      iszero\n      tag_221\n      jumpi\n        /* \"#utility.yul\":4427:4445   */\n      tag_222\n      tag_136\n      jump\t// in\n    tag_222:\n        /* \"#utility.yul\":4391:4447   */\n    tag_221:\n        /* \"#utility.yul\":4465:4494   */\n      tag_223\n        /* \"#utility.yul\":4487:4493   */\n      dup3\n        /* \"#utility.yul\":4465:4494   */\n      tag_129\n      jump\t// in\n    tag_223:\n        /* \"#utility.yul\":4457:4494   */\n      swap1\n      pop\n        /* \"#utility.yul\":4549:4553   */\n      0x20\n        /* \"#utility.yul\":4543:4547   */\n      dup2\n        /* \"#utility.yul\":4539:4554   */\n      add\n        /* \"#utility.yul\":4531:4554   */\n      swap1\n      pop\n        /* \"#utility.yul\":4253:4561   */\n      swap2\n      swap1\n      pop\n      jump\t// out\n        /* \"#utility.yul\":4567:4715   */\n    tag_140:\n        /* \"#utility.yul\":4665:4671   */\n      dup3\n        /* \"#utility.yul\":4660:4663   */\n      dup2\n        /* \"#utility.yul\":4655:4658   */\n      dup4\n        /* \"#utility.yul\":4642:4672   */\n      calldatacopy\n        /* \"#utility.yul\":4706:4707   */\n      0x00\n        /* \"#utility.yul\":4697:4703   */\n      dup4\n        /* \"#utility.yul\":4692:4695   */\n      dup4\n        /* \"#utility.yul\":4688:4704   */\n      add\n        /* \"#utility.yul\":4681:4708   */\n      mstore\n        /* \"#utility.yul\":4567:4715   */\n      pop\n      pop\n      pop\n      jump\t// out\n        /* \"#utility.yul\":4721:5146   */\n    tag_141:\n        /* \"#utility.yul\":4799:4804   */\n      0x00\n        /* \"#utility.yul\":4824:4890   */\n      tag_226\n        /* \"#utility.yul\":4840:4889   */\n      tag_227\n        /* \"#utility.yul\":4882:4888   */\n      dup5\n        /* \"#utility.yul\":4840:4889   */\n      tag_139\n      jump\t// in\n    tag_227:\n        /* \"#utility.yul\":4824:4890   */\n      tag_138\n      jump\t// in\n    tag_226:\n        /* \"#utility.yul\":4815:4890   */\n      swap1\n      pop\n        /* \"#utility.yul\":4913:4919   */\n      dup3\n        /* \"#utility.yul\":4906:4911   */\n      dup2\n        /* \"#utility.yul\":4899:4920   */\n      mstore\n        /* \"#utility.yul\":4951:4955   */\n      0x20\n        /* \"#utility.yul\":4944:4949   */\n      dup2\n        /* \"#utility.yul\":4940:4956   */\n      add\n        /* \"#utility.yul\":4989:4992   */\n      dup5\n        /* \"#utility.yul\":4980:4986   */\n      dup5\n        /* \"#utility.yul\":4975:4978   */\n      dup5\n        /* \"#utility.yul\":4971:4987   */\n      add\n        /* \"#utility.yul\":4968:4993   */\n      gt\n        /* \"#utility.yul\":4965:5077   */\n      iszero\n      tag_228\n      jumpi\n        /* \"#utility.yul\":4996:5075   */\n      tag_229\n      tag_135\n      jump\t// in\n    tag_229:\n        /* \"#utility.yul\":4965:5077   */\n    tag_228:\n        /* \"#utility.yul\":5086:5140   */\n      tag_230\n        /* \"#utility.yul\":5133:5139   */\n      dup5\n        /* \"#utility.yul\":5128:5131   */\n      dup3\n        /* \"#utility.yul\":5123:5126   */\n      dup6\n        /* \"#utility.yul\":5086:5140   */\n      tag_140\n      jump\t// in\n    tag_230:\n        /* \"#utility.yul\":4805:5146   */\n      pop\n        /* \"#utility.yul\":4721:5146   */\n      swap4\n      swap3\n      pop\n      pop\n      pop\n      jump\t// out\n        /* \"#utility.yul\":5166:5506   */\n    tag_142:\n        /* \"#utility.yul\":5222:5227   */\n      0x00\n        /* \"#utility.yul\":5271:5274   */\n      dup3\n        /* \"#utility.yul\":5264:5268   */\n      0x1f\n        /* \"#utility.yul\":5256:5262   */\n      dup4\n        /* \"#utility.yul\":5252:5269   */\n      add\n        /* \"#utility.yul\":5248:5275   */\n      slt\n        /* \"#utility.yul\":5238:5360   */\n      tag_232\n      jumpi\n        /* \"#utility.yul\":5279:5358   */\n      tag_233\n      tag_134\n      jump\t// in\n    tag_233:\n        /* \"#utility.yul\":5238:5360   */\n    tag_232:\n        /* \"#utility.yul\":5396:5402   */\n      dup2\n        /* \"#utility.yul\":5383:5403   */\n      calldataload\n        /* \"#utility.yul\":5421:5500   */\n      tag_234\n        /* \"#utility.yul\":5496:5499   */\n      dup5\n        /* \"#utility.yul\":5488:5494   */\n      dup3\n        /* \"#utility.yul\":5481:5485   */\n      0x20\n        /* \"#utility.yul\":5473:5479   */\n      dup7\n        /* \"#utility.yul\":5469:5486   */\n      add\n        /* \"#utility.yul\":5421:5500   */\n      tag_141\n      jump\t// in\n    tag_234:\n        /* \"#utility.yul\":5412:5500   */\n      swap2\n      pop\n        /* \"#utility.yul\":5228:5506   */\n      pop\n        /* \"#utility.yul\":5166:5506   */\n      swap3\n      swap2\n      pop\n      pop\n      jump\t// out\n        /* \"#utility.yul\":5512:6346   */\n    tag_39:\n        /* \"#utility.yul\":5600:5606   */\n      0x00\n        /* \"#utility.yul\":5608:5614   */\n      0x00\n        /* \"#utility.yul\":5657:5659   */\n      0x40\n        /* \"#utility.yul\":5645:5654   */\n      dup4\n        /* \"#utility.yul\":5636:5643   */\n      dup6\n        /* \"#utility.yul\":5632:5655   */\n      sub\n        /* \"#utility.yul\":5628:5660   */\n      slt\n        /* \"#utility.yul\":5625:5744   */\n      iszero\n      tag_236\n      jumpi\n        /* \"#utility.yul\":5663:5742   */\n      tag_237\n      tag_122\n      jump\t// in\n    tag_237:\n        /* \"#utility.yul\":5625:5744   */\n    tag_236:\n        /* \"#utility.yul\":5811:5812   */\n      0x00\n        /* \"#utility.yul\":5800:5809   */\n      dup4\n        /* \"#utility.yul\":5796:5813   */\n      add\n        /* \"#utility.yul\":5783:5814   */\n      calldataload\n        /* \"#utility.yul\":5841:5859   */\n      0xffffffffffffffff\n        /* \"#utility.yul\":5833:5839   */\n      dup2\n        /* \"#utility.yul\":5830:5860   */\n      gt\n        /* \"#utility.yul\":5827:5944   */\n      iszero\n      tag_238\n      jumpi\n        /* \"#utility.yul\":5863:5942   */\n      tag_239\n      tag_123\n      jump\t// in\n    tag_239:\n        /* \"#utility.yul\":5827:5944   */\n    tag_238:\n        /* \"#utility.yul\":5968:6031   */\n      tag_240\n        /* \"#utility.yul\":6023:6030   */\n      dup6\n        /* \"#utility.yul\":6014:6020   */\n      dup3\n        /* \"#utility.yul\":6003:6012   */\n      dup7\n        /* \"#utility.yul\":5999:6021   */\n      add\n        /* \"#utility.yul\":5968:6031   */\n      tag_142\n      jump\t// in\n    tag_240:\n        /* \"#utility.yul\":5958:6031   */\n      swap3\n      pop\n        /* \"#utility.yul\":5754:6041   */\n      pop\n        /* \"#utility.yul\":6108:6110   */\n      0x20\n        /* \"#utility.yul\":6097:6106   */\n      dup4\n        /* \"#utility.yul\":6093:6111   */\n      add\n        /* \"#utility.yul\":6080:6112   */\n      calldataload\n        /* \"#utility.yul\":6139:6157   */\n      0xffffffffffffffff\n        /* \"#utility.yul\":6131:6137   */\n      dup2\n        /* \"#utility.yul\":6128:6158   */\n      gt\n        /* \"#utility.yul\":6125:6242   */\n      iszero\n      tag_241\n      jumpi\n        /* \"#utility.yul\":6161:6240   */\n      tag_242\n      tag_123\n      jump\t// in\n    tag_242:\n        /* \"#utility.yul\":6125:6242   */\n    tag_241:\n        /* \"#utility.yul\":6266:6329   */\n      tag_243\n        /* \"#utility.yul\":6321:6328   */\n      dup6\n        /* \"#utility.yul\":6312:6318   */\n      dup3\n        /* \"#utility.yul\":6301:6310   */\n      dup7\n        /* \"#utility.yul\":6297:6319   */\n      add\n        /* \"#utility.yul\":6266:6329   */\n      tag_142\n      jump\t// in\n    tag_243:\n        /* \"#utility.yul\":6256:6329   */\n      swap2\n      pop\n        /* \"#utility.yul\":6051:6339   */\n      pop\n        /* \"#utility.yul\":5512:6346   */\n      swap3\n      pop\n      swap3\n      swap1\n      pop\n      jump\t// out\n        /* \"#utility.yul\":6352:6665   */\n    tag_49:\n        /* \"#utility.yul\":6465:6469   */\n      0x00\n        /* \"#utility.yul\":6503:6505   */\n      0x20\n        /* \"#utility.yul\":6492:6501   */\n      dup3\n        /* \"#utility.yul\":6488:6506   */\n      add\n        /* \"#utility.yul\":6480:6506   */\n      swap1\n      pop\n        /* \"#utility.yul\":6552:6561   */\n      dup2\n        /* \"#utility.yul\":6546:6550   */\n      dup2\n        /* \"#utility.yul\":6542:6562   */\n      sub\n        /* \"#utility.yul\":6538:6539   */\n      0x00\n        /* \"#utility.yul\":6527:6536   */\n      dup4\n        /* \"#utility.yul\":6523:6540   */\n      add\n        /* \"#utility.yul\":6516:6563   */\n      mstore\n        /* \"#utility.yul\":6580:6658   */\n      tag_245\n        /* \"#utility.yul\":6653:6657   */\n      dup2\n        /* \"#utility.yul\":6644:6650   */\n      dup5\n        /* \"#utility.yul\":6580:6658   */\n      tag_130\n      jump\t// in\n    tag_245:\n        /* \"#utility.yul\":6572:6658   */\n      swap1\n      pop\n        /* \"#utility.yul\":6352:6665   */\n      swap3\n      swap2\n      pop\n      pop\n      jump\t// out\n        /* \"#utility.yul\":6671:6834   */\n    tag_143:\n        /* \"#utility.yul\":6811:6826   */\n      0x496e76616c696420696e64657800000000000000000000000000000000000000\n        /* \"#utility.yul\":6807:6808   */\n      0x00\n        /* \"#utility.yul\":6799:6805   */\n      dup3\n        /* \"#utility.yul\":6795:6809   */\n      add\n        /* \"#utility.yul\":6788:6827   */\n      mstore\n        /* \"#utility.yul\":6671:6834   */\n      pop\n      jump\t// out\n        /* \"#utility.yul\":6840:7206   */\n    tag_144:\n        /* \"#utility.yul\":6982:6985   */\n      0x00\n        /* \"#utility.yul\":7003:7070   */\n      tag_248\n        /* \"#utility.yul\":7067:7069   */\n      0x0d\n        /* \"#utility.yul\":7062:7065   */\n      dup4\n        /* \"#utility.yul\":7003:7070   */\n      tag_127\n      jump\t// in\n    tag_248:\n        /* \"#utility.yul\":6996:7070   */\n      swap2\n      pop\n        /* \"#utility.yul\":7079:7172   */\n      tag_249\n        /* \"#utility.yul\":7168:7171   */\n      dup3\n        /* \"#utility.yul\":7079:7172   */\n      tag_143\n      jump\t// in\n    tag_249:\n        /* \"#utility.yul\":7197:7199   */\n      0x20\n        /* \"#utility.yul\":7192:7195   */\n      dup3\n        /* \"#utility.yul\":7188:7200   */\n      add\n        /* \"#utility.yul\":7181:7200   */\n      swap1\n      pop\n        /* \"#utility.yul\":6840:7206   */\n      swap2\n      swap1\n      pop\n      jump\t// out\n        /* \"#utility.yul\":7212:7631   */\n    tag_61:\n        /* \"#utility.yul\":7378:7382   */\n      0x00\n        /* \"#utility.yul\":7416:7418   */\n      0x20\n        /* \"#utility.yul\":7405:7414   */\n      dup3\n        /* \"#utility.yul\":7401:7419   */\n      add\n        /* \"#utility.yul\":7393:7419   */\n      swap1\n      pop\n        /* \"#utility.yul\":7465:7474   */\n      dup2\n        /* \"#utility.yul\":7459:7463   */\n      dup2\n        /* \"#utility.yul\":7455:7475   */\n      sub\n        /* \"#utility.yul\":7451:7452   */\n      0x00\n        /* \"#utility.yul\":7440:7449   */\n      dup4\n        /* \"#utility.yul\":7436:7453   */\n      add\n        /* \"#utility.yul\":7429:7476   */\n      mstore\n        /* \"#utility.yul\":7493:7624   */\n      tag_251\n        /* \"#utility.yul\":7619:7623   */\n      dup2\n        /* \"#utility.yul\":7493:7624   */\n      tag_144\n      jump\t// in\n    tag_251:\n        /* \"#utility.yul\":7485:7624   */\n      swap1\n      pop\n        /* \"#utility.yul\":7212:7631   */\n      swap2\n      swap1\n      pop\n      jump\t// out\n        /* \"#utility.yul\":7637:7817   */\n    tag_64:\n        /* \"#utility.yul\":7685:7762   */\n      0x4e487b7100000000000000000000000000000000000000000000000000000000\n        /* \"#utility.yul\":7682:7683   */\n      0x00\n        /* \"#utility.yul\":7675:7763   */\n      mstore\n        /* \"#utility.yul\":7782:7786   */\n      0x32\n        /* \"#utility.yul\":7779:7780   */\n      0x04\n        /* \"#utility.yul\":7772:7787   */\n      mstore\n        /* \"#utility.yul\":7806:7810   */\n      0x24\n        /* \"#utility.yul\":7803:7804   */\n      0x00\n        /* \"#utility.yul\":7796:7811   */\n      revert\n        /* \"#utility.yul\":7823:8003   */\n    tag_145:\n        /* \"#utility.yul\":7871:7948   */\n      0x4e487b7100000000000000000000000000000000000000000000000000000000\n        /* \"#utility.yul\":7868:7869   */\n      0x00\n        /* \"#utility.yul\":7861:7949   */\n      mstore\n        /* \"#utility.yul\":7968:7972   */\n      0x22\n        /* \"#utility.yul\":7965:7966   */\n      0x04\n        /* \"#utility.yul\":7958:7973   */\n      mstore\n        /* \"#utility.yul\":7992:7996   */\n      0x24\n        /* \"#utility.yul\":7989:7990   */\n      0x00\n        /* \"#utility.yul\":7982:7997   */\n      revert\n        /* \"#utility.yul\":8009:8329   */\n    tag_67:\n        /* \"#utility.yul\":8053:8059   */\n      0x00\n        /* \"#utility.yul\":8090:8091   */\n      0x02\n        /* \"#utility.yul\":8084:8088   */\n      dup3\n        /* \"#utility.yul\":8080:8092   */\n      div\n        /* \"#utility.yul\":8070:8092   */\n      swap1\n      pop\n        /* \"#utility.yul\":8137:8138   */\n      0x01\n        /* \"#utility.yul\":8131:8135   */\n      dup3\n        /* \"#utility.yul\":8127:8139   */\n      and\n        /* \"#utility.yul\":8158:8176   */\n      dup1\n        /* \"#utility.yul\":8148:8229   */\n      tag_255\n      jumpi\n        /* \"#utility.yul\":8214:8218   */\n      0x7f\n        /* \"#utility.yul\":8206:8212   */\n      dup3\n        /* \"#utility.yul\":8202:8219   */\n      and\n        /* \"#utility.yul\":8192:8219   */\n      swap2\n      pop\n        /* \"#utility.yul\":8148:8229   */\n    tag_255:\n        /* \"#utility.yul\":8276:8278   */\n      0x20\n        /* \"#utility.yul\":8268:8274   */\n      dup3\n        /* \"#utility.yul\":8265:8279   */\n      lt\n        /* \"#utility.yul\":8245:8263   */\n      dup2\n        /* \"#utility.yul\":8242:8280   */\n      sub\n        /* \"#utility.yul\":8239:8323   */\n      tag_256\n      jumpi\n        /* \"#utility.yul\":8295:8313   */\n      tag_257\n      tag_145\n      jump\t// in\n    tag_257:\n        /* \"#utility.yul\":8239:8323   */\n    tag_256:\n        /* \"#utility.yul\":8060:8329   */\n      pop\n        /* \"#utility.yul\":8009:8329   */\n      swap2\n      swap1\n      pop\n      jump\t// out\n        /* \"#utility.yul\":8335:8557   */\n    tag_146:\n        /* \"#utility.yul\":8475:8509   */\n      0x53706f6e736f7273686970206d7573742062652067726561746572207468616e\n        /* \"#utility.yul\":8471:8472   */\n      0x00\n        /* \"#utility.yul\":8463:8469   */\n      dup3\n        /* \"#utility.yul\":8459:8473   */\n      add\n        /* \"#utility.yul\":8452:8510   */\n      mstore\n        /* \"#utility.yul\":8544:8549   */\n      0x20302e0000000000000000000000000000000000000000000000000000000000\n        /* \"#utility.yul\":8539:8541   */\n      0x20\n        /* \"#utility.yul\":8531:8537   */\n      dup3\n        /* \"#utility.yul\":8527:8542   */\n      add\n        /* \"#utility.yul\":8520:8550   */\n      mstore\n        /* \"#utility.yul\":8335:8557   */\n      pop\n      jump\t// out\n        /* \"#utility.yul\":8563:8929   */\n    tag_147:\n        /* \"#utility.yul\":8705:8708   */\n      0x00\n        /* \"#utility.yul\":8726:8793   */\n      tag_260\n        /* \"#utility.yul\":8790:8792   */\n      0x23\n        /* \"#utility.yul\":8785:8788   */\n      dup4\n        /* \"#utility.yul\":8726:8793   */\n      tag_127\n      jump\t// in\n    tag_260:\n        /* \"#utility.yul\":8719:8793   */\n      swap2\n      pop\n        /* \"#utility.yul\":8802:8895   */\n      tag_261\n        /* \"#utility.yul\":8891:8894   */\n      dup3\n        /* \"#utility.yul\":8802:8895   */\n      tag_146\n      jump\t// in\n    tag_261:\n        /* \"#utility.yul\":8920:8922   */\n      0x40\n        /* \"#utility.yul\":8915:8918   */\n      dup3\n        /* \"#utility.yul\":8911:8923   */\n      add\n        /* \"#utility.yul\":8904:8923   */\n      swap1\n      pop\n        /* \"#utility.yul\":8563:8929   */\n      swap2\n      swap1\n      pop\n      jump\t// out\n        /* \"#utility.yul\":8935:9354   */\n    tag_80:\n        /* \"#utility.yul\":9101:9105   */\n      0x00\n        /* \"#utility.yul\":9139:9141   */\n      0x20\n        /* \"#utility.yul\":9128:9137   */\n      dup3\n        /* \"#utility.yul\":9124:9142   */\n      add\n        /* \"#utility.yul\":9116:9142   */\n      swap1\n      pop\n        /* \"#utility.yul\":9188:9197   */\n      dup2\n        /* \"#utility.yul\":9182:9186   */\n      dup2\n        /* \"#utility.yul\":9178:9198   */\n      sub\n        /* \"#utility.yul\":9174:9175   */\n      0x00\n        /* \"#utility.yul\":9163:9172   */\n      dup4\n        /* \"#utility.yul\":9159:9176   */\n      add\n        /* \"#utility.yul\":9152:9199   */\n      mstore\n        /* \"#utility.yul\":9216:9347   */\n      tag_263\n        /* \"#utility.yul\":9342:9346   */\n      dup2\n        /* \"#utility.yul\":9216:9347   */\n      tag_147\n      jump\t// in\n    tag_263:\n        /* \"#utility.yul\":9208:9347   */\n      swap1\n      pop\n        /* \"#utility.yul\":8935:9354   */\n      swap2\n      swap1\n      pop\n      jump\t// out\n        /* \"#utility.yul\":9360:9540   */\n    tag_148:\n        /* \"#utility.yul\":9408:9485   */\n      0x4e487b7100000000000000000000000000000000000000000000000000000000\n        /* \"#utility.yul\":9405:9406   */\n      0x00\n        /* \"#utility.yul\":9398:9486   */\n      mstore\n        /* \"#utility.yul\":9505:9509   */\n      0x11\n        /* \"#utility.yul\":9502:9503   */\n      0x04\n        /* \"#utility.yul\":9495:9510   */\n      mstore\n        /* \"#utility.yul\":9529:9533   */\n      0x24\n        /* \"#utility.yul\":9526:9527   */\n      0x00\n        /* \"#utility.yul\":9519:9534   */\n      revert\n        /* \"#utility.yul\":9546:9737   */\n    tag_82:\n        /* \"#utility.yul\":9586:9589   */\n      0x00\n        /* \"#utility.yul\":9605:9625   */\n      tag_266\n        /* \"#utility.yul\":9623:9624   */\n      dup3\n        /* \"#utility.yul\":9605:9625   */\n      tag_119\n      jump\t// in\n    tag_266:\n        /* \"#utility.yul\":9600:9625   */\n      swap2\n      pop\n        /* \"#utility.yul\":9639:9659   */\n      tag_267\n        /* \"#utility.yul\":9657:9658   */\n      dup4\n        /* \"#utility.yul\":9639:9659   */\n      tag_119\n      jump\t// in\n    tag_267:\n        /* \"#utility.yul\":9634:9659   */\n      swap3\n      pop\n        /* \"#utility.yul\":9682:9683   */\n      dup3\n        /* \"#utility.yul\":9679:9680   */\n      dup3\n        /* \"#utility.yul\":9675:9684   */\n      add\n        /* \"#utility.yul\":9668:9684   */\n      swap1\n      pop\n        /* \"#utility.yul\":9703:9706   */\n      dup1\n        /* \"#utility.yul\":9700:9701   */\n      dup3\n        /* \"#utility.yul\":9697:9707   */\n      gt\n        /* \"#utility.yul\":9694:9730   */\n      iszero\n      tag_268\n      jumpi\n        /* \"#utility.yul\":9710:9728   */\n      tag_269\n      tag_148\n      jump\t// in\n    tag_269:\n        /* \"#utility.yul\":9694:9730   */\n    tag_268:\n        /* \"#utility.yul\":9546:9737   */\n      swap3\n      swap2\n      pop\n      pop\n      jump\t// out\n        /* \"#utility.yul\":9743:9971   */\n    tag_149:\n        /* \"#utility.yul\":9883:9917   */\n      0x5065726d697373696f6e2064656e6965642e20596f7520617265206e6f742074\n        /* \"#utility.yul\":9879:9880   */\n      0x00\n        /* \"#utility.yul\":9871:9877   */\n      dup3\n        /* \"#utility.yul\":9867:9881   */\n      add\n        /* \"#utility.yul\":9860:9918   */\n      mstore\n        /* \"#utility.yul\":9952:9963   */\n      0x6865206f776e65722e0000000000000000000000000000000000000000000000\n        /* \"#utility.yul\":9947:9949   */\n      0x20\n        /* \"#utility.yul\":9939:9945   */\n      dup3\n        /* \"#utility.yul\":9935:9950   */\n      add\n        /* \"#utility.yul\":9928:9964   */\n      mstore\n        /* \"#utility.yul\":9743:9971   */\n      pop\n      jump\t// out\n        /* \"#utility.yul\":9977:10343   */\n    tag_150:\n        /* \"#utility.yul\":10119:10122   */\n      0x00\n        /* \"#utility.yul\":10140:10207   */\n      tag_272\n        /* \"#utility.yul\":10204:10206   */\n      0x29\n        /* \"#utility.yul\":10199:10202   */\n      dup4\n        /* \"#utility.yul\":10140:10207   */\n      tag_127\n      jump\t// in\n    tag_272:\n        /* \"#utility.yul\":10133:10207   */\n      swap2\n      pop\n        /* \"#utility.yul\":10216:10309   */\n      tag_273\n        /* \"#utility.yul\":10305:10308   */\n      dup3\n        /* \"#utility.yul\":10216:10309   */\n      tag_149\n      jump\t// in\n    tag_273:\n        /* \"#utility.yul\":10334:10336   */\n      0x40\n        /* \"#utility.yul\":10329:10332   */\n      dup3\n        /* \"#utility.yul\":10325:10337   */\n      add\n        /* \"#utility.yul\":10318:10337   */\n      swap1\n      pop\n        /* \"#utility.yul\":9977:10343   */\n      swap2\n      swap1\n      pop\n      jump\t// out\n        /* \"#utility.yul\":10349:10768   */\n    tag_87:\n        /* \"#utility.yul\":10515:10519   */\n      0x00\n        /* \"#utility.yul\":10553:10555   */\n      0x20\n        /* \"#utility.yul\":10542:10551   */\n      dup3\n        /* \"#utility.yul\":10538:10556   */\n      add\n        /* \"#utility.yul\":10530:10556   */\n      swap1\n      pop\n        /* \"#utility.yul\":10602:10611   */\n      dup2\n        /* \"#utility.yul\":10596:10600   */\n      dup2\n        /* \"#utility.yul\":10592:10612   */\n      sub\n        /* \"#utility.yul\":10588:10589   */\n      0x00\n        /* \"#utility.yul\":10577:10586   */\n      dup4\n        /* \"#utility.yul\":10573:10590   */\n      add\n        /* \"#utility.yul\":10566:10613   */\n      mstore\n        /* \"#utility.yul\":10630:10761   */\n      tag_275\n        /* \"#utility.yul\":10756:10760   */\n      dup2\n        /* \"#utility.yul\":10630:10761   */\n      tag_150\n      jump\t// in\n    tag_275:\n        /* \"#utility.yul\":10622:10761   */\n      swap1\n      pop\n        /* \"#utility.yul\":10349:10768   */\n      swap2\n      swap1\n      pop\n      jump\t// out\n        /* \"#utility.yul\":10774:10915   */\n    tag_151:\n        /* \"#utility.yul\":10823:10827   */\n      0x00\n        /* \"#utility.yul\":10846:10849   */\n      dup2\n        /* \"#utility.yul\":10838:10849   */\n      swap1\n      pop\n        /* \"#utility.yul\":10869:10872   */\n      dup2\n        /* \"#utility.yul\":10866:10867   */\n      0x00\n        /* \"#utility.yul\":10859:10873   */\n      mstore\n        /* \"#utility.yul\":10903:10907   */\n      0x20\n        /* \"#utility.yul\":10900:10901   */\n      0x00\n        /* \"#utility.yul\":10890:10908   */\n      keccak256\n        /* \"#utility.yul\":10882:10908   */\n      swap1\n      pop\n        /* \"#utility.yul\":10774:10915   */\n      swap2\n      swap1\n      pop\n      jump\t// out\n        /* \"#utility.yul\":10921:11014   */\n    tag_152:\n        /* \"#utility.yul\":10958:10964   */\n      0x00\n        /* \"#utility.yul\":11005:11007   */\n      0x20\n        /* \"#utility.yul\":11000:11002   */\n      0x1f\n        /* \"#utility.yul\":10993:10998   */\n      dup4\n        /* \"#utility.yul\":10989:11003   */\n      add\n        /* \"#utility.yul\":10985:11008   */\n      div\n        /* \"#utility.yul\":10975:11008   */\n      swap1\n      pop\n        /* \"#utility.yul\":10921:11014   */\n      swap2\n      swap1\n      pop\n      jump\t// out\n        /* \"#utility.yul\":11020:11127   */\n    tag_153:\n        /* \"#utility.yul\":11064:11072   */\n      0x00\n        /* \"#utility.yul\":11114:11119   */\n      dup3\n        /* \"#utility.yul\":11108:11112   */\n      dup3\n        /* \"#utility.yul\":11104:11120   */\n      shl\n        /* \"#utility.yul\":11083:11120   */\n      swap1\n      pop\n        /* \"#utility.yul\":11020:11127   */\n      swap3\n      swap2\n      pop\n      pop\n      jump\t// out\n        /* \"#utility.yul\":11133:11526   */\n    tag_154:\n        /* \"#utility.yul\":11202:11208   */\n      0x00\n        /* \"#utility.yul\":11252:11253   */\n      0x08\n        /* \"#utility.yul\":11240:11250   */\n      dup4\n        /* \"#utility.yul\":11236:11254   */\n      mul\n        /* \"#utility.yul\":11275:11372   */\n      tag_280\n        /* \"#utility.yul\":11305:11371   */\n      0xffffffffffffffffffffffffffffffffffffffffffffffffffffffffffffffff\n        /* \"#utility.yul\":11294:11303   */\n      dup3\n        /* \"#utility.yul\":11275:11372   */\n      tag_153\n      jump\t// in\n    tag_280:\n        /* \"#utility.yul\":11393:11432   */\n      tag_281\n        /* \"#utility.yul\":11423:11431   */\n      dup7\n        /* \"#utility.yul\":11412:11421   */\n      dup4\n        /* \"#utility.yul\":11393:11432   */\n      tag_153\n      jump\t// in\n    tag_281:\n        /* \"#utility.yul\":11381:11432   */\n      swap6\n      pop\n        /* \"#utility.yul\":11465:11469   */\n      dup1\n        /* \"#utility.yul\":11461:11470   */\n      not\n        /* \"#utility.yul\":11454:11459   */\n      dup5\n        /* \"#utility.yul\":11450:11471   */\n      and\n        /* \"#utility.yul\":11441:11471   */\n      swap4\n      pop\n        /* \"#utility.yul\":11514:11518   */\n      dup1\n        /* \"#utility.yul\":11504:11512   */\n      dup7\n        /* \"#utility.yul\":11500:11519   */\n      and\n        /* \"#utility.yul\":11493:11498   */\n      dup5\n        /* \"#utility.yul\":11490:11520   */\n      or\n        /* \"#utility.yul\":11480:11520   */\n      swap3\n      pop\n        /* \"#utility.yul\":11209:11526   */\n      pop\n      pop\n        /* \"#utility.yul\":11133:11526   */\n      swap4\n      swap3\n      pop\n      pop\n      pop\n      jump\t// out\n        /* \"#utility.yul\":11532:11592   */\n    tag_155:\n        /* \"#utility.yul\":11560:11563   */\n      0x00\n        /* \"#utility.yul\":11581:11586   */\n      dup2\n        /* \"#utility.yul\":11574:11586   */\n      swap1\n      pop\n        /* \"#utility.yul\":11532:11592   */\n      swap2\n      swap1\n      pop\n      jump\t// out\n        /* \"#utility.yul\":11598:11740   */\n    tag_156:\n        /* \"#utility.yul\":11648:11657   */\n      0x00\n        /* \"#utility.yul\":11681:11734   */\n      tag_284\n        /* \"#utility.yul\":11699:11733   */\n      tag_285\n        /* \"#utility.yul\":11708:11732   */\n      tag_286\n        /* \"#utility.yul\":11726:11731   */\n      dup5\n        /* \"#utility.yul\":11708:11732   */\n      tag_119\n      jump\t// in\n    tag_286:\n        /* \"#utility.yul\":11699:11733   */\n      tag_155\n      jump\t// in\n    tag_285:\n        /* \"#utility.yul\":11681:11734   */\n      tag_119\n      jump\t// in\n    tag_284:\n        /* \"#utility.yul\":11668:11734   */\n      swap1\n      pop\n        /* \"#utility.yul\":11598:11740   */\n      swap2\n      swap1\n      pop\n      jump\t// out\n        /* \"#utility.yul\":11746:11821   */\n    tag_157:\n        /* \"#utility.yul\":11789:11792   */\n      0x00\n        /* \"#utility.yul\":11810:11815   */\n      dup2\n        /* \"#utility.yul\":11803:11815   */\n      swap1\n      pop\n        /* \"#utility.yul\":11746:11821   */\n      swap2\n      swap1\n      pop\n      jump\t// out\n        /* \"#utility.yul\":11827:12096   */\n    tag_158:\n        /* \"#utility.yul\":11937:11976   */\n      tag_289\n        /* \"#utility.yul\":11968:11975   */\n      dup4\n        /* \"#utility.yul\":11937:11976   */\n      tag_156\n      jump\t// in\n    tag_289:\n        /* \"#utility.yul\":11998:12089   */\n      tag_290\n        /* \"#utility.yul\":12047:12088   */\n      tag_291\n        /* \"#utility.yul\":12071:12087   */\n      dup3\n        /* \"#utility.yul\":12047:12088   */\n      tag_157\n      jump\t// in\n    tag_291:\n        /* \"#utility.yul\":12039:12045   */\n      dup5\n        /* \"#utility.yul\":12032:12036   */\n      dup5\n        /* \"#utility.yul\":12026:12037   */\n      sload\n        /* \"#utility.yul\":11998:12089   */\n      tag_154\n      jump\t// in\n    tag_290:\n        /* \"#utility.yul\":11992:11996   */\n      dup3\n        /* \"#utility.yul\":11985:12090   */\n      sstore\n        /* \"#utility.yul\":11903:12096   */\n      pop\n        /* \"#utility.yul\":11827:12096   */\n      pop\n      pop\n      pop\n      jump\t// out\n        /* \"#utility.yul\":12102:12175   */\n    tag_159:\n        /* \"#utility.yul\":12147:12150   */\n      0x00\n        /* \"#utility.yul\":12168:12169   */\n      0x00\n        /* \"#utility.yul\":12161:12169   */\n      swap1\n      pop\n        /* \"#utility.yul\":12102:12175   */\n      swap1\n      jump\t// out\n        /* \"#utility.yul\":12181:12370   */\n    tag_160:\n        /* \"#utility.yul\":12258:12290   */\n      tag_294\n      tag_159\n      jump\t// in\n    tag_294:\n        /* \"#utility.yul\":12299:12364   */\n      tag_295\n        /* \"#utility.yul\":12357:12363   */\n      dup2\n        /* \"#utility.yul\":12349:12355   */\n      dup5\n        /* \"#utility.yul\":12343:12347   */\n      dup5\n        /* \"#utility.yul\":12299:12364   */\n      tag_158\n      jump\t// in\n    tag_295:\n        /* \"#utility.yul\":12234:12370   */\n      pop\n        /* \"#utility.yul\":12181:12370   */\n      pop\n      pop\n      jump\t// out\n        /* \"#utility.yul\":12376:12562   */\n    tag_161:\n        /* \"#utility.yul\":12436:12556   */\n    tag_297:\n        /* \"#utility.yul\":12453:12456   */\n      dup2\n        /* \"#utility.yul\":12446:12451   */\n      dup2\n        /* \"#utility.yul\":12443:12457   */\n      lt\n        /* \"#utility.yul\":12436:12556   */\n      iszero\n      tag_299\n      jumpi\n        /* \"#utility.yul\":12507:12546   */\n      tag_300\n        /* \"#utility.yul\":12544:12545   */\n      0x00\n        /* \"#utility.yul\":12537:12542   */\n      dup3\n        /* \"#utility.yul\":12507:12546   */\n      tag_160\n      jump\t// in\n    tag_300:\n        /* \"#utility.yul\":12480:12481   */\n      0x01\n        /* \"#utility.yul\":12473:12478   */\n      dup2\n        /* \"#utility.yul\":12469:12482   */\n      add\n        /* \"#utility.yul\":12460:12482   */\n      swap1\n      pop\n        /* \"#utility.yul\":12436:12556   */\n      jump(tag_297)\n    tag_299:\n        /* \"#utility.yul\":12376:12562   */\n      pop\n      pop\n      jump\t// out\n        /* \"#utility.yul\":12568:13111   */\n    tag_162:\n        /* \"#utility.yul\":12669:12671   */\n      0x1f\n        /* \"#utility.yul\":12664:12667   */\n      dup3\n        /* \"#utility.yul\":12661:12672   */\n      gt\n        /* \"#utility.yul\":12658:13104   */\n      iszero\n      tag_302\n      jumpi\n        /* \"#utility.yul\":12703:12741   */\n      tag_303\n        /* \"#utility.yul\":12735:12740   */\n      dup2\n        /* \"#utility.yul\":12703:12741   */\n      tag_151\n      jump\t// in\n    tag_303:\n        /* \"#utility.yul\":12787:12816   */\n      tag_304\n        /* \"#utility.yul\":12805:12815   */\n      dup5\n        /* \"#utility.yul\":12787:12816   */\n      tag_152\n      jump\t// in\n    tag_304:\n        /* \"#utility.yul\":12777:12785   */\n      dup2\n        /* \"#utility.yul\":12773:12817   */\n      add\n        /* \"#utility.yul\":12970:12972   */\n      0x20\n        /* \"#utility.yul\":12958:12968   */\n      dup6\n        /* \"#utility.yul\":12955:12973   */\n      lt\n        /* \"#utility.yul\":12952:13001   */\n      iszero\n      tag_305\n      jumpi\n        /* \"#utility.yul\":12991:12999   */\n      dup2\n        /* \"#utility.yul\":12976:12999   */\n      swap1\n      pop\n        /* \"#utility.yul\":12952:13001   */\n    tag_305:\n        /* \"#utility.yul\":13014:13094   */\n      tag_306\n        /* \"#utility.yul\":13070:13092   */\n      tag_307\n        /* \"#utility.yul\":13088:13091   */\n      dup6\n        /* \"#utility.yul\":13070:13092   */\n      tag_152\n      jump\t// in\n    tag_307:\n        /* \"#utility.yul\":13060:13068   */\n      dup4\n        /* \"#utility.yul\":13056:13093   */\n      add\n        /* \"#utility.yul\":13043:13054   */\n      dup3\n        /* \"#utility.yul\":13014:13094   */\n      tag_161\n      jump\t// in\n    tag_306:\n        /* \"#utility.yul\":12673:13104   */\n      pop\n      pop\n        /* \"#utility.yul\":12658:13104   */\n    tag_302:\n        /* \"#utility.yul\":12568:13111   */\n      pop\n      pop\n      pop\n      jump\t// out\n        /* \"#utility.yul\":13117:13234   */\n    tag_163:\n        /* \"#utility.yul\":13171:13179   */\n      0x00\n        /* \"#utility.yul\":13221:13226   */\n      dup3\n        /* \"#utility.yul\":13215:13219   */\n      dup3\n        /* \"#utility.yul\":13211:13227   */\n      shr\n        /* \"#utility.yul\":13190:13227   */\n      swap1\n      pop\n        /* \"#utility.yul\":13117:13234   */\n      swap3\n      swap2\n      pop\n      pop\n      jump\t// out\n        /* \"#utility.yul\":13240:13409   */\n    tag_164:\n        /* \"#utility.yul\":13284:13290   */\n      0x00\n        /* \"#utility.yul\":13317:13368   */\n      tag_310\n        /* \"#utility.yul\":13365:13366   */\n      0x00\n        /* \"#utility.yul\":13361:13367   */\n      not\n        /* \"#utility.yul\":13353:13358   */\n      dup5\n        /* \"#utility.yul\":13350:13351   */\n      0x08\n        /* \"#utility.yul\":13346:13359   */\n      mul\n        /* \"#utility.yul\":13317:13368   */\n      tag_163\n      jump\t// in\n    tag_310:\n        /* \"#utility.yul\":13313:13369   */\n      not\n        /* \"#utility.yul\":13398:13402   */\n      dup1\n        /* \"#utility.yul\":13392:13396   */\n      dup4\n        /* \"#utility.yul\":13388:13403   */\n      and\n        /* \"#utility.yul\":13378:13403   */\n      swap2\n      pop\n        /* \"#utility.yul\":13291:13409   */\n      pop\n        /* \"#utility.yul\":13240:13409   */\n      swap3\n      swap2\n      pop\n      pop\n      jump\t// out\n        /* \"#utility.yul\":13414:13709   */\n    tag_165:\n        /* \"#utility.yul\":13490:13494   */\n      0x00\n        /* \"#utility.yul\":13636:13665   */\n      tag_312\n        /* \"#utility.yul\":13661:13664   */\n      dup4\n        /* \"#utility.yul\":13655:13659   */\n      dup4\n        /* \"#utility.yul\":13636:13665   */\n      tag_164\n      jump\t// in\n    tag_312:\n        /* \"#utility.yul\":13628:13665   */\n      swap2\n      pop\n        /* \"#utility.yul\":13698:13701   */\n      dup3\n        /* \"#utility.yul\":13695:13696   */\n      0x02\n        /* \"#utility.yul\":13691:13702   */\n      mul\n        /* \"#utility.yul\":13685:13689   */\n      dup3\n        /* \"#utility.yul\":13682:13703   */\n      or\n        /* \"#utility.yul\":13674:13703   */\n      swap1\n      pop\n        /* \"#utility.yul\":13414:13709   */\n      swap3\n      swap2\n      pop\n      pop\n      jump\t// out\n        /* \"#utility.yul\":13714:15109   */\n    tag_91:\n        /* \"#utility.yul\":13831:13868   */\n      tag_314\n        /* \"#utility.yul\":13864:13867   */\n      dup3\n        /* \"#utility.yul\":13831:13868   */\n      tag_126\n      jump\t// in\n    tag_314:\n        /* \"#utility.yul\":13933:13951   */\n      0xffffffffffffffff\n        /* \"#utility.yul\":13925:13931   */\n      dup2\n        /* \"#utility.yul\":13922:13952   */\n      gt\n        /* \"#utility.yul\":13919:13975   */\n      iszero\n      tag_315\n      jumpi\n        /* \"#utility.yul\":13955:13973   */\n      tag_316\n      tag_136\n      jump\t// in\n    tag_316:\n        /* \"#utility.yul\":13919:13975   */\n    tag_315:\n        /* \"#utility.yul\":13999:14037   */\n      tag_317\n        /* \"#utility.yul\":14031:14035   */\n      dup3\n        /* \"#utility.yul\":14025:14036   */\n      sload\n        /* \"#utility.yul\":13999:14037   */\n      tag_67\n      jump\t// in\n    tag_317:\n        /* \"#utility.yul\":14084:14151   */\n      tag_318\n        /* \"#utility.yul\":14144:14150   */\n      dup3\n        /* \"#utility.yul\":14136:14142   */\n      dup3\n        /* \"#utility.yul\":14130:14134   */\n      dup6\n        /* \"#utility.yul\":14084:14151   */\n      tag_162\n      jump\t// in\n    tag_318:\n        /* \"#utility.yul\":14178:14179   */\n      0x00\n        /* \"#utility.yul\":14202:14206   */\n      0x20\n        /* \"#utility.yul\":14189:14206   */\n      swap1\n      pop\n        /* \"#utility.yul\":14234:14236   */\n      0x1f\n        /* \"#utility.yul\":14226:14232   */\n      dup4\n        /* \"#utility.yul\":14223:14237   */\n      gt\n        /* \"#utility.yul\":14251:14252   */\n      0x01\n        /* \"#utility.yul\":14246:14864   */\n      dup2\n      eq\n      tag_320\n      jumpi\n        /* \"#utility.yul\":14908:14909   */\n      0x00\n        /* \"#utility.yul\":14925:14931   */\n      dup5\n        /* \"#utility.yul\":14922:14999   */\n      iszero\n      tag_321\n      jumpi\n        /* \"#utility.yul\":14974:14983   */\n      dup3\n        /* \"#utility.yul\":14969:14972   */\n      dup8\n        /* \"#utility.yul\":14965:14984   */\n      add\n        /* \"#utility.yul\":14959:14985   */\n      mload\n        /* \"#utility.yul\":14950:14985   */\n      swap1\n      pop\n        /* \"#utility.yul\":14922:14999   */\n    tag_321:\n        /* \"#utility.yul\":15025:15092   */\n      tag_322\n        /* \"#utility.yul\":15085:15091   */\n      dup6\n        /* \"#utility.yul\":15078:15083   */\n      dup3\n        /* \"#utility.yul\":15025:15092   */\n      tag_165\n      jump\t// in\n    tag_322:\n        /* \"#utility.yul\":15019:15023   */\n      dup7\n        /* \"#utility.yul\":15012:15093   */\n      sstore\n        /* \"#utility.yul\":14881:15103   */\n      pop\n        /* \"#utility.yul\":14216:15103   */\n      jump(tag_319)\n        /* \"#utility.yul\":14246:14864   */\n    tag_320:\n        /* \"#utility.yul\":14298:14302   */\n      0x1f\n        /* \"#utility.yul\":14294:14303   */\n      not\n        /* \"#utility.yul\":14286:14292   */\n      dup5\n        /* \"#utility.yul\":14282:14304   */\n      and\n        /* \"#utility.yul\":14332:14369   */\n      tag_323\n        /* \"#utility.yul\":14364:14368   */\n      dup7\n        /* \"#utility.yul\":14332:14369   */\n      tag_151\n      jump\t// in\n    tag_323:\n        /* \"#utility.yul\":14391:14392   */\n      0x00\n        /* \"#utility.yul\":14405:14613   */\n    tag_324:\n        /* \"#utility.yul\":14419:14426   */\n      dup3\n        /* \"#utility.yul\":14416:14417   */\n      dup2\n        /* \"#utility.yul\":14413:14427   */\n      lt\n        /* \"#utility.yul\":14405:14613   */\n      iszero\n      tag_326\n      jumpi\n        /* \"#utility.yul\":14498:14507   */\n      dup5\n        /* \"#utility.yul\":14493:14496   */\n      dup10\n        /* \"#utility.yul\":14489:14508   */\n      add\n        /* \"#utility.yul\":14483:14509   */\n      mload\n        /* \"#utility.yul\":14475:14481   */\n      dup3\n        /* \"#utility.yul\":14468:14510   */\n      sstore\n        /* \"#utility.yul\":14549:14550   */\n      0x01\n        /* \"#utility.yul\":14541:14547   */\n      dup3\n        /* \"#utility.yul\":14537:14551   */\n      add\n        /* \"#utility.yul\":14527:14551   */\n      swap2\n      pop\n        /* \"#utility.yul\":14596:14598   */\n      0x20\n        /* \"#utility.yul\":14585:14594   */\n      dup6\n        /* \"#utility.yul\":14581:14599   */\n      add\n        /* \"#utility.yul\":14568:14599   */\n      swap5\n      pop\n        /* \"#utility.yul\":14442:14446   */\n      0x20\n        /* \"#utility.yul\":14439:14440   */\n      dup2\n        /* \"#utility.yul\":14435:14447   */\n      add\n        /* \"#utility.yul\":14430:14447   */\n      swap1\n      pop\n        /* \"#utility.yul\":14405:14613   */\n      jump(tag_324)\n    tag_326:\n        /* \"#utility.yul\":14641:14647   */\n      dup7\n        /* \"#utility.yul\":14632:14639   */\n      dup4\n        /* \"#utility.yul\":14629:14648   */\n      lt\n        /* \"#utility.yul\":14626:14805   */\n      iszero\n      tag_327\n      jumpi\n        /* \"#utility.yul\":14699:14708   */\n      dup5\n        /* \"#utility.yul\":14694:14697   */\n      dup10\n        /* \"#utility.yul\":14690:14709   */\n      add\n        /* \"#utility.yul\":14684:14710   */\n      mload\n        /* \"#utility.yul\":14742:14790   */\n      tag_328\n        /* \"#utility.yul\":14784:14788   */\n      0x1f\n        /* \"#utility.yul\":14776:14782   */\n      dup10\n        /* \"#utility.yul\":14772:14789   */\n      and\n        /* \"#utility.yul\":14761:14770   */\n      dup3\n        /* \"#utility.yul\":14742:14790   */\n      tag_164\n      jump\t// in\n    tag_328:\n        /* \"#utility.yul\":14734:14740   */\n      dup4\n        /* \"#utility.yul\":14727:14791   */\n      sstore\n        /* \"#utility.yul\":14649:14805   */\n      pop\n        /* \"#utility.yul\":14626:14805   */\n    tag_327:\n        /* \"#utility.yul\":14851:14852   */\n      0x01\n        /* \"#utility.yul\":14847:14848   */\n      0x02\n        /* \"#utility.yul\":14839:14845   */\n      dup9\n        /* \"#utility.yul\":14835:14849   */\n      mul\n        /* \"#utility.yul\":14831:14853   */\n      add\n        /* \"#utility.yul\":14825:14829   */\n      dup9\n        /* \"#utility.yul\":14818:14854   */\n      sstore\n        /* \"#utility.yul\":14253:14864   */\n      pop\n      pop\n      pop\n        /* \"#utility.yul\":14216:15103   */\n    tag_319:\n      pop\n        /* \"#utility.yul\":13806:15109   */\n      pop\n      pop\n      pop\n        /* \"#utility.yul\":13714:15109   */\n      pop\n      pop\n      jump\t// out\n        /* \"#utility.yul\":15115:15286   */\n    tag_166:\n        /* \"#utility.yul\":15255:15278   */\n      0x4e6f2066756e647320746f2077697468647261772e0000000000000000000000\n        /* \"#utility.yul\":15251:15252   */\n      0x00\n        /* \"#utility.yul\":15243:15249   */\n      dup3\n        /* \"#utility.yul\":15239:15253   */\n      add\n        /* \"#utility.yul\":15232:15279   */\n      mstore\n        /* \"#utility.yul\":15115:15286   */\n      pop\n      jump\t// out\n        /* \"#utility.yul\":15292:15658   */\n    tag_167:\n        /* \"#utility.yul\":15434:15437   */\n      0x00\n        /* \"#utility.yul\":15455:15522   */\n      tag_331\n        /* \"#utility.yul\":15519:15521   */\n      0x15\n        /* \"#utility.yul\":15514:15517   */\n      dup4\n        /* \"#utility.yul\":15455:15522   */\n      tag_127\n      jump\t// in\n    tag_331:\n        /* \"#utility.yul\":15448:15522   */\n      swap2\n      pop\n        /* \"#utility.yul\":15531:15624   */\n      tag_332\n        /* \"#utility.yul\":15620:15623   */\n      dup3\n        /* \"#utility.yul\":15531:15624   */\n      tag_166\n      jump\t// in\n    tag_332:\n        /* \"#utility.yul\":15649:15651   */\n      0x20\n        /* \"#utility.yul\":15644:15647   */\n      dup3\n        /* \"#utility.yul\":15640:15652   */\n      add\n        /* \"#utility.yul\":15633:15652   */\n      swap1\n      pop\n        /* \"#utility.yul\":15292:15658   */\n      swap2\n      swap1\n      pop\n      jump\t// out\n        /* \"#utility.yul\":15664:16083   */\n    tag_105:\n        /* \"#utility.yul\":15830:15834   */\n      0x00\n        /* \"#utility.yul\":15868:15870   */\n      0x20\n        /* \"#utility.yul\":15857:15866   */\n      dup3\n        /* \"#utility.yul\":15853:15871   */\n      add\n        /* \"#utility.yul\":15845:15871   */\n      swap1\n      pop\n        /* \"#utility.yul\":15917:15926   */\n      dup2\n        /* \"#utility.yul\":15911:15915   */\n      dup2\n        /* \"#utility.yul\":15907:15927   */\n      sub\n        /* \"#utility.yul\":15903:15904   */\n      0x00\n        /* \"#utility.yul\":15892:15901   */\n      dup4\n        /* \"#utility.yul\":15888:15905   */\n      add\n        /* \"#utility.yul\":15881:15928   */\n      mstore\n        /* \"#utility.yul\":15945:16076   */\n      tag_334\n        /* \"#utility.yul\":16071:16075   */\n      dup2\n        /* \"#utility.yul\":15945:16076   */\n      tag_167\n      jump\t// in\n    tag_334:\n        /* \"#utility.yul\":15937:16076   */\n      swap1\n      pop\n        /* \"#utility.yul\":15664:16083   */\n      swap2\n      swap1\n      pop\n      jump\t// out\n        /* \"#utility.yul\":16089:16236   */\n    tag_168:\n        /* \"#utility.yul\":16190:16201   */\n      0x00\n        /* \"#utility.yul\":16227:16230   */\n      dup2\n        /* \"#utility.yul\":16212:16230   */\n      swap1\n      pop\n        /* \"#utility.yul\":16089:16236   */\n      swap3\n      swap2\n      pop\n      pop\n      jump\t// out\n        /* \"#utility.yul\":16242:16356   */\n    tag_169:\n      pop\n      jump\t// out\n        /* \"#utility.yul\":16362:16760   */\n    tag_170:\n        /* \"#utility.yul\":16521:16524   */\n      0x00\n        /* \"#utility.yul\":16542:16625   */\n      tag_338\n        /* \"#utility.yul\":16623:16624   */\n      0x00\n        /* \"#utility.yul\":16618:16621   */\n      dup4\n        /* \"#utility.yul\":16542:16625   */\n      tag_168\n      jump\t// in\n    tag_338:\n        /* \"#utility.yul\":16535:16625   */\n      swap2\n      pop\n        /* \"#utility.yul\":16634:16727   */\n      tag_339\n        /* \"#utility.yul\":16723:16726   */\n      dup3\n        /* \"#utility.yul\":16634:16727   */\n      tag_169\n      jump\t// in\n    tag_339:\n        /* \"#utility.yul\":16752:16753   */\n      0x00\n        /* \"#utility.yul\":16747:16750   */\n      dup3\n        /* \"#utility.yul\":16743:16754   */\n      add\n        /* \"#utility.yul\":16736:16754   */\n      swap1\n      pop\n        /* \"#utility.yul\":16362:16760   */\n      swap2\n      swap1\n      pop\n      jump\t// out\n        /* \"#utility.yul\":16766:17145   */\n    tag_107:\n        /* \"#utility.yul\":16950:16953   */\n      0x00\n        /* \"#utility.yul\":16972:17119   */\n      tag_341\n        /* \"#utility.yul\":17115:17118   */\n      dup3\n        /* \"#utility.yul\":16972:17119   */\n      tag_170\n      jump\t// in\n    tag_341:\n        /* \"#utility.yul\":16965:17119   */\n      swap2\n      pop\n        /* \"#utility.yul\":17136:17139   */\n      dup2\n        /* \"#utility.yul\":17129:17139   */\n      swap1\n      pop\n        /* \"#utility.yul\":16766:17145   */\n      swap2\n      swap1\n      pop\n      jump\t// out\n        /* \"#utility.yul\":17151:17319   */\n    tag_171:\n        /* \"#utility.yul\":17291:17311   */\n      0x5769746864726177616c206661696c65642e0000000000000000000000000000\n        /* \"#utility.yul\":17287:17288   */\n      0x00\n        /* \"#utility.yul\":17279:17285   */\n      dup3\n        /* \"#utility.yul\":17275:17289   */\n      add\n        /* \"#utility.yul\":17268:17312   */\n      mstore\n        /* \"#utility.yul\":17151:17319   */\n      pop\n      jump\t// out\n        /* \"#utility.yul\":17325:17691   */\n    tag_172:\n        /* \"#utility.yul\":17467:17470   */\n      0x00\n        /* \"#utility.yul\":17488:17555   */\n      tag_344\n        /* \"#utility.yul\":17552:17554   */\n      0x12\n        /* \"#utility.yul\":17547:17550   */\n      dup4\n        /* \"#utility.yul\":17488:17555   */\n      tag_127\n      jump\t// in\n    tag_344:\n        /* \"#utility.yul\":17481:17555   */\n      swap2\n      pop\n        /* \"#utility.yul\":17564:17657   */\n      tag_345\n        /* \"#utility.yul\":17653:17656   */\n      dup3\n        /* \"#utility.yul\":17564:17657   */\n      tag_171\n      jump\t// in\n    tag_345:\n        /* \"#utility.yul\":17682:17684   */\n      0x20\n        /* \"#utility.yul\":17677:17680   */\n      dup3\n        /* \"#utility.yul\":17673:17685   */\n      add\n        /* \"#utility.yul\":17666:17685   */\n      swap1\n      pop\n        /* \"#utility.yul\":17325:17691   */\n      swap2\n      swap1\n      pop\n      jump\t// out\n        /* \"#utility.yul\":17697:18116   */\n    tag_113:\n        /* \"#utility.yul\":17863:17867   */\n      0x00\n        /* \"#utility.yul\":17901:17903   */\n      0x20\n        /* \"#utility.yul\":17890:17899   */\n      dup3\n        /* \"#utility.yul\":17886:17904   */\n      add\n        /* \"#utility.yul\":17878:17904   */\n      swap1\n      pop\n        /* \"#utility.yul\":17950:17959   */\n      dup2\n        /* \"#utility.yul\":17944:17948   */\n      dup2\n        /* \"#utility.yul\":17940:17960   */\n      sub\n        /* \"#utility.yul\":17936:17937   */\n      0x00\n        /* \"#utility.yul\":17925:17934   */\n      dup4\n        /* \"#utility.yul\":17921:17938   */\n      add\n        /* \"#utility.yul\":17914:17961   */\n      mstore\n        /* \"#utility.yul\":17978:18109   */\n      tag_347\n        /* \"#utility.yul\":18104:18108   */\n      dup2\n        /* \"#utility.yul\":17978:18109   */\n      tag_172\n      jump\t// in\n    tag_347:\n        /* \"#utility.yul\":17970:18109   */\n      swap1\n      pop\n        /* \"#utility.yul\":17697:18116   */\n      swap2\n      swap1\n      pop\n      jump\t// out\n\n    auxdata: 0xa26469706673582212203e2d8b6aff2e5fa035cad5d2849d6ef991f310b61649bb59c554494e20cbe4aa64736f6c634300081e0033\n}\n",
				"bytecode": {
					"linkReferences": {},
					"object": "608060405234801561000f575f5ffd5b506040516118cc3803806118cc833981810160405281019061003191906102bc565b5f8211610073576040517f08c379a000000000000000000000000000000000000000000000000000000000815260040161006a906103b2565b60405180910390fd5b835f908161008191906105d7565b50826001908161009191906105d7565b50816002819055508060035f6101000a81548173ffffffffffffffffffffffffffffffffffffffff021916908373ffffffffffffffffffffffffffffffffffffffff160217905550505050506106a6565b5f604051905090565b5f5ffd5b5f5ffd5b5f5ffd5b5f5ffd5b5f601f19601f8301169050919050565b7f4e487b71000000000000000000000000000000000000000000000000000000005f52604160045260245ffd5b610141826100fb565b810181811067ffffffffffffffff821117156101605761015f61010b565b5b80604052505050565b5f6101726100e2565b905061017e8282610138565b919050565b5f67ffffffffffffffff82111561019d5761019c61010b565b5b6101a6826100fb565b9050602081019050919050565b8281835e5f83830152505050565b5f6101d36101ce84610183565b610169565b9050828152602081018484840111156101ef576101ee6100f7565b5b6101fa8482856101b3565b509392505050565b5f82601f830112610216576102156100f3565b5b81516102268482602086016101c1565b91505092915050565b5f819050919050565b6102418161022f565b811461024b575f5ffd5b50565b5f8151905061025c81610238565b92915050565b5f73ffffffffffffffffffffffffffffffffffffffff82169050919050565b5f61028b82610262565b9050919050565b61029b81610281565b81146102a5575f5ffd5b50565b5f815190506102b681610292565b92915050565b5f5f5f5f608085870312156102d4576102d36100eb565b5b5f85015167ffffffffffffffff8111156102f1576102f06100ef565b5b6102fd87828801610202565b945050602085015167ffffffffffffffff81111561031e5761031d6100ef565b5b61032a87828801610202565b935050604061033b8782880161024e565b925050606061034c878288016102a8565b91505092959194509250565b5f82825260208201905092915050565b7f5175616e74697479206d7573742062652067726561746572207468616e20302e5f82015250565b5f61039c602083610358565b91506103a782610368565b602082019050919050565b5f6020820190508181035f8301526103c981610390565b9050919050565b5f81519050919050565b7f4e487b71000000000000000000000000000000000000000000000000000000005f52602260045260245ffd5b5f600282049050600182168061041e57607f821691505b602082108103610431576104306103da565b5b50919050565b5f819050815f5260205f209050919050565b5f6020601f8301049050919050565b5f82821b905092915050565b5f600883026104937fffffffffffffffffffffffffffffffffffffffffffffffffffffffffffffffff82610458565b61049d8683610458565b95508019841693508086168417925050509392505050565b5f819050919050565b5f6104d86104d36104ce8461022f565b6104b5565b61022f565b9050919050565b5f819050919050565b6104f1836104be565b6105056104fd826104df565b848454610464565b825550505050565b5f5f905090565b61051c61050d565b6105278184846104e8565b505050565b5b8181101561054a5761053f5f82610514565b60018101905061052d565b5050565b601f82111561058f5761056081610437565b61056984610449565b81016020851015610578578190505b61058c61058485610449565b83018261052c565b50505b505050565b5f82821c905092915050565b5f6105af5f1984600802610594565b1980831691505092915050565b5f6105c783836105a0565b9150826002028217905092915050565b6105e0826103d0565b67ffffffffffffffff8111156105f9576105f861010b565b5b6106038254610407565b61060e82828561054e565b5f60209050601f83116001811461063f575f841561062d578287015190505b61063785826105bc565b86555061069e565b601f19841661064d86610437565b5f5b828110156106745784890151825560018201915060208501945060208101905061064f565b86831015610691578489015161068d601f8916826105a0565b8355505b6001600288020188555050505b505050505050565b611219806106b35f395ff3fe608060405260043610610090575f3560e01c806394a76b211161005857806394a76b2114610159578063b071536d14610181578063db3cb581146101ab578063dbc1f587146101d5578063e2b3f6d8146101eb57610090565b806316ceaa95146100945780632e325020146100be578063667b6e61146100fb57806375c59ecd146101255780638da5cb5b1461012f575b5f5ffd5b34801561009f575f5ffd5b506100a8610215565b6040516100b591906108b7565b60405180910390f35b3480156100c9575f5ffd5b506100e460048036038101906100df919061090b565b610221565b6040516100f29291906109a6565b60405180910390f35b348015610106575f5ffd5b5061010f6103cb565b60405161011c91906108b7565b60405180910390f35b61012d6103d1565b005b34801561013a575f5ffd5b5061014361047b565b6040516101509190610a1a565b60405180910390f35b348015610164575f5ffd5b5061017f600480360381019061017a9190610b5f565b6104a0565b005b34801561018c575f5ffd5b506101956105d5565b6040516101a291906108b7565b60405180910390f35b3480156101b6575f5ffd5b506101bf6105db565b6040516101cc9190610bd5565b60405180910390f35b3480156101e0575f5ffd5b506101e9610666565b005b3480156101f6575f5ffd5b506101ff610813565b60405161020c9190610bd5565b60405180910390f35b5f600480549050905090565b606080600480549050831061026b576040517f08c379a000000000000000000000000000000000000000000000000000000000815260040161026290610c3f565b60405180910390fd5b5f600484815481106102805761027f610c5d565b5b905f5260205f2090600202016040518060400160405290815f820180546102a690610cb7565b80601f01602080910402602001604051908101604052809291908181526020018280546102d290610cb7565b801561031d5780601f106102f45761010080835404028352916020019161031d565b820191905f5260205f20905b81548152906001019060200180831161030057829003601f168201915b5050505050815260200160018201805461033690610cb7565b80601f016020809104026020016040519081016040528092919081815260200182805461036290610cb7565b80156103ad5780601f10610384576101008083540402835291602001916103ad565b820191905f5260205f20905b81548152906001019060200180831161039057829003601f168201915b5050505050815250509050805f015181602001519250925050915091565b60025481565b5f3411610413576040517f08c379a000000000000000000000000000000000000000000000000000000000815260040161040a90610d57565b60405180910390fd5b3460055f8282546104249190610da2565b925050819055503373ffffffffffffffffffffffffffffffffffffffff167f4569f0a20ef33c14c81397c9ebe12ea5f2bfbc03bed970dd09b61928833c06b13460405161047191906108b7565b60405180910390a2565b60035f9054906101000a900473ffffffffffffffffffffffffffffffffffffffff1681565b60035f9054906101000a900473ffffffffffffffffffffffffffffffffffffffff1673ffffffffffffffffffffffffffffffffffffffff163373ffffffffffffffffffffffffffffffffffffffff161461052f576040517f08c379a000000000000000000000000000000000000000000000000000000000815260040161052690610e45565b60405180910390fd5b6004604051806040016040528084815260200183815250908060018154018082558091505060019003905f5260205f2090600202015f909190919091505f820151815f01908161057f9190611003565b5060208201518160010190816105959190611003565b5050507fca0694529e21db15d3e82c504bff67f4f258f1a03cb3525ecffc834d515e8f7c82826040516105c99291906109a6565b60405180910390a15050565b60055481565b5f80546105e790610cb7565b80601f016020809104026020016040519081016040528092919081815260200182805461061390610cb7565b801561065e5780601f106106355761010080835404028352916020019161065e565b820191905f5260205f20905b81548152906001019060200180831161064157829003601f168201915b505050505081565b60035f9054906101000a900473ffffffffffffffffffffffffffffffffffffffff1673ffffffffffffffffffffffffffffffffffffffff163373ffffffffffffffffffffffffffffffffffffffff16146106f5576040517f08c379a00000000000000000000000000000000000000000000000000000000081526004016106ec90610e45565b60405180910390fd5b5f60055411610739576040517f08c379a00000000000000000000000000000000000000000000000000000000081526004016107309061111c565b60405180910390fd5b5f60055490505f6005819055505f60035f9054906101000a900473ffffffffffffffffffffffffffffffffffffffff1673ffffffffffffffffffffffffffffffffffffffff168260405161078c90611167565b5f6040518083038185875af1925050503d805f81146107c6576040519150601f19603f3d011682016040523d82523d5f602084013e6107cb565b606091505b505090508061080f576040517f08c379a0000000000000000000000000000000000000000000000000000000008152600401610806906111c5565b60405180910390fd5b5050565b6001805461082090610cb7565b80601f016020809104026020016040519081016040528092919081815260200182805461084c90610cb7565b80156108975780601f1061086e57610100808354040283529160200191610897565b820191905f5260205f20905b81548152906001019060200180831161087a57829003601f168201915b505050505081565b5f819050919050565b6108b18161089f565b82525050565b5f6020820190506108ca5f8301846108a8565b92915050565b5f604051905090565b5f5ffd5b5f5ffd5b6108ea8161089f565b81146108f4575f5ffd5b50565b5f81359050610905816108e1565b92915050565b5f602082840312156109205761091f6108d9565b5b5f61092d848285016108f7565b91505092915050565b5f81519050919050565b5f82825260208201905092915050565b8281835e5f83830152505050565b5f601f19601f8301169050919050565b5f61097882610936565b6109828185610940565b9350610992818560208601610950565b61099b8161095e565b840191505092915050565b5f6040820190508181035f8301526109be818561096e565b905081810360208301526109d2818461096e565b90509392505050565b5f73ffffffffffffffffffffffffffffffffffffffff82169050919050565b5f610a04826109db565b9050919050565b610a14816109fa565b82525050565b5f602082019050610a2d5f830184610a0b565b92915050565b5f5ffd5b5f5ffd5b7f4e487b71000000000000000000000000000000000000000000000000000000005f52604160045260245ffd5b610a718261095e565b810181811067ffffffffffffffff82111715610a9057610a8f610a3b565b5b80604052505050565b5f610aa26108d0565b9050610aae8282610a68565b919050565b5f67ffffffffffffffff821115610acd57610acc610a3b565b5b610ad68261095e565b9050602081019050919050565b828183375f83830152505050565b5f610b03610afe84610ab3565b610a99565b905082815260208101848484011115610b1f57610b1e610a37565b5b610b2a848285610ae3565b509392505050565b5f82601f830112610b4657610b45610a33565b5b8135610b56848260208601610af1565b91505092915050565b5f5f60408385031215610b7557610b746108d9565b5b5f83013567ffffffffffffffff811115610b9257610b916108dd565b5b610b9e85828601610b32565b925050602083013567ffffffffffffffff811115610bbf57610bbe6108dd565b5b610bcb85828601610b32565b9150509250929050565b5f6020820190508181035f830152610bed818461096e565b905092915050565b7f496e76616c696420696e646578000000000000000000000000000000000000005f82015250565b5f610c29600d83610940565b9150610c3482610bf5565b602082019050919050565b5f6020820190508181035f830152610c5681610c1d565b9050919050565b7f4e487b71000000000000000000000000000000000000000000000000000000005f52603260045260245ffd5b7f4e487b71000000000000000000000000000000000000000000000000000000005f52602260045260245ffd5b5f6002820490506001821680610cce57607f821691505b602082108103610ce157610ce0610c8a565b5b50919050565b7f53706f6e736f7273686970206d7573742062652067726561746572207468616e5f8201527f20302e0000000000000000000000000000000000000000000000000000000000602082015250565b5f610d41602383610940565b9150610d4c82610ce7565b604082019050919050565b5f6020820190508181035f830152610d6e81610d35565b9050919050565b7f4e487b71000000000000000000000000000000000000000000000000000000005f52601160045260245ffd5b5f610dac8261089f565b9150610db78361089f565b9250828201905080821115610dcf57610dce610d75565b5b92915050565b7f5065726d697373696f6e2064656e6965642e20596f7520617265206e6f7420745f8201527f6865206f776e65722e0000000000000000000000000000000000000000000000602082015250565b5f610e2f602983610940565b9150610e3a82610dd5565b604082019050919050565b5f6020820190508181035f830152610e5c81610e23565b9050919050565b5f819050815f5260205f209050919050565b5f6020601f8301049050919050565b5f82821b905092915050565b5f60088302610ebf7fffffffffffffffffffffffffffffffffffffffffffffffffffffffffffffffff82610e84565b610ec98683610e84565b95508019841693508086168417925050509392505050565b5f819050919050565b5f610f04610eff610efa8461089f565b610ee1565b61089f565b9050919050565b5f819050919050565b610f1d83610eea565b610f31610f2982610f0b565b848454610e90565b825550505050565b5f5f905090565b610f48610f39565b610f53818484610f14565b505050565b5b81811015610f7657610f6b5f82610f40565b600181019050610f59565b5050565b601f821115610fbb57610f8c81610e63565b610f9584610e75565b81016020851015610fa4578190505b610fb8610fb085610e75565b830182610f58565b50505b505050565b5f82821c905092915050565b5f610fdb5f1984600802610fc0565b1980831691505092915050565b5f610ff38383610fcc565b9150826002028217905092915050565b61100c82610936565b67ffffffffffffffff81111561102557611024610a3b565b5b61102f8254610cb7565b61103a828285610f7a565b5f60209050601f83116001811461106b575f8415611059578287015190505b6110638582610fe8565b8655506110ca565b601f19841661107986610e63565b5f5b828110156110a05784890151825560018201915060208501945060208101905061107b565b868310156110bd57848901516110b9601f891682610fcc565b8355505b6001600288020188555050505b505050505050565b7f4e6f2066756e647320746f2077697468647261772e00000000000000000000005f82015250565b5f611106601583610940565b9150611111826110d2565b602082019050919050565b5f6020820190508181035f830152611133816110fa565b9050919050565b5f81905092915050565b50565b5f6111525f8361113a565b915061115d82611144565b5f82019050919050565b5f61117182611147565b9150819050919050565b7f5769746864726177616c206661696c65642e00000000000000000000000000005f82015250565b5f6111af601283610940565b91506111ba8261117b565b602082019050919050565b5f6020820190508181035f8301526111dc816111a3565b905091905056fea26469706673582212203e2d8b6aff2e5fa035cad5d2849d6ef991f310b61649bb59c554494e20cbe4aa64736f6c634300081e0033",
					"opcodes": "PUSH1 0x80 PUSH1 0x40 MSTORE CALLVALUE DUP1 ISZERO PUSH2 0xF JUMPI PUSH0 PUSH0 REVERT JUMPDEST POP PUSH1 0x40 MLOAD PUSH2 0x18CC CODESIZE SUB DUP1 PUSH2 0x18CC DUP4 CODECOPY DUP2 DUP2 ADD PUSH1 0x40 MSTORE DUP2 ADD SWAP1 PUSH2 0x31 SWAP2 SWAP1 PUSH2 0x2BC JUMP JUMPDEST PUSH0 DUP3 GT PUSH2 0x73 JUMPI PUSH1 0x40 MLOAD PUSH32 0x8C379A000000000000000000000000000000000000000000000000000000000 DUP2 MSTORE PUSH1 0x4 ADD PUSH2 0x6A SWAP1 PUSH2 0x3B2 JUMP JUMPDEST PUSH1 0x40 MLOAD DUP1 SWAP2 SUB SWAP1 REVERT JUMPDEST DUP4 PUSH0 SWAP1 DUP2 PUSH2 0x81 SWAP2 SWAP1 PUSH2 0x5D7 JUMP JUMPDEST POP DUP3 PUSH1 0x1 SWAP1 DUP2 PUSH2 0x91 SWAP2 SWAP1 PUSH2 0x5D7 JUMP JUMPDEST POP DUP2 PUSH1 0x2 DUP2 SWAP1 SSTORE POP DUP1 PUSH1 0x3 PUSH0 PUSH2 0x100 EXP DUP2 SLOAD DUP2 PUSH20 0xFFFFFFFFFFFFFFFFFFFFFFFFFFFFFFFFFFFFFFFF MUL NOT AND SWAP1 DUP4 PUSH20 0xFFFFFFFFFFFFFFFFFFFFFFFFFFFFFFFFFFFFFFFF AND MUL OR SWAP1 SSTORE POP POP POP POP POP PUSH2 0x6A6 JUMP JUMPDEST PUSH0 PUSH1 0x40 MLOAD SWAP1 POP SWAP1 JUMP JUMPDEST PUSH0 PUSH0 REVERT JUMPDEST PUSH0 PUSH0 REVERT JUMPDEST PUSH0 PUSH0 REVERT JUMPDEST PUSH0 PUSH0 REVERT JUMPDEST PUSH0 PUSH1 0x1F NOT PUSH1 0x1F DUP4 ADD AND SWAP1 POP SWAP2 SWAP1 POP JUMP JUMPDEST PUSH32 0x4E487B7100000000000000000000000000000000000000000000000000000000 PUSH0 MSTORE PUSH1 0x41 PUSH1 0x4 MSTORE PUSH1 0x24 PUSH0 REVERT JUMPDEST PUSH2 0x141 DUP3 PUSH2 0xFB JUMP JUMPDEST DUP2 ADD DUP2 DUP2 LT PUSH8 0xFFFFFFFFFFFFFFFF DUP3 GT OR ISZERO PUSH2 0x160 JUMPI PUSH2 0x15F PUSH2 0x10B JUMP JUMPDEST JUMPDEST DUP1 PUSH1 0x40 MSTORE POP POP POP JUMP JUMPDEST PUSH0 PUSH2 0x172 PUSH2 0xE2 JUMP JUMPDEST SWAP1 POP PUSH2 0x17E DUP3 DUP3 PUSH2 0x138 JUMP JUMPDEST SWAP2 SWAP1 POP JUMP JUMPDEST PUSH0 PUSH8 0xFFFFFFFFFFFFFFFF DUP3 GT ISZERO PUSH2 0x19D JUMPI PUSH2 0x19C PUSH2 0x10B JUMP JUMPDEST JUMPDEST PUSH2 0x1A6 DUP3 PUSH2 0xFB JUMP JUMPDEST SWAP1 POP PUSH1 0x20 DUP2 ADD SWAP1 POP SWAP2 SWAP1 POP JUMP JUMPDEST DUP3 DUP2 DUP4 MCOPY PUSH0 DUP4 DUP4 ADD MSTORE POP POP POP JUMP JUMPDEST PUSH0 PUSH2 0x1D3 PUSH2 0x1CE DUP5 PUSH2 0x183 JUMP JUMPDEST PUSH2 0x169 JUMP JUMPDEST SWAP1 POP DUP3 DUP2 MSTORE PUSH1 0x20 DUP2 ADD DUP5 DUP5 DUP5 ADD GT ISZERO PUSH2 0x1EF JUMPI PUSH2 0x1EE PUSH2 0xF7 JUMP JUMPDEST JUMPDEST PUSH2 0x1FA DUP5 DUP3 DUP6 PUSH2 0x1B3 JUMP JUMPDEST POP SWAP4 SWAP3 POP POP POP JUMP JUMPDEST PUSH0 DUP3 PUSH1 0x1F DUP4 ADD SLT PUSH2 0x216 JUMPI PUSH2 0x215 PUSH2 0xF3 JUMP JUMPDEST JUMPDEST DUP2 MLOAD PUSH2 0x226 DUP5 DUP3 PUSH1 0x20 DUP7 ADD PUSH2 0x1C1 JUMP JUMPDEST SWAP2 POP POP SWAP3 SWAP2 POP POP JUMP JUMPDEST PUSH0 DUP2 SWAP1 POP SWAP2 SWAP1 POP JUMP JUMPDEST PUSH2 0x241 DUP2 PUSH2 0x22F JUMP JUMPDEST DUP2 EQ PUSH2 0x24B JUMPI PUSH0 PUSH0 REVERT JUMPDEST POP JUMP JUMPDEST PUSH0 DUP2 MLOAD SWAP1 POP PUSH2 0x25C DUP2 PUSH2 0x238 JUMP JUMPDEST SWAP3 SWAP2 POP POP JUMP JUMPDEST PUSH0 PUSH20 0xFFFFFFFFFFFFFFFFFFFFFFFFFFFFFFFFFFFFFFFF DUP3 AND SWAP1 POP SWAP2 SWAP1 POP JUMP JUMPDEST PUSH0 PUSH2 0x28B DUP3 PUSH2 0x262 JUMP JUMPDEST SWAP1 POP SWAP2 SWAP1 POP JUMP JUMPDEST PUSH2 0x29B DUP2 PUSH2 0x281 JUMP JUMPDEST DUP2 EQ PUSH2 0x2A5 JUMPI PUSH0 PUSH0 REVERT JUMPDEST POP JUMP JUMPDEST PUSH0 DUP2 MLOAD SWAP1 POP PUSH2 0x2B6 DUP2 PUSH2 0x292 JUMP JUMPDEST SWAP3 SWAP2 POP POP JUMP JUMPDEST PUSH0 PUSH0 PUSH0 PUSH0 PUSH1 0x80 DUP6 DUP8 SUB SLT ISZERO PUSH2 0x2D4 JUMPI PUSH2 0x2D3 PUSH2 0xEB JUMP JUMPDEST JUMPDEST PUSH0 DUP6 ADD MLOAD PUSH8 0xFFFFFFFFFFFFFFFF DUP2 GT ISZERO PUSH2 0x2F1 JUMPI PUSH2 0x2F0 PUSH2 0xEF JUMP JUMPDEST JUMPDEST PUSH2 0x2FD DUP8 DUP3 DUP9 ADD PUSH2 0x202 JUMP JUMPDEST SWAP5 POP POP PUSH1 0x20 DUP6 ADD MLOAD PUSH8 0xFFFFFFFFFFFFFFFF DUP2 GT ISZERO PUSH2 0x31E JUMPI PUSH2 0x31D PUSH2 0xEF JUMP JUMPDEST JUMPDEST PUSH2 0x32A DUP8 DUP3 DUP9 ADD PUSH2 0x202 JUMP JUMPDEST SWAP4 POP POP PUSH1 0x40 PUSH2 0x33B DUP8 DUP3 DUP9 ADD PUSH2 0x24E JUMP JUMPDEST SWAP3 POP POP PUSH1 0x60 PUSH2 0x34C DUP8 DUP3 DUP9 ADD PUSH2 0x2A8 JUMP JUMPDEST SWAP2 POP POP SWAP3 SWAP6 SWAP2 SWAP5 POP SWAP3 POP JUMP JUMPDEST PUSH0 DUP3 DUP3 MSTORE PUSH1 0x20 DUP3 ADD SWAP1 POP SWAP3 SWAP2 POP POP JUMP JUMPDEST PUSH32 0x5175616E74697479206D7573742062652067726561746572207468616E20302E PUSH0 DUP3 ADD MSTORE POP JUMP JUMPDEST PUSH0 PUSH2 0x39C PUSH1 0x20 DUP4 PUSH2 0x358 JUMP JUMPDEST SWAP2 POP PUSH2 0x3A7 DUP3 PUSH2 0x368 JUMP JUMPDEST PUSH1 0x20 DUP3 ADD SWAP1 POP SWAP2 SWAP1 POP JUMP JUMPDEST PUSH0 PUSH1 0x20 DUP3 ADD SWAP1 POP DUP2 DUP2 SUB PUSH0 DUP4 ADD MSTORE PUSH2 0x3C9 DUP2 PUSH2 0x390 JUMP JUMPDEST SWAP1 POP SWAP2 SWAP1 POP JUMP JUMPDEST PUSH0 DUP2 MLOAD SWAP1 POP SWAP2 SWAP1 POP JUMP JUMPDEST PUSH32 0x4E487B7100000000000000000000000000000000000000000000000000000000 PUSH0 MSTORE PUSH1 0x22 PUSH1 0x4 MSTORE PUSH1 0x24 PUSH0 REVERT JUMPDEST PUSH0 PUSH1 0x2 DUP3 DIV SWAP1 POP PUSH1 0x1 DUP3 AND DUP1 PUSH2 0x41E JUMPI PUSH1 0x7F DUP3 AND SWAP2 POP JUMPDEST PUSH1 0x20 DUP3 LT DUP2 SUB PUSH2 0x431 JUMPI PUSH2 0x430 PUSH2 0x3DA JUMP JUMPDEST JUMPDEST POP SWAP2 SWAP1 POP JUMP JUMPDEST PUSH0 DUP2 SWAP1 POP DUP2 PUSH0 MSTORE PUSH1 0x20 PUSH0 KECCAK256 SWAP1 POP SWAP2 SWAP1 POP JUMP JUMPDEST PUSH0 PUSH1 0x20 PUSH1 0x1F DUP4 ADD DIV SWAP1 POP SWAP2 SWAP1 POP JUMP JUMPDEST PUSH0 DUP3 DUP3 SHL SWAP1 POP SWAP3 SWAP2 POP POP JUMP JUMPDEST PUSH0 PUSH1 0x8 DUP4 MUL PUSH2 0x493 PUSH32 0xFFFFFFFFFFFFFFFFFFFFFFFFFFFFFFFFFFFFFFFFFFFFFFFFFFFFFFFFFFFFFFFF DUP3 PUSH2 0x458 JUMP JUMPDEST PUSH2 0x49D DUP7 DUP4 PUSH2 0x458 JUMP JUMPDEST SWAP6 POP DUP1 NOT DUP5 AND SWAP4 POP DUP1 DUP7 AND DUP5 OR SWAP3 POP POP POP SWAP4 SWAP3 POP POP POP JUMP JUMPDEST PUSH0 DUP2 SWAP1 POP SWAP2 SWAP1 POP JUMP JUMPDEST PUSH0 PUSH2 0x4D8 PUSH2 0x4D3 PUSH2 0x4CE DUP5 PUSH2 0x22F JUMP JUMPDEST PUSH2 0x4B5 JUMP JUMPDEST PUSH2 0x22F JUMP JUMPDEST SWAP1 POP SWAP2 SWAP1 POP JUMP JUMPDEST PUSH0 DUP2 SWAP1 POP SWAP2 SWAP1 POP JUMP JUMPDEST PUSH2 0x4F1 DUP4 PUSH2 0x4BE JUMP JUMPDEST PUSH2 0x505 PUSH2 0x4FD DUP3 PUSH2 0x4DF JUMP JUMPDEST DUP5 DUP5 SLOAD PUSH2 0x464 JUMP JUMPDEST DUP3 SSTORE POP POP POP POP JUMP JUMPDEST PUSH0 PUSH0 SWAP1 POP SWAP1 JUMP JUMPDEST PUSH2 0x51C PUSH2 0x50D JUMP JUMPDEST PUSH2 0x527 DUP2 DUP5 DUP5 PUSH2 0x4E8 JUMP JUMPDEST POP POP POP JUMP JUMPDEST JUMPDEST DUP2 DUP2 LT ISZERO PUSH2 0x54A JUMPI PUSH2 0x53F PUSH0 DUP3 PUSH2 0x514 JUMP JUMPDEST PUSH1 0x1 DUP2 ADD SWAP1 POP PUSH2 0x52D JUMP JUMPDEST POP POP JUMP JUMPDEST PUSH1 0x1F DUP3 GT ISZERO PUSH2 0x58F JUMPI PUSH2 0x560 DUP2 PUSH2 0x437 JUMP JUMPDEST PUSH2 0x569 DUP5 PUSH2 0x449 JUMP JUMPDEST DUP2 ADD PUSH1 0x20 DUP6 LT ISZERO PUSH2 0x578 JUMPI DUP2 SWAP1 POP JUMPDEST PUSH2 0x58C PUSH2 0x584 DUP6 PUSH2 0x449 JUMP JUMPDEST DUP4 ADD DUP3 PUSH2 0x52C JUMP JUMPDEST POP POP JUMPDEST POP POP POP JUMP JUMPDEST PUSH0 DUP3 DUP3 SHR SWAP1 POP SWAP3 SWAP2 POP POP JUMP JUMPDEST PUSH0 PUSH2 0x5AF PUSH0 NOT DUP5 PUSH1 0x8 MUL PUSH2 0x594 JUMP JUMPDEST NOT DUP1 DUP4 AND SWAP2 POP POP SWAP3 SWAP2 POP POP JUMP JUMPDEST PUSH0 PUSH2 0x5C7 DUP4 DUP4 PUSH2 0x5A0 JUMP JUMPDEST SWAP2 POP DUP3 PUSH1 0x2 MUL DUP3 OR SWAP1 POP SWAP3 SWAP2 POP POP JUMP JUMPDEST PUSH2 0x5E0 DUP3 PUSH2 0x3D0 JUMP JUMPDEST PUSH8 0xFFFFFFFFFFFFFFFF DUP2 GT ISZERO PUSH2 0x5F9 JUMPI PUSH2 0x5F8 PUSH2 0x10B JUMP JUMPDEST JUMPDEST PUSH2 0x603 DUP3 SLOAD PUSH2 0x407 JUMP JUMPDEST PUSH2 0x60E DUP3 DUP3 DUP6 PUSH2 0x54E JUMP JUMPDEST PUSH0 PUSH1 0x20 SWAP1 POP PUSH1 0x1F DUP4 GT PUSH1 0x1 DUP2 EQ PUSH2 0x63F JUMPI PUSH0 DUP5 ISZERO PUSH2 0x62D JUMPI DUP3 DUP8 ADD MLOAD SWAP1 POP JUMPDEST PUSH2 0x637 DUP6 DUP3 PUSH2 0x5BC JUMP JUMPDEST DUP7 SSTORE POP PUSH2 0x69E JUMP JUMPDEST PUSH1 0x1F NOT DUP5 AND PUSH2 0x64D DUP7 PUSH2 0x437 JUMP JUMPDEST PUSH0 JUMPDEST DUP3 DUP2 LT ISZERO PUSH2 0x674 JUMPI DUP5 DUP10 ADD MLOAD DUP3 SSTORE PUSH1 0x1 DUP3 ADD SWAP2 POP PUSH1 0x20 DUP6 ADD SWAP5 POP PUSH1 0x20 DUP2 ADD SWAP1 POP PUSH2 0x64F JUMP JUMPDEST DUP7 DUP4 LT ISZERO PUSH2 0x691 JUMPI DUP5 DUP10 ADD MLOAD PUSH2 0x68D PUSH1 0x1F DUP10 AND DUP3 PUSH2 0x5A0 JUMP JUMPDEST DUP4 SSTORE POP JUMPDEST PUSH1 0x1 PUSH1 0x2 DUP9 MUL ADD DUP9 SSTORE POP POP POP JUMPDEST POP POP POP POP POP POP JUMP JUMPDEST PUSH2 0x1219 DUP1 PUSH2 0x6B3 PUSH0 CODECOPY PUSH0 RETURN INVALID PUSH1 0x80 PUSH1 0x40 MSTORE PUSH1 0x4 CALLDATASIZE LT PUSH2 0x90 JUMPI PUSH0 CALLDATALOAD PUSH1 0xE0 SHR DUP1 PUSH4 0x94A76B21 GT PUSH2 0x58 JUMPI DUP1 PUSH4 0x94A76B21 EQ PUSH2 0x159 JUMPI DUP1 PUSH4 0xB071536D EQ PUSH2 0x181 JUMPI DUP1 PUSH4 0xDB3CB581 EQ PUSH2 0x1AB JUMPI DUP1 PUSH4 0xDBC1F587 EQ PUSH2 0x1D5 JUMPI DUP1 PUSH4 0xE2B3F6D8 EQ PUSH2 0x1EB JUMPI PUSH2 0x90 JUMP JUMPDEST DUP1 PUSH4 0x16CEAA95 EQ PUSH2 0x94 JUMPI DUP1 PUSH4 0x2E325020 EQ PUSH2 0xBE JUMPI DUP1 PUSH4 0x667B6E61 EQ PUSH2 0xFB JUMPI DUP1 PUSH4 0x75C59ECD EQ PUSH2 0x125 JUMPI DUP1 PUSH4 0x8DA5CB5B EQ PUSH2 0x12F JUMPI JUMPDEST PUSH0 PUSH0 REVERT JUMPDEST CALLVALUE DUP1 ISZERO PUSH2 0x9F JUMPI PUSH0 PUSH0 REVERT JUMPDEST POP PUSH2 0xA8 PUSH2 0x215 JUMP JUMPDEST PUSH1 0x40 MLOAD PUSH2 0xB5 SWAP2 SWAP1 PUSH2 0x8B7 JUMP JUMPDEST PUSH1 0x40 MLOAD DUP1 SWAP2 SUB SWAP1 RETURN JUMPDEST CALLVALUE DUP1 ISZERO PUSH2 0xC9 JUMPI PUSH0 PUSH0 REVERT JUMPDEST POP PUSH2 0xE4 PUSH1 0x4 DUP1 CALLDATASIZE SUB DUP2 ADD SWAP1 PUSH2 0xDF SWAP2 SWAP1 PUSH2 0x90B JUMP JUMPDEST PUSH2 0x221 JUMP JUMPDEST PUSH1 0x40 MLOAD PUSH2 0xF2 SWAP3 SWAP2 SWAP1 PUSH2 0x9A6 JUMP JUMPDEST PUSH1 0x40 MLOAD DUP1 SWAP2 SUB SWAP1 RETURN JUMPDEST CALLVALUE DUP1 ISZERO PUSH2 0x106 JUMPI PUSH0 PUSH0 REVERT JUMPDEST POP PUSH2 0x10F PUSH2 0x3CB JUMP JUMPDEST PUSH1 0x40 MLOAD PUSH2 0x11C SWAP2 SWAP1 PUSH2 0x8B7 JUMP JUMPDEST PUSH1 0x40 MLOAD DUP1 SWAP2 SUB SWAP1 RETURN JUMPDEST PUSH2 0x12D PUSH2 0x3D1 JUMP JUMPDEST STOP JUMPDEST CALLVALUE DUP1 ISZERO PUSH2 0x13A JUMPI PUSH0 PUSH0 REVERT JUMPDEST POP PUSH2 0x143 PUSH2 0x47B JUMP JUMPDEST PUSH1 0x40 MLOAD PUSH2 0x150 SWAP2 SWAP1 PUSH2 0xA1A JUMP JUMPDEST PUSH1 0x40 MLOAD DUP1 SWAP2 SUB SWAP1 RETURN JUMPDEST CALLVALUE DUP1 ISZERO PUSH2 0x164 JUMPI PUSH0 PUSH0 REVERT JUMPDEST POP PUSH2 0x17F PUSH1 0x4 DUP1 CALLDATASIZE SUB DUP2 ADD SWAP1 PUSH2 0x17A SWAP2 SWAP1 PUSH2 0xB5F JUMP JUMPDEST PUSH2 0x4A0 JUMP JUMPDEST STOP JUMPDEST CALLVALUE DUP1 ISZERO PUSH2 0x18C JUMPI PUSH0 PUSH0 REVERT JUMPDEST POP PUSH2 0x195 PUSH2 0x5D5 JUMP JUMPDEST PUSH1 0x40 MLOAD PUSH2 0x1A2 SWAP2 SWAP1 PUSH2 0x8B7 JUMP JUMPDEST PUSH1 0x40 MLOAD DUP1 SWAP2 SUB SWAP1 RETURN JUMPDEST CALLVALUE DUP1 ISZERO PUSH2 0x1B6 JUMPI PUSH0 PUSH0 REVERT JUMPDEST POP PUSH2 0x1BF PUSH2 0x5DB JUMP JUMPDEST PUSH1 0x40 MLOAD PUSH2 0x1CC SWAP2 SWAP1 PUSH2 0xBD5 JUMP JUMPDEST PUSH1 0x40 MLOAD DUP1 SWAP2 SUB SWAP1 RETURN JUMPDEST CALLVALUE DUP1 ISZERO PUSH2 0x1E0 JUMPI PUSH0 PUSH0 REVERT JUMPDEST POP PUSH2 0x1E9 PUSH2 0x666 JUMP JUMPDEST STOP JUMPDEST CALLVALUE DUP1 ISZERO PUSH2 0x1F6 JUMPI PUSH0 PUSH0 REVERT JUMPDEST POP PUSH2 0x1FF PUSH2 0x813 JUMP JUMPDEST PUSH1 0x40 MLOAD PUSH2 0x20C SWAP2 SWAP1 PUSH2 0xBD5 JUMP JUMPDEST PUSH1 0x40 MLOAD DUP1 SWAP2 SUB SWAP1 RETURN JUMPDEST PUSH0 PUSH1 0x4 DUP1 SLOAD SWAP1 POP SWAP1 POP SWAP1 JUMP JUMPDEST PUSH1 0x60 DUP1 PUSH1 0x4 DUP1 SLOAD SWAP1 POP DUP4 LT PUSH2 0x26B JUMPI PUSH1 0x40 MLOAD PUSH32 0x8C379A000000000000000000000000000000000000000000000000000000000 DUP2 MSTORE PUSH1 0x4 ADD PUSH2 0x262 SWAP1 PUSH2 0xC3F JUMP JUMPDEST PUSH1 0x40 MLOAD DUP1 SWAP2 SUB SWAP1 REVERT JUMPDEST PUSH0 PUSH1 0x4 DUP5 DUP2 SLOAD DUP2 LT PUSH2 0x280 JUMPI PUSH2 0x27F PUSH2 0xC5D JUMP JUMPDEST JUMPDEST SWAP1 PUSH0 MSTORE PUSH1 0x20 PUSH0 KECCAK256 SWAP1 PUSH1 0x2 MUL ADD PUSH1 0x40 MLOAD DUP1 PUSH1 0x40 ADD PUSH1 0x40 MSTORE SWAP1 DUP2 PUSH0 DUP3 ADD DUP1 SLOAD PUSH2 0x2A6 SWAP1 PUSH2 0xCB7 JUMP JUMPDEST DUP1 PUSH1 0x1F ADD PUSH1 0x20 DUP1 SWAP2 DIV MUL PUSH1 0x20 ADD PUSH1 0x40 MLOAD SWAP1 DUP2 ADD PUSH1 0x40 MSTORE DUP1 SWAP3 SWAP2 SWAP1 DUP2 DUP2 MSTORE PUSH1 0x20 ADD DUP3 DUP1 SLOAD PUSH2 0x2D2 SWAP1 PUSH2 0xCB7 JUMP JUMPDEST DUP1 ISZERO PUSH2 0x31D JUMPI DUP1 PUSH1 0x1F LT PUSH2 0x2F4 JUMPI PUSH2 0x100 DUP1 DUP4 SLOAD DIV MUL DUP4 MSTORE SWAP2 PUSH1 0x20 ADD SWAP2 PUSH2 0x31D JUMP JUMPDEST DUP3 ADD SWAP2 SWAP1 PUSH0 MSTORE PUSH1 0x20 PUSH0 KECCAK256 SWAP1 JUMPDEST DUP2 SLOAD DUP2 MSTORE SWAP1 PUSH1 0x1 ADD SWAP1 PUSH1 0x20 ADD DUP1 DUP4 GT PUSH2 0x300 JUMPI DUP3 SWAP1 SUB PUSH1 0x1F AND DUP3 ADD SWAP2 JUMPDEST POP POP POP POP POP DUP2 MSTORE PUSH1 0x20 ADD PUSH1 0x1 DUP3 ADD DUP1 SLOAD PUSH2 0x336 SWAP1 PUSH2 0xCB7 JUMP JUMPDEST DUP1 PUSH1 0x1F ADD PUSH1 0x20 DUP1 SWAP2 DIV MUL PUSH1 0x20 ADD PUSH1 0x40 MLOAD SWAP1 DUP2 ADD PUSH1 0x40 MSTORE DUP1 SWAP3 SWAP2 SWAP1 DUP2 DUP2 MSTORE PUSH1 0x20 ADD DUP3 DUP1 SLOAD PUSH2 0x362 SWAP1 PUSH2 0xCB7 JUMP JUMPDEST DUP1 ISZERO PUSH2 0x3AD JUMPI DUP1 PUSH1 0x1F LT PUSH2 0x384 JUMPI PUSH2 0x100 DUP1 DUP4 SLOAD DIV MUL DUP4 MSTORE SWAP2 PUSH1 0x20 ADD SWAP2 PUSH2 0x3AD JUMP JUMPDEST DUP3 ADD SWAP2 SWAP1 PUSH0 MSTORE PUSH1 0x20 PUSH0 KECCAK256 SWAP1 JUMPDEST DUP2 SLOAD DUP2 MSTORE SWAP1 PUSH1 0x1 ADD SWAP1 PUSH1 0x20 ADD DUP1 DUP4 GT PUSH2 0x390 JUMPI DUP3 SWAP1 SUB PUSH1 0x1F AND DUP3 ADD SWAP2 JUMPDEST POP POP POP POP POP DUP2 MSTORE POP POP SWAP1 POP DUP1 PUSH0 ADD MLOAD DUP2 PUSH1 0x20 ADD MLOAD SWAP3 POP SWAP3 POP POP SWAP2 POP SWAP2 JUMP JUMPDEST PUSH1 0x2 SLOAD DUP2 JUMP JUMPDEST PUSH0 CALLVALUE GT PUSH2 0x413 JUMPI PUSH1 0x40 MLOAD PUSH32 0x8C379A000000000000000000000000000000000000000000000000000000000 DUP2 MSTORE PUSH1 0x4 ADD PUSH2 0x40A SWAP1 PUSH2 0xD57 JUMP JUMPDEST PUSH1 0x40 MLOAD DUP1 SWAP2 SUB SWAP1 REVERT JUMPDEST CALLVALUE PUSH1 0x5 PUSH0 DUP3 DUP3 SLOAD PUSH2 0x424 SWAP2 SWAP1 PUSH2 0xDA2 JUMP JUMPDEST SWAP3 POP POP DUP2 SWAP1 SSTORE POP CALLER PUSH20 0xFFFFFFFFFFFFFFFFFFFFFFFFFFFFFFFFFFFFFFFF AND PUSH32 0x4569F0A20EF33C14C81397C9EBE12EA5F2BFBC03BED970DD09B61928833C06B1 CALLVALUE PUSH1 0x40 MLOAD PUSH2 0x471 SWAP2 SWAP1 PUSH2 0x8B7 JUMP JUMPDEST PUSH1 0x40 MLOAD DUP1 SWAP2 SUB SWAP1 LOG2 JUMP JUMPDEST PUSH1 0x3 PUSH0 SWAP1 SLOAD SWAP1 PUSH2 0x100 EXP SWAP1 DIV PUSH20 0xFFFFFFFFFFFFFFFFFFFFFFFFFFFFFFFFFFFFFFFF AND DUP2 JUMP JUMPDEST PUSH1 0x3 PUSH0 SWAP1 SLOAD SWAP1 PUSH2 0x100 EXP SWAP1 DIV PUSH20 0xFFFFFFFFFFFFFFFFFFFFFFFFFFFFFFFFFFFFFFFF AND PUSH20 0xFFFFFFFFFFFFFFFFFFFFFFFFFFFFFFFFFFFFFFFF AND CALLER PUSH20 0xFFFFFFFFFFFFFFFFFFFFFFFFFFFFFFFFFFFFFFFF AND EQ PUSH2 0x52F JUMPI PUSH1 0x40 MLOAD PUSH32 0x8C379A000000000000000000000000000000000000000000000000000000000 DUP2 MSTORE PUSH1 0x4 ADD PUSH2 0x526 SWAP1 PUSH2 0xE45 JUMP JUMPDEST PUSH1 0x40 MLOAD DUP1 SWAP2 SUB SWAP1 REVERT JUMPDEST PUSH1 0x4 PUSH1 0x40 MLOAD DUP1 PUSH1 0x40 ADD PUSH1 0x40 MSTORE DUP1 DUP5 DUP2 MSTORE PUSH1 0x20 ADD DUP4 DUP2 MSTORE POP SWAP1 DUP1 PUSH1 0x1 DUP2 SLOAD ADD DUP1 DUP3 SSTORE DUP1 SWAP2 POP POP PUSH1 0x1 SWAP1 SUB SWAP1 PUSH0 MSTORE PUSH1 0x20 PUSH0 KECCAK256 SWAP1 PUSH1 0x2 MUL ADD PUSH0 SWAP1 SWAP2 SWAP1 SWAP2 SWAP1 SWAP2 POP PUSH0 DUP3 ADD MLOAD DUP2 PUSH0 ADD SWAP1 DUP2 PUSH2 0x57F SWAP2 SWAP1 PUSH2 0x1003 JUMP JUMPDEST POP PUSH1 0x20 DUP3 ADD MLOAD DUP2 PUSH1 0x1 ADD SWAP1 DUP2 PUSH2 0x595 SWAP2 SWAP1 PUSH2 0x1003 JUMP JUMPDEST POP POP POP PUSH32 0xCA0694529E21DB15D3E82C504BFF67F4F258F1A03CB3525ECFFC834D515E8F7C DUP3 DUP3 PUSH1 0x40 MLOAD PUSH2 0x5C9 SWAP3 SWAP2 SWAP1 PUSH2 0x9A6 JUMP JUMPDEST PUSH1 0x40 MLOAD DUP1 SWAP2 SUB SWAP1 LOG1 POP POP JUMP JUMPDEST PUSH1 0x5 SLOAD DUP2 JUMP JUMPDEST PUSH0 DUP1 SLOAD PUSH2 0x5E7 SWAP1 PUSH2 0xCB7 JUMP JUMPDEST DUP1 PUSH1 0x1F ADD PUSH1 0x20 DUP1 SWAP2 DIV MUL PUSH1 0x20 ADD PUSH1 0x40 MLOAD SWAP1 DUP2 ADD PUSH1 0x40 MSTORE DUP1 SWAP3 SWAP2 SWAP1 DUP2 DUP2 MSTORE PUSH1 0x20 ADD DUP3 DUP1 SLOAD PUSH2 0x613 SWAP1 PUSH2 0xCB7 JUMP JUMPDEST DUP1 ISZERO PUSH2 0x65E JUMPI DUP1 PUSH1 0x1F LT PUSH2 0x635 JUMPI PUSH2 0x100 DUP1 DUP4 SLOAD DIV MUL DUP4 MSTORE SWAP2 PUSH1 0x20 ADD SWAP2 PUSH2 0x65E JUMP JUMPDEST DUP3 ADD SWAP2 SWAP1 PUSH0 MSTORE PUSH1 0x20 PUSH0 KECCAK256 SWAP1 JUMPDEST DUP2 SLOAD DUP2 MSTORE SWAP1 PUSH1 0x1 ADD SWAP1 PUSH1 0x20 ADD DUP1 DUP4 GT PUSH2 0x641 JUMPI DUP3 SWAP1 SUB PUSH1 0x1F AND DUP3 ADD SWAP2 JUMPDEST POP POP POP POP POP DUP2 JUMP JUMPDEST PUSH1 0x3 PUSH0 SWAP1 SLOAD SWAP1 PUSH2 0x100 EXP SWAP1 DIV PUSH20 0xFFFFFFFFFFFFFFFFFFFFFFFFFFFFFFFFFFFFFFFF AND PUSH20 0xFFFFFFFFFFFFFFFFFFFFFFFFFFFFFFFFFFFFFFFF AND CALLER PUSH20 0xFFFFFFFFFFFFFFFFFFFFFFFFFFFFFFFFFFFFFFFF AND EQ PUSH2 0x6F5 JUMPI PUSH1 0x40 MLOAD PUSH32 0x8C379A000000000000000000000000000000000000000000000000000000000 DUP2 MSTORE PUSH1 0x4 ADD PUSH2 0x6EC SWAP1 PUSH2 0xE45 JUMP JUMPDEST PUSH1 0x40 MLOAD DUP1 SWAP2 SUB SWAP1 REVERT JUMPDEST PUSH0 PUSH1 0x5 SLOAD GT PUSH2 0x739 JUMPI PUSH1 0x40 MLOAD PUSH32 0x8C379A000000000000000000000000000000000000000000000000000000000 DUP2 MSTORE PUSH1 0x4 ADD PUSH2 0x730 SWAP1 PUSH2 0x111C JUMP JUMPDEST PUSH1 0x40 MLOAD DUP1 SWAP2 SUB SWAP1 REVERT JUMPDEST PUSH0 PUSH1 0x5 SLOAD SWAP1 POP PUSH0 PUSH1 0x5 DUP2 SWAP1 SSTORE POP PUSH0 PUSH1 0x3 PUSH0 SWAP1 SLOAD SWAP1 PUSH2 0x100 EXP SWAP1 DIV PUSH20 0xFFFFFFFFFFFFFFFFFFFFFFFFFFFFFFFFFFFFFFFF AND PUSH20 0xFFFFFFFFFFFFFFFFFFFFFFFFFFFFFFFFFFFFFFFF AND DUP3 PUSH1 0x40 MLOAD PUSH2 0x78C SWAP1 PUSH2 0x1167 JUMP JUMPDEST PUSH0 PUSH1 0x40 MLOAD DUP1 DUP4 SUB DUP2 DUP6 DUP8 GAS CALL SWAP3 POP POP POP RETURNDATASIZE DUP1 PUSH0 DUP2 EQ PUSH2 0x7C6 JUMPI PUSH1 0x40 MLOAD SWAP2 POP PUSH1 0x1F NOT PUSH1 0x3F RETURNDATASIZE ADD AND DUP3 ADD PUSH1 0x40 MSTORE RETURNDATASIZE DUP3 MSTORE RETURNDATASIZE PUSH0 PUSH1 0x20 DUP5 ADD RETURNDATACOPY PUSH2 0x7CB JUMP JUMPDEST PUSH1 0x60 SWAP2 POP JUMPDEST POP POP SWAP1 POP DUP1 PUSH2 0x80F JUMPI PUSH1 0x40 MLOAD PUSH32 0x8C379A000000000000000000000000000000000000000000000000000000000 DUP2 MSTORE PUSH1 0x4 ADD PUSH2 0x806 SWAP1 PUSH2 0x11C5 JUMP JUMPDEST PUSH1 0x40 MLOAD DUP1 SWAP2 SUB SWAP1 REVERT JUMPDEST POP POP JUMP JUMPDEST PUSH1 0x1 DUP1 SLOAD PUSH2 0x820 SWAP1 PUSH2 0xCB7 JUMP JUMPDEST DUP1 PUSH1 0x1F ADD PUSH1 0x20 DUP1 SWAP2 DIV MUL PUSH1 0x20 ADD PUSH1 0x40 MLOAD SWAP1 DUP2 ADD PUSH1 0x40 MSTORE DUP1 SWAP3 SWAP2 SWAP1 DUP2 DUP2 MSTORE PUSH1 0x20 ADD DUP3 DUP1 SLOAD PUSH2 0x84C SWAP1 PUSH2 0xCB7 JUMP JUMPDEST DUP1 ISZERO PUSH2 0x897 JUMPI DUP1 PUSH1 0x1F LT PUSH2 0x86E JUMPI PUSH2 0x100 DUP1 DUP4 SLOAD DIV MUL DUP4 MSTORE SWAP2 PUSH1 0x20 ADD SWAP2 PUSH2 0x897 JUMP JUMPDEST DUP3 ADD SWAP2 SWAP1 PUSH0 MSTORE PUSH1 0x20 PUSH0 KECCAK256 SWAP1 JUMPDEST DUP2 SLOAD DUP2 MSTORE SWAP1 PUSH1 0x1 ADD SWAP1 PUSH1 0x20 ADD DUP1 DUP4 GT PUSH2 0x87A JUMPI DUP3 SWAP1 SUB PUSH1 0x1F AND DUP3 ADD SWAP2 JUMPDEST POP POP POP POP POP DUP2 JUMP JUMPDEST PUSH0 DUP2 SWAP1 POP SWAP2 SWAP1 POP JUMP JUMPDEST PUSH2 0x8B1 DUP2 PUSH2 0x89F JUMP JUMPDEST DUP3 MSTORE POP POP JUMP JUMPDEST PUSH0 PUSH1 0x20 DUP3 ADD SWAP1 POP PUSH2 0x8CA PUSH0 DUP4 ADD DUP5 PUSH2 0x8A8 JUMP JUMPDEST SWAP3 SWAP2 POP POP JUMP JUMPDEST PUSH0 PUSH1 0x40 MLOAD SWAP1 POP SWAP1 JUMP JUMPDEST PUSH0 PUSH0 REVERT JUMPDEST PUSH0 PUSH0 REVERT JUMPDEST PUSH2 0x8EA DUP2 PUSH2 0x89F JUMP JUMPDEST DUP2 EQ PUSH2 0x8F4 JUMPI PUSH0 PUSH0 REVERT JUMPDEST POP JUMP JUMPDEST PUSH0 DUP2 CALLDATALOAD SWAP1 POP PUSH2 0x905 DUP2 PUSH2 0x8E1 JUMP JUMPDEST SWAP3 SWAP2 POP POP JUMP JUMPDEST PUSH0 PUSH1 0x20 DUP3 DUP5 SUB SLT ISZERO PUSH2 0x920 JUMPI PUSH2 0x91F PUSH2 0x8D9 JUMP JUMPDEST JUMPDEST PUSH0 PUSH2 0x92D DUP5 DUP3 DUP6 ADD PUSH2 0x8F7 JUMP JUMPDEST SWAP2 POP POP SWAP3 SWAP2 POP POP JUMP JUMPDEST PUSH0 DUP2 MLOAD SWAP1 POP SWAP2 SWAP1 POP JUMP JUMPDEST PUSH0 DUP3 DUP3 MSTORE PUSH1 0x20 DUP3 ADD SWAP1 POP SWAP3 SWAP2 POP POP JUMP JUMPDEST DUP3 DUP2 DUP4 MCOPY PUSH0 DUP4 DUP4 ADD MSTORE POP POP POP JUMP JUMPDEST PUSH0 PUSH1 0x1F NOT PUSH1 0x1F DUP4 ADD AND SWAP1 POP SWAP2 SWAP1 POP JUMP JUMPDEST PUSH0 PUSH2 0x978 DUP3 PUSH2 0x936 JUMP JUMPDEST PUSH2 0x982 DUP2 DUP6 PUSH2 0x940 JUMP JUMPDEST SWAP4 POP PUSH2 0x992 DUP2 DUP6 PUSH1 0x20 DUP7 ADD PUSH2 0x950 JUMP JUMPDEST PUSH2 0x99B DUP2 PUSH2 0x95E JUMP JUMPDEST DUP5 ADD SWAP2 POP POP SWAP3 SWAP2 POP POP JUMP JUMPDEST PUSH0 PUSH1 0x40 DUP3 ADD SWAP1 POP DUP2 DUP2 SUB PUSH0 DUP4 ADD MSTORE PUSH2 0x9BE DUP2 DUP6 PUSH2 0x96E JUMP JUMPDEST SWAP1 POP DUP2 DUP2 SUB PUSH1 0x20 DUP4 ADD MSTORE PUSH2 0x9D2 DUP2 DUP5 PUSH2 0x96E JUMP JUMPDEST SWAP1 POP SWAP4 SWAP3 POP POP POP JUMP JUMPDEST PUSH0 PUSH20 0xFFFFFFFFFFFFFFFFFFFFFFFFFFFFFFFFFFFFFFFF DUP3 AND SWAP1 POP SWAP2 SWAP1 POP JUMP JUMPDEST PUSH0 PUSH2 0xA04 DUP3 PUSH2 0x9DB JUMP JUMPDEST SWAP1 POP SWAP2 SWAP1 POP JUMP JUMPDEST PUSH2 0xA14 DUP2 PUSH2 0x9FA JUMP JUMPDEST DUP3 MSTORE POP POP JUMP JUMPDEST PUSH0 PUSH1 0x20 DUP3 ADD SWAP1 POP PUSH2 0xA2D PUSH0 DUP4 ADD DUP5 PUSH2 0xA0B JUMP JUMPDEST SWAP3 SWAP2 POP POP JUMP JUMPDEST PUSH0 PUSH0 REVERT JUMPDEST PUSH0 PUSH0 REVERT JUMPDEST PUSH32 0x4E487B7100000000000000000000000000000000000000000000000000000000 PUSH0 MSTORE PUSH1 0x41 PUSH1 0x4 MSTORE PUSH1 0x24 PUSH0 REVERT JUMPDEST PUSH2 0xA71 DUP3 PUSH2 0x95E JUMP JUMPDEST DUP2 ADD DUP2 DUP2 LT PUSH8 0xFFFFFFFFFFFFFFFF DUP3 GT OR ISZERO PUSH2 0xA90 JUMPI PUSH2 0xA8F PUSH2 0xA3B JUMP JUMPDEST JUMPDEST DUP1 PUSH1 0x40 MSTORE POP POP POP JUMP JUMPDEST PUSH0 PUSH2 0xAA2 PUSH2 0x8D0 JUMP JUMPDEST SWAP1 POP PUSH2 0xAAE DUP3 DUP3 PUSH2 0xA68 JUMP JUMPDEST SWAP2 SWAP1 POP JUMP JUMPDEST PUSH0 PUSH8 0xFFFFFFFFFFFFFFFF DUP3 GT ISZERO PUSH2 0xACD JUMPI PUSH2 0xACC PUSH2 0xA3B JUMP JUMPDEST JUMPDEST PUSH2 0xAD6 DUP3 PUSH2 0x95E JUMP JUMPDEST SWAP1 POP PUSH1 0x20 DUP2 ADD SWAP1 POP SWAP2 SWAP1 POP JUMP JUMPDEST DUP3 DUP2 DUP4 CALLDATACOPY PUSH0 DUP4 DUP4 ADD MSTORE POP POP POP JUMP JUMPDEST PUSH0 PUSH2 0xB03 PUSH2 0xAFE DUP5 PUSH2 0xAB3 JUMP JUMPDEST PUSH2 0xA99 JUMP JUMPDEST SWAP1 POP DUP3 DUP2 MSTORE PUSH1 0x20 DUP2 ADD DUP5 DUP5 DUP5 ADD GT ISZERO PUSH2 0xB1F JUMPI PUSH2 0xB1E PUSH2 0xA37 JUMP JUMPDEST JUMPDEST PUSH2 0xB2A DUP5 DUP3 DUP6 PUSH2 0xAE3 JUMP JUMPDEST POP SWAP4 SWAP3 POP POP POP JUMP JUMPDEST PUSH0 DUP3 PUSH1 0x1F DUP4 ADD SLT PUSH2 0xB46 JUMPI PUSH2 0xB45 PUSH2 0xA33 JUMP JUMPDEST JUMPDEST DUP2 CALLDATALOAD PUSH2 0xB56 DUP5 DUP3 PUSH1 0x20 DUP7 ADD PUSH2 0xAF1 JUMP JUMPDEST SWAP2 POP POP SWAP3 SWAP2 POP POP JUMP JUMPDEST PUSH0 PUSH0 PUSH1 0x40 DUP4 DUP6 SUB SLT ISZERO PUSH2 0xB75 JUMPI PUSH2 0xB74 PUSH2 0x8D9 JUMP JUMPDEST JUMPDEST PUSH0 DUP4 ADD CALLDATALOAD PUSH8 0xFFFFFFFFFFFFFFFF DUP2 GT ISZERO PUSH2 0xB92 JUMPI PUSH2 0xB91 PUSH2 0x8DD JUMP JUMPDEST JUMPDEST PUSH2 0xB9E DUP6 DUP3 DUP7 ADD PUSH2 0xB32 JUMP JUMPDEST SWAP3 POP POP PUSH1 0x20 DUP4 ADD CALLDATALOAD PUSH8 0xFFFFFFFFFFFFFFFF DUP2 GT ISZERO PUSH2 0xBBF JUMPI PUSH2 0xBBE PUSH2 0x8DD JUMP JUMPDEST JUMPDEST PUSH2 0xBCB DUP6 DUP3 DUP7 ADD PUSH2 0xB32 JUMP JUMPDEST SWAP2 POP POP SWAP3 POP SWAP3 SWAP1 POP JUMP JUMPDEST PUSH0 PUSH1 0x20 DUP3 ADD SWAP1 POP DUP2 DUP2 SUB PUSH0 DUP4 ADD MSTORE PUSH2 0xBED DUP2 DUP5 PUSH2 0x96E JUMP JUMPDEST SWAP1 POP SWAP3 SWAP2 POP POP JUMP JUMPDEST PUSH32 0x496E76616C696420696E64657800000000000000000000000000000000000000 PUSH0 DUP3 ADD MSTORE POP JUMP JUMPDEST PUSH0 PUSH2 0xC29 PUSH1 0xD DUP4 PUSH2 0x940 JUMP JUMPDEST SWAP2 POP PUSH2 0xC34 DUP3 PUSH2 0xBF5 JUMP JUMPDEST PUSH1 0x20 DUP3 ADD SWAP1 POP SWAP2 SWAP1 POP JUMP JUMPDEST PUSH0 PUSH1 0x20 DUP3 ADD SWAP1 POP DUP2 DUP2 SUB PUSH0 DUP4 ADD MSTORE PUSH2 0xC56 DUP2 PUSH2 0xC1D JUMP JUMPDEST SWAP1 POP SWAP2 SWAP1 POP JUMP JUMPDEST PUSH32 0x4E487B7100000000000000000000000000000000000000000000000000000000 PUSH0 MSTORE PUSH1 0x32 PUSH1 0x4 MSTORE PUSH1 0x24 PUSH0 REVERT JUMPDEST PUSH32 0x4E487B7100000000000000000000000000000000000000000000000000000000 PUSH0 MSTORE PUSH1 0x22 PUSH1 0x4 MSTORE PUSH1 0x24 PUSH0 REVERT JUMPDEST PUSH0 PUSH1 0x2 DUP3 DIV SWAP1 POP PUSH1 0x1 DUP3 AND DUP1 PUSH2 0xCCE JUMPI PUSH1 0x7F DUP3 AND SWAP2 POP JUMPDEST PUSH1 0x20 DUP3 LT DUP2 SUB PUSH2 0xCE1 JUMPI PUSH2 0xCE0 PUSH2 0xC8A JUMP JUMPDEST JUMPDEST POP SWAP2 SWAP1 POP JUMP JUMPDEST PUSH32 0x53706F6E736F7273686970206D7573742062652067726561746572207468616E PUSH0 DUP3 ADD MSTORE PUSH32 0x20302E0000000000000000000000000000000000000000000000000000000000 PUSH1 0x20 DUP3 ADD MSTORE POP JUMP JUMPDEST PUSH0 PUSH2 0xD41 PUSH1 0x23 DUP4 PUSH2 0x940 JUMP JUMPDEST SWAP2 POP PUSH2 0xD4C DUP3 PUSH2 0xCE7 JUMP JUMPDEST PUSH1 0x40 DUP3 ADD SWAP1 POP SWAP2 SWAP1 POP JUMP JUMPDEST PUSH0 PUSH1 0x20 DUP3 ADD SWAP1 POP DUP2 DUP2 SUB PUSH0 DUP4 ADD MSTORE PUSH2 0xD6E DUP2 PUSH2 0xD35 JUMP JUMPDEST SWAP1 POP SWAP2 SWAP1 POP JUMP JUMPDEST PUSH32 0x4E487B7100000000000000000000000000000000000000000000000000000000 PUSH0 MSTORE PUSH1 0x11 PUSH1 0x4 MSTORE PUSH1 0x24 PUSH0 REVERT JUMPDEST PUSH0 PUSH2 0xDAC DUP3 PUSH2 0x89F JUMP JUMPDEST SWAP2 POP PUSH2 0xDB7 DUP4 PUSH2 0x89F JUMP JUMPDEST SWAP3 POP DUP3 DUP3 ADD SWAP1 POP DUP1 DUP3 GT ISZERO PUSH2 0xDCF JUMPI PUSH2 0xDCE PUSH2 0xD75 JUMP JUMPDEST JUMPDEST SWAP3 SWAP2 POP POP JUMP JUMPDEST PUSH32 0x5065726D697373696F6E2064656E6965642E20596F7520617265206E6F742074 PUSH0 DUP3 ADD MSTORE PUSH32 0x6865206F776E65722E0000000000000000000000000000000000000000000000 PUSH1 0x20 DUP3 ADD MSTORE POP JUMP JUMPDEST PUSH0 PUSH2 0xE2F PUSH1 0x29 DUP4 PUSH2 0x940 JUMP JUMPDEST SWAP2 POP PUSH2 0xE3A DUP3 PUSH2 0xDD5 JUMP JUMPDEST PUSH1 0x40 DUP3 ADD SWAP1 POP SWAP2 SWAP1 POP JUMP JUMPDEST PUSH0 PUSH1 0x20 DUP3 ADD SWAP1 POP DUP2 DUP2 SUB PUSH0 DUP4 ADD MSTORE PUSH2 0xE5C DUP2 PUSH2 0xE23 JUMP JUMPDEST SWAP1 POP SWAP2 SWAP1 POP JUMP JUMPDEST PUSH0 DUP2 SWAP1 POP DUP2 PUSH0 MSTORE PUSH1 0x20 PUSH0 KECCAK256 SWAP1 POP SWAP2 SWAP1 POP JUMP JUMPDEST PUSH0 PUSH1 0x20 PUSH1 0x1F DUP4 ADD DIV SWAP1 POP SWAP2 SWAP1 POP JUMP JUMPDEST PUSH0 DUP3 DUP3 SHL SWAP1 POP SWAP3 SWAP2 POP POP JUMP JUMPDEST PUSH0 PUSH1 0x8 DUP4 MUL PUSH2 0xEBF PUSH32 0xFFFFFFFFFFFFFFFFFFFFFFFFFFFFFFFFFFFFFFFFFFFFFFFFFFFFFFFFFFFFFFFF DUP3 PUSH2 0xE84 JUMP JUMPDEST PUSH2 0xEC9 DUP7 DUP4 PUSH2 0xE84 JUMP JUMPDEST SWAP6 POP DUP1 NOT DUP5 AND SWAP4 POP DUP1 DUP7 AND DUP5 OR SWAP3 POP POP POP SWAP4 SWAP3 POP POP POP JUMP JUMPDEST PUSH0 DUP2 SWAP1 POP SWAP2 SWAP1 POP JUMP JUMPDEST PUSH0 PUSH2 0xF04 PUSH2 0xEFF PUSH2 0xEFA DUP5 PUSH2 0x89F JUMP JUMPDEST PUSH2 0xEE1 JUMP JUMPDEST PUSH2 0x89F JUMP JUMPDEST SWAP1 POP SWAP2 SWAP1 POP JUMP JUMPDEST PUSH0 DUP2 SWAP1 POP SWAP2 SWAP1 POP JUMP JUMPDEST PUSH2 0xF1D DUP4 PUSH2 0xEEA JUMP JUMPDEST PUSH2 0xF31 PUSH2 0xF29 DUP3 PUSH2 0xF0B JUMP JUMPDEST DUP5 DUP5 SLOAD PUSH2 0xE90 JUMP JUMPDEST DUP3 SSTORE POP POP POP POP JUMP JUMPDEST PUSH0 PUSH0 SWAP1 POP SWAP1 JUMP JUMPDEST PUSH2 0xF48 PUSH2 0xF39 JUMP JUMPDEST PUSH2 0xF53 DUP2 DUP5 DUP5 PUSH2 0xF14 JUMP JUMPDEST POP POP POP JUMP JUMPDEST JUMPDEST DUP2 DUP2 LT ISZERO PUSH2 0xF76 JUMPI PUSH2 0xF6B PUSH0 DUP3 PUSH2 0xF40 JUMP JUMPDEST PUSH1 0x1 DUP2 ADD SWAP1 POP PUSH2 0xF59 JUMP JUMPDEST POP POP JUMP JUMPDEST PUSH1 0x1F DUP3 GT ISZERO PUSH2 0xFBB JUMPI PUSH2 0xF8C DUP2 PUSH2 0xE63 JUMP JUMPDEST PUSH2 0xF95 DUP5 PUSH2 0xE75 JUMP JUMPDEST DUP2 ADD PUSH1 0x20 DUP6 LT ISZERO PUSH2 0xFA4 JUMPI DUP2 SWAP1 POP JUMPDEST PUSH2 0xFB8 PUSH2 0xFB0 DUP6 PUSH2 0xE75 JUMP JUMPDEST DUP4 ADD DUP3 PUSH2 0xF58 JUMP JUMPDEST POP POP JUMPDEST POP POP POP JUMP JUMPDEST PUSH0 DUP3 DUP3 SHR SWAP1 POP SWAP3 SWAP2 POP POP JUMP JUMPDEST PUSH0 PUSH2 0xFDB PUSH0 NOT DUP5 PUSH1 0x8 MUL PUSH2 0xFC0 JUMP JUMPDEST NOT DUP1 DUP4 AND SWAP2 POP POP SWAP3 SWAP2 POP POP JUMP JUMPDEST PUSH0 PUSH2 0xFF3 DUP4 DUP4 PUSH2 0xFCC JUMP JUMPDEST SWAP2 POP DUP3 PUSH1 0x2 MUL DUP3 OR SWAP1 POP SWAP3 SWAP2 POP POP JUMP JUMPDEST PUSH2 0x100C DUP3 PUSH2 0x936 JUMP JUMPDEST PUSH8 0xFFFFFFFFFFFFFFFF DUP2 GT ISZERO PUSH2 0x1025 JUMPI PUSH2 0x1024 PUSH2 0xA3B JUMP JUMPDEST JUMPDEST PUSH2 0x102F DUP3 SLOAD PUSH2 0xCB7 JUMP JUMPDEST PUSH2 0x103A DUP3 DUP3 DUP6 PUSH2 0xF7A JUMP JUMPDEST PUSH0 PUSH1 0x20 SWAP1 POP PUSH1 0x1F DUP4 GT PUSH1 0x1 DUP2 EQ PUSH2 0x106B JUMPI PUSH0 DUP5 ISZERO PUSH2 0x1059 JUMPI DUP3 DUP8 ADD MLOAD SWAP1 POP JUMPDEST PUSH2 0x1063 DUP6 DUP3 PUSH2 0xFE8 JUMP JUMPDEST DUP7 SSTORE POP PUSH2 0x10CA JUMP JUMPDEST PUSH1 0x1F NOT DUP5 AND PUSH2 0x1079 DUP7 PUSH2 0xE63 JUMP JUMPDEST PUSH0 JUMPDEST DUP3 DUP2 LT ISZERO PUSH2 0x10A0 JUMPI DUP5 DUP10 ADD MLOAD DUP3 SSTORE PUSH1 0x1 DUP3 ADD SWAP2 POP PUSH1 0x20 DUP6 ADD SWAP5 POP PUSH1 0x20 DUP2 ADD SWAP1 POP PUSH2 0x107B JUMP JUMPDEST DUP7 DUP4 LT ISZERO PUSH2 0x10BD JUMPI DUP5 DUP10 ADD MLOAD PUSH2 0x10B9 PUSH1 0x1F DUP10 AND DUP3 PUSH2 0xFCC JUMP JUMPDEST DUP4 SSTORE POP JUMPDEST PUSH1 0x1 PUSH1 0x2 DUP9 MUL ADD DUP9 SSTORE POP POP POP JUMPDEST POP POP POP POP POP POP JUMP JUMPDEST PUSH32 0x4E6F2066756E647320746F2077697468647261772E0000000000000000000000 PUSH0 DUP3 ADD MSTORE POP JUMP JUMPDEST PUSH0 PUSH2 0x1106 PUSH1 0x15 DUP4 PUSH2 0x940 JUMP JUMPDEST SWAP2 POP PUSH2 0x1111 DUP3 PUSH2 0x10D2 JUMP JUMPDEST PUSH1 0x20 DUP3 ADD SWAP1 POP SWAP2 SWAP1 POP JUMP JUMPDEST PUSH0 PUSH1 0x20 DUP3 ADD SWAP1 POP DUP2 DUP2 SUB PUSH0 DUP4 ADD MSTORE PUSH2 0x1133 DUP2 PUSH2 0x10FA JUMP JUMPDEST SWAP1 POP SWAP2 SWAP1 POP JUMP JUMPDEST PUSH0 DUP2 SWAP1 POP SWAP3 SWAP2 POP POP JUMP JUMPDEST POP JUMP JUMPDEST PUSH0 PUSH2 0x1152 PUSH0 DUP4 PUSH2 0x113A JUMP JUMPDEST SWAP2 POP PUSH2 0x115D DUP3 PUSH2 0x1144 JUMP JUMPDEST PUSH0 DUP3 ADD SWAP1 POP SWAP2 SWAP1 POP JUMP JUMPDEST PUSH0 PUSH2 0x1171 DUP3 PUSH2 0x1147 JUMP JUMPDEST SWAP2 POP DUP2 SWAP1 POP SWAP2 SWAP1 POP JUMP JUMPDEST PUSH32 0x5769746864726177616C206661696C65642E0000000000000000000000000000 PUSH0 DUP3 ADD MSTORE POP JUMP JUMPDEST PUSH0 PUSH2 0x11AF PUSH1 0x12 DUP4 PUSH2 0x940 JUMP JUMPDEST SWAP2 POP PUSH2 0x11BA DUP3 PUSH2 0x117B JUMP JUMPDEST PUSH1 0x20 DUP3 ADD SWAP1 POP SWAP2 SWAP1 POP JUMP JUMPDEST PUSH0 PUSH1 0x20 DUP3 ADD SWAP1 POP DUP2 DUP2 SUB PUSH0 DUP4 ADD MSTORE PUSH2 0x11DC DUP2 PUSH2 0x11A3 JUMP JUMPDEST SWAP1 POP SWAP2 SWAP1 POP JUMP INVALID LOG2 PUSH5 0x6970667358 0x22 SLT KECCAK256 RETURNDATACOPY 0x2D DUP12 PUSH11 0xFF2E5FA035CAD5D2849D6E EXTDELEGATECALL SWAP2 RETURN LT 0xB6 AND BLOBHASH 0xBB MSIZE 0xC5 SLOAD BLOBHASH 0x4E KECCAK256 0xCB RETF 0xAA PUSH5 0x736F6C6343 STOP ADDMOD 0x1E STOP CALLER "
				},
				"gasEstimates": {
					"creation": {
						"codeDepositCost": "926600",
						"executionCost": "infinite",
						"totalCost": "infinite"
					},
					"external": {
						"addStage(string,string)": "infinite",
						"getStage(uint256)": "infinite",
						"getStageCount()": "2441",
						"grapeType()": "infinite",
						"harvestYear()": "infinite",
						"owner()": "2597",
						"quantityKg()": "2470",
						"sponsorWine()": "infinite",
						"totalSponsorship()": "2447",
						"withdrawSponsorship()": "infinite"
					}
				},
				"methodIdentifiers": {
					"addStage(string,string)": "94a76b21",
					"getStage(uint256)": "2e325020",
					"getStageCount()": "16ceaa95",
					"grapeType()": "db3cb581",
					"harvestYear()": "e2b3f6d8",
					"owner()": "8da5cb5b",
					"quantityKg()": "667b6e61",
					"sponsorWine()": "75c59ecd",
					"totalSponsorship()": "b071536d",
					"withdrawSponsorship()": "dbc1f587"
				}
			},
			"storageLayout": {
				"storage": [
					{
						"astId": 8,
						"contract": "contracts/WineTrace.sol:WineTrace",
						"label": "grapeType",
						"offset": 0,
						"slot": "0",
						"type": "t_string_storage"
					},
					{
						"astId": 10,
						"contract": "contracts/WineTrace.sol:WineTrace",
						"label": "harvestYear",
						"offset": 0,
						"slot": "1",
						"type": "t_string_storage"
					},
					{
						"astId": 12,
						"contract": "contracts/WineTrace.sol:WineTrace",
						"label": "quantityKg",
						"offset": 0,
						"slot": "2",
						"type": "t_uint256"
					},
					{
						"astId": 14,
						"contract": "contracts/WineTrace.sol:WineTrace",
						"label": "owner",
						"offset": 0,
						"slot": "3",
						"type": "t_address"
					},
					{
						"astId": 18,
						"contract": "contracts/WineTrace.sol:WineTrace",
						"label": "stages",
						"offset": 0,
						"slot": "4",
						"type": "t_array(t_struct(Stage)6_storage)dyn_storage"
					},
					{
						"astId": 20,
						"contract": "contracts/WineTrace.sol:WineTrace",
						"label": "totalSponsorship",
						"offset": 0,
						"slot": "5",
						"type": "t_uint256"
					}
				],
				"types": {
					"t_address": {
						"encoding": "inplace",
						"label": "address",
						"numberOfBytes": "20"
					},
					"t_array(t_struct(Stage)6_storage)dyn_storage": {
						"base": "t_struct(Stage)6_storage",
						"encoding": "dynamic_array",
						"label": "struct WineTrace.Stage[]",
						"numberOfBytes": "32"
					},
					"t_string_storage": {
						"encoding": "bytes",
						"label": "string",
						"numberOfBytes": "32"
					},
					"t_struct(Stage)6_storage": {
						"encoding": "inplace",
						"label": "struct WineTrace.Stage",
						"members": [
							{
								"astId": 3,
								"contract": "contracts/WineTrace.sol:WineTrace",
								"label": "description",
								"offset": 0,
								"slot": "0",
								"type": "t_string_storage"
							},
							{
								"astId": 5,
								"contract": "contracts/WineTrace.sol:WineTrace",
								"label": "date",
								"offset": 0,
								"slot": "1",
								"type": "t_string_storage"
							}
						],
						"numberOfBytes": "64"
					},
					"t_uint256": {
						"encoding": "inplace",
						"label": "uint256",
						"numberOfBytes": "32"
					}
				}
			},
			"userdoc": {
				"kind": "user",
				"methods": {},
				"version": 1
			}
		}
	}
}