{
	"contracts/WineTrace.sol": {
		"WineTracer": {
			"abi": [
				{
					"inputs": [
						{
							"internalType": "string",
							"name": "_grapeType",
							"type": "string"
						},
						{
							"internalType": "string",
							"name": "_harvestYear",
							"type": "string"
						},
						{
							"internalType": "uint256",
							"name": "_quantityKg",
							"type": "uint256"
						},
						{
							"internalType": "address",
							"name": "_creator",
							"type": "address"
						}
					],
					"stateMutability": "nonpayable",
					"type": "constructor"
				},
				{
					"anonymous": false,
					"inputs": [
						{
							"indexed": false,
							"internalType": "string",
							"name": "description",
							"type": "string"
						},
						{
							"indexed": false,
							"internalType": "string",
							"name": "date",
							"type": "string"
						}
					],
					"name": "NewStage",
					"type": "event"
				},
				{
					"inputs": [
						{
							"internalType": "uint256",
							"name": "index",
							"type": "uint256"
						}
					],
					"name": "getStage",
					"outputs": [
						{
							"internalType": "string",
							"name": "",
							"type": "string"
						},
						{
							"internalType": "string",
							"name": "",
							"type": "string"
						}
					],
					"stateMutability": "view",
					"type": "function"
				},
				{
					"inputs": [],
					"name": "grapeType",
					"outputs": [
						{
							"internalType": "string",
							"name": "",
							"type": "string"
						}
					],
					"stateMutability": "view",
					"type": "function"
				},
				{
					"inputs": [],
					"name": "harvestYear",
					"outputs": [
						{
							"internalType": "string",
							"name": "",
							"type": "string"
						}
					],
					"stateMutability": "view",
					"type": "function"
				},
				{
					"inputs": [],
					"name": "owner",
					"outputs": [
						{
							"internalType": "address",
							"name": "",
							"type": "address"
						}
					],
					"stateMutability": "view",
					"type": "function"
				},
				{
					"inputs": [],
					"name": "quantityKg",
					"outputs": [
						{
							"internalType": "uint256",
							"name": "",
							"type": "uint256"
						}
					],
					"stateMutability": "view",
					"type": "function"
				},
				{
					"inputs": [
						{
							"internalType": "uint256",
							"name": "",
							"type": "uint256"
						}
					],
					"name": "stages",
					"outputs": [
						{
							"internalType": "string",
							"name": "description",
							"type": "string"
						},
						{
							"internalType": "string",
							"name": "date",
							"type": "string"
						}
					],
					"stateMutability": "view",
					"type": "function"
				}
			],
			"devdoc": {
				"kind": "dev",
				"methods": {},
				"version": 1
			},
			"evm": {
				"assembly": "    /* \"contracts/WineTrace.sol\":61:1032  contract WineTracer {... */\n  mstore(0x40, 0x80)\n    /* \"contracts/WineTrace.sol\":507:792  constructor(... */\n  callvalue\n  dup1\n  iszero\n  tag_1\n  jumpi\n  revert(0x00, 0x00)\ntag_1:\n  pop\n  mload(0x40)\n  sub(codesize, bytecodeSize)\n  dup1\n  bytecodeSize\n  dup4\n  codecopy\n  dup2\n  dup2\n  add\n  0x40\n  mstore\n  dup2\n  add\n  swap1\n  tag_2\n  swap2\n  swap1\n  tag_3\n  jump\t// in\ntag_2:\n    /* \"contracts/WineTrace.sol\":675:685  _grapeType */\n  dup4\n    /* \"contracts/WineTrace.sol\":663:672  grapeType */\n  0x00\n    /* \"contracts/WineTrace.sol\":663:685  grapeType = _grapeType */\n  swap1\n  dup2\n  tag_6\n  swap2\n  swap1\n  tag_7\n  jump\t// in\ntag_6:\n  pop\n    /* \"contracts/WineTrace.sol\":710:722  _harvestYear */\n  dup3\n    /* \"contracts/WineTrace.sol\":696:707  harvestYear */\n  0x01\n    /* \"contracts/WineTrace.sol\":696:722  harvestYear = _harvestYear */\n  swap1\n  dup2\n  tag_8\n  swap2\n  swap1\n  tag_7\n  jump\t// in\ntag_8:\n  pop\n    /* \"contracts/WineTrace.sol\":746:757  _quantityKg */\n  dup2\n    /* \"contracts/WineTrace.sol\":733:743  quantityKg */\n  0x02\n    /* \"contracts/WineTrace.sol\":733:757  quantityKg = _quantityKg */\n  dup2\n  swap1\n  sstore\n  pop\n    /* \"contracts/WineTrace.sol\":776:784  _creator */\n  dup1\n    /* \"contracts/WineTrace.sol\":768:773  owner */\n  0x03\n  0x00\n    /* \"contracts/WineTrace.sol\":768:784  owner = _creator */\n  0x0100\n  exp\n  dup2\n  sload\n  dup2\n  0xffffffffffffffffffffffffffffffffffffffff\n  mul\n  not\n  and\n  swap1\n  dup4\n  0xffffffffffffffffffffffffffffffffffffffff\n  and\n  mul\n  or\n  swap1\n  sstore\n  pop\n    /* \"contracts/WineTrace.sol\":507:792  constructor(... */\n  pop\n  pop\n  pop\n  pop\n    /* \"contracts/WineTrace.sol\":61:1032  contract WineTracer {... */\n  jump(tag_9)\n    /* \"#utility.yul\":7:82   */\ntag_10:\n    /* \"#utility.yul\":40:46   */\n  0x00\n    /* \"#utility.yul\":73:75   */\n  0x40\n    /* \"#utility.yul\":67:76   */\n  mload\n    /* \"#utility.yul\":57:76   */\n  swap1\n  pop\n    /* \"#utility.yul\":7:82   */\n  swap1\n  jump\t// out\n    /* \"#utility.yul\":88:205   */\ntag_11:\n    /* \"#utility.yul\":197:198   */\n  0x00\n    /* \"#utility.yul\":194:195   */\n  0x00\n    /* \"#utility.yul\":187:199   */\n  revert\n    /* \"#utility.yul\":211:328   */\ntag_12:\n    /* \"#utility.yul\":320:321   */\n  0x00\n    /* \"#utility.yul\":317:318   */\n  0x00\n    /* \"#utility.yul\":310:322   */\n  revert\n    /* \"#utility.yul\":334:451   */\ntag_13:\n    /* \"#utility.yul\":443:444   */\n  0x00\n    /* \"#utility.yul\":440:441   */\n  0x00\n    /* \"#utility.yul\":433:445   */\n  revert\n    /* \"#utility.yul\":457:574   */\ntag_14:\n    /* \"#utility.yul\":566:567   */\n  0x00\n    /* \"#utility.yul\":563:564   */\n  0x00\n    /* \"#utility.yul\":556:568   */\n  revert\n    /* \"#utility.yul\":580:682   */\ntag_15:\n    /* \"#utility.yul\":621:627   */\n  0x00\n    /* \"#utility.yul\":672:674   */\n  0x1f\n    /* \"#utility.yul\":668:675   */\n  not\n    /* \"#utility.yul\":663:665   */\n  0x1f\n    /* \"#utility.yul\":656:661   */\n  dup4\n    /* \"#utility.yul\":652:666   */\n  add\n    /* \"#utility.yul\":648:676   */\n  and\n    /* \"#utility.yul\":638:676   */\n  swap1\n  pop\n    /* \"#utility.yul\":580:682   */\n  swap2\n  swap1\n  pop\n  jump\t// out\n    /* \"#utility.yul\":688:868   */\ntag_16:\n    /* \"#utility.yul\":736:813   */\n  0x4e487b7100000000000000000000000000000000000000000000000000000000\n    /* \"#utility.yul\":733:734   */\n  0x00\n    /* \"#utility.yul\":726:814   */\n  mstore\n    /* \"#utility.yul\":833:837   */\n  0x41\n    /* \"#utility.yul\":830:831   */\n  0x04\n    /* \"#utility.yul\":823:838   */\n  mstore\n    /* \"#utility.yul\":857:861   */\n  0x24\n    /* \"#utility.yul\":854:855   */\n  0x00\n    /* \"#utility.yul\":847:862   */\n  revert\n    /* \"#utility.yul\":874:1155   */\ntag_17:\n    /* \"#utility.yul\":957:984   */\n  tag_57\n    /* \"#utility.yul\":979:983   */\n  dup3\n    /* \"#utility.yul\":957:984   */\n  tag_15\n  jump\t// in\ntag_57:\n    /* \"#utility.yul\":949:955   */\n  dup2\n    /* \"#utility.yul\":945:985   */\n  add\n    /* \"#utility.yul\":1087:1093   */\n  dup2\n    /* \"#utility.yul\":1075:1085   */\n  dup2\n    /* \"#utility.yul\":1072:1094   */\n  lt\n    /* \"#utility.yul\":1051:1069   */\n  0xffffffffffffffff\n    /* \"#utility.yul\":1039:1049   */\n  dup3\n    /* \"#utility.yul\":1036:1070   */\n  gt\n    /* \"#utility.yul\":1033:1095   */\n  or\n    /* \"#utility.yul\":1030:1118   */\n  iszero\n  tag_58\n  jumpi\n    /* \"#utility.yul\":1098:1116   */\n  tag_59\n  tag_16\n  jump\t// in\ntag_59:\n    /* \"#utility.yul\":1030:1118   */\ntag_58:\n    /* \"#utility.yul\":1138:1148   */\n  dup1\n    /* \"#utility.yul\":1134:1136   */\n  0x40\n    /* \"#utility.yul\":1127:1149   */\n  mstore\n    /* \"#utility.yul\":917:1155   */\n  pop\n    /* \"#utility.yul\":874:1155   */\n  pop\n  pop\n  jump\t// out\n    /* \"#utility.yul\":1161:1290   */\ntag_18:\n    /* \"#utility.yul\":1195:1201   */\n  0x00\n    /* \"#utility.yul\":1222:1242   */\n  tag_61\n  tag_10\n  jump\t// in\ntag_61:\n    /* \"#utility.yul\":1212:1242   */\n  swap1\n  pop\n    /* \"#utility.yul\":1251:1284   */\n  tag_62\n    /* \"#utility.yul\":1279:1283   */\n  dup3\n    /* \"#utility.yul\":1271:1277   */\n  dup3\n    /* \"#utility.yul\":1251:1284   */\n  tag_17\n  jump\t// in\ntag_62:\n    /* \"#utility.yul\":1161:1290   */\n  swap2\n  swap1\n  pop\n  jump\t// out\n    /* \"#utility.yul\":1296:1604   */\ntag_19:\n    /* \"#utility.yul\":1358:1362   */\n  0x00\n    /* \"#utility.yul\":1448:1466   */\n  0xffffffffffffffff\n    /* \"#utility.yul\":1440:1446   */\n  dup3\n    /* \"#utility.yul\":1437:1467   */\n  gt\n    /* \"#utility.yul\":1434:1490   */\n  iszero\n  tag_64\n  jumpi\n    /* \"#utility.yul\":1470:1488   */\n  tag_65\n  tag_16\n  jump\t// in\ntag_65:\n    /* \"#utility.yul\":1434:1490   */\ntag_64:\n    /* \"#utility.yul\":1508:1537   */\n  tag_66\n    /* \"#utility.yul\":1530:1536   */\n  dup3\n    /* \"#utility.yul\":1508:1537   */\n  tag_15\n  jump\t// in\ntag_66:\n    /* \"#utility.yul\":1500:1537   */\n  swap1\n  pop\n    /* \"#utility.yul\":1592:1596   */\n  0x20\n    /* \"#utility.yul\":1586:1590   */\n  dup2\n    /* \"#utility.yul\":1582:1597   */\n  add\n    /* \"#utility.yul\":1574:1597   */\n  swap1\n  pop\n    /* \"#utility.yul\":1296:1604   */\n  swap2\n  swap1\n  pop\n  jump\t// out\n    /* \"#utility.yul\":1610:1749   */\ntag_20:\n    /* \"#utility.yul\":1699:1705   */\n  dup3\n    /* \"#utility.yul\":1694:1697   */\n  dup2\n    /* \"#utility.yul\":1689:1692   */\n  dup4\n    /* \"#utility.yul\":1683:1706   */\n  mcopy\n    /* \"#utility.yul\":1740:1741   */\n  0x00\n    /* \"#utility.yul\":1731:1737   */\n  dup4\n    /* \"#utility.yul\":1726:1729   */\n  dup4\n    /* \"#utility.yul\":1722:1738   */\n  add\n    /* \"#utility.yul\":1715:1742   */\n  mstore\n    /* \"#utility.yul\":1610:1749   */\n  pop\n  pop\n  pop\n  jump\t// out\n    /* \"#utility.yul\":1755:2189   */\ntag_21:\n    /* \"#utility.yul\":1844:1849   */\n  0x00\n    /* \"#utility.yul\":1869:1935   */\n  tag_69\n    /* \"#utility.yul\":1885:1934   */\n  tag_70\n    /* \"#utility.yul\":1927:1933   */\n  dup5\n    /* \"#utility.yul\":1885:1934   */\n  tag_19\n  jump\t// in\ntag_70:\n    /* \"#utility.yul\":1869:1935   */\n  tag_18\n  jump\t// in\ntag_69:\n    /* \"#utility.yul\":1860:1935   */\n  swap1\n  pop\n    /* \"#utility.yul\":1958:1964   */\n  dup3\n    /* \"#utility.yul\":1951:1956   */\n  dup2\n    /* \"#utility.yul\":1944:1965   */\n  mstore\n    /* \"#utility.yul\":1996:2000   */\n  0x20\n    /* \"#utility.yul\":1989:1994   */\n  dup2\n    /* \"#utility.yul\":1985:2001   */\n  add\n    /* \"#utility.yul\":2034:2037   */\n  dup5\n    /* \"#utility.yul\":2025:2031   */\n  dup5\n    /* \"#utility.yul\":2020:2023   */\n  dup5\n    /* \"#utility.yul\":2016:2032   */\n  add\n    /* \"#utility.yul\":2013:2038   */\n  gt\n    /* \"#utility.yul\":2010:2122   */\n  iszero\n  tag_71\n  jumpi\n    /* \"#utility.yul\":2041:2120   */\n  tag_72\n  tag_14\n  jump\t// in\ntag_72:\n    /* \"#utility.yul\":2010:2122   */\ntag_71:\n    /* \"#utility.yul\":2131:2183   */\n  tag_73\n    /* \"#utility.yul\":2176:2182   */\n  dup5\n    /* \"#utility.yul\":2171:2174   */\n  dup3\n    /* \"#utility.yul\":2166:2169   */\n  dup6\n    /* \"#utility.yul\":2131:2183   */\n  tag_20\n  jump\t// in\ntag_73:\n    /* \"#utility.yul\":1850:2189   */\n  pop\n    /* \"#utility.yul\":1755:2189   */\n  swap4\n  swap3\n  pop\n  pop\n  pop\n  jump\t// out\n    /* \"#utility.yul\":2209:2564   */\ntag_22:\n    /* \"#utility.yul\":2276:2281   */\n  0x00\n    /* \"#utility.yul\":2325:2328   */\n  dup3\n    /* \"#utility.yul\":2318:2322   */\n  0x1f\n    /* \"#utility.yul\":2310:2316   */\n  dup4\n    /* \"#utility.yul\":2306:2323   */\n  add\n    /* \"#utility.yul\":2302:2329   */\n  slt\n    /* \"#utility.yul\":2292:2414   */\n  tag_75\n  jumpi\n    /* \"#utility.yul\":2333:2412   */\n  tag_76\n  tag_13\n  jump\t// in\ntag_76:\n    /* \"#utility.yul\":2292:2414   */\ntag_75:\n    /* \"#utility.yul\":2443:2449   */\n  dup2\n    /* \"#utility.yul\":2437:2450   */\n  mload\n    /* \"#utility.yul\":2468:2558   */\n  tag_77\n    /* \"#utility.yul\":2554:2557   */\n  dup5\n    /* \"#utility.yul\":2546:2552   */\n  dup3\n    /* \"#utility.yul\":2539:2543   */\n  0x20\n    /* \"#utility.yul\":2531:2537   */\n  dup7\n    /* \"#utility.yul\":2527:2544   */\n  add\n    /* \"#utility.yul\":2468:2558   */\n  tag_21\n  jump\t// in\ntag_77:\n    /* \"#utility.yul\":2459:2558   */\n  swap2\n  pop\n    /* \"#utility.yul\":2282:2564   */\n  pop\n    /* \"#utility.yul\":2209:2564   */\n  swap3\n  swap2\n  pop\n  pop\n  jump\t// out\n    /* \"#utility.yul\":2570:2647   */\ntag_23:\n    /* \"#utility.yul\":2607:2614   */\n  0x00\n    /* \"#utility.yul\":2636:2641   */\n  dup2\n    /* \"#utility.yul\":2625:2641   */\n  swap1\n  pop\n    /* \"#utility.yul\":2570:2647   */\n  swap2\n  swap1\n  pop\n  jump\t// out\n    /* \"#utility.yul\":2653:2775   */\ntag_24:\n    /* \"#utility.yul\":2726:2750   */\n  tag_80\n    /* \"#utility.yul\":2744:2749   */\n  dup2\n    /* \"#utility.yul\":2726:2750   */\n  tag_23\n  jump\t// in\ntag_80:\n    /* \"#utility.yul\":2719:2724   */\n  dup2\n    /* \"#utility.yul\":2716:2751   */\n  eq\n    /* \"#utility.yul\":2706:2769   */\n  tag_81\n  jumpi\n    /* \"#utility.yul\":2765:2766   */\n  0x00\n    /* \"#utility.yul\":2762:2763   */\n  0x00\n    /* \"#utility.yul\":2755:2767   */\n  revert\n    /* \"#utility.yul\":2706:2769   */\ntag_81:\n    /* \"#utility.yul\":2653:2775   */\n  pop\n  jump\t// out\n    /* \"#utility.yul\":2781:2924   */\ntag_25:\n    /* \"#utility.yul\":2838:2843   */\n  0x00\n    /* \"#utility.yul\":2869:2875   */\n  dup2\n    /* \"#utility.yul\":2863:2876   */\n  mload\n    /* \"#utility.yul\":2854:2876   */\n  swap1\n  pop\n    /* \"#utility.yul\":2885:2918   */\n  tag_83\n    /* \"#utility.yul\":2912:2917   */\n  dup2\n    /* \"#utility.yul\":2885:2918   */\n  tag_24\n  jump\t// in\ntag_83:\n    /* \"#utility.yul\":2781:2924   */\n  swap3\n  swap2\n  pop\n  pop\n  jump\t// out\n    /* \"#utility.yul\":2930:3056   */\ntag_26:\n    /* \"#utility.yul\":2967:2974   */\n  0x00\n    /* \"#utility.yul\":3007:3049   */\n  0xffffffffffffffffffffffffffffffffffffffff\n    /* \"#utility.yul\":3000:3005   */\n  dup3\n    /* \"#utility.yul\":2996:3050   */\n  and\n    /* \"#utility.yul\":2985:3050   */\n  swap1\n  pop\n    /* \"#utility.yul\":2930:3056   */\n  swap2\n  swap1\n  pop\n  jump\t// out\n    /* \"#utility.yul\":3062:3158   */\ntag_27:\n    /* \"#utility.yul\":3099:3106   */\n  0x00\n    /* \"#utility.yul\":3128:3152   */\n  tag_86\n    /* \"#utility.yul\":3146:3151   */\n  dup3\n    /* \"#utility.yul\":3128:3152   */\n  tag_26\n  jump\t// in\ntag_86:\n    /* \"#utility.yul\":3117:3152   */\n  swap1\n  pop\n    /* \"#utility.yul\":3062:3158   */\n  swap2\n  swap1\n  pop\n  jump\t// out\n    /* \"#utility.yul\":3164:3286   */\ntag_28:\n    /* \"#utility.yul\":3237:3261   */\n  tag_88\n    /* \"#utility.yul\":3255:3260   */\n  dup2\n    /* \"#utility.yul\":3237:3261   */\n  tag_27\n  jump\t// in\ntag_88:\n    /* \"#utility.yul\":3230:3235   */\n  dup2\n    /* \"#utility.yul\":3227:3262   */\n  eq\n    /* \"#utility.yul\":3217:3280   */\n  tag_89\n  jumpi\n    /* \"#utility.yul\":3276:3277   */\n  0x00\n    /* \"#utility.yul\":3273:3274   */\n  0x00\n    /* \"#utility.yul\":3266:3278   */\n  revert\n    /* \"#utility.yul\":3217:3280   */\ntag_89:\n    /* \"#utility.yul\":3164:3286   */\n  pop\n  jump\t// out\n    /* \"#utility.yul\":3292:3435   */\ntag_29:\n    /* \"#utility.yul\":3349:3354   */\n  0x00\n    /* \"#utility.yul\":3380:3386   */\n  dup2\n    /* \"#utility.yul\":3374:3387   */\n  mload\n    /* \"#utility.yul\":3365:3387   */\n  swap1\n  pop\n    /* \"#utility.yul\":3396:3429   */\n  tag_91\n    /* \"#utility.yul\":3423:3428   */\n  dup2\n    /* \"#utility.yul\":3396:3429   */\n  tag_28\n  jump\t// in\ntag_91:\n    /* \"#utility.yul\":3292:3435   */\n  swap3\n  swap2\n  pop\n  pop\n  jump\t// out\n    /* \"#utility.yul\":3441:4607   */\ntag_3:\n    /* \"#utility.yul\":3558:3564   */\n  0x00\n    /* \"#utility.yul\":3566:3572   */\n  0x00\n    /* \"#utility.yul\":3574:3580   */\n  0x00\n    /* \"#utility.yul\":3582:3588   */\n  0x00\n    /* \"#utility.yul\":3631:3634   */\n  0x80\n    /* \"#utility.yul\":3619:3628   */\n  dup6\n    /* \"#utility.yul\":3610:3617   */\n  dup8\n    /* \"#utility.yul\":3606:3629   */\n  sub\n    /* \"#utility.yul\":3602:3635   */\n  slt\n    /* \"#utility.yul\":3599:3719   */\n  iszero\n  tag_93\n  jumpi\n    /* \"#utility.yul\":3638:3717   */\n  tag_94\n  tag_11\n  jump\t// in\ntag_94:\n    /* \"#utility.yul\":3599:3719   */\ntag_93:\n    /* \"#utility.yul\":3779:3780   */\n  0x00\n    /* \"#utility.yul\":3768:3777   */\n  dup6\n    /* \"#utility.yul\":3764:3781   */\n  add\n    /* \"#utility.yul\":3758:3782   */\n  mload\n    /* \"#utility.yul\":3809:3827   */\n  0xffffffffffffffff\n    /* \"#utility.yul\":3801:3807   */\n  dup2\n    /* \"#utility.yul\":3798:3828   */\n  gt\n    /* \"#utility.yul\":3795:3912   */\n  iszero\n  tag_95\n  jumpi\n    /* \"#utility.yul\":3831:3910   */\n  tag_96\n  tag_12\n  jump\t// in\ntag_96:\n    /* \"#utility.yul\":3795:3912   */\ntag_95:\n    /* \"#utility.yul\":3936:4010   */\n  tag_97\n    /* \"#utility.yul\":4002:4009   */\n  dup8\n    /* \"#utility.yul\":3993:3999   */\n  dup3\n    /* \"#utility.yul\":3982:3991   */\n  dup9\n    /* \"#utility.yul\":3978:4000   */\n  add\n    /* \"#utility.yul\":3936:4010   */\n  tag_22\n  jump\t// in\ntag_97:\n    /* \"#utility.yul\":3926:4010   */\n  swap5\n  pop\n    /* \"#utility.yul\":3729:4020   */\n  pop\n    /* \"#utility.yul\":4080:4082   */\n  0x20\n    /* \"#utility.yul\":4069:4078   */\n  dup6\n    /* \"#utility.yul\":4065:4083   */\n  add\n    /* \"#utility.yul\":4059:4084   */\n  mload\n    /* \"#utility.yul\":4111:4129   */\n  0xffffffffffffffff\n    /* \"#utility.yul\":4103:4109   */\n  dup2\n    /* \"#utility.yul\":4100:4130   */\n  gt\n    /* \"#utility.yul\":4097:4214   */\n  iszero\n  tag_98\n  jumpi\n    /* \"#utility.yul\":4133:4212   */\n  tag_99\n  tag_12\n  jump\t// in\ntag_99:\n    /* \"#utility.yul\":4097:4214   */\ntag_98:\n    /* \"#utility.yul\":4238:4312   */\n  tag_100\n    /* \"#utility.yul\":4304:4311   */\n  dup8\n    /* \"#utility.yul\":4295:4301   */\n  dup3\n    /* \"#utility.yul\":4284:4293   */\n  dup9\n    /* \"#utility.yul\":4280:4302   */\n  add\n    /* \"#utility.yul\":4238:4312   */\n  tag_22\n  jump\t// in\ntag_100:\n    /* \"#utility.yul\":4228:4312   */\n  swap4\n  pop\n    /* \"#utility.yul\":4030:4322   */\n  pop\n    /* \"#utility.yul\":4361:4363   */\n  0x40\n    /* \"#utility.yul\":4387:4451   */\n  tag_101\n    /* \"#utility.yul\":4443:4450   */\n  dup8\n    /* \"#utility.yul\":4434:4440   */\n  dup3\n    /* \"#utility.yul\":4423:4432   */\n  dup9\n    /* \"#utility.yul\":4419:4441   */\n  add\n    /* \"#utility.yul\":4387:4451   */\n  tag_25\n  jump\t// in\ntag_101:\n    /* \"#utility.yul\":4377:4451   */\n  swap3\n  pop\n    /* \"#utility.yul\":4332:4461   */\n  pop\n    /* \"#utility.yul\":4500:4502   */\n  0x60\n    /* \"#utility.yul\":4526:4590   */\n  tag_102\n    /* \"#utility.yul\":4582:4589   */\n  dup8\n    /* \"#utility.yul\":4573:4579   */\n  dup3\n    /* \"#utility.yul\":4562:4571   */\n  dup9\n    /* \"#utility.yul\":4558:4580   */\n  add\n    /* \"#utility.yul\":4526:4590   */\n  tag_29\n  jump\t// in\ntag_102:\n    /* \"#utility.yul\":4516:4590   */\n  swap2\n  pop\n    /* \"#utility.yul\":4471:4600   */\n  pop\n    /* \"#utility.yul\":3441:4607   */\n  swap3\n  swap6\n  swap2\n  swap5\n  pop\n  swap3\n  pop\n  jump\t// out\n    /* \"#utility.yul\":4613:4712   */\ntag_30:\n    /* \"#utility.yul\":4665:4671   */\n  0x00\n    /* \"#utility.yul\":4699:4704   */\n  dup2\n    /* \"#utility.yul\":4693:4705   */\n  mload\n    /* \"#utility.yul\":4683:4705   */\n  swap1\n  pop\n    /* \"#utility.yul\":4613:4712   */\n  swap2\n  swap1\n  pop\n  jump\t// out\n    /* \"#utility.yul\":4718:4898   */\ntag_31:\n    /* \"#utility.yul\":4766:4843   */\n  0x4e487b7100000000000000000000000000000000000000000000000000000000\n    /* \"#utility.yul\":4763:4764   */\n  0x00\n    /* \"#utility.yul\":4756:4844   */\n  mstore\n    /* \"#utility.yul\":4863:4867   */\n  0x22\n    /* \"#utility.yul\":4860:4861   */\n  0x04\n    /* \"#utility.yul\":4853:4868   */\n  mstore\n    /* \"#utility.yul\":4887:4891   */\n  0x24\n    /* \"#utility.yul\":4884:4885   */\n  0x00\n    /* \"#utility.yul\":4877:4892   */\n  revert\n    /* \"#utility.yul\":4904:5224   */\ntag_32:\n    /* \"#utility.yul\":4948:4954   */\n  0x00\n    /* \"#utility.yul\":4985:4986   */\n  0x02\n    /* \"#utility.yul\":4979:4983   */\n  dup3\n    /* \"#utility.yul\":4975:4987   */\n  div\n    /* \"#utility.yul\":4965:4987   */\n  swap1\n  pop\n    /* \"#utility.yul\":5032:5033   */\n  0x01\n    /* \"#utility.yul\":5026:5030   */\n  dup3\n    /* \"#utility.yul\":5022:5034   */\n  and\n    /* \"#utility.yul\":5053:5071   */\n  dup1\n    /* \"#utility.yul\":5043:5124   */\n  tag_106\n  jumpi\n    /* \"#utility.yul\":5109:5113   */\n  0x7f\n    /* \"#utility.yul\":5101:5107   */\n  dup3\n    /* \"#utility.yul\":5097:5114   */\n  and\n    /* \"#utility.yul\":5087:5114   */\n  swap2\n  pop\n    /* \"#utility.yul\":5043:5124   */\ntag_106:\n    /* \"#utility.yul\":5171:5173   */\n  0x20\n    /* \"#utility.yul\":5163:5169   */\n  dup3\n    /* \"#utility.yul\":5160:5174   */\n  lt\n    /* \"#utility.yul\":5140:5158   */\n  dup2\n    /* \"#utility.yul\":5137:5175   */\n  sub\n    /* \"#utility.yul\":5134:5218   */\n  tag_107\n  jumpi\n    /* \"#utility.yul\":5190:5208   */\n  tag_108\n  tag_31\n  jump\t// in\ntag_108:\n    /* \"#utility.yul\":5134:5218   */\ntag_107:\n    /* \"#utility.yul\":4955:5224   */\n  pop\n    /* \"#utility.yul\":4904:5224   */\n  swap2\n  swap1\n  pop\n  jump\t// out\n    /* \"#utility.yul\":5230:5371   */\ntag_33:\n    /* \"#utility.yul\":5279:5283   */\n  0x00\n    /* \"#utility.yul\":5302:5305   */\n  dup2\n    /* \"#utility.yul\":5294:5305   */\n  swap1\n  pop\n    /* \"#utility.yul\":5325:5328   */\n  dup2\n    /* \"#utility.yul\":5322:5323   */\n  0x00\n    /* \"#utility.yul\":5315:5329   */\n  mstore\n    /* \"#utility.yul\":5359:5363   */\n  0x20\n    /* \"#utility.yul\":5356:5357   */\n  0x00\n    /* \"#utility.yul\":5346:5364   */\n  keccak256\n    /* \"#utility.yul\":5338:5364   */\n  swap1\n  pop\n    /* \"#utility.yul\":5230:5371   */\n  swap2\n  swap1\n  pop\n  jump\t// out\n    /* \"#utility.yul\":5377:5470   */\ntag_34:\n    /* \"#utility.yul\":5414:5420   */\n  0x00\n    /* \"#utility.yul\":5461:5463   */\n  0x20\n    /* \"#utility.yul\":5456:5458   */\n  0x1f\n    /* \"#utility.yul\":5449:5454   */\n  dup4\n    /* \"#utility.yul\":5445:5459   */\n  add\n    /* \"#utility.yul\":5441:5464   */\n  div\n    /* \"#utility.yul\":5431:5464   */\n  swap1\n  pop\n    /* \"#utility.yul\":5377:5470   */\n  swap2\n  swap1\n  pop\n  jump\t// out\n    /* \"#utility.yul\":5476:5583   */\ntag_35:\n    /* \"#utility.yul\":5520:5528   */\n  0x00\n    /* \"#utility.yul\":5570:5575   */\n  dup3\n    /* \"#utility.yul\":5564:5568   */\n  dup3\n    /* \"#utility.yul\":5560:5576   */\n  shl\n    /* \"#utility.yul\":5539:5576   */\n  swap1\n  pop\n    /* \"#utility.yul\":5476:5583   */\n  swap3\n  swap2\n  pop\n  pop\n  jump\t// out\n    /* \"#utility.yul\":5589:5982   */\ntag_36:\n    /* \"#utility.yul\":5658:5664   */\n  0x00\n    /* \"#utility.yul\":5708:5709   */\n  0x08\n    /* \"#utility.yul\":5696:5706   */\n  dup4\n    /* \"#utility.yul\":5692:5710   */\n  mul\n    /* \"#utility.yul\":5731:5828   */\n  tag_113\n    /* \"#utility.yul\":5761:5827   */\n  0xffffffffffffffffffffffffffffffffffffffffffffffffffffffffffffffff\n    /* \"#utility.yul\":5750:5759   */\n  dup3\n    /* \"#utility.yul\":5731:5828   */\n  tag_35\n  jump\t// in\ntag_113:\n    /* \"#utility.yul\":5849:5888   */\n  tag_114\n    /* \"#utility.yul\":5879:5887   */\n  dup7\n    /* \"#utility.yul\":5868:5877   */\n  dup4\n    /* \"#utility.yul\":5849:5888   */\n  tag_35\n  jump\t// in\ntag_114:\n    /* \"#utility.yul\":5837:5888   */\n  swap6\n  pop\n    /* \"#utility.yul\":5921:5925   */\n  dup1\n    /* \"#utility.yul\":5917:5926   */\n  not\n    /* \"#utility.yul\":5910:5915   */\n  dup5\n    /* \"#utility.yul\":5906:5927   */\n  and\n    /* \"#utility.yul\":5897:5927   */\n  swap4\n  pop\n    /* \"#utility.yul\":5970:5974   */\n  dup1\n    /* \"#utility.yul\":5960:5968   */\n  dup7\n    /* \"#utility.yul\":5956:5975   */\n  and\n    /* \"#utility.yul\":5949:5954   */\n  dup5\n    /* \"#utility.yul\":5946:5976   */\n  or\n    /* \"#utility.yul\":5936:5976   */\n  swap3\n  pop\n    /* \"#utility.yul\":5665:5982   */\n  pop\n  pop\n    /* \"#utility.yul\":5589:5982   */\n  swap4\n  swap3\n  pop\n  pop\n  pop\n  jump\t// out\n    /* \"#utility.yul\":5988:6048   */\ntag_37:\n    /* \"#utility.yul\":6016:6019   */\n  0x00\n    /* \"#utility.yul\":6037:6042   */\n  dup2\n    /* \"#utility.yul\":6030:6042   */\n  swap1\n  pop\n    /* \"#utility.yul\":5988:6048   */\n  swap2\n  swap1\n  pop\n  jump\t// out\n    /* \"#utility.yul\":6054:6196   */\ntag_38:\n    /* \"#utility.yul\":6104:6113   */\n  0x00\n    /* \"#utility.yul\":6137:6190   */\n  tag_117\n    /* \"#utility.yul\":6155:6189   */\n  tag_118\n    /* \"#utility.yul\":6164:6188   */\n  tag_119\n    /* \"#utility.yul\":6182:6187   */\n  dup5\n    /* \"#utility.yul\":6164:6188   */\n  tag_23\n  jump\t// in\ntag_119:\n    /* \"#utility.yul\":6155:6189   */\n  tag_37\n  jump\t// in\ntag_118:\n    /* \"#utility.yul\":6137:6190   */\n  tag_23\n  jump\t// in\ntag_117:\n    /* \"#utility.yul\":6124:6190   */\n  swap1\n  pop\n    /* \"#utility.yul\":6054:6196   */\n  swap2\n  swap1\n  pop\n  jump\t// out\n    /* \"#utility.yul\":6202:6277   */\ntag_39:\n    /* \"#utility.yul\":6245:6248   */\n  0x00\n    /* \"#utility.yul\":6266:6271   */\n  dup2\n    /* \"#utility.yul\":6259:6271   */\n  swap1\n  pop\n    /* \"#utility.yul\":6202:6277   */\n  swap2\n  swap1\n  pop\n  jump\t// out\n    /* \"#utility.yul\":6283:6552   */\ntag_40:\n    /* \"#utility.yul\":6393:6432   */\n  tag_122\n    /* \"#utility.yul\":6424:6431   */\n  dup4\n    /* \"#utility.yul\":6393:6432   */\n  tag_38\n  jump\t// in\ntag_122:\n    /* \"#utility.yul\":6454:6545   */\n  tag_123\n    /* \"#utility.yul\":6503:6544   */\n  tag_124\n    /* \"#utility.yul\":6527:6543   */\n  dup3\n    /* \"#utility.yul\":6503:6544   */\n  tag_39\n  jump\t// in\ntag_124:\n    /* \"#utility.yul\":6495:6501   */\n  dup5\n    /* \"#utility.yul\":6488:6492   */\n  dup5\n    /* \"#utility.yul\":6482:6493   */\n  sload\n    /* \"#utility.yul\":6454:6545   */\n  tag_36\n  jump\t// in\ntag_123:\n    /* \"#utility.yul\":6448:6452   */\n  dup3\n    /* \"#utility.yul\":6441:6546   */\n  sstore\n    /* \"#utility.yul\":6359:6552   */\n  pop\n    /* \"#utility.yul\":6283:6552   */\n  pop\n  pop\n  pop\n  jump\t// out\n    /* \"#utility.yul\":6558:6631   */\ntag_41:\n    /* \"#utility.yul\":6603:6606   */\n  0x00\n    /* \"#utility.yul\":6624:6625   */\n  0x00\n    /* \"#utility.yul\":6617:6625   */\n  swap1\n  pop\n    /* \"#utility.yul\":6558:6631   */\n  swap1\n  jump\t// out\n    /* \"#utility.yul\":6637:6826   */\ntag_42:\n    /* \"#utility.yul\":6714:6746   */\n  tag_127\n  tag_41\n  jump\t// in\ntag_127:\n    /* \"#utility.yul\":6755:6820   */\n  tag_128\n    /* \"#utility.yul\":6813:6819   */\n  dup2\n    /* \"#utility.yul\":6805:6811   */\n  dup5\n    /* \"#utility.yul\":6799:6803   */\n  dup5\n    /* \"#utility.yul\":6755:6820   */\n  tag_40\n  jump\t// in\ntag_128:\n    /* \"#utility.yul\":6690:6826   */\n  pop\n    /* \"#utility.yul\":6637:6826   */\n  pop\n  pop\n  jump\t// out\n    /* \"#utility.yul\":6832:7018   */\ntag_43:\n    /* \"#utility.yul\":6892:7012   */\ntag_130:\n    /* \"#utility.yul\":6909:6912   */\n  dup2\n    /* \"#utility.yul\":6902:6907   */\n  dup2\n    /* \"#utility.yul\":6899:6913   */\n  lt\n    /* \"#utility.yul\":6892:7012   */\n  iszero\n  tag_132\n  jumpi\n    /* \"#utility.yul\":6963:7002   */\n  tag_133\n    /* \"#utility.yul\":7000:7001   */\n  0x00\n    /* \"#utility.yul\":6993:6998   */\n  dup3\n    /* \"#utility.yul\":6963:7002   */\n  tag_42\n  jump\t// in\ntag_133:\n    /* \"#utility.yul\":6936:6937   */\n  0x01\n    /* \"#utility.yul\":6929:6934   */\n  dup2\n    /* \"#utility.yul\":6925:6938   */\n  add\n    /* \"#utility.yul\":6916:6938   */\n  swap1\n  pop\n    /* \"#utility.yul\":6892:7012   */\n  jump(tag_130)\ntag_132:\n    /* \"#utility.yul\":6832:7018   */\n  pop\n  pop\n  jump\t// out\n    /* \"#utility.yul\":7024:7567   */\ntag_44:\n    /* \"#utility.yul\":7125:7127   */\n  0x1f\n    /* \"#utility.yul\":7120:7123   */\n  dup3\n    /* \"#utility.yul\":7117:7128   */\n  gt\n    /* \"#utility.yul\":7114:7560   */\n  iszero\n  tag_135\n  jumpi\n    /* \"#utility.yul\":7159:7197   */\n  tag_136\n    /* \"#utility.yul\":7191:7196   */\n  dup2\n    /* \"#utility.yul\":7159:7197   */\n  tag_33\n  jump\t// in\ntag_136:\n    /* \"#utility.yul\":7243:7272   */\n  tag_137\n    /* \"#utility.yul\":7261:7271   */\n  dup5\n    /* \"#utility.yul\":7243:7272   */\n  tag_34\n  jump\t// in\ntag_137:\n    /* \"#utility.yul\":7233:7241   */\n  dup2\n    /* \"#utility.yul\":7229:7273   */\n  add\n    /* \"#utility.yul\":7426:7428   */\n  0x20\n    /* \"#utility.yul\":7414:7424   */\n  dup6\n    /* \"#utility.yul\":7411:7429   */\n  lt\n    /* \"#utility.yul\":7408:7457   */\n  iszero\n  tag_138\n  jumpi\n    /* \"#utility.yul\":7447:7455   */\n  dup2\n    /* \"#utility.yul\":7432:7455   */\n  swap1\n  pop\n    /* \"#utility.yul\":7408:7457   */\ntag_138:\n    /* \"#utility.yul\":7470:7550   */\n  tag_139\n    /* \"#utility.yul\":7526:7548   */\n  tag_140\n    /* \"#utility.yul\":7544:7547   */\n  dup6\n    /* \"#utility.yul\":7526:7548   */\n  tag_34\n  jump\t// in\ntag_140:\n    /* \"#utility.yul\":7516:7524   */\n  dup4\n    /* \"#utility.yul\":7512:7549   */\n  add\n    /* \"#utility.yul\":7499:7510   */\n  dup3\n    /* \"#utility.yul\":7470:7550   */\n  tag_43\n  jump\t// in\ntag_139:\n    /* \"#utility.yul\":7129:7560   */\n  pop\n  pop\n    /* \"#utility.yul\":7114:7560   */\ntag_135:\n    /* \"#utility.yul\":7024:7567   */\n  pop\n  pop\n  pop\n  jump\t// out\n    /* \"#utility.yul\":7573:7690   */\ntag_45:\n    /* \"#utility.yul\":7627:7635   */\n  0x00\n    /* \"#utility.yul\":7677:7682   */\n  dup3\n    /* \"#utility.yul\":7671:7675   */\n  dup3\n    /* \"#utility.yul\":7667:7683   */\n  shr\n    /* \"#utility.yul\":7646:7683   */\n  swap1\n  pop\n    /* \"#utility.yul\":7573:7690   */\n  swap3\n  swap2\n  pop\n  pop\n  jump\t// out\n    /* \"#utility.yul\":7696:7865   */\ntag_46:\n    /* \"#utility.yul\":7740:7746   */\n  0x00\n    /* \"#utility.yul\":7773:7824   */\n  tag_143\n    /* \"#utility.yul\":7821:7822   */\n  0x00\n    /* \"#utility.yul\":7817:7823   */\n  not\n    /* \"#utility.yul\":7809:7814   */\n  dup5\n    /* \"#utility.yul\":7806:7807   */\n  0x08\n    /* \"#utility.yul\":7802:7815   */\n  mul\n    /* \"#utility.yul\":7773:7824   */\n  tag_45\n  jump\t// in\ntag_143:\n    /* \"#utility.yul\":7769:7825   */\n  not\n    /* \"#utility.yul\":7854:7858   */\n  dup1\n    /* \"#utility.yul\":7848:7852   */\n  dup4\n    /* \"#utility.yul\":7844:7859   */\n  and\n    /* \"#utility.yul\":7834:7859   */\n  swap2\n  pop\n    /* \"#utility.yul\":7747:7865   */\n  pop\n    /* \"#utility.yul\":7696:7865   */\n  swap3\n  swap2\n  pop\n  pop\n  jump\t// out\n    /* \"#utility.yul\":7870:8165   */\ntag_47:\n    /* \"#utility.yul\":7946:7950   */\n  0x00\n    /* \"#utility.yul\":8092:8121   */\n  tag_145\n    /* \"#utility.yul\":8117:8120   */\n  dup4\n    /* \"#utility.yul\":8111:8115   */\n  dup4\n    /* \"#utility.yul\":8092:8121   */\n  tag_46\n  jump\t// in\ntag_145:\n    /* \"#utility.yul\":8084:8121   */\n  swap2\n  pop\n    /* \"#utility.yul\":8154:8157   */\n  dup3\n    /* \"#utility.yul\":8151:8152   */\n  0x02\n    /* \"#utility.yul\":8147:8158   */\n  mul\n    /* \"#utility.yul\":8141:8145   */\n  dup3\n    /* \"#utility.yul\":8138:8159   */\n  or\n    /* \"#utility.yul\":8130:8159   */\n  swap1\n  pop\n    /* \"#utility.yul\":7870:8165   */\n  swap3\n  swap2\n  pop\n  pop\n  jump\t// out\n    /* \"#utility.yul\":8170:9565   */\ntag_7:\n    /* \"#utility.yul\":8287:8324   */\n  tag_147\n    /* \"#utility.yul\":8320:8323   */\n  dup3\n    /* \"#utility.yul\":8287:8324   */\n  tag_30\n  jump\t// in\ntag_147:\n    /* \"#utility.yul\":8389:8407   */\n  0xffffffffffffffff\n    /* \"#utility.yul\":8381:8387   */\n  dup2\n    /* \"#utility.yul\":8378:8408   */\n  gt\n    /* \"#utility.yul\":8375:8431   */\n  iszero\n  tag_148\n  jumpi\n    /* \"#utility.yul\":8411:8429   */\n  tag_149\n  tag_16\n  jump\t// in\ntag_149:\n    /* \"#utility.yul\":8375:8431   */\ntag_148:\n    /* \"#utility.yul\":8455:8493   */\n  tag_150\n    /* \"#utility.yul\":8487:8491   */\n  dup3\n    /* \"#utility.yul\":8481:8492   */\n  sload\n    /* \"#utility.yul\":8455:8493   */\n  tag_32\n  jump\t// in\ntag_150:\n    /* \"#utility.yul\":8540:8607   */\n  tag_151\n    /* \"#utility.yul\":8600:8606   */\n  dup3\n    /* \"#utility.yul\":8592:8598   */\n  dup3\n    /* \"#utility.yul\":8586:8590   */\n  dup6\n    /* \"#utility.yul\":8540:8607   */\n  tag_44\n  jump\t// in\ntag_151:\n    /* \"#utility.yul\":8634:8635   */\n  0x00\n    /* \"#utility.yul\":8658:8662   */\n  0x20\n    /* \"#utility.yul\":8645:8662   */\n  swap1\n  pop\n    /* \"#utility.yul\":8690:8692   */\n  0x1f\n    /* \"#utility.yul\":8682:8688   */\n  dup4\n    /* \"#utility.yul\":8679:8693   */\n  gt\n    /* \"#utility.yul\":8707:8708   */\n  0x01\n    /* \"#utility.yul\":8702:9320   */\n  dup2\n  eq\n  tag_153\n  jumpi\n    /* \"#utility.yul\":9364:9365   */\n  0x00\n    /* \"#utility.yul\":9381:9387   */\n  dup5\n    /* \"#utility.yul\":9378:9455   */\n  iszero\n  tag_154\n  jumpi\n    /* \"#utility.yul\":9430:9439   */\n  dup3\n    /* \"#utility.yul\":9425:9428   */\n  dup8\n    /* \"#utility.yul\":9421:9440   */\n  add\n    /* \"#utility.yul\":9415:9441   */\n  mload\n    /* \"#utility.yul\":9406:9441   */\n  swap1\n  pop\n    /* \"#utility.yul\":9378:9455   */\ntag_154:\n    /* \"#utility.yul\":9481:9548   */\n  tag_155\n    /* \"#utility.yul\":9541:9547   */\n  dup6\n    /* \"#utility.yul\":9534:9539   */\n  dup3\n    /* \"#utility.yul\":9481:9548   */\n  tag_47\n  jump\t// in\ntag_155:\n    /* \"#utility.yul\":9475:9479   */\n  dup7\n    /* \"#utility.yul\":9468:9549   */\n  sstore\n    /* \"#utility.yul\":9337:9559   */\n  pop\n    /* \"#utility.yul\":8672:9559   */\n  jump(tag_152)\n    /* \"#utility.yul\":8702:9320   */\ntag_153:\n    /* \"#utility.yul\":8754:8758   */\n  0x1f\n    /* \"#utility.yul\":8750:8759   */\n  not\n    /* \"#utility.yul\":8742:8748   */\n  dup5\n    /* \"#utility.yul\":8738:8760   */\n  and\n    /* \"#utility.yul\":8788:8825   */\n  tag_156\n    /* \"#utility.yul\":8820:8824   */\n  dup7\n    /* \"#utility.yul\":8788:8825   */\n  tag_33\n  jump\t// in\ntag_156:\n    /* \"#utility.yul\":8847:8848   */\n  0x00\n    /* \"#utility.yul\":8861:9069   */\ntag_157:\n    /* \"#utility.yul\":8875:8882   */\n  dup3\n    /* \"#utility.yul\":8872:8873   */\n  dup2\n    /* \"#utility.yul\":8869:8883   */\n  lt\n    /* \"#utility.yul\":8861:9069   */\n  iszero\n  tag_159\n  jumpi\n    /* \"#utility.yul\":8954:8963   */\n  dup5\n    /* \"#utility.yul\":8949:8952   */\n  dup10\n    /* \"#utility.yul\":8945:8964   */\n  add\n    /* \"#utility.yul\":8939:8965   */\n  mload\n    /* \"#utility.yul\":8931:8937   */\n  dup3\n    /* \"#utility.yul\":8924:8966   */\n  sstore\n    /* \"#utility.yul\":9005:9006   */\n  0x01\n    /* \"#utility.yul\":8997:9003   */\n  dup3\n    /* \"#utility.yul\":8993:9007   */\n  add\n    /* \"#utility.yul\":8983:9007   */\n  swap2\n  pop\n    /* \"#utility.yul\":9052:9054   */\n  0x20\n    /* \"#utility.yul\":9041:9050   */\n  dup6\n    /* \"#utility.yul\":9037:9055   */\n  add\n    /* \"#utility.yul\":9024:9055   */\n  swap5\n  pop\n    /* \"#utility.yul\":8898:8902   */\n  0x20\n    /* \"#utility.yul\":8895:8896   */\n  dup2\n    /* \"#utility.yul\":8891:8903   */\n  add\n    /* \"#utility.yul\":8886:8903   */\n  swap1\n  pop\n    /* \"#utility.yul\":8861:9069   */\n  jump(tag_157)\ntag_159:\n    /* \"#utility.yul\":9097:9103   */\n  dup7\n    /* \"#utility.yul\":9088:9095   */\n  dup4\n    /* \"#utility.yul\":9085:9104   */\n  lt\n    /* \"#utility.yul\":9082:9261   */\n  iszero\n  tag_160\n  jumpi\n    /* \"#utility.yul\":9155:9164   */\n  dup5\n    /* \"#utility.yul\":9150:9153   */\n  dup10\n    /* \"#utility.yul\":9146:9165   */\n  add\n    /* \"#utility.yul\":9140:9166   */\n  mload\n    /* \"#utility.yul\":9198:9246   */\n  tag_161\n    /* \"#utility.yul\":9240:9244   */\n  0x1f\n    /* \"#utility.yul\":9232:9238   */\n  dup10\n    /* \"#utility.yul\":9228:9245   */\n  and\n    /* \"#utility.yul\":9217:9226   */\n  dup3\n    /* \"#utility.yul\":9198:9246   */\n  tag_46\n  jump\t// in\ntag_161:\n    /* \"#utility.yul\":9190:9196   */\n  dup4\n    /* \"#utility.yul\":9183:9247   */\n  sstore\n    /* \"#utility.yul\":9105:9261   */\n  pop\n    /* \"#utility.yul\":9082:9261   */\ntag_160:\n    /* \"#utility.yul\":9307:9308   */\n  0x01\n    /* \"#utility.yul\":9303:9304   */\n  0x02\n    /* \"#utility.yul\":9295:9301   */\n  dup9\n    /* \"#utility.yul\":9291:9305   */\n  mul\n    /* \"#utility.yul\":9287:9309   */\n  add\n    /* \"#utility.yul\":9281:9285   */\n  dup9\n    /* \"#utility.yul\":9274:9310   */\n  sstore\n    /* \"#utility.yul\":8709:9320   */\n  pop\n  pop\n  pop\n    /* \"#utility.yul\":8672:9559   */\ntag_152:\n  pop\n    /* \"#utility.yul\":8262:9565   */\n  pop\n  pop\n  pop\n    /* \"#utility.yul\":8170:9565   */\n  pop\n  pop\n  jump\t// out\n    /* \"contracts/WineTrace.sol\":61:1032  contract WineTracer {... */\ntag_9:\n  dataSize(sub_0)\n  dup1\n  dataOffset(sub_0)\n  0x00\n  codecopy\n  0x00\n  return\nstop\n\nsub_0: assembly {\n        /* \"contracts/WineTrace.sol\":61:1032  contract WineTracer {... */\n      mstore(0x40, 0x80)\n      callvalue\n      dup1\n      iszero\n      tag_1\n      jumpi\n      revert(0x00, 0x00)\n    tag_1:\n      pop\n      jumpi(tag_2, lt(calldatasize, 0x04))\n      shr(0xe0, calldataload(0x00))\n      dup1\n      0x2e325020\n      eq\n      tag_3\n      jumpi\n      dup1\n      0x667b6e61\n      eq\n      tag_4\n      jumpi\n      dup1\n      0x845ddcb2\n      eq\n      tag_5\n      jumpi\n      dup1\n      0x8da5cb5b\n      eq\n      tag_6\n      jumpi\n      dup1\n      0xdb3cb581\n      eq\n      tag_7\n      jumpi\n      dup1\n      0xe2b3f6d8\n      eq\n      tag_8\n      jumpi\n    tag_2:\n      revert(0x00, 0x00)\n        /* \"contracts/WineTrace.sol\":800:1029  function getStage(uint index) public view returns (string memory, string memory) {... */\n    tag_3:\n      tag_9\n      0x04\n      dup1\n      calldatasize\n      sub\n      dup2\n      add\n      swap1\n      tag_10\n      swap2\n      swap1\n      tag_11\n      jump\t// in\n    tag_10:\n      tag_12\n      jump\t// in\n    tag_9:\n      mload(0x40)\n      tag_13\n      swap3\n      swap2\n      swap1\n      tag_14\n      jump\t// in\n    tag_13:\n      mload(0x40)\n      dup1\n      swap2\n      sub\n      swap1\n      return\n        /* \"contracts/WineTrace.sol\":230:252  uint public quantityKg */\n    tag_4:\n      tag_15\n      tag_16\n      jump\t// in\n    tag_15:\n      mload(0x40)\n      tag_17\n      swap2\n      swap1\n      tag_18\n      jump\t// in\n    tag_17:\n      mload(0x40)\n      dup1\n      swap2\n      sub\n      swap1\n      return\n        /* \"contracts/WineTrace.sol\":288:309  Stage[] public stages */\n    tag_5:\n      tag_19\n      0x04\n      dup1\n      calldatasize\n      sub\n      dup2\n      add\n      swap1\n      tag_20\n      swap2\n      swap1\n      tag_11\n      jump\t// in\n    tag_20:\n      tag_21\n      jump\t// in\n    tag_19:\n      mload(0x40)\n      tag_22\n      swap3\n      swap2\n      swap1\n      tag_14\n      jump\t// in\n    tag_22:\n      mload(0x40)\n      dup1\n      swap2\n      sub\n      swap1\n      return\n        /* \"contracts/WineTrace.sol\":259:279  address public owner */\n    tag_6:\n      tag_23\n      tag_24\n      jump\t// in\n    tag_23:\n      mload(0x40)\n      tag_25\n      swap2\n      swap1\n      tag_26\n      jump\t// in\n    tag_25:\n      mload(0x40)\n      dup1\n      swap2\n      sub\n      swap1\n      return\n        /* \"contracts/WineTrace.sol\":168:191  string public grapeType */\n    tag_7:\n      tag_27\n      tag_28\n      jump\t// in\n    tag_27:\n      mload(0x40)\n      tag_29\n      swap2\n      swap1\n      tag_30\n      jump\t// in\n    tag_29:\n      mload(0x40)\n      dup1\n      swap2\n      sub\n      swap1\n      return\n        /* \"contracts/WineTrace.sol\":198:223  string public harvestYear */\n    tag_8:\n      tag_31\n      tag_32\n      jump\t// in\n    tag_31:\n      mload(0x40)\n      tag_33\n      swap2\n      swap1\n      tag_30\n      jump\t// in\n    tag_33:\n      mload(0x40)\n      dup1\n      swap2\n      sub\n      swap1\n      return\n        /* \"contracts/WineTrace.sol\":800:1029  function getStage(uint index) public view returns (string memory, string memory) {... */\n    tag_12:\n        /* \"contracts/WineTrace.sol\":851:864  string memory */\n      0x60\n        /* \"contracts/WineTrace.sol\":866:879  string memory */\n      dup1\n        /* \"contracts/WineTrace.sol\":908:914  stages */\n      0x04\n        /* \"contracts/WineTrace.sol\":908:921  stages.length */\n      dup1\n      sload\n      swap1\n      pop\n        /* \"contracts/WineTrace.sol\":900:905  index */\n      dup4\n        /* \"contracts/WineTrace.sol\":900:921  index < stages.length */\n      lt\n        /* \"contracts/WineTrace.sol\":892:939  require(index < stages.length, \"Invalid index\") */\n      tag_35\n      jumpi\n      mload(0x40)\n      0x08c379a000000000000000000000000000000000000000000000000000000000\n      dup2\n      mstore\n      0x04\n      add\n      tag_36\n      swap1\n      tag_37\n      jump\t// in\n    tag_36:\n      mload(0x40)\n      dup1\n      swap2\n      sub\n      swap1\n      revert\n    tag_35:\n        /* \"contracts/WineTrace.sol\":950:964  Stage memory s */\n      0x00\n        /* \"contracts/WineTrace.sol\":967:973  stages */\n      0x04\n        /* \"contracts/WineTrace.sol\":974:979  index */\n      dup5\n        /* \"contracts/WineTrace.sol\":967:980  stages[index] */\n      dup2\n      sload\n      dup2\n      lt\n      tag_38\n      jumpi\n      tag_39\n      tag_40\n      jump\t// in\n    tag_39:\n    tag_38:\n      swap1\n      0x00\n      mstore\n      keccak256(0x00, 0x20)\n      swap1\n      0x02\n      mul\n      add\n        /* \"contracts/WineTrace.sol\":950:980  Stage memory s = stages[index] */\n      mload(0x40)\n      dup1\n      0x40\n      add\n      0x40\n      mstore\n      swap1\n      dup2\n      0x00\n      dup3\n      add\n      dup1\n      sload\n      tag_42\n      swap1\n      tag_43\n      jump\t// in\n    tag_42:\n      dup1\n      0x1f\n      add\n      0x20\n      dup1\n      swap2\n      div\n      mul\n      0x20\n      add\n      mload(0x40)\n      swap1\n      dup2\n      add\n      0x40\n      mstore\n      dup1\n      swap3\n      swap2\n      swap1\n      dup2\n      dup2\n      mstore\n      0x20\n      add\n      dup3\n      dup1\n      sload\n      tag_44\n      swap1\n      tag_43\n      jump\t// in\n    tag_44:\n      dup1\n      iszero\n      tag_45\n      jumpi\n      dup1\n      0x1f\n      lt\n      tag_46\n      jumpi\n      0x0100\n      dup1\n      dup4\n      sload\n      div\n      mul\n      dup4\n      mstore\n      swap2\n      0x20\n      add\n      swap2\n      jump(tag_45)\n    tag_46:\n      dup3\n      add\n      swap2\n      swap1\n      0x00\n      mstore\n      keccak256(0x00, 0x20)\n      swap1\n    tag_47:\n      dup2\n      sload\n      dup2\n      mstore\n      swap1\n      0x01\n      add\n      swap1\n      0x20\n      add\n      dup1\n      dup4\n      gt\n      tag_47\n      jumpi\n      dup3\n      swap1\n      sub\n      0x1f\n      and\n      dup3\n      add\n      swap2\n    tag_45:\n      pop\n      pop\n      pop\n      pop\n      pop\n      dup2\n      mstore\n      0x20\n      add\n      0x01\n      dup3\n      add\n      dup1\n      sload\n      tag_48\n      swap1\n      tag_43\n      jump\t// in\n    tag_48:\n      dup1\n      0x1f\n      add\n      0x20\n      dup1\n      swap2\n      div\n      mul\n      0x20\n      add\n      mload(0x40)\n      swap1\n      dup2\n      add\n      0x40\n      mstore\n      dup1\n      swap3\n      swap2\n      swap1\n      dup2\n      dup2\n      mstore\n      0x20\n      add\n      dup3\n      dup1\n      sload\n      tag_49\n      swap1\n      tag_43\n      jump\t// in\n    tag_49:\n      dup1\n      iszero\n      tag_50\n      jumpi\n      dup1\n      0x1f\n      lt\n      tag_51\n      jumpi\n      0x0100\n      dup1\n      dup4\n      sload\n      div\n      mul\n      dup4\n      mstore\n      swap2\n      0x20\n      add\n      swap2\n      jump(tag_50)\n    tag_51:\n      dup3\n      add\n      swap2\n      swap1\n      0x00\n      mstore\n      keccak256(0x00, 0x20)\n      swap1\n    tag_52:\n      dup2\n      sload\n      dup2\n      mstore\n      swap1\n      0x01\n      add\n      swap1\n      0x20\n      add\n      dup1\n      dup4\n      gt\n      tag_52\n      jumpi\n      dup3\n      swap1\n      sub\n      0x1f\n      and\n      dup3\n      add\n      swap2\n    tag_50:\n      pop\n      pop\n      pop\n      pop\n      pop\n      dup2\n      mstore\n      pop\n      pop\n      swap1\n      pop\n        /* \"contracts/WineTrace.sol\":999:1000  s */\n      dup1\n        /* \"contracts/WineTrace.sol\":999:1012  s.description */\n      0x00\n      add\n      mload\n        /* \"contracts/WineTrace.sol\":1014:1015  s */\n      dup2\n        /* \"contracts/WineTrace.sol\":1014:1020  s.date */\n      0x20\n      add\n      mload\n        /* \"contracts/WineTrace.sol\":991:1021  return (s.description, s.date) */\n      swap3\n      pop\n      swap3\n      pop\n      pop\n        /* \"contracts/WineTrace.sol\":800:1029  function getStage(uint index) public view returns (string memory, string memory) {... */\n      swap2\n      pop\n      swap2\n      jump\t// out\n        /* \"contracts/WineTrace.sol\":230:252  uint public quantityKg */\n    tag_16:\n      sload(0x02)\n      dup2\n      jump\t// out\n        /* \"contracts/WineTrace.sol\":288:309  Stage[] public stages */\n    tag_21:\n      0x04\n      dup2\n      dup2\n      sload\n      dup2\n      lt\n      tag_53\n      jumpi\n      0x00\n      dup1\n      revert\n    tag_53:\n      swap1\n      0x00\n      mstore\n      keccak256(0x00, 0x20)\n      swap1\n      0x02\n      mul\n      add\n      0x00\n      swap2\n      pop\n      swap1\n      pop\n      dup1\n      0x00\n      add\n      dup1\n      sload\n      tag_55\n      swap1\n      tag_43\n      jump\t// in\n    tag_55:\n      dup1\n      0x1f\n      add\n      0x20\n      dup1\n      swap2\n      div\n      mul\n      0x20\n      add\n      mload(0x40)\n      swap1\n      dup2\n      add\n      0x40\n      mstore\n      dup1\n      swap3\n      swap2\n      swap1\n      dup2\n      dup2\n      mstore\n      0x20\n      add\n      dup3\n      dup1\n      sload\n      tag_56\n      swap1\n      tag_43\n      jump\t// in\n    tag_56:\n      dup1\n      iszero\n      tag_57\n      jumpi\n      dup1\n      0x1f\n      lt\n      tag_58\n      jumpi\n      0x0100\n      dup1\n      dup4\n      sload\n      div\n      mul\n      dup4\n      mstore\n      swap2\n      0x20\n      add\n      swap2\n      jump(tag_57)\n    tag_58:\n      dup3\n      add\n      swap2\n      swap1\n      0x00\n      mstore\n      keccak256(0x00, 0x20)\n      swap1\n    tag_59:\n      dup2\n      sload\n      dup2\n      mstore\n      swap1\n      0x01\n      add\n      swap1\n      0x20\n      add\n      dup1\n      dup4\n      gt\n      tag_59\n      jumpi\n      dup3\n      swap1\n      sub\n      0x1f\n      and\n      dup3\n      add\n      swap2\n    tag_57:\n      pop\n      pop\n      pop\n      pop\n      pop\n      swap1\n      dup1\n      0x01\n      add\n      dup1\n      sload\n      tag_60\n      swap1\n      tag_43\n      jump\t// in\n    tag_60:\n      dup1\n      0x1f\n      add\n      0x20\n      dup1\n      swap2\n      div\n      mul\n      0x20\n      add\n      mload(0x40)\n      swap1\n      dup2\n      add\n      0x40\n      mstore\n      dup1\n      swap3\n      swap2\n      swap1\n      dup2\n      dup2\n      mstore\n      0x20\n      add\n      dup3\n      dup1\n      sload\n      tag_61\n      swap1\n      tag_43\n      jump\t// in\n    tag_61:\n      dup1\n      iszero\n      tag_62\n      jumpi\n      dup1\n      0x1f\n      lt\n      tag_63\n      jumpi\n      0x0100\n      dup1\n      dup4\n      sload\n      div\n      mul\n      dup4\n      mstore\n      swap2\n      0x20\n      add\n      swap2\n      jump(tag_62)\n    tag_63:\n      dup3\n      add\n      swap2\n      swap1\n      0x00\n      mstore\n      keccak256(0x00, 0x20)\n      swap1\n    tag_64:\n      dup2\n      sload\n      dup2\n      mstore\n      swap1\n      0x01\n      add\n      swap1\n      0x20\n      add\n      dup1\n      dup4\n      gt\n      tag_64\n      jumpi\n      dup3\n      swap1\n      sub\n      0x1f\n      and\n      dup3\n      add\n      swap2\n    tag_62:\n      pop\n      pop\n      pop\n      pop\n      pop\n      swap1\n      pop\n      dup3\n      jump\t// out\n        /* \"contracts/WineTrace.sol\":259:279  address public owner */\n    tag_24:\n      0x03\n      0x00\n      swap1\n      sload\n      swap1\n      0x0100\n      exp\n      swap1\n      div\n      0xffffffffffffffffffffffffffffffffffffffff\n      and\n      dup2\n      jump\t// out\n        /* \"contracts/WineTrace.sol\":168:191  string public grapeType */\n    tag_28:\n      0x00\n      dup1\n      sload\n      tag_65\n      swap1\n      tag_43\n      jump\t// in\n    tag_65:\n      dup1\n      0x1f\n      add\n      0x20\n      dup1\n      swap2\n      div\n      mul\n      0x20\n      add\n      mload(0x40)\n      swap1\n      dup2\n      add\n      0x40\n      mstore\n      dup1\n      swap3\n      swap2\n      swap1\n      dup2\n      dup2\n      mstore\n      0x20\n      add\n      dup3\n      dup1\n      sload\n      tag_66\n      swap1\n      tag_43\n      jump\t// in\n    tag_66:\n      dup1\n      iszero\n      tag_67\n      jumpi\n      dup1\n      0x1f\n      lt\n      tag_68\n      jumpi\n      0x0100\n      dup1\n      dup4\n      sload\n      div\n      mul\n      dup4\n      mstore\n      swap2\n      0x20\n      add\n      swap2\n      jump(tag_67)\n    tag_68:\n      dup3\n      add\n      swap2\n      swap1\n      0x00\n      mstore\n      keccak256(0x00, 0x20)\n      swap1\n    tag_69:\n      dup2\n      sload\n      dup2\n      mstore\n      swap1\n      0x01\n      add\n      swap1\n      0x20\n      add\n      dup1\n      dup4\n      gt\n      tag_69\n      jumpi\n      dup3\n      swap1\n      sub\n      0x1f\n      and\n      dup3\n      add\n      swap2\n    tag_67:\n      pop\n      pop\n      pop\n      pop\n      pop\n      dup2\n      jump\t// out\n        /* \"contracts/WineTrace.sol\":198:223  string public harvestYear */\n    tag_32:\n      0x01\n      dup1\n      sload\n      tag_70\n      swap1\n      tag_43\n      jump\t// in\n    tag_70:\n      dup1\n      0x1f\n      add\n      0x20\n      dup1\n      swap2\n      div\n      mul\n      0x20\n      add\n      mload(0x40)\n      swap1\n      dup2\n      add\n      0x40\n      mstore\n      dup1\n      swap3\n      swap2\n      swap1\n      dup2\n      dup2\n      mstore\n      0x20\n      add\n      dup3\n      dup1\n      sload\n      tag_71\n      swap1\n      tag_43\n      jump\t// in\n    tag_71:\n      dup1\n      iszero\n      tag_72\n      jumpi\n      dup1\n      0x1f\n      lt\n      tag_73\n      jumpi\n      0x0100\n      dup1\n      dup4\n      sload\n      div\n      mul\n      dup4\n      mstore\n      swap2\n      0x20\n      add\n      swap2\n      jump(tag_72)\n    tag_73:\n      dup3\n      add\n      swap2\n      swap1\n      0x00\n      mstore\n      keccak256(0x00, 0x20)\n      swap1\n    tag_74:\n      dup2\n      sload\n      dup2\n      mstore\n      swap1\n      0x01\n      add\n      swap1\n      0x20\n      add\n      dup1\n      dup4\n      gt\n      tag_74\n      jumpi\n      dup3\n      swap1\n      sub\n      0x1f\n      and\n      dup3\n      add\n      swap2\n    tag_72:\n      pop\n      pop\n      pop\n      pop\n      pop\n      dup2\n      jump\t// out\n        /* \"#utility.yul\":88:205   */\n    tag_76:\n        /* \"#utility.yul\":197:198   */\n      0x00\n        /* \"#utility.yul\":194:195   */\n      0x00\n        /* \"#utility.yul\":187:199   */\n      revert\n        /* \"#utility.yul\":334:411   */\n    tag_78:\n        /* \"#utility.yul\":371:378   */\n      0x00\n        /* \"#utility.yul\":400:405   */\n      dup2\n        /* \"#utility.yul\":389:405   */\n      swap1\n      pop\n        /* \"#utility.yul\":334:411   */\n      swap2\n      swap1\n      pop\n      jump\t// out\n        /* \"#utility.yul\":417:539   */\n    tag_79:\n        /* \"#utility.yul\":490:514   */\n      tag_99\n        /* \"#utility.yul\":508:513   */\n      dup2\n        /* \"#utility.yul\":490:514   */\n      tag_78\n      jump\t// in\n    tag_99:\n        /* \"#utility.yul\":483:488   */\n      dup2\n        /* \"#utility.yul\":480:515   */\n      eq\n        /* \"#utility.yul\":470:533   */\n      tag_100\n      jumpi\n        /* \"#utility.yul\":529:530   */\n      0x00\n        /* \"#utility.yul\":526:527   */\n      0x00\n        /* \"#utility.yul\":519:531   */\n      revert\n        /* \"#utility.yul\":470:533   */\n    tag_100:\n        /* \"#utility.yul\":417:539   */\n      pop\n      jump\t// out\n        /* \"#utility.yul\":545:684   */\n    tag_80:\n        /* \"#utility.yul\":591:596   */\n      0x00\n        /* \"#utility.yul\":629:635   */\n      dup2\n        /* \"#utility.yul\":616:636   */\n      calldataload\n        /* \"#utility.yul\":607:636   */\n      swap1\n      pop\n        /* \"#utility.yul\":645:678   */\n      tag_102\n        /* \"#utility.yul\":672:677   */\n      dup2\n        /* \"#utility.yul\":645:678   */\n      tag_79\n      jump\t// in\n    tag_102:\n        /* \"#utility.yul\":545:684   */\n      swap3\n      swap2\n      pop\n      pop\n      jump\t// out\n        /* \"#utility.yul\":690:1019   */\n    tag_11:\n        /* \"#utility.yul\":749:755   */\n      0x00\n        /* \"#utility.yul\":798:800   */\n      0x20\n        /* \"#utility.yul\":786:795   */\n      dup3\n        /* \"#utility.yul\":777:784   */\n      dup5\n        /* \"#utility.yul\":773:796   */\n      sub\n        /* \"#utility.yul\":769:801   */\n      slt\n        /* \"#utility.yul\":766:885   */\n      iszero\n      tag_104\n      jumpi\n        /* \"#utility.yul\":804:883   */\n      tag_105\n      tag_76\n      jump\t// in\n    tag_105:\n        /* \"#utility.yul\":766:885   */\n    tag_104:\n        /* \"#utility.yul\":924:925   */\n      0x00\n        /* \"#utility.yul\":949:1002   */\n      tag_106\n        /* \"#utility.yul\":994:1001   */\n      dup5\n        /* \"#utility.yul\":985:991   */\n      dup3\n        /* \"#utility.yul\":974:983   */\n      dup6\n        /* \"#utility.yul\":970:992   */\n      add\n        /* \"#utility.yul\":949:1002   */\n      tag_80\n      jump\t// in\n    tag_106:\n        /* \"#utility.yul\":939:1002   */\n      swap2\n      pop\n        /* \"#utility.yul\":895:1012   */\n      pop\n        /* \"#utility.yul\":690:1019   */\n      swap3\n      swap2\n      pop\n      pop\n      jump\t// out\n        /* \"#utility.yul\":1025:1124   */\n    tag_81:\n        /* \"#utility.yul\":1077:1083   */\n      0x00\n        /* \"#utility.yul\":1111:1116   */\n      dup2\n        /* \"#utility.yul\":1105:1117   */\n      mload\n        /* \"#utility.yul\":1095:1117   */\n      swap1\n      pop\n        /* \"#utility.yul\":1025:1124   */\n      swap2\n      swap1\n      pop\n      jump\t// out\n        /* \"#utility.yul\":1130:1299   */\n    tag_82:\n        /* \"#utility.yul\":1214:1225   */\n      0x00\n        /* \"#utility.yul\":1248:1254   */\n      dup3\n        /* \"#utility.yul\":1243:1246   */\n      dup3\n        /* \"#utility.yul\":1236:1255   */\n      mstore\n        /* \"#utility.yul\":1288:1292   */\n      0x20\n        /* \"#utility.yul\":1283:1286   */\n      dup3\n        /* \"#utility.yul\":1279:1293   */\n      add\n        /* \"#utility.yul\":1264:1293   */\n      swap1\n      pop\n        /* \"#utility.yul\":1130:1299   */\n      swap3\n      swap2\n      pop\n      pop\n      jump\t// out\n        /* \"#utility.yul\":1305:1444   */\n    tag_83:\n        /* \"#utility.yul\":1394:1400   */\n      dup3\n        /* \"#utility.yul\":1389:1392   */\n      dup2\n        /* \"#utility.yul\":1384:1387   */\n      dup4\n        /* \"#utility.yul\":1378:1401   */\n      mcopy\n        /* \"#utility.yul\":1435:1436   */\n      0x00\n        /* \"#utility.yul\":1426:1432   */\n      dup4\n        /* \"#utility.yul\":1421:1424   */\n      dup4\n        /* \"#utility.yul\":1417:1433   */\n      add\n        /* \"#utility.yul\":1410:1437   */\n      mstore\n        /* \"#utility.yul\":1305:1444   */\n      pop\n      pop\n      pop\n      jump\t// out\n        /* \"#utility.yul\":1450:1552   */\n    tag_84:\n        /* \"#utility.yul\":1491:1497   */\n      0x00\n        /* \"#utility.yul\":1542:1544   */\n      0x1f\n        /* \"#utility.yul\":1538:1545   */\n      not\n        /* \"#utility.yul\":1533:1535   */\n      0x1f\n        /* \"#utility.yul\":1526:1531   */\n      dup4\n        /* \"#utility.yul\":1522:1536   */\n      add\n        /* \"#utility.yul\":1518:1546   */\n      and\n        /* \"#utility.yul\":1508:1546   */\n      swap1\n      pop\n        /* \"#utility.yul\":1450:1552   */\n      swap2\n      swap1\n      pop\n      jump\t// out\n        /* \"#utility.yul\":1558:1935   */\n    tag_85:\n        /* \"#utility.yul\":1646:1649   */\n      0x00\n        /* \"#utility.yul\":1674:1713   */\n      tag_112\n        /* \"#utility.yul\":1707:1712   */\n      dup3\n        /* \"#utility.yul\":1674:1713   */\n      tag_81\n      jump\t// in\n    tag_112:\n        /* \"#utility.yul\":1729:1800   */\n      tag_113\n        /* \"#utility.yul\":1793:1799   */\n      dup2\n        /* \"#utility.yul\":1788:1791   */\n      dup6\n        /* \"#utility.yul\":1729:1800   */\n      tag_82\n      jump\t// in\n    tag_113:\n        /* \"#utility.yul\":1722:1800   */\n      swap4\n      pop\n        /* \"#utility.yul\":1809:1874   */\n      tag_114\n        /* \"#utility.yul\":1867:1873   */\n      dup2\n        /* \"#utility.yul\":1862:1865   */\n      dup6\n        /* \"#utility.yul\":1855:1859   */\n      0x20\n        /* \"#utility.yul\":1848:1853   */\n      dup7\n        /* \"#utility.yul\":1844:1860   */\n      add\n        /* \"#utility.yul\":1809:1874   */\n      tag_83\n      jump\t// in\n    tag_114:\n        /* \"#utility.yul\":1899:1928   */\n      tag_115\n        /* \"#utility.yul\":1921:1927   */\n      dup2\n        /* \"#utility.yul\":1899:1928   */\n      tag_84\n      jump\t// in\n    tag_115:\n        /* \"#utility.yul\":1894:1897   */\n      dup5\n        /* \"#utility.yul\":1890:1929   */\n      add\n        /* \"#utility.yul\":1883:1929   */\n      swap2\n      pop\n        /* \"#utility.yul\":1650:1935   */\n      pop\n        /* \"#utility.yul\":1558:1935   */\n      swap3\n      swap2\n      pop\n      pop\n      jump\t// out\n        /* \"#utility.yul\":1941:2455   */\n    tag_14:\n        /* \"#utility.yul\":2102:2106   */\n      0x00\n        /* \"#utility.yul\":2140:2142   */\n      0x40\n        /* \"#utility.yul\":2129:2138   */\n      dup3\n        /* \"#utility.yul\":2125:2143   */\n      add\n        /* \"#utility.yul\":2117:2143   */\n      swap1\n      pop\n        /* \"#utility.yul\":2189:2198   */\n      dup2\n        /* \"#utility.yul\":2183:2187   */\n      dup2\n        /* \"#utility.yul\":2179:2199   */\n      sub\n        /* \"#utility.yul\":2175:2176   */\n      0x00\n        /* \"#utility.yul\":2164:2173   */\n      dup4\n        /* \"#utility.yul\":2160:2177   */\n      add\n        /* \"#utility.yul\":2153:2200   */\n      mstore\n        /* \"#utility.yul\":2217:2295   */\n      tag_117\n        /* \"#utility.yul\":2290:2294   */\n      dup2\n        /* \"#utility.yul\":2281:2287   */\n      dup6\n        /* \"#utility.yul\":2217:2295   */\n      tag_85\n      jump\t// in\n    tag_117:\n        /* \"#utility.yul\":2209:2295   */\n      swap1\n      pop\n        /* \"#utility.yul\":2342:2351   */\n      dup2\n        /* \"#utility.yul\":2336:2340   */\n      dup2\n        /* \"#utility.yul\":2332:2352   */\n      sub\n        /* \"#utility.yul\":2327:2329   */\n      0x20\n        /* \"#utility.yul\":2316:2325   */\n      dup4\n        /* \"#utility.yul\":2312:2330   */\n      add\n        /* \"#utility.yul\":2305:2353   */\n      mstore\n        /* \"#utility.yul\":2370:2448   */\n      tag_118\n        /* \"#utility.yul\":2443:2447   */\n      dup2\n        /* \"#utility.yul\":2434:2440   */\n      dup5\n        /* \"#utility.yul\":2370:2448   */\n      tag_85\n      jump\t// in\n    tag_118:\n        /* \"#utility.yul\":2362:2448   */\n      swap1\n      pop\n        /* \"#utility.yul\":1941:2455   */\n      swap4\n      swap3\n      pop\n      pop\n      pop\n      jump\t// out\n        /* \"#utility.yul\":2461:2579   */\n    tag_86:\n        /* \"#utility.yul\":2548:2572   */\n      tag_120\n        /* \"#utility.yul\":2566:2571   */\n      dup2\n        /* \"#utility.yul\":2548:2572   */\n      tag_78\n      jump\t// in\n    tag_120:\n        /* \"#utility.yul\":2543:2546   */\n      dup3\n        /* \"#utility.yul\":2536:2573   */\n      mstore\n        /* \"#utility.yul\":2461:2579   */\n      pop\n      pop\n      jump\t// out\n        /* \"#utility.yul\":2585:2807   */\n    tag_18:\n        /* \"#utility.yul\":2678:2682   */\n      0x00\n        /* \"#utility.yul\":2716:2718   */\n      0x20\n        /* \"#utility.yul\":2705:2714   */\n      dup3\n        /* \"#utility.yul\":2701:2719   */\n      add\n        /* \"#utility.yul\":2693:2719   */\n      swap1\n      pop\n        /* \"#utility.yul\":2729:2800   */\n      tag_122\n        /* \"#utility.yul\":2797:2798   */\n      0x00\n        /* \"#utility.yul\":2786:2795   */\n      dup4\n        /* \"#utility.yul\":2782:2799   */\n      add\n        /* \"#utility.yul\":2773:2779   */\n      dup5\n        /* \"#utility.yul\":2729:2800   */\n      tag_86\n      jump\t// in\n    tag_122:\n        /* \"#utility.yul\":2585:2807   */\n      swap3\n      swap2\n      pop\n      pop\n      jump\t// out\n        /* \"#utility.yul\":2813:2939   */\n    tag_87:\n        /* \"#utility.yul\":2850:2857   */\n      0x00\n        /* \"#utility.yul\":2890:2932   */\n      0xffffffffffffffffffffffffffffffffffffffff\n        /* \"#utility.yul\":2883:2888   */\n      dup3\n        /* \"#utility.yul\":2879:2933   */\n      and\n        /* \"#utility.yul\":2868:2933   */\n      swap1\n      pop\n        /* \"#utility.yul\":2813:2939   */\n      swap2\n      swap1\n      pop\n      jump\t// out\n        /* \"#utility.yul\":2945:3041   */\n    tag_88:\n        /* \"#utility.yul\":2982:2989   */\n      0x00\n        /* \"#utility.yul\":3011:3035   */\n      tag_125\n        /* \"#utility.yul\":3029:3034   */\n      dup3\n        /* \"#utility.yul\":3011:3035   */\n      tag_87\n      jump\t// in\n    tag_125:\n        /* \"#utility.yul\":3000:3035   */\n      swap1\n      pop\n        /* \"#utility.yul\":2945:3041   */\n      swap2\n      swap1\n      pop\n      jump\t// out\n        /* \"#utility.yul\":3047:3165   */\n    tag_89:\n        /* \"#utility.yul\":3134:3158   */\n      tag_127\n        /* \"#utility.yul\":3152:3157   */\n      dup2\n        /* \"#utility.yul\":3134:3158   */\n      tag_88\n      jump\t// in\n    tag_127:\n        /* \"#utility.yul\":3129:3132   */\n      dup3\n        /* \"#utility.yul\":3122:3159   */\n      mstore\n        /* \"#utility.yul\":3047:3165   */\n      pop\n      pop\n      jump\t// out\n        /* \"#utility.yul\":3171:3393   */\n    tag_26:\n        /* \"#utility.yul\":3264:3268   */\n      0x00\n        /* \"#utility.yul\":3302:3304   */\n      0x20\n        /* \"#utility.yul\":3291:3300   */\n      dup3\n        /* \"#utility.yul\":3287:3305   */\n      add\n        /* \"#utility.yul\":3279:3305   */\n      swap1\n      pop\n        /* \"#utility.yul\":3315:3386   */\n      tag_129\n        /* \"#utility.yul\":3383:3384   */\n      0x00\n        /* \"#utility.yul\":3372:3381   */\n      dup4\n        /* \"#utility.yul\":3368:3385   */\n      add\n        /* \"#utility.yul\":3359:3365   */\n      dup5\n        /* \"#utility.yul\":3315:3386   */\n      tag_89\n      jump\t// in\n    tag_129:\n        /* \"#utility.yul\":3171:3393   */\n      swap3\n      swap2\n      pop\n      pop\n      jump\t// out\n        /* \"#utility.yul\":3399:3712   */\n    tag_30:\n        /* \"#utility.yul\":3512:3516   */\n      0x00\n        /* \"#utility.yul\":3550:3552   */\n      0x20\n        /* \"#utility.yul\":3539:3548   */\n      dup3\n        /* \"#utility.yul\":3535:3553   */\n      add\n        /* \"#utility.yul\":3527:3553   */\n      swap1\n      pop\n        /* \"#utility.yul\":3599:3608   */\n      dup2\n        /* \"#utility.yul\":3593:3597   */\n      dup2\n        /* \"#utility.yul\":3589:3609   */\n      sub\n        /* \"#utility.yul\":3585:3586   */\n      0x00\n        /* \"#utility.yul\":3574:3583   */\n      dup4\n        /* \"#utility.yul\":3570:3587   */\n      add\n        /* \"#utility.yul\":3563:3610   */\n      mstore\n        /* \"#utility.yul\":3627:3705   */\n      tag_131\n        /* \"#utility.yul\":3700:3704   */\n      dup2\n        /* \"#utility.yul\":3691:3697   */\n      dup5\n        /* \"#utility.yul\":3627:3705   */\n      tag_85\n      jump\t// in\n    tag_131:\n        /* \"#utility.yul\":3619:3705   */\n      swap1\n      pop\n        /* \"#utility.yul\":3399:3712   */\n      swap3\n      swap2\n      pop\n      pop\n      jump\t// out\n        /* \"#utility.yul\":3718:3881   */\n    tag_90:\n        /* \"#utility.yul\":3858:3873   */\n      0x496e76616c696420696e64657800000000000000000000000000000000000000\n        /* \"#utility.yul\":3854:3855   */\n      0x00\n        /* \"#utility.yul\":3846:3852   */\n      dup3\n        /* \"#utility.yul\":3842:3856   */\n      add\n        /* \"#utility.yul\":3835:3874   */\n      mstore\n        /* \"#utility.yul\":3718:3881   */\n      pop\n      jump\t// out\n        /* \"#utility.yul\":3887:4253   */\n    tag_91:\n        /* \"#utility.yul\":4029:4032   */\n      0x00\n        /* \"#utility.yul\":4050:4117   */\n      tag_134\n        /* \"#utility.yul\":4114:4116   */\n      0x0d\n        /* \"#utility.yul\":4109:4112   */\n      dup4\n        /* \"#utility.yul\":4050:4117   */\n      tag_82\n      jump\t// in\n    tag_134:\n        /* \"#utility.yul\":4043:4117   */\n      swap2\n      pop\n        /* \"#utility.yul\":4126:4219   */\n      tag_135\n        /* \"#utility.yul\":4215:4218   */\n      dup3\n        /* \"#utility.yul\":4126:4219   */\n      tag_90\n      jump\t// in\n    tag_135:\n        /* \"#utility.yul\":4244:4246   */\n      0x20\n        /* \"#utility.yul\":4239:4242   */\n      dup3\n        /* \"#utility.yul\":4235:4247   */\n      add\n        /* \"#utility.yul\":4228:4247   */\n      swap1\n      pop\n        /* \"#utility.yul\":3887:4253   */\n      swap2\n      swap1\n      pop\n      jump\t// out\n        /* \"#utility.yul\":4259:4678   */\n    tag_37:\n        /* \"#utility.yul\":4425:4429   */\n      0x00\n        /* \"#utility.yul\":4463:4465   */\n      0x20\n        /* \"#utility.yul\":4452:4461   */\n      dup3\n        /* \"#utility.yul\":4448:4466   */\n      add\n        /* \"#utility.yul\":4440:4466   */\n      swap1\n      pop\n        /* \"#utility.yul\":4512:4521   */\n      dup2\n        /* \"#utility.yul\":4506:4510   */\n      dup2\n        /* \"#utility.yul\":4502:4522   */\n      sub\n        /* \"#utility.yul\":4498:4499   */\n      0x00\n        /* \"#utility.yul\":4487:4496   */\n      dup4\n        /* \"#utility.yul\":4483:4500   */\n      add\n        /* \"#utility.yul\":4476:4523   */\n      mstore\n        /* \"#utility.yul\":4540:4671   */\n      tag_137\n        /* \"#utility.yul\":4666:4670   */\n      dup2\n        /* \"#utility.yul\":4540:4671   */\n      tag_91\n      jump\t// in\n    tag_137:\n        /* \"#utility.yul\":4532:4671   */\n      swap1\n      pop\n        /* \"#utility.yul\":4259:4678   */\n      swap2\n      swap1\n      pop\n      jump\t// out\n        /* \"#utility.yul\":4684:4864   */\n    tag_40:\n        /* \"#utility.yul\":4732:4809   */\n      0x4e487b7100000000000000000000000000000000000000000000000000000000\n        /* \"#utility.yul\":4729:4730   */\n      0x00\n        /* \"#utility.yul\":4722:4810   */\n      mstore\n        /* \"#utility.yul\":4829:4833   */\n      0x32\n        /* \"#utility.yul\":4826:4827   */\n      0x04\n        /* \"#utility.yul\":4819:4834   */\n      mstore\n        /* \"#utility.yul\":4853:4857   */\n      0x24\n        /* \"#utility.yul\":4850:4851   */\n      0x00\n        /* \"#utility.yul\":4843:4858   */\n      revert\n        /* \"#utility.yul\":4870:5050   */\n    tag_92:\n        /* \"#utility.yul\":4918:4995   */\n      0x4e487b7100000000000000000000000000000000000000000000000000000000\n        /* \"#utility.yul\":4915:4916   */\n      0x00\n        /* \"#utility.yul\":4908:4996   */\n      mstore\n        /* \"#utility.yul\":5015:5019   */\n      0x22\n        /* \"#utility.yul\":5012:5013   */\n      0x04\n        /* \"#utility.yul\":5005:5020   */\n      mstore\n        /* \"#utility.yul\":5039:5043   */\n      0x24\n        /* \"#utility.yul\":5036:5037   */\n      0x00\n        /* \"#utility.yul\":5029:5044   */\n      revert\n        /* \"#utility.yul\":5056:5376   */\n    tag_43:\n        /* \"#utility.yul\":5100:5106   */\n      0x00\n        /* \"#utility.yul\":5137:5138   */\n      0x02\n        /* \"#utility.yul\":5131:5135   */\n      dup3\n        /* \"#utility.yul\":5127:5139   */\n      div\n        /* \"#utility.yul\":5117:5139   */\n      swap1\n      pop\n        /* \"#utility.yul\":5184:5185   */\n      0x01\n        /* \"#utility.yul\":5178:5182   */\n      dup3\n        /* \"#utility.yul\":5174:5186   */\n      and\n        /* \"#utility.yul\":5205:5223   */\n      dup1\n        /* \"#utility.yul\":5195:5276   */\n      tag_141\n      jumpi\n        /* \"#utility.yul\":5261:5265   */\n      0x7f\n        /* \"#utility.yul\":5253:5259   */\n      dup3\n        /* \"#utility.yul\":5249:5266   */\n      and\n        /* \"#utility.yul\":5239:5266   */\n      swap2\n      pop\n        /* \"#utility.yul\":5195:5276   */\n    tag_141:\n        /* \"#utility.yul\":5323:5325   */\n      0x20\n        /* \"#utility.yul\":5315:5321   */\n      dup3\n        /* \"#utility.yul\":5312:5326   */\n      lt\n        /* \"#utility.yul\":5292:5310   */\n      dup2\n        /* \"#utility.yul\":5289:5327   */\n      sub\n        /* \"#utility.yul\":5286:5370   */\n      tag_142\n      jumpi\n        /* \"#utility.yul\":5342:5360   */\n      tag_143\n      tag_92\n      jump\t// in\n    tag_143:\n        /* \"#utility.yul\":5286:5370   */\n    tag_142:\n        /* \"#utility.yul\":5107:5376   */\n      pop\n        /* \"#utility.yul\":5056:5376   */\n      swap2\n      swap1\n      pop\n      jump\t// out\n\n    auxdata: 0xa2646970667358221220e1b17cd5540a92b90702e334b39437137da842a0d6439a1d04aa9b459938534864736f6c634300081e0033\n}\n",
				"bytecode": {
					"linkReferences": {},
					"object": "608060405234801561000f575f5ffd5b50604051610e2d380380610e2d8339818101604052810190610031919061027a565b835f908161003f919061051d565b50826001908161004f919061051d565b50816002819055508060035f6101000a81548173ffffffffffffffffffffffffffffffffffffffff021916908373ffffffffffffffffffffffffffffffffffffffff160217905550505050506105ec565b5f604051905090565b5f5ffd5b5f5ffd5b5f5ffd5b5f5ffd5b5f601f19601f8301169050919050565b7f4e487b71000000000000000000000000000000000000000000000000000000005f52604160045260245ffd5b6100ff826100b9565b810181811067ffffffffffffffff8211171561011e5761011d6100c9565b5b80604052505050565b5f6101306100a0565b905061013c82826100f6565b919050565b5f67ffffffffffffffff82111561015b5761015a6100c9565b5b610164826100b9565b9050602081019050919050565b8281835e5f83830152505050565b5f61019161018c84610141565b610127565b9050828152602081018484840111156101ad576101ac6100b5565b5b6101b8848285610171565b509392505050565b5f82601f8301126101d4576101d36100b1565b5b81516101e484826020860161017f565b91505092915050565b5f819050919050565b6101ff816101ed565b8114610209575f5ffd5b50565b5f8151905061021a816101f6565b92915050565b5f73ffffffffffffffffffffffffffffffffffffffff82169050919050565b5f61024982610220565b9050919050565b6102598161023f565b8114610263575f5ffd5b50565b5f8151905061027481610250565b92915050565b5f5f5f5f60808587031215610292576102916100a9565b5b5f85015167ffffffffffffffff8111156102af576102ae6100ad565b5b6102bb878288016101c0565b945050602085015167ffffffffffffffff8111156102dc576102db6100ad565b5b6102e8878288016101c0565b93505060406102f98782880161020c565b925050606061030a87828801610266565b91505092959194509250565b5f81519050919050565b7f4e487b71000000000000000000000000000000000000000000000000000000005f52602260045260245ffd5b5f600282049050600182168061036457607f821691505b60208210810361037757610376610320565b5b50919050565b5f819050815f5260205f209050919050565b5f6020601f8301049050919050565b5f82821b905092915050565b5f600883026103d97fffffffffffffffffffffffffffffffffffffffffffffffffffffffffffffffff8261039e565b6103e3868361039e565b95508019841693508086168417925050509392505050565b5f819050919050565b5f61041e610419610414846101ed565b6103fb565b6101ed565b9050919050565b5f819050919050565b61043783610404565b61044b61044382610425565b8484546103aa565b825550505050565b5f5f905090565b610462610453565b61046d81848461042e565b505050565b5b81811015610490576104855f8261045a565b600181019050610473565b5050565b601f8211156104d5576104a68161037d565b6104af8461038f565b810160208510156104be578190505b6104d26104ca8561038f565b830182610472565b50505b505050565b5f82821c905092915050565b5f6104f55f19846008026104da565b1980831691505092915050565b5f61050d83836104e6565b9150826002028217905092915050565b61052682610316565b67ffffffffffffffff81111561053f5761053e6100c9565b5b610549825461034d565b610554828285610494565b5f60209050601f831160018114610585575f8415610573578287015190505b61057d8582610502565b8655506105e4565b601f1984166105938661037d565b5f5b828110156105ba57848901518255600182019150602085019450602081019050610595565b868310156105d757848901516105d3601f8916826104e6565b8355505b6001600288020188555050505b505050505050565b610834806105f95f395ff3fe608060405234801561000f575f5ffd5b5060043610610060575f3560e01c80632e32502014610064578063667b6e6114610095578063845ddcb2146100b35780638da5cb5b146100e4578063db3cb58114610102578063e2b3f6d814610120575b5f5ffd5b61007e6004803603810190610079919061059c565b61013e565b60405161008c929190610637565b60405180910390f35b61009d6102e8565b6040516100aa919061067b565b60405180910390f35b6100cd60048036038101906100c8919061059c565b6102ee565b6040516100db929190610637565b60405180910390f35b6100ec610429565b6040516100f991906106d3565b60405180910390f35b61010a61044e565b60405161011791906106ec565b60405180910390f35b6101286104d9565b60405161013591906106ec565b60405180910390f35b6060806004805490508310610188576040517f08c379a000000000000000000000000000000000000000000000000000000000815260040161017f90610756565b60405180910390fd5b5f6004848154811061019d5761019c610774565b5b905f5260205f2090600202016040518060400160405290815f820180546101c3906107ce565b80601f01602080910402602001604051908101604052809291908181526020018280546101ef906107ce565b801561023a5780601f106102115761010080835404028352916020019161023a565b820191905f5260205f20905b81548152906001019060200180831161021d57829003601f168201915b50505050508152602001600182018054610253906107ce565b80601f016020809104026020016040519081016040528092919081815260200182805461027f906107ce565b80156102ca5780601f106102a1576101008083540402835291602001916102ca565b820191905f5260205f20905b8154815290600101906020018083116102ad57829003601f168201915b5050505050815250509050805f015181602001519250925050915091565b60025481565b600481815481106102fd575f80fd5b905f5260205f2090600202015f91509050805f01805461031c906107ce565b80601f0160208091040260200160405190810160405280929190818152602001828054610348906107ce565b80156103935780601f1061036a57610100808354040283529160200191610393565b820191905f5260205f20905b81548152906001019060200180831161037657829003601f168201915b5050505050908060010180546103a8906107ce565b80601f01602080910402602001604051908101604052809291908181526020018280546103d4906107ce565b801561041f5780601f106103f65761010080835404028352916020019161041f565b820191905f5260205f20905b81548152906001019060200180831161040257829003601f168201915b5050505050905082565b60035f9054906101000a900473ffffffffffffffffffffffffffffffffffffffff1681565b5f805461045a906107ce565b80601f0160208091040260200160405190810160405280929190818152602001828054610486906107ce565b80156104d15780601f106104a8576101008083540402835291602001916104d1565b820191905f5260205f20905b8154815290600101906020018083116104b457829003601f168201915b505050505081565b600180546104e6906107ce565b80601f0160208091040260200160405190810160405280929190818152602001828054610512906107ce565b801561055d5780601f106105345761010080835404028352916020019161055d565b820191905f5260205f20905b81548152906001019060200180831161054057829003601f168201915b505050505081565b5f5ffd5b5f819050919050565b61057b81610569565b8114610585575f5ffd5b50565b5f8135905061059681610572565b92915050565b5f602082840312156105b1576105b0610565565b5b5f6105be84828501610588565b91505092915050565b5f81519050919050565b5f82825260208201905092915050565b8281835e5f83830152505050565b5f601f19601f8301169050919050565b5f610609826105c7565b61061381856105d1565b93506106238185602086016105e1565b61062c816105ef565b840191505092915050565b5f6040820190508181035f83015261064f81856105ff565b9050818103602083015261066381846105ff565b90509392505050565b61067581610569565b82525050565b5f60208201905061068e5f83018461066c565b92915050565b5f73ffffffffffffffffffffffffffffffffffffffff82169050919050565b5f6106bd82610694565b9050919050565b6106cd816106b3565b82525050565b5f6020820190506106e65f8301846106c4565b92915050565b5f6020820190508181035f83015261070481846105ff565b905092915050565b7f496e76616c696420696e646578000000000000000000000000000000000000005f82015250565b5f610740600d836105d1565b915061074b8261070c565b602082019050919050565b5f6020820190508181035f83015261076d81610734565b9050919050565b7f4e487b71000000000000000000000000000000000000000000000000000000005f52603260045260245ffd5b7f4e487b71000000000000000000000000000000000000000000000000000000005f52602260045260245ffd5b5f60028204905060018216806107e557607f821691505b6020821081036107f8576107f76107a1565b5b5091905056fea2646970667358221220e1b17cd5540a92b90702e334b39437137da842a0d6439a1d04aa9b459938534864736f6c634300081e0033",
					"opcodes": "PUSH1 0x80 PUSH1 0x40 MSTORE CALLVALUE DUP1 ISZERO PUSH2 0xF JUMPI PUSH0 PUSH0 REVERT JUMPDEST POP PUSH1 0x40 MLOAD PUSH2 0xE2D CODESIZE SUB DUP1 PUSH2 0xE2D DUP4 CODECOPY DUP2 DUP2 ADD PUSH1 0x40 MSTORE DUP2 ADD SWAP1 PUSH2 0x31 SWAP2 SWAP1 PUSH2 0x27A JUMP JUMPDEST DUP4 PUSH0 SWAP1 DUP2 PUSH2 0x3F SWAP2 SWAP1 PUSH2 0x51D JUMP JUMPDEST POP DUP3 PUSH1 0x1 SWAP1 DUP2 PUSH2 0x4F SWAP2 SWAP1 PUSH2 0x51D JUMP JUMPDEST POP DUP2 PUSH1 0x2 DUP2 SWAP1 SSTORE POP DUP1 PUSH1 0x3 PUSH0 PUSH2 0x100 EXP DUP2 SLOAD DUP2 PUSH20 0xFFFFFFFFFFFFFFFFFFFFFFFFFFFFFFFFFFFFFFFF MUL NOT AND SWAP1 DUP4 PUSH20 0xFFFFFFFFFFFFFFFFFFFFFFFFFFFFFFFFFFFFFFFF AND MUL OR SWAP1 SSTORE POP POP POP POP POP PUSH2 0x5EC JUMP JUMPDEST PUSH0 PUSH1 0x40 MLOAD SWAP1 POP SWAP1 JUMP JUMPDEST PUSH0 PUSH0 REVERT JUMPDEST PUSH0 PUSH0 REVERT JUMPDEST PUSH0 PUSH0 REVERT JUMPDEST PUSH0 PUSH0 REVERT JUMPDEST PUSH0 PUSH1 0x1F NOT PUSH1 0x1F DUP4 ADD AND SWAP1 POP SWAP2 SWAP1 POP JUMP JUMPDEST PUSH32 0x4E487B7100000000000000000000000000000000000000000000000000000000 PUSH0 MSTORE PUSH1 0x41 PUSH1 0x4 MSTORE PUSH1 0x24 PUSH0 REVERT JUMPDEST PUSH2 0xFF DUP3 PUSH2 0xB9 JUMP JUMPDEST DUP2 ADD DUP2 DUP2 LT PUSH8 0xFFFFFFFFFFFFFFFF DUP3 GT OR ISZERO PUSH2 0x11E JUMPI PUSH2 0x11D PUSH2 0xC9 JUMP JUMPDEST JUMPDEST DUP1 PUSH1 0x40 MSTORE POP POP POP JUMP JUMPDEST PUSH0 PUSH2 0x130 PUSH2 0xA0 JUMP JUMPDEST SWAP1 POP PUSH2 0x13C DUP3 DUP3 PUSH2 0xF6 JUMP JUMPDEST SWAP2 SWAP1 POP JUMP JUMPDEST PUSH0 PUSH8 0xFFFFFFFFFFFFFFFF DUP3 GT ISZERO PUSH2 0x15B JUMPI PUSH2 0x15A PUSH2 0xC9 JUMP JUMPDEST JUMPDEST PUSH2 0x164 DUP3 PUSH2 0xB9 JUMP JUMPDEST SWAP1 POP PUSH1 0x20 DUP2 ADD SWAP1 POP SWAP2 SWAP1 POP JUMP JUMPDEST DUP3 DUP2 DUP4 MCOPY PUSH0 DUP4 DUP4 ADD MSTORE POP POP POP JUMP JUMPDEST PUSH0 PUSH2 0x191 PUSH2 0x18C DUP5 PUSH2 0x141 JUMP JUMPDEST PUSH2 0x127 JUMP JUMPDEST SWAP1 POP DUP3 DUP2 MSTORE PUSH1 0x20 DUP2 ADD DUP5 DUP5 DUP5 ADD GT ISZERO PUSH2 0x1AD JUMPI PUSH2 0x1AC PUSH2 0xB5 JUMP JUMPDEST JUMPDEST PUSH2 0x1B8 DUP5 DUP3 DUP6 PUSH2 0x171 JUMP JUMPDEST POP SWAP4 SWAP3 POP POP POP JUMP JUMPDEST PUSH0 DUP3 PUSH1 0x1F DUP4 ADD SLT PUSH2 0x1D4 JUMPI PUSH2 0x1D3 PUSH2 0xB1 JUMP JUMPDEST JUMPDEST DUP2 MLOAD PUSH2 0x1E4 DUP5 DUP3 PUSH1 0x20 DUP7 ADD PUSH2 0x17F JUMP JUMPDEST SWAP2 POP POP SWAP3 SWAP2 POP POP JUMP JUMPDEST PUSH0 DUP2 SWAP1 POP SWAP2 SWAP1 POP JUMP JUMPDEST PUSH2 0x1FF DUP2 PUSH2 0x1ED JUMP JUMPDEST DUP2 EQ PUSH2 0x209 JUMPI PUSH0 PUSH0 REVERT JUMPDEST POP JUMP JUMPDEST PUSH0 DUP2 MLOAD SWAP1 POP PUSH2 0x21A DUP2 PUSH2 0x1F6 JUMP JUMPDEST SWAP3 SWAP2 POP POP JUMP JUMPDEST PUSH0 PUSH20 0xFFFFFFFFFFFFFFFFFFFFFFFFFFFFFFFFFFFFFFFF DUP3 AND SWAP1 POP SWAP2 SWAP1 POP JUMP JUMPDEST PUSH0 PUSH2 0x249 DUP3 PUSH2 0x220 JUMP JUMPDEST SWAP1 POP SWAP2 SWAP1 POP JUMP JUMPDEST PUSH2 0x259 DUP2 PUSH2 0x23F JUMP JUMPDEST DUP2 EQ PUSH2 0x263 JUMPI PUSH0 PUSH0 REVERT JUMPDEST POP JUMP JUMPDEST PUSH0 DUP2 MLOAD SWAP1 POP PUSH2 0x274 DUP2 PUSH2 0x250 JUMP JUMPDEST SWAP3 SWAP2 POP POP JUMP JUMPDEST PUSH0 PUSH0 PUSH0 PUSH0 PUSH1 0x80 DUP6 DUP8 SUB SLT ISZERO PUSH2 0x292 JUMPI PUSH2 0x291 PUSH2 0xA9 JUMP JUMPDEST JUMPDEST PUSH0 DUP6 ADD MLOAD PUSH8 0xFFFFFFFFFFFFFFFF DUP2 GT ISZERO PUSH2 0x2AF JUMPI PUSH2 0x2AE PUSH2 0xAD JUMP JUMPDEST JUMPDEST PUSH2 0x2BB DUP8 DUP3 DUP9 ADD PUSH2 0x1C0 JUMP JUMPDEST SWAP5 POP POP PUSH1 0x20 DUP6 ADD MLOAD PUSH8 0xFFFFFFFFFFFFFFFF DUP2 GT ISZERO PUSH2 0x2DC JUMPI PUSH2 0x2DB PUSH2 0xAD JUMP JUMPDEST JUMPDEST PUSH2 0x2E8 DUP8 DUP3 DUP9 ADD PUSH2 0x1C0 JUMP JUMPDEST SWAP4 POP POP PUSH1 0x40 PUSH2 0x2F9 DUP8 DUP3 DUP9 ADD PUSH2 0x20C JUMP JUMPDEST SWAP3 POP POP PUSH1 0x60 PUSH2 0x30A DUP8 DUP3 DUP9 ADD PUSH2 0x266 JUMP JUMPDEST SWAP2 POP POP SWAP3 SWAP6 SWAP2 SWAP5 POP SWAP3 POP JUMP JUMPDEST PUSH0 DUP2 MLOAD SWAP1 POP SWAP2 SWAP1 POP JUMP JUMPDEST PUSH32 0x4E487B7100000000000000000000000000000000000000000000000000000000 PUSH0 MSTORE PUSH1 0x22 PUSH1 0x4 MSTORE PUSH1 0x24 PUSH0 REVERT JUMPDEST PUSH0 PUSH1 0x2 DUP3 DIV SWAP1 POP PUSH1 0x1 DUP3 AND DUP1 PUSH2 0x364 JUMPI PUSH1 0x7F DUP3 AND SWAP2 POP JUMPDEST PUSH1 0x20 DUP3 LT DUP2 SUB PUSH2 0x377 JUMPI PUSH2 0x376 PUSH2 0x320 JUMP JUMPDEST JUMPDEST POP SWAP2 SWAP1 POP JUMP JUMPDEST PUSH0 DUP2 SWAP1 POP DUP2 PUSH0 MSTORE PUSH1 0x20 PUSH0 KECCAK256 SWAP1 POP SWAP2 SWAP1 POP JUMP JUMPDEST PUSH0 PUSH1 0x20 PUSH1 0x1F DUP4 ADD DIV SWAP1 POP SWAP2 SWAP1 POP JUMP JUMPDEST PUSH0 DUP3 DUP3 SHL SWAP1 POP SWAP3 SWAP2 POP POP JUMP JUMPDEST PUSH0 PUSH1 0x8 DUP4 MUL PUSH2 0x3D9 PUSH32 0xFFFFFFFFFFFFFFFFFFFFFFFFFFFFFFFFFFFFFFFFFFFFFFFFFFFFFFFFFFFFFFFF DUP3 PUSH2 0x39E JUMP JUMPDEST PUSH2 0x3E3 DUP7 DUP4 PUSH2 0x39E JUMP JUMPDEST SWAP6 POP DUP1 NOT DUP5 AND SWAP4 POP DUP1 DUP7 AND DUP5 OR SWAP3 POP POP POP SWAP4 SWAP3 POP POP POP JUMP JUMPDEST PUSH0 DUP2 SWAP1 POP SWAP2 SWAP1 POP JUMP JUMPDEST PUSH0 PUSH2 0x41E PUSH2 0x419 PUSH2 0x414 DUP5 PUSH2 0x1ED JUMP JUMPDEST PUSH2 0x3FB JUMP JUMPDEST PUSH2 0x1ED JUMP JUMPDEST SWAP1 POP SWAP2 SWAP1 POP JUMP JUMPDEST PUSH0 DUP2 SWAP1 POP SWAP2 SWAP1 POP JUMP JUMPDEST PUSH2 0x437 DUP4 PUSH2 0x404 JUMP JUMPDEST PUSH2 0x44B PUSH2 0x443 DUP3 PUSH2 0x425 JUMP JUMPDEST DUP5 DUP5 SLOAD PUSH2 0x3AA JUMP JUMPDEST DUP3 SSTORE POP POP POP POP JUMP JUMPDEST PUSH0 PUSH0 SWAP1 POP SWAP1 JUMP JUMPDEST PUSH2 0x462 PUSH2 0x453 JUMP JUMPDEST PUSH2 0x46D DUP2 DUP5 DUP5 PUSH2 0x42E JUMP JUMPDEST POP POP POP JUMP JUMPDEST JUMPDEST DUP2 DUP2 LT ISZERO PUSH2 0x490 JUMPI PUSH2 0x485 PUSH0 DUP3 PUSH2 0x45A JUMP JUMPDEST PUSH1 0x1 DUP2 ADD SWAP1 POP PUSH2 0x473 JUMP JUMPDEST POP POP JUMP JUMPDEST PUSH1 0x1F DUP3 GT ISZERO PUSH2 0x4D5 JUMPI PUSH2 0x4A6 DUP2 PUSH2 0x37D JUMP JUMPDEST PUSH2 0x4AF DUP5 PUSH2 0x38F JUMP JUMPDEST DUP2 ADD PUSH1 0x20 DUP6 LT ISZERO PUSH2 0x4BE JUMPI DUP2 SWAP1 POP JUMPDEST PUSH2 0x4D2 PUSH2 0x4CA DUP6 PUSH2 0x38F JUMP JUMPDEST DUP4 ADD DUP3 PUSH2 0x472 JUMP JUMPDEST POP POP JUMPDEST POP POP POP JUMP JUMPDEST PUSH0 DUP3 DUP3 SHR SWAP1 POP SWAP3 SWAP2 POP POP JUMP JUMPDEST PUSH0 PUSH2 0x4F5 PUSH0 NOT DUP5 PUSH1 0x8 MUL PUSH2 0x4DA JUMP JUMPDEST NOT DUP1 DUP4 AND SWAP2 POP POP SWAP3 SWAP2 POP POP JUMP JUMPDEST PUSH0 PUSH2 0x50D DUP4 DUP4 PUSH2 0x4E6 JUMP JUMPDEST SWAP2 POP DUP3 PUSH1 0x2 MUL DUP3 OR SWAP1 POP SWAP3 SWAP2 POP POP JUMP JUMPDEST PUSH2 0x526 DUP3 PUSH2 0x316 JUMP JUMPDEST PUSH8 0xFFFFFFFFFFFFFFFF DUP2 GT ISZERO PUSH2 0x53F JUMPI PUSH2 0x53E PUSH2 0xC9 JUMP JUMPDEST JUMPDEST PUSH2 0x549 DUP3 SLOAD PUSH2 0x34D JUMP JUMPDEST PUSH2 0x554 DUP3 DUP3 DUP6 PUSH2 0x494 JUMP JUMPDEST PUSH0 PUSH1 0x20 SWAP1 POP PUSH1 0x1F DUP4 GT PUSH1 0x1 DUP2 EQ PUSH2 0x585 JUMPI PUSH0 DUP5 ISZERO PUSH2 0x573 JUMPI DUP3 DUP8 ADD MLOAD SWAP1 POP JUMPDEST PUSH2 0x57D DUP6 DUP3 PUSH2 0x502 JUMP JUMPDEST DUP7 SSTORE POP PUSH2 0x5E4 JUMP JUMPDEST PUSH1 0x1F NOT DUP5 AND PUSH2 0x593 DUP7 PUSH2 0x37D JUMP JUMPDEST PUSH0 JUMPDEST DUP3 DUP2 LT ISZERO PUSH2 0x5BA JUMPI DUP5 DUP10 ADD MLOAD DUP3 SSTORE PUSH1 0x1 DUP3 ADD SWAP2 POP PUSH1 0x20 DUP6 ADD SWAP5 POP PUSH1 0x20 DUP2 ADD SWAP1 POP PUSH2 0x595 JUMP JUMPDEST DUP7 DUP4 LT ISZERO PUSH2 0x5D7 JUMPI DUP5 DUP10 ADD MLOAD PUSH2 0x5D3 PUSH1 0x1F DUP10 AND DUP3 PUSH2 0x4E6 JUMP JUMPDEST DUP4 SSTORE POP JUMPDEST PUSH1 0x1 PUSH1 0x2 DUP9 MUL ADD DUP9 SSTORE POP POP POP JUMPDEST POP POP POP POP POP POP JUMP JUMPDEST PUSH2 0x834 DUP1 PUSH2 0x5F9 PUSH0 CODECOPY PUSH0 RETURN INVALID PUSH1 0x80 PUSH1 0x40 MSTORE CALLVALUE DUP1 ISZERO PUSH2 0xF JUMPI PUSH0 PUSH0 REVERT JUMPDEST POP PUSH1 0x4 CALLDATASIZE LT PUSH2 0x60 JUMPI PUSH0 CALLDATALOAD PUSH1 0xE0 SHR DUP1 PUSH4 0x2E325020 EQ PUSH2 0x64 JUMPI DUP1 PUSH4 0x667B6E61 EQ PUSH2 0x95 JUMPI DUP1 PUSH4 0x845DDCB2 EQ PUSH2 0xB3 JUMPI DUP1 PUSH4 0x8DA5CB5B EQ PUSH2 0xE4 JUMPI DUP1 PUSH4 0xDB3CB581 EQ PUSH2 0x102 JUMPI DUP1 PUSH4 0xE2B3F6D8 EQ PUSH2 0x120 JUMPI JUMPDEST PUSH0 PUSH0 REVERT JUMPDEST PUSH2 0x7E PUSH1 0x4 DUP1 CALLDATASIZE SUB DUP2 ADD SWAP1 PUSH2 0x79 SWAP2 SWAP1 PUSH2 0x59C JUMP JUMPDEST PUSH2 0x13E JUMP JUMPDEST PUSH1 0x40 MLOAD PUSH2 0x8C SWAP3 SWAP2 SWAP1 PUSH2 0x637 JUMP JUMPDEST PUSH1 0x40 MLOAD DUP1 SWAP2 SUB SWAP1 RETURN JUMPDEST PUSH2 0x9D PUSH2 0x2E8 JUMP JUMPDEST PUSH1 0x40 MLOAD PUSH2 0xAA SWAP2 SWAP1 PUSH2 0x67B JUMP JUMPDEST PUSH1 0x40 MLOAD DUP1 SWAP2 SUB SWAP1 RETURN JUMPDEST PUSH2 0xCD PUSH1 0x4 DUP1 CALLDATASIZE SUB DUP2 ADD SWAP1 PUSH2 0xC8 SWAP2 SWAP1 PUSH2 0x59C JUMP JUMPDEST PUSH2 0x2EE JUMP JUMPDEST PUSH1 0x40 MLOAD PUSH2 0xDB SWAP3 SWAP2 SWAP1 PUSH2 0x637 JUMP JUMPDEST PUSH1 0x40 MLOAD DUP1 SWAP2 SUB SWAP1 RETURN JUMPDEST PUSH2 0xEC PUSH2 0x429 JUMP JUMPDEST PUSH1 0x40 MLOAD PUSH2 0xF9 SWAP2 SWAP1 PUSH2 0x6D3 JUMP JUMPDEST PUSH1 0x40 MLOAD DUP1 SWAP2 SUB SWAP1 RETURN JUMPDEST PUSH2 0x10A PUSH2 0x44E JUMP JUMPDEST PUSH1 0x40 MLOAD PUSH2 0x117 SWAP2 SWAP1 PUSH2 0x6EC JUMP JUMPDEST PUSH1 0x40 MLOAD DUP1 SWAP2 SUB SWAP1 RETURN JUMPDEST PUSH2 0x128 PUSH2 0x4D9 JUMP JUMPDEST PUSH1 0x40 MLOAD PUSH2 0x135 SWAP2 SWAP1 PUSH2 0x6EC JUMP JUMPDEST PUSH1 0x40 MLOAD DUP1 SWAP2 SUB SWAP1 RETURN JUMPDEST PUSH1 0x60 DUP1 PUSH1 0x4 DUP1 SLOAD SWAP1 POP DUP4 LT PUSH2 0x188 JUMPI PUSH1 0x40 MLOAD PUSH32 0x8C379A000000000000000000000000000000000000000000000000000000000 DUP2 MSTORE PUSH1 0x4 ADD PUSH2 0x17F SWAP1 PUSH2 0x756 JUMP JUMPDEST PUSH1 0x40 MLOAD DUP1 SWAP2 SUB SWAP1 REVERT JUMPDEST PUSH0 PUSH1 0x4 DUP5 DUP2 SLOAD DUP2 LT PUSH2 0x19D JUMPI PUSH2 0x19C PUSH2 0x774 JUMP JUMPDEST JUMPDEST SWAP1 PUSH0 MSTORE PUSH1 0x20 PUSH0 KECCAK256 SWAP1 PUSH1 0x2 MUL ADD PUSH1 0x40 MLOAD DUP1 PUSH1 0x40 ADD PUSH1 0x40 MSTORE SWAP1 DUP2 PUSH0 DUP3 ADD DUP1 SLOAD PUSH2 0x1C3 SWAP1 PUSH2 0x7CE JUMP JUMPDEST DUP1 PUSH1 0x1F ADD PUSH1 0x20 DUP1 SWAP2 DIV MUL PUSH1 0x20 ADD PUSH1 0x40 MLOAD SWAP1 DUP2 ADD PUSH1 0x40 MSTORE DUP1 SWAP3 SWAP2 SWAP1 DUP2 DUP2 MSTORE PUSH1 0x20 ADD DUP3 DUP1 SLOAD PUSH2 0x1EF SWAP1 PUSH2 0x7CE JUMP JUMPDEST DUP1 ISZERO PUSH2 0x23A JUMPI DUP1 PUSH1 0x1F LT PUSH2 0x211 JUMPI PUSH2 0x100 DUP1 DUP4 SLOAD DIV MUL DUP4 MSTORE SWAP2 PUSH1 0x20 ADD SWAP2 PUSH2 0x23A JUMP JUMPDEST DUP3 ADD SWAP2 SWAP1 PUSH0 MSTORE PUSH1 0x20 PUSH0 KECCAK256 SWAP1 JUMPDEST DUP2 SLOAD DUP2 MSTORE SWAP1 PUSH1 0x1 ADD SWAP1 PUSH1 0x20 ADD DUP1 DUP4 GT PUSH2 0x21D JUMPI DUP3 SWAP1 SUB PUSH1 0x1F AND DUP3 ADD SWAP2 JUMPDEST POP POP POP POP POP DUP2 MSTORE PUSH1 0x20 ADD PUSH1 0x1 DUP3 ADD DUP1 SLOAD PUSH2 0x253 SWAP1 PUSH2 0x7CE JUMP JUMPDEST DUP1 PUSH1 0x1F ADD PUSH1 0x20 DUP1 SWAP2 DIV MUL PUSH1 0x20 ADD PUSH1 0x40 MLOAD SWAP1 DUP2 ADD PUSH1 0x40 MSTORE DUP1 SWAP3 SWAP2 SWAP1 DUP2 DUP2 MSTORE PUSH1 0x20 ADD DUP3 DUP1 SLOAD PUSH2 0x27F SWAP1 PUSH2 0x7CE JUMP JUMPDEST DUP1 ISZERO PUSH2 0x2CA JUMPI DUP1 PUSH1 0x1F LT PUSH2 0x2A1 JUMPI PUSH2 0x100 DUP1 DUP4 SLOAD DIV MUL DUP4 MSTORE SWAP2 PUSH1 0x20 ADD SWAP2 PUSH2 0x2CA JUMP JUMPDEST DUP3 ADD SWAP2 SWAP1 PUSH0 MSTORE PUSH1 0x20 PUSH0 KECCAK256 SWAP1 JUMPDEST DUP2 SLOAD DUP2 MSTORE SWAP1 PUSH1 0x1 ADD SWAP1 PUSH1 0x20 ADD DUP1 DUP4 GT PUSH2 0x2AD JUMPI DUP3 SWAP1 SUB PUSH1 0x1F AND DUP3 ADD SWAP2 JUMPDEST POP POP POP POP POP DUP2 MSTORE POP POP SWAP1 POP DUP1 PUSH0 ADD MLOAD DUP2 PUSH1 0x20 ADD MLOAD SWAP3 POP SWAP3 POP POP SWAP2 POP SWAP2 JUMP JUMPDEST PUSH1 0x2 SLOAD DUP2 JUMP JUMPDEST PUSH1 0x4 DUP2 DUP2 SLOAD DUP2 LT PUSH2 0x2FD JUMPI PUSH0 DUP1 REVERT JUMPDEST SWAP1 PUSH0 MSTORE PUSH1 0x20 PUSH0 KECCAK256 SWAP1 PUSH1 0x2 MUL ADD PUSH0 SWAP2 POP SWAP1 POP DUP1 PUSH0 ADD DUP1 SLOAD PUSH2 0x31C SWAP1 PUSH2 0x7CE JUMP JUMPDEST DUP1 PUSH1 0x1F ADD PUSH1 0x20 DUP1 SWAP2 DIV MUL PUSH1 0x20 ADD PUSH1 0x40 MLOAD SWAP1 DUP2 ADD PUSH1 0x40 MSTORE DUP1 SWAP3 SWAP2 SWAP1 DUP2 DUP2 MSTORE PUSH1 0x20 ADD DUP3 DUP1 SLOAD PUSH2 0x348 SWAP1 PUSH2 0x7CE JUMP JUMPDEST DUP1 ISZERO PUSH2 0x393 JUMPI DUP1 PUSH1 0x1F LT PUSH2 0x36A JUMPI PUSH2 0x100 DUP1 DUP4 SLOAD DIV MUL DUP4 MSTORE SWAP2 PUSH1 0x20 ADD SWAP2 PUSH2 0x393 JUMP JUMPDEST DUP3 ADD SWAP2 SWAP1 PUSH0 MSTORE PUSH1 0x20 PUSH0 KECCAK256 SWAP1 JUMPDEST DUP2 SLOAD DUP2 MSTORE SWAP1 PUSH1 0x1 ADD SWAP1 PUSH1 0x20 ADD DUP1 DUP4 GT PUSH2 0x376 JUMPI DUP3 SWAP1 SUB PUSH1 0x1F AND DUP3 ADD SWAP2 JUMPDEST POP POP POP POP POP SWAP1 DUP1 PUSH1 0x1 ADD DUP1 SLOAD PUSH2 0x3A8 SWAP1 PUSH2 0x7CE JUMP JUMPDEST DUP1 PUSH1 0x1F ADD PUSH1 0x20 DUP1 SWAP2 DIV MUL PUSH1 0x20 ADD PUSH1 0x40 MLOAD SWAP1 DUP2 ADD PUSH1 0x40 MSTORE DUP1 SWAP3 SWAP2 SWAP1 DUP2 DUP2 MSTORE PUSH1 0x20 ADD DUP3 DUP1 SLOAD PUSH2 0x3D4 SWAP1 PUSH2 0x7CE JUMP JUMPDEST DUP1 ISZERO PUSH2 0x41F JUMPI DUP1 PUSH1 0x1F LT PUSH2 0x3F6 JUMPI PUSH2 0x100 DUP1 DUP4 SLOAD DIV MUL DUP4 MSTORE SWAP2 PUSH1 0x20 ADD SWAP2 PUSH2 0x41F JUMP JUMPDEST DUP3 ADD SWAP2 SWAP1 PUSH0 MSTORE PUSH1 0x20 PUSH0 KECCAK256 SWAP1 JUMPDEST DUP2 SLOAD DUP2 MSTORE SWAP1 PUSH1 0x1 ADD SWAP1 PUSH1 0x20 ADD DUP1 DUP4 GT PUSH2 0x402 JUMPI DUP3 SWAP1 SUB PUSH1 0x1F AND DUP3 ADD SWAP2 JUMPDEST POP POP POP POP POP SWAP1 POP DUP3 JUMP JUMPDEST PUSH1 0x3 PUSH0 SWAP1 SLOAD SWAP1 PUSH2 0x100 EXP SWAP1 DIV PUSH20 0xFFFFFFFFFFFFFFFFFFFFFFFFFFFFFFFFFFFFFFFF AND DUP2 JUMP JUMPDEST PUSH0 DUP1 SLOAD PUSH2 0x45A SWAP1 PUSH2 0x7CE JUMP JUMPDEST DUP1 PUSH1 0x1F ADD PUSH1 0x20 DUP1 SWAP2 DIV MUL PUSH1 0x20 ADD PUSH1 0x40 MLOAD SWAP1 DUP2 ADD PUSH1 0x40 MSTORE DUP1 SWAP3 SWAP2 SWAP1 DUP2 DUP2 MSTORE PUSH1 0x20 ADD DUP3 DUP1 SLOAD PUSH2 0x486 SWAP1 PUSH2 0x7CE JUMP JUMPDEST DUP1 ISZERO PUSH2 0x4D1 JUMPI DUP1 PUSH1 0x1F LT PUSH2 0x4A8 JUMPI PUSH2 0x100 DUP1 DUP4 SLOAD DIV MUL DUP4 MSTORE SWAP2 PUSH1 0x20 ADD SWAP2 PUSH2 0x4D1 JUMP JUMPDEST DUP3 ADD SWAP2 SWAP1 PUSH0 MSTORE PUSH1 0x20 PUSH0 KECCAK256 SWAP1 JUMPDEST DUP2 SLOAD DUP2 MSTORE SWAP1 PUSH1 0x1 ADD SWAP1 PUSH1 0x20 ADD DUP1 DUP4 GT PUSH2 0x4B4 JUMPI DUP3 SWAP1 SUB PUSH1 0x1F AND DUP3 ADD SWAP2 JUMPDEST POP POP POP POP POP DUP2 JUMP JUMPDEST PUSH1 0x1 DUP1 SLOAD PUSH2 0x4E6 SWAP1 PUSH2 0x7CE JUMP JUMPDEST DUP1 PUSH1 0x1F ADD PUSH1 0x20 DUP1 SWAP2 DIV MUL PUSH1 0x20 ADD PUSH1 0x40 MLOAD SWAP1 DUP2 ADD PUSH1 0x40 MSTORE DUP1 SWAP3 SWAP2 SWAP1 DUP2 DUP2 MSTORE PUSH1 0x20 ADD DUP3 DUP1 SLOAD PUSH2 0x512 SWAP1 PUSH2 0x7CE JUMP JUMPDEST DUP1 ISZERO PUSH2 0x55D JUMPI DUP1 PUSH1 0x1F LT PUSH2 0x534 JUMPI PUSH2 0x100 DUP1 DUP4 SLOAD DIV MUL DUP4 MSTORE SWAP2 PUSH1 0x20 ADD SWAP2 PUSH2 0x55D JUMP JUMPDEST DUP3 ADD SWAP2 SWAP1 PUSH0 MSTORE PUSH1 0x20 PUSH0 KECCAK256 SWAP1 JUMPDEST DUP2 SLOAD DUP2 MSTORE SWAP1 PUSH1 0x1 ADD SWAP1 PUSH1 0x20 ADD DUP1 DUP4 GT PUSH2 0x540 JUMPI DUP3 SWAP1 SUB PUSH1 0x1F AND DUP3 ADD SWAP2 JUMPDEST POP POP POP POP POP DUP2 JUMP JUMPDEST PUSH0 PUSH0 REVERT JUMPDEST PUSH0 DUP2 SWAP1 POP SWAP2 SWAP1 POP JUMP JUMPDEST PUSH2 0x57B DUP2 PUSH2 0x569 JUMP JUMPDEST DUP2 EQ PUSH2 0x585 JUMPI PUSH0 PUSH0 REVERT JUMPDEST POP JUMP JUMPDEST PUSH0 DUP2 CALLDATALOAD SWAP1 POP PUSH2 0x596 DUP2 PUSH2 0x572 JUMP JUMPDEST SWAP3 SWAP2 POP POP JUMP JUMPDEST PUSH0 PUSH1 0x20 DUP3 DUP5 SUB SLT ISZERO PUSH2 0x5B1 JUMPI PUSH2 0x5B0 PUSH2 0x565 JUMP JUMPDEST JUMPDEST PUSH0 PUSH2 0x5BE DUP5 DUP3 DUP6 ADD PUSH2 0x588 JUMP JUMPDEST SWAP2 POP POP SWAP3 SWAP2 POP POP JUMP JUMPDEST PUSH0 DUP2 MLOAD SWAP1 POP SWAP2 SWAP1 POP JUMP JUMPDEST PUSH0 DUP3 DUP3 MSTORE PUSH1 0x20 DUP3 ADD SWAP1 POP SWAP3 SWAP2 POP POP JUMP JUMPDEST DUP3 DUP2 DUP4 MCOPY PUSH0 DUP4 DUP4 ADD MSTORE POP POP POP JUMP JUMPDEST PUSH0 PUSH1 0x1F NOT PUSH1 0x1F DUP4 ADD AND SWAP1 POP SWAP2 SWAP1 POP JUMP JUMPDEST PUSH0 PUSH2 0x609 DUP3 PUSH2 0x5C7 JUMP JUMPDEST PUSH2 0x613 DUP2 DUP6 PUSH2 0x5D1 JUMP JUMPDEST SWAP4 POP PUSH2 0x623 DUP2 DUP6 PUSH1 0x20 DUP7 ADD PUSH2 0x5E1 JUMP JUMPDEST PUSH2 0x62C DUP2 PUSH2 0x5EF JUMP JUMPDEST DUP5 ADD SWAP2 POP POP SWAP3 SWAP2 POP POP JUMP JUMPDEST PUSH0 PUSH1 0x40 DUP3 ADD SWAP1 POP DUP2 DUP2 SUB PUSH0 DUP4 ADD MSTORE PUSH2 0x64F DUP2 DUP6 PUSH2 0x5FF JUMP JUMPDEST SWAP1 POP DUP2 DUP2 SUB PUSH1 0x20 DUP4 ADD MSTORE PUSH2 0x663 DUP2 DUP5 PUSH2 0x5FF JUMP JUMPDEST SWAP1 POP SWAP4 SWAP3 POP POP POP JUMP JUMPDEST PUSH2 0x675 DUP2 PUSH2 0x569 JUMP JUMPDEST DUP3 MSTORE POP POP JUMP JUMPDEST PUSH0 PUSH1 0x20 DUP3 ADD SWAP1 POP PUSH2 0x68E PUSH0 DUP4 ADD DUP5 PUSH2 0x66C JUMP JUMPDEST SWAP3 SWAP2 POP POP JUMP JUMPDEST PUSH0 PUSH20 0xFFFFFFFFFFFFFFFFFFFFFFFFFFFFFFFFFFFFFFFF DUP3 AND SWAP1 POP SWAP2 SWAP1 POP JUMP JUMPDEST PUSH0 PUSH2 0x6BD DUP3 PUSH2 0x694 JUMP JUMPDEST SWAP1 POP SWAP2 SWAP1 POP JUMP JUMPDEST PUSH2 0x6CD DUP2 PUSH2 0x6B3 JUMP JUMPDEST DUP3 MSTORE POP POP JUMP JUMPDEST PUSH0 PUSH1 0x20 DUP3 ADD SWAP1 POP PUSH2 0x6E6 PUSH0 DUP4 ADD DUP5 PUSH2 0x6C4 JUMP JUMPDEST SWAP3 SWAP2 POP POP JUMP JUMPDEST PUSH0 PUSH1 0x20 DUP3 ADD SWAP1 POP DUP2 DUP2 SUB PUSH0 DUP4 ADD MSTORE PUSH2 0x704 DUP2 DUP5 PUSH2 0x5FF JUMP JUMPDEST SWAP1 POP SWAP3 SWAP2 POP POP JUMP JUMPDEST PUSH32 0x496E76616C696420696E64657800000000000000000000000000000000000000 PUSH0 DUP3 ADD MSTORE POP JUMP JUMPDEST PUSH0 PUSH2 0x740 PUSH1 0xD DUP4 PUSH2 0x5D1 JUMP JUMPDEST SWAP2 POP PUSH2 0x74B DUP3 PUSH2 0x70C JUMP JUMPDEST PUSH1 0x20 DUP3 ADD SWAP1 POP SWAP2 SWAP1 POP JUMP JUMPDEST PUSH0 PUSH1 0x20 DUP3 ADD SWAP1 POP DUP2 DUP2 SUB PUSH0 DUP4 ADD MSTORE PUSH2 0x76D DUP2 PUSH2 0x734 JUMP JUMPDEST SWAP1 POP SWAP2 SWAP1 POP JUMP JUMPDEST PUSH32 0x4E487B7100000000000000000000000000000000000000000000000000000000 PUSH0 MSTORE PUSH1 0x32 PUSH1 0x4 MSTORE PUSH1 0x24 PUSH0 REVERT JUMPDEST PUSH32 0x4E487B7100000000000000000000000000000000000000000000000000000000 PUSH0 MSTORE PUSH1 0x22 PUSH1 0x4 MSTORE PUSH1 0x24 PUSH0 REVERT JUMPDEST PUSH0 PUSH1 0x2 DUP3 DIV SWAP1 POP PUSH1 0x1 DUP3 AND DUP1 PUSH2 0x7E5 JUMPI PUSH1 0x7F DUP3 AND SWAP2 POP JUMPDEST PUSH1 0x20 DUP3 LT DUP2 SUB PUSH2 0x7F8 JUMPI PUSH2 0x7F7 PUSH2 0x7A1 JUMP JUMPDEST JUMPDEST POP SWAP2 SWAP1 POP JUMP INVALID LOG2 PUSH5 0x6970667358 0x22 SLT KECCAK256 RJUMPI 0xB17C 0xD5 SLOAD EXP SWAP3 0xB9 SMOD MUL CALLF 0x34B3 SWAP5 CALLDATACOPY SGT PUSH30 0xA842A0D6439A1D04AA9B459938534864736F6C634300081E003300000000 "
				},
				"gasEstimates": {
					"creation": {
						"codeDepositCost": "420000",
						"executionCost": "infinite",
						"totalCost": "infinite"
					},
					"external": {
						"getStage(uint256)": "infinite",
						"grapeType()": "infinite",
						"harvestYear()": "infinite",
						"owner()": "2552",
						"quantityKg()": "2425",
						"stages(uint256)": "infinite"
					}
				},
				"methodIdentifiers": {
					"getStage(uint256)": "2e325020",
					"grapeType()": "db3cb581",
					"harvestYear()": "e2b3f6d8",
					"owner()": "8da5cb5b",
					"quantityKg()": "667b6e61",
					"stages(uint256)": "845ddcb2"
				}
			},
			"storageLayout": {
				"storage": [
					{
						"astId": 8,
						"contract": "contracts/WineTrace.sol:WineTracer",
						"label": "grapeType",
						"offset": 0,
						"slot": "0",
						"type": "t_string_storage"
					},
					{
						"astId": 10,
						"contract": "contracts/WineTrace.sol:WineTracer",
						"label": "harvestYear",
						"offset": 0,
						"slot": "1",
						"type": "t_string_storage"
					},
					{
						"astId": 12,
						"contract": "contracts/WineTrace.sol:WineTracer",
						"label": "quantityKg",
						"offset": 0,
						"slot": "2",
						"type": "t_uint256"
					},
					{
						"astId": 14,
						"contract": "contracts/WineTrace.sol:WineTracer",
						"label": "owner",
						"offset": 0,
						"slot": "3",
						"type": "t_address"
					},
					{
						"astId": 18,
						"contract": "contracts/WineTrace.sol:WineTracer",
						"label": "stages",
						"offset": 0,
						"slot": "4",
						"type": "t_array(t_struct(Stage)6_storage)dyn_storage"
					}
				],
				"types": {
					"t_address": {
						"encoding": "inplace",
						"label": "address",
						"numberOfBytes": "20"
					},
					"t_array(t_struct(Stage)6_storage)dyn_storage": {
						"base": "t_struct(Stage)6_storage",
						"encoding": "dynamic_array",
						"label": "struct WineTracer.Stage[]",
						"numberOfBytes": "32"
					},
					"t_string_storage": {
						"encoding": "bytes",
						"label": "string",
						"numberOfBytes": "32"
					},
					"t_struct(Stage)6_storage": {
						"encoding": "inplace",
						"label": "struct WineTracer.Stage",
						"members": [
							{
								"astId": 3,
								"contract": "contracts/WineTrace.sol:WineTracer",
								"label": "description",
								"offset": 0,
								"slot": "0",
								"type": "t_string_storage"
							},
							{
								"astId": 5,
								"contract": "contracts/WineTrace.sol:WineTracer",
								"label": "date",
								"offset": 0,
								"slot": "1",
								"type": "t_string_storage"
							}
						],
						"numberOfBytes": "64"
					},
					"t_uint256": {
						"encoding": "inplace",
						"label": "uint256",
						"numberOfBytes": "32"
					}
				}
			},
			"userdoc": {
				"kind": "user",
				"methods": {},
				"version": 1
			}
		}
	}
}